{
  "_format": "hh-sol-artifact-1",
  "contractName": "ProjectManager",
  "sourceName": "contracts/ProjectManager.sol",
  "abi": [
    {
      "anonymous": false,
      "inputs": [
        {
          "indexed": false,
          "internalType": "string",
          "name": "name",
          "type": "string"
        },
        {
          "indexed": false,
          "internalType": "string",
          "name": "description",
          "type": "string"
        },
        {
          "indexed": false,
          "internalType": "uint256",
          "name": "timestamp",
          "type": "uint256"
        },
        {
          "indexed": false,
          "internalType": "address",
          "name": "creator",
          "type": "address"
        },
        {
          "indexed": false,
          "internalType": "enum ProjectManager.Status",
          "name": "status",
          "type": "uint8"
        },
        {
          "indexed": false,
          "internalType": "uint256",
          "name": "projectFee",
          "type": "uint256"
        }
      ],
      "name": "ProjectCreated",
      "type": "event"
    },
    {
      "anonymous": false,
      "inputs": [
        {
          "indexed": false,
          "internalType": "uint256",
          "name": "projectId",
          "type": "uint256"
        },
        {
          "indexed": false,
          "internalType": "enum ProjectManager.Status",
          "name": "oldStatus",
          "type": "uint8"
        },
        {
          "indexed": false,
          "internalType": "enum ProjectManager.Status",
          "name": "newStatus",
          "type": "uint8"
        }
      ],
      "name": "ProjectStatusUpdated",
      "type": "event"
    },
    {
      "inputs": [
        {
          "internalType": "string",
          "name": "_name",
          "type": "string"
        },
        {
          "internalType": "string",
          "name": "_description",
          "type": "string"
        },
        {
          "internalType": "uint256",
          "name": "_timestamp",
          "type": "uint256"
        },
        {
          "internalType": "uint256",
          "name": "_projectFee",
          "type": "uint256"
        }
      ],
      "name": "createProject",
      "outputs": [],
      "stateMutability": "payable",
      "type": "function"
    },
    {
      "inputs": [
        {
          "internalType": "address",
          "name": "_creator",
          "type": "address"
        }
      ],
      "name": "getProjectsByAddress",
      "outputs": [
        {
          "components": [
            {
              "internalType": "string",
              "name": "name",
              "type": "string"
            },
            {
              "internalType": "string",
              "name": "description",
              "type": "string"
            },
            {
              "internalType": "uint256",
              "name": "timestamp",
              "type": "uint256"
            },
            {
              "internalType": "address",
              "name": "creator",
              "type": "address"
            },
            {
              "internalType": "enum ProjectManager.Status",
              "name": "status",
              "type": "uint8"
            },
            {
              "internalType": "uint256",
              "name": "projectFee",
              "type": "uint256"
            }
          ],
          "internalType": "struct ProjectManager.Project[]",
          "name": "",
          "type": "tuple[]"
        }
      ],
      "stateMutability": "view",
      "type": "function"
    },
    {
      "inputs": [
        {
          "internalType": "enum ProjectManager.Status",
          "name": "_status",
          "type": "uint8"
        }
      ],
      "name": "getProjectsByStatus",
      "outputs": [
        {
          "components": [
            {
              "internalType": "string",
              "name": "name",
              "type": "string"
            },
            {
              "internalType": "string",
              "name": "description",
              "type": "string"
            },
            {
              "internalType": "uint256",
              "name": "timestamp",
              "type": "uint256"
            },
            {
              "internalType": "address",
              "name": "creator",
              "type": "address"
            },
            {
              "internalType": "enum ProjectManager.Status",
              "name": "status",
              "type": "uint8"
            },
            {
              "internalType": "uint256",
              "name": "projectFee",
              "type": "uint256"
            }
          ],
          "internalType": "struct ProjectManager.Project[]",
          "name": "",
          "type": "tuple[]"
        }
      ],
      "stateMutability": "view",
      "type": "function"
    },
    {
      "inputs": [
        {
          "internalType": "uint256",
          "name": "",
          "type": "uint256"
        }
      ],
      "name": "projects",
      "outputs": [
        {
          "internalType": "string",
          "name": "name",
          "type": "string"
        },
        {
          "internalType": "string",
          "name": "description",
          "type": "string"
        },
        {
          "internalType": "uint256",
          "name": "timestamp",
          "type": "uint256"
        },
        {
          "internalType": "address",
          "name": "creator",
          "type": "address"
        },
        {
          "internalType": "enum ProjectManager.Status",
          "name": "status",
          "type": "uint8"
        },
        {
          "internalType": "uint256",
          "name": "projectFee",
          "type": "uint256"
        }
      ],
      "stateMutability": "view",
      "type": "function"
    },
    {
      "inputs": [
        {
          "internalType": "uint256",
          "name": "_projectId",
          "type": "uint256"
        },
        {
          "internalType": "enum ProjectManager.Status",
          "name": "_newStatus",
          "type": "uint8"
        }
      ],
      "name": "updateProjectStatus",
      "outputs": [],
      "stateMutability": "nonpayable",
      "type": "function"
    },
    {
      "inputs": [],
      "name": "verificationFee",
      "outputs": [
        {
          "internalType": "uint256",
          "name": "",
          "type": "uint256"
        }
      ],
      "stateMutability": "view",
      "type": "function"
    }
  ],
  "bytecode": "0x6080604052660110d9316ec00060015534801561001b57600080fd5b50611c678061002b6000396000f3fe6080604052600436106100555760003560e01c8063107046bd1461005a5780631aa22bba1461009c57806394ba9709146100d9578063a8c278a2146100f5578063d11d498b14610120578063d5842c8b14610149575b600080fd5b34801561006657600080fd5b50610081600480360381019061007c9190611464565b610186565b604051610093969594939291906117b6565b60405180910390f35b3480156100a857600080fd5b506100c360048036038101906100be91906113a8565b61030f565b6040516100d09190611794565b60405180910390f35b6100f360048036038101906100ee91906113d1565b61084e565b005b34801561010157600080fd5b5061010a610a79565b6040516101179190611885565b60405180910390f35b34801561012c57600080fd5b506101476004803603810190610142919061148d565b610a7f565b005b34801561015557600080fd5b50610170600480360381019061016b919061137f565b610cd4565b60405161017d9190611794565b60405180910390f35b6000818154811061019657600080fd5b90600052602060002090600502016000915090508060000180546101b990611a97565b80601f01602080910402602001604051908101604052809291908181526020018280546101e590611a97565b80156102325780601f1061020757610100808354040283529160200191610232565b820191906000526020600020905b81548152906001019060200180831161021557829003601f168201915b50505050509080600101805461024790611a97565b80601f016020809104026020016040519081016040528092919081815260200182805461027390611a97565b80156102c05780601f10610295576101008083540402835291602001916102c0565b820191906000526020600020905b8154815290600101906020018083116102a357829003601f168201915b5050505050908060020154908060030160009054906101000a900473ffffffffffffffffffffffffffffffffffffffff16908060030160149054906101000a900460ff16908060040154905086565b60606000805b6000805490508110156104145783600381111561035b577f4e487b7100000000000000000000000000000000000000000000000000000000600052602160045260246000fd5b60008281548110610395577f4e487b7100000000000000000000000000000000000000000000000000000000600052603260045260246000fd5b906000526020600020906005020160030160149054906101000a900460ff1660038111156103ec577f4e487b7100000000000000000000000000000000000000000000000000000000600052602160045260246000fd5b14156104015781806103fd90611ac9565b9250505b808061040c90611ac9565b915050610315565b5060008167ffffffffffffffff811115610457577f4e487b7100000000000000000000000000000000000000000000000000000000600052604160045260246000fd5b60405190808252806020026020018201604052801561049057816020015b61047d6111b1565b8152602001906001900390816104755790505b5090506000805b600080549050811015610842578560038111156104dd577f4e487b7100000000000000000000000000000000000000000000000000000000600052602160045260246000fd5b60008281548110610517577f4e487b7100000000000000000000000000000000000000000000000000000000600052603260045260246000fd5b906000526020600020906005020160030160149054906101000a900460ff16600381111561056e577f4e487b7100000000000000000000000000000000000000000000000000000000600052602160045260246000fd5b141561082f57600081815481106105ae577f4e487b7100000000000000000000000000000000000000000000000000000000600052603260045260246000fd5b90600052602060002090600502016040518060c00160405290816000820180546105d790611a97565b80601f016020809104026020016040519081016040528092919081815260200182805461060390611a97565b80156106505780601f1061062557610100808354040283529160200191610650565b820191906000526020600020905b81548152906001019060200180831161063357829003601f168201915b5050505050815260200160018201805461066990611a97565b80601f016020809104026020016040519081016040528092919081815260200182805461069590611a97565b80156106e25780601f106106b7576101008083540402835291602001916106e2565b820191906000526020600020905b8154815290600101906020018083116106c557829003601f168201915b50505050508152602001600282015481526020016003820160009054906101000a900473ffffffffffffffffffffffffffffffffffffffff1673ffffffffffffffffffffffffffffffffffffffff1673ffffffffffffffffffffffffffffffffffffffff1681526020016003820160149054906101000a900460ff166003811115610796577f4e487b7100000000000000000000000000000000000000000000000000000000600052602160045260246000fd5b60038111156107ce577f4e487b7100000000000000000000000000000000000000000000000000000000600052602160045260246000fd5b8152602001600482015481525050838381518110610815577f4e487b7100000000000000000000000000000000000000000000000000000000600052603260045260246000fd5b6020026020010181905250818061082b90611ac9565b9250505b808061083a90611ac9565b915050610497565b50819350505050919050565b6001548161085c919061199e565b341461089d576040517f08c379a000000000000000000000000000000000000000000000000000000000815260040161089490611825565b60405180910390fd5b60006040518060c001604052808681526020018581526020018481526020013373ffffffffffffffffffffffffffffffffffffffff16815260200160006003811115610912577f4e487b7100000000000000000000000000000000000000000000000000000000600052602160045260246000fd5b81526020018381525090806001815401808255809150506001900390600052602060002090600502016000909190919091506000820151816000019080519060200190610960929190611235565b50602082015181600101908051906020019061097d929190611235565b506040820151816002015560608201518160030160006101000a81548173ffffffffffffffffffffffffffffffffffffffff021916908373ffffffffffffffffffffffffffffffffffffffff16021790555060808201518160030160146101000a81548160ff02191690836003811115610a20577f4e487b7100000000000000000000000000000000000000000000000000000000600052602160045260246000fd5b021790555060a0820151816004015550507f3045dccdb7b6a541523eae194ec893ba9fc0346f94976cc89aea4a80627d295784848433600086604051610a6b969594939291906117b6565b60405180910390a150505050565b60015481565b6000805490508210610ac6576040517f08c379a0000000000000000000000000000000000000000000000000000000008152600401610abd90611865565b60405180910390fd5b3373ffffffffffffffffffffffffffffffffffffffff1660008381548110610b17577f4e487b7100000000000000000000000000000000000000000000000000000000600052603260045260246000fd5b906000526020600020906005020160030160009054906101000a900473ffffffffffffffffffffffffffffffffffffffff1673ffffffffffffffffffffffffffffffffffffffff1614610b9f576040517f08c379a0000000000000000000000000000000000000000000000000000000008152600401610b9690611845565b60405180910390fd5b6000808381548110610bda577f4e487b7100000000000000000000000000000000000000000000000000000000600052603260045260246000fd5b906000526020600020906005020160030160149054906101000a900460ff1690508160008481548110610c36577f4e487b7100000000000000000000000000000000000000000000000000000000600052603260045260246000fd5b906000526020600020906005020160030160146101000a81548160ff02191690836003811115610c8f577f4e487b7100000000000000000000000000000000000000000000000000000000600052602160045260246000fd5b02179055507f15a4a29eccf92a0bbf94f24a6840487aa0226f7fb02d3402f1f86b3360bdfc6a838284604051610cc7939291906118a0565b60405180910390a1505050565b60606000805b600080549050811015610da8578373ffffffffffffffffffffffffffffffffffffffff1660008281548110610d38577f4e487b7100000000000000000000000000000000000000000000000000000000600052603260045260246000fd5b906000526020600020906005020160030160009054906101000a900473ffffffffffffffffffffffffffffffffffffffff1673ffffffffffffffffffffffffffffffffffffffff161415610d95578180610d9190611ac9565b9250505b8080610da090611ac9565b915050610cda565b5060008167ffffffffffffffff811115610deb577f4e487b7100000000000000000000000000000000000000000000000000000000600052604160045260246000fd5b604051908082528060200260200182016040528015610e2457816020015b610e116111b1565b815260200190600190039081610e095790505b5090506000805b6000805490508110156111a5578573ffffffffffffffffffffffffffffffffffffffff1660008281548110610e89577f4e487b7100000000000000000000000000000000000000000000000000000000600052603260045260246000fd5b906000526020600020906005020160030160009054906101000a900473ffffffffffffffffffffffffffffffffffffffff1673ffffffffffffffffffffffffffffffffffffffff1614156111925760008181548110610f11577f4e487b7100000000000000000000000000000000000000000000000000000000600052603260045260246000fd5b90600052602060002090600502016040518060c0016040529081600082018054610f3a90611a97565b80601f0160208091040260200160405190810160405280929190818152602001828054610f6690611a97565b8015610fb35780601f10610f8857610100808354040283529160200191610fb3565b820191906000526020600020905b815481529060010190602001808311610f9657829003601f168201915b50505050508152602001600182018054610fcc90611a97565b80601f0160208091040260200160405190810160405280929190818152602001828054610ff890611a97565b80156110455780601f1061101a57610100808354040283529160200191611045565b820191906000526020600020905b81548152906001019060200180831161102857829003601f168201915b50505050508152602001600282015481526020016003820160009054906101000a900473ffffffffffffffffffffffffffffffffffffffff1673ffffffffffffffffffffffffffffffffffffffff1673ffffffffffffffffffffffffffffffffffffffff1681526020016003820160149054906101000a900460ff1660038111156110f9577f4e487b7100000000000000000000000000000000000000000000000000000000600052602160045260246000fd5b6003811115611131577f4e487b7100000000000000000000000000000000000000000000000000000000600052602160045260246000fd5b8152602001600482015481525050838381518110611178577f4e487b7100000000000000000000000000000000000000000000000000000000600052603260045260246000fd5b6020026020010181905250818061118e90611ac9565b9250505b808061119d90611ac9565b915050610e2b565b50819350505050919050565b6040518060c00160405280606081526020016060815260200160008152602001600073ffffffffffffffffffffffffffffffffffffffff16815260200160006003811115611228577f4e487b7100000000000000000000000000000000000000000000000000000000600052602160045260246000fd5b8152602001600081525090565b82805461124190611a97565b90600052602060002090601f01602090048101928261126357600085556112aa565b82601f1061127c57805160ff19168380011785556112aa565b828001600101855582156112aa579182015b828111156112a957825182559160200191906001019061128e565b5b5090506112b791906112bb565b5090565b5b808211156112d45760008160009055506001016112bc565b5090565b60006112eb6112e684611908565b6118d7565b90508281526020810184848401111561130357600080fd5b61130e848285611a55565b509392505050565b60008135905061132581611bf3565b92915050565b60008135905061133a81611c0a565b92915050565b600082601f83011261135157600080fd5b81356113618482602086016112d8565b91505092915050565b60008135905061137981611c1a565b92915050565b60006020828403121561139157600080fd5b600061139f84828501611316565b91505092915050565b6000602082840312156113ba57600080fd5b60006113c88482850161132b565b91505092915050565b600080600080608085870312156113e757600080fd5b600085013567ffffffffffffffff81111561140157600080fd5b61140d87828801611340565b945050602085013567ffffffffffffffff81111561142a57600080fd5b61143687828801611340565b93505060406114478782880161136a565b92505060606114588782880161136a565b91505092959194509250565b60006020828403121561147657600080fd5b60006114848482850161136a565b91505092915050565b600080604083850312156114a057600080fd5b60006114ae8582860161136a565b92505060206114bf8582860161132b565b9150509250929050565b60006114d583836116e6565b905092915050565b6114e6816119f4565b82525050565b6114f5816119f4565b82525050565b600061150682611948565b611510818561196b565b93508360208202850161152285611938565b8060005b8581101561155e578484038952815161153f85826114c9565b945061154a8361195e565b925060208a01995050600181019050611526565b50829750879550505050505092915050565b61157981611a43565b82525050565b61158881611a43565b82525050565b600061159982611953565b6115a3818561197c565b93506115b3818560208601611a64565b6115bc81611bce565b840191505092915050565b60006115d282611953565b6115dc818561198d565b93506115ec818560208601611a64565b6115f581611bce565b840191505092915050565b600061160d60128361198d565b91507f496e636f7272656374204554482073656e7400000000000000000000000000006000830152602082019050919050565b600061164d60268361198d565b91507f4f6e6c79207468652063726561746f722063616e20757064617465207468652060008301527f73746174757300000000000000000000000000000000000000000000000000006020830152604082019050919050565b60006116b360128361198d565b91507f496e76616c69642070726f6a65637420494400000000000000000000000000006000830152602082019050919050565b600060c0830160008301518482036000860152611703828261158e565b9150506020830151848203602086015261171d828261158e565b91505060408301516117326040860182611776565b50606083015161174560608601826114dd565b5060808301516117586080860182611570565b5060a083015161176b60a0860182611776565b508091505092915050565b61177f81611a39565b82525050565b61178e81611a39565b82525050565b600060208201905081810360008301526117ae81846114fb565b905092915050565b600060c08201905081810360008301526117d081896115c7565b905081810360208301526117e481886115c7565b90506117f36040830187611785565b61180060608301866114ec565b61180d608083018561157f565b61181a60a0830184611785565b979650505050505050565b6000602082019050818103600083015261183e81611600565b9050919050565b6000602082019050818103600083015261185e81611640565b9050919050565b6000602082019050818103600083015261187e816116a6565b9050919050565b600060208201905061189a6000830184611785565b92915050565b60006060820190506118b56000830186611785565b6118c2602083018561157f565b6118cf604083018461157f565b949350505050565b6000604051905081810181811067ffffffffffffffff821117156118fe576118fd611b9f565b5b8060405250919050565b600067ffffffffffffffff82111561192357611922611b9f565b5b601f19601f8301169050602081019050919050565b6000819050602082019050919050565b600081519050919050565b600081519050919050565b6000602082019050919050565b600082825260208201905092915050565b600082825260208201905092915050565b600082825260208201905092915050565b60006119a982611a39565b91506119b483611a39565b9250827fffffffffffffffffffffffffffffffffffffffffffffffffffffffffffffffff038211156119e9576119e8611b12565b5b828201905092915050565b60006119ff82611a19565b9050919050565b6000819050611a1482611bdf565b919050565b600073ffffffffffffffffffffffffffffffffffffffff82169050919050565b6000819050919050565b6000611a4e82611a06565b9050919050565b82818337600083830152505050565b60005b83811015611a82578082015181840152602081019050611a67565b83811115611a91576000848401525b50505050565b60006002820490506001821680611aaf57607f821691505b60208210811415611ac357611ac2611b70565b5b50919050565b6000611ad482611a39565b91507fffffffffffffffffffffffffffffffffffffffffffffffffffffffffffffffff821415611b0757611b06611b12565b5b600182019050919050565b7f4e487b7100000000000000000000000000000000000000000000000000000000600052601160045260246000fd5b7f4e487b7100000000000000000000000000000000000000000000000000000000600052602160045260246000fd5b7f4e487b7100000000000000000000000000000000000000000000000000000000600052602260045260246000fd5b7f4e487b7100000000000000000000000000000000000000000000000000000000600052604160045260246000fd5b6000601f19601f8301169050919050565b60048110611bf057611bef611b41565b5b50565b611bfc816119f4565b8114611c0757600080fd5b50565b60048110611c1757600080fd5b50565b611c2381611a39565b8114611c2e57600080fd5b5056fea264697066735822122078b5f67746410f9e4b5dd4af4cdeac94d7082338ce897bf5ada9dfe92cc2b1ca64736f6c63430008000033",
  "linkReferences": {},
  "deployedLinkReferences": {}
}