{
  "_format": "hh-sol-artifact-1",
  "contractName": "ProjectManager",
  "sourceName": "contracts/ProjectManager.sol",
  "abi": [
    {
      "anonymous": false,
      "inputs": [
        {
          "indexed": false,
          "internalType": "uint256",
          "name": "projectId",
          "type": "uint256"
        },
        {
          "indexed": false,
          "internalType": "address",
          "name": "freelancer",
          "type": "address"
        }
      ],
      "name": "FreelancerAccepted",
      "type": "event"
    },
    {
      "anonymous": false,
      "inputs": [
        {
          "indexed": false,
          "internalType": "uint256",
          "name": "projectId",
          "type": "uint256"
        },
        {
          "indexed": false,
          "internalType": "string",
          "name": "name",
          "type": "string"
        },
        {
          "indexed": false,
          "internalType": "string",
          "name": "description",
          "type": "string"
        },
        {
          "indexed": false,
          "internalType": "uint256",
          "name": "timestamp",
          "type": "uint256"
        },
        {
          "indexed": false,
          "internalType": "address",
          "name": "creator",
          "type": "address"
        },
        {
          "indexed": false,
          "internalType": "enum ProjectManager.Status",
          "name": "status",
          "type": "uint8"
        },
        {
          "indexed": false,
          "internalType": "uint64",
          "name": "projectFee",
          "type": "uint64"
        }
      ],
      "name": "ProjectCreated",
      "type": "event"
    },
    {
      "anonymous": false,
      "inputs": [
        {
          "indexed": false,
          "internalType": "uint256",
          "name": "projectId",
          "type": "uint256"
        },
        {
          "indexed": false,
          "internalType": "address",
          "name": "creator",
          "type": "address"
        }
      ],
      "name": "ProjectRemoved",
      "type": "event"
    },
    {
      "anonymous": false,
      "inputs": [
        {
          "indexed": false,
          "internalType": "uint256",
          "name": "projectId",
          "type": "uint256"
        },
        {
          "indexed": false,
          "internalType": "enum ProjectManager.Status",
          "name": "oldStatus",
          "type": "uint8"
        },
        {
          "indexed": false,
          "internalType": "enum ProjectManager.Status",
          "name": "newStatus",
          "type": "uint8"
        }
      ],
      "name": "ProjectStatusUpdated",
      "type": "event"
    },
    {
      "anonymous": false,
      "inputs": [
        {
          "indexed": false,
          "internalType": "uint256",
          "name": "projectId",
          "type": "uint256"
        },
        {
          "indexed": false,
          "internalType": "address",
          "name": "verifier",
          "type": "address"
        },
        {
          "indexed": false,
          "internalType": "bool",
          "name": "vote",
          "type": "bool"
        }
      ],
      "name": "VerifierVoted",
      "type": "event"
    },
    {
      "inputs": [],
      "name": "REQUIRED_VERIFIERS",
      "outputs": [
        {
          "internalType": "uint64",
          "name": "",
          "type": "uint64"
        }
      ],
      "stateMutability": "view",
      "type": "function"
    },
    {
      "inputs": [
        {
          "internalType": "uint256",
          "name": "_projectId",
          "type": "uint256"
        }
      ],
      "name": "acceptProject",
      "outputs": [],
      "stateMutability": "payable",
      "type": "function"
    },
    {
      "inputs": [
        {
          "internalType": "uint256",
          "name": "_projectId",
          "type": "uint256"
        }
      ],
      "name": "approveProjectCompletion",
      "outputs": [],
      "stateMutability": "nonpayable",
      "type": "function"
    },
    {
      "inputs": [
        {
          "internalType": "string",
          "name": "_name",
          "type": "string"
        },
        {
          "internalType": "string",
          "name": "_description",
          "type": "string"
        },
        {
          "internalType": "uint256",
          "name": "_timestamp",
          "type": "uint256"
        },
        {
          "internalType": "uint64",
          "name": "_projectFee",
          "type": "uint64"
        }
      ],
      "name": "createProject",
      "outputs": [],
      "stateMutability": "payable",
      "type": "function"
    },
    {
      "inputs": [
        {
          "internalType": "uint256",
          "name": "_projectId",
          "type": "uint256"
        }
      ],
      "name": "disputeProjectCompletion",
      "outputs": [],
      "stateMutability": "nonpayable",
      "type": "function"
    },
    {
      "inputs": [
        {
          "internalType": "uint256",
          "name": "",
          "type": "uint256"
        },
        {
          "internalType": "address",
          "name": "",
          "type": "address"
        }
      ],
      "name": "freelancerAcceptedProjects",
      "outputs": [
        {
          "internalType": "bool",
          "name": "",
          "type": "bool"
        }
      ],
      "stateMutability": "view",
      "type": "function"
    },
    {
      "inputs": [
        {
          "internalType": "address",
          "name": "_creator",
          "type": "address"
        }
      ],
      "name": "getProjectsByAddress",
      "outputs": [
        {
          "components": [
            {
              "internalType": "uint256",
              "name": "id",
              "type": "uint256"
            },
            {
              "internalType": "string",
              "name": "name",
              "type": "string"
            },
            {
              "internalType": "string",
              "name": "description",
              "type": "string"
            },
            {
              "internalType": "uint256",
              "name": "timestamp",
              "type": "uint256"
            },
            {
              "internalType": "address",
              "name": "creator",
              "type": "address"
            },
            {
              "internalType": "address[]",
              "name": "potentialFreelancers",
              "type": "address[]"
            },
            {
              "internalType": "address",
              "name": "selectedFreelancer",
              "type": "address"
            },
            {
              "internalType": "enum ProjectManager.Status",
              "name": "status",
              "type": "uint8"
            },
            {
              "internalType": "uint64",
              "name": "projectFee",
              "type": "uint64"
            },
            {
              "internalType": "uint64",
              "name": "acceptVotes",
              "type": "uint64"
            },
            {
              "internalType": "uint64",
              "name": "rejectVotes",
              "type": "uint64"
            },
            {
              "internalType": "string",
              "name": "proofLink",
              "type": "string"
            },
            {
              "internalType": "enum ProjectManager.Status2",
              "name": "status2",
              "type": "uint8"
            }
          ],
          "internalType": "struct ProjectManager.Project[]",
          "name": "",
          "type": "tuple[]"
        }
      ],
      "stateMutability": "view",
      "type": "function"
    },
    {
      "inputs": [
        {
          "internalType": "enum ProjectManager.Status",
          "name": "_status",
          "type": "uint8"
        }
      ],
      "name": "getProjectsByStatus",
      "outputs": [
        {
          "components": [
            {
              "internalType": "uint256",
              "name": "id",
              "type": "uint256"
            },
            {
              "internalType": "string",
              "name": "name",
              "type": "string"
            },
            {
              "internalType": "string",
              "name": "description",
              "type": "string"
            },
            {
              "internalType": "uint256",
              "name": "timestamp",
              "type": "uint256"
            },
            {
              "internalType": "address",
              "name": "creator",
              "type": "address"
            },
            {
              "internalType": "address[]",
              "name": "potentialFreelancers",
              "type": "address[]"
            },
            {
              "internalType": "address",
              "name": "selectedFreelancer",
              "type": "address"
            },
            {
              "internalType": "enum ProjectManager.Status",
              "name": "status",
              "type": "uint8"
            },
            {
              "internalType": "uint64",
              "name": "projectFee",
              "type": "uint64"
            },
            {
              "internalType": "uint64",
              "name": "acceptVotes",
              "type": "uint64"
            },
            {
              "internalType": "uint64",
              "name": "rejectVotes",
              "type": "uint64"
            },
            {
              "internalType": "string",
              "name": "proofLink",
              "type": "string"
            },
            {
              "internalType": "enum ProjectManager.Status2",
              "name": "status2",
              "type": "uint8"
            }
          ],
          "internalType": "struct ProjectManager.Project[]",
          "name": "",
          "type": "tuple[]"
        }
      ],
      "stateMutability": "view",
      "type": "function"
    },
    {
      "inputs": [
        {
          "internalType": "address",
          "name": "_freelancer",
          "type": "address"
        }
      ],
      "name": "getProjectsForFreelancer",
      "outputs": [
        {
          "components": [
            {
              "internalType": "uint256",
              "name": "id",
              "type": "uint256"
            },
            {
              "internalType": "string",
              "name": "name",
              "type": "string"
            },
            {
              "internalType": "string",
              "name": "description",
              "type": "string"
            },
            {
              "internalType": "uint256",
              "name": "timestamp",
              "type": "uint256"
            },
            {
              "internalType": "address",
              "name": "creator",
              "type": "address"
            },
            {
              "internalType": "address[]",
              "name": "potentialFreelancers",
              "type": "address[]"
            },
            {
              "internalType": "address",
              "name": "selectedFreelancer",
              "type": "address"
            },
            {
              "internalType": "enum ProjectManager.Status",
              "name": "status",
              "type": "uint8"
            },
            {
              "internalType": "uint64",
              "name": "projectFee",
              "type": "uint64"
            },
            {
              "internalType": "uint64",
              "name": "acceptVotes",
              "type": "uint64"
            },
            {
              "internalType": "uint64",
              "name": "rejectVotes",
              "type": "uint64"
            },
            {
              "internalType": "string",
              "name": "proofLink",
              "type": "string"
            },
            {
              "internalType": "enum ProjectManager.Status2",
              "name": "status2",
              "type": "uint8"
            }
          ],
          "internalType": "struct ProjectManager.Project[]",
          "name": "",
          "type": "tuple[]"
        }
      ],
      "stateMutability": "view",
      "type": "function"
    },
    {
      "inputs": [
        {
          "internalType": "uint256",
          "name": "",
          "type": "uint256"
        },
        {
          "internalType": "address",
          "name": "",
          "type": "address"
        }
      ],
      "name": "hasVerified",
      "outputs": [
        {
          "internalType": "bool",
          "name": "",
          "type": "bool"
        }
      ],
      "stateMutability": "view",
      "type": "function"
    },
    {
      "inputs": [
        {
          "internalType": "uint256",
          "name": "_projectId",
          "type": "uint256"
        },
        {
          "internalType": "string",
          "name": "_proofLink",
          "type": "string"
        }
      ],
      "name": "markProjectAsCompleted",
      "outputs": [],
      "stateMutability": "nonpayable",
      "type": "function"
    },
    {
      "inputs": [
        {
          "internalType": "uint256",
          "name": "",
          "type": "uint256"
        },
        {
          "internalType": "uint256",
          "name": "",
          "type": "uint256"
        }
      ],
      "name": "projectVerifiers",
      "outputs": [
        {
          "internalType": "address",
          "name": "",
          "type": "address"
        }
      ],
      "stateMutability": "view",
      "type": "function"
    },
    {
      "inputs": [
        {
          "internalType": "uint256",
          "name": "",
          "type": "uint256"
        }
      ],
      "name": "projects",
      "outputs": [
        {
          "internalType": "uint256",
          "name": "id",
          "type": "uint256"
        },
        {
          "internalType": "string",
          "name": "name",
          "type": "string"
        },
        {
          "internalType": "string",
          "name": "description",
          "type": "string"
        },
        {
          "internalType": "uint256",
          "name": "timestamp",
          "type": "uint256"
        },
        {
          "internalType": "address",
          "name": "creator",
          "type": "address"
        },
        {
          "internalType": "address",
          "name": "selectedFreelancer",
          "type": "address"
        },
        {
          "internalType": "enum ProjectManager.Status",
          "name": "status",
          "type": "uint8"
        },
        {
          "internalType": "uint64",
          "name": "projectFee",
          "type": "uint64"
        },
        {
          "internalType": "uint64",
          "name": "acceptVotes",
          "type": "uint64"
        },
        {
          "internalType": "uint64",
          "name": "rejectVotes",
          "type": "uint64"
        },
        {
          "internalType": "string",
          "name": "proofLink",
          "type": "string"
        },
        {
          "internalType": "enum ProjectManager.Status2",
          "name": "status2",
          "type": "uint8"
        }
      ],
      "stateMutability": "view",
      "type": "function"
    },
    {
      "inputs": [
        {
          "internalType": "uint256",
          "name": "_projectId",
          "type": "uint256"
        }
      ],
      "name": "rejectProjectCompletion",
      "outputs": [],
      "stateMutability": "nonpayable",
      "type": "function"
    },
    {
      "inputs": [
        {
          "internalType": "uint256",
          "name": "_projectId",
          "type": "uint256"
        }
      ],
      "name": "removeProject",
      "outputs": [],
      "stateMutability": "nonpayable",
      "type": "function"
    },
    {
      "inputs": [
        {
          "internalType": "uint256",
          "name": "_projectId",
          "type": "uint256"
        },
        {
          "internalType": "address",
          "name": "_freelancer",
          "type": "address"
        }
      ],
      "name": "selectFreelancer",
      "outputs": [],
      "stateMutability": "nonpayable",
      "type": "function"
    },
    {
      "inputs": [],
      "name": "verificationFee",
      "outputs": [
        {
          "internalType": "uint256",
          "name": "",
          "type": "uint256"
        }
      ],
      "stateMutability": "view",
      "type": "function"
    },
    {
      "inputs": [
        {
          "internalType": "uint256",
          "name": "",
          "type": "uint256"
        },
        {
          "internalType": "address",
          "name": "",
          "type": "address"
        }
      ],
      "name": "verifierVotes",
      "outputs": [
        {
          "internalType": "bool",
          "name": "",
          "type": "bool"
        }
      ],
      "stateMutability": "view",
      "type": "function"
    },
    {
      "inputs": [
        {
          "internalType": "uint256",
          "name": "_projectId",
          "type": "uint256"
        },
        {
          "internalType": "bool",
          "name": "_accept",
          "type": "bool"
        }
      ],
      "name": "verifyProjectCompletion",
      "outputs": [],
      "stateMutability": "payable",
      "type": "function"
    }
  ],
  "bytecode": "0x6080604052660110d9316ec00060015534801561001b57600080fd5b506140958061002b6000396000f3fe6080604052600436106101145760003560e01c80638d34129f116100a0578063cc9eb47011610064578063cc9eb47014610300578063d5842c8b14610320578063dbff65e814610340578063f57ad8cc1461036d578063fd1d5ea91461038d57610114565b80638d34129f14610276578063919b725a14610289578063981820c8146102a9578063a74c341f146102bc578063a8c278a2146102de57610114565b8063380deabc116100e7578063380deabc146101c95780633bd09de0146101e95780633beddfd91461020957806356563e4a146102365780635873f9981461025657610114565b80630be15f4514610119578063107046bd1461013b57806312a4e33f1461017c5780631aa22bba1461019c575b600080fd5b34801561012557600080fd5b5061013961013436600461338b565b6103a0565b005b34801561014757600080fd5b5061015b610156366004613315565b6104f5565b6040516101739c9b9a99989796959493929190613df5565b60405180910390f35b34801561018857600080fd5b50610139610197366004613315565b610725565b3480156101a857600080fd5b506101bc6101b7366004613275565b61096a565b60405161017391906134d3565b3480156101d557600080fd5b506101396101e436600461332d565b610ef2565b3480156101f557600080fd5b50610139610204366004613315565b611126565b34801561021557600080fd5b5061022961022436600461332d565b611251565b6040516101739190613635565b34801561024257600080fd5b5061022961025136600461332d565b611271565b34801561026257600080fd5b50610139610271366004613315565b611291565b610139610284366004613358565b61183d565b34801561029557600080fd5b506101bc6102a4366004613254565b611bae565b6101396102b7366004613294565b6120bc565b3480156102c857600080fd5b506102d161242d565b6040516101739190613f1d565b3480156102ea57600080fd5b506102f3612432565b6040516101739190613d8b565b34801561030c57600080fd5b5061022961031b36600461332d565b612438565b34801561032c57600080fd5b506101bc61033b366004613254565b612458565b34801561034c57600080fd5b5061036061035b3660046133cf565b612966565b60405161017391906134bf565b34801561037957600080fd5b50610139610388366004613315565b61299e565b61013961039b366004613315565b612b69565b60005482106103ca5760405162461bcd60e51b81526004016103c190613ced565b60405180910390fd5b60008083815481106103ec57634e487b7160e01b600052603260045260246000fd5b60009182526020909120600a9091020160068101549091506001600160a01b0316331461042b5760405162461bcd60e51b81526004016103c190613a68565b60016006820154600160a01b900460ff16600481111561045b57634e487b7160e01b600052602160045260246000fd5b146104785760405162461bcd60e51b81526004016103c190613d54565b60008251116104995760405162461bcd60e51b81526004016103c190613cb6565b81516104ae9060088301906020850190612f20565b5060068101805460ff60a01b1916600160a11b179055604051600080516020614040833981519152906104e8908590600190600290613dcc565b60405180910390a1505050565b6000818154811061050557600080fd5b60009182526020909120600a9091020180546001820180549193509061052a90613f80565b80601f016020809104026020016040519081016040528092919081815260200182805461055690613f80565b80156105a35780601f10610578576101008083540402835291602001916105a3565b820191906000526020600020905b81548152906001019060200180831161058657829003601f168201915b5050505050908060020180546105b890613f80565b80601f01602080910402602001604051908101604052809291908181526020018280546105e490613f80565b80156106315780601f1061060657610100808354040283529160200191610631565b820191906000526020600020905b81548152906001019060200180831161061457829003601f168201915b505050506003830154600484015460068501546007860154600887018054969794966001600160a01b0394851696509383169460ff600160a01b850416946001600160401b03600160a81b90950485169480851694600160401b900416929061069990613f80565b80601f01602080910402602001604051908101604052809291908181526020018280546106c590613f80565b80156107125780601f106106e757610100808354040283529160200191610712565b820191906000526020600020905b8154815290600101906020018083116106f557829003601f168201915b5050506009909301549192505060ff168c565b60005481106107465760405162461bcd60e51b81526004016103c190613ced565b600080828154811061076857634e487b7160e01b600052603260045260246000fd5b60009182526020909120600a9091020160048101549091506001600160a01b031633146107a75760405162461bcd60e51b81526004016103c190613724565b60026006820154600160a01b900460ff1660048111156107d757634e487b7160e01b600052602160045260246000fd5b146107f45760405162461bcd60e51b81526004016103c1906137ef565b60068101805460ff60a01b1916600160a21b179081905560098201805460ff19166001908117909155546000916001600160a01b0381169161084591600160a81b90046001600160401b0316613f31565b604051610851906134bc565b60006040518083038185875af1925050503d806000811461088e576040519150601f19603f3d011682016040523d82523d6000602084013e610893565b606091505b50509050806108b45760405162461bcd60e51b81526004016103c1906138e5565b60048201546001546040516000926001600160a01b031691906108d6906134bc565b60006040518083038185875af1925050503d8060008114610913576040519150601f19603f3d011682016040523d82523d6000602084013e610918565b606091505b50509050806109395760405162461bcd60e51b81526004016103c190613640565b600080516020614040833981519152846002600460405161095c93929190613dcc565b60405180910390a150505050565b60606000805b600054811015610a1f5783600481111561099a57634e487b7160e01b600052602160045260246000fd5b600082815481106109bb57634e487b7160e01b600052603260045260246000fd5b90600052602060002090600a020160060160149054906101000a900460ff1660048111156109f957634e487b7160e01b600052602160045260246000fd5b1415610a0d5781610a0981613fbb565b9250505b80610a1781613fbb565b915050610970565b506000816001600160401b03811115610a4857634e487b7160e01b600052604160045260246000fd5b604051908082528060200260200182016040528015610a8157816020015b610a6e612fa4565b815260200190600190039081610a665790505b5090506000805b600054811015610ee657856004811115610ab257634e487b7160e01b600052602160045260246000fd5b60008281548110610ad357634e487b7160e01b600052603260045260246000fd5b90600052602060002090600a020160060160149054906101000a900460ff166004811115610b1157634e487b7160e01b600052602160045260246000fd5b1415610ed45760008181548110610b3857634e487b7160e01b600052603260045260246000fd5b90600052602060002090600a0201604051806101a001604052908160008201548152602001600182018054610b6c90613f80565b80601f0160208091040260200160405190810160405280929190818152602001828054610b9890613f80565b8015610be55780601f10610bba57610100808354040283529160200191610be5565b820191906000526020600020905b815481529060010190602001808311610bc857829003601f168201915b50505050508152602001600282018054610bfe90613f80565b80601f0160208091040260200160405190810160405280929190818152602001828054610c2a90613f80565b8015610c775780601f10610c4c57610100808354040283529160200191610c77565b820191906000526020600020905b815481529060010190602001808311610c5a57829003601f168201915b50505050508152602001600382015481526020016004820160009054906101000a90046001600160a01b03166001600160a01b03166001600160a01b0316815260200160058201805480602002602001604051908101604052809291908181526020018280548015610d1257602002820191906000526020600020905b81546001600160a01b03168152600190910190602001808311610cf4575b505050918352505060068201546001600160a01b0381166020830152604090910190600160a01b900460ff166004811115610d5d57634e487b7160e01b600052602160045260246000fd5b6004811115610d7c57634e487b7160e01b600052602160045260246000fd5b815260068201546001600160401b03600160a81b9091048116602083015260078301548082166040840152600160401b9004166060820152600882018054608090920191610dc990613f80565b80601f0160208091040260200160405190810160405280929190818152602001828054610df590613f80565b8015610e425780601f10610e1757610100808354040283529160200191610e42565b820191906000526020600020905b815481529060010190602001808311610e2557829003601f168201915b5050509183525050600982015460209091019060ff166002811115610e7757634e487b7160e01b600052602160045260246000fd5b6002811115610e9657634e487b7160e01b600052602160045260246000fd5b81525050838381518110610eba57634e487b7160e01b600052603260045260246000fd5b60200260200101819052508180610ed090613fbb565b9250505b80610ede81613fbb565b915050610a88565b5090925050505b919050565b6000808381548110610f1457634e487b7160e01b600052603260045260246000fd5b60009182526020909120600a9091020160048101549091506001600160a01b03163314610f535760405162461bcd60e51b81526004016103c190613b3c565b60006006820154600160a01b900460ff166004811115610f8357634e487b7160e01b600052602160045260246000fd5b14610fa05760405162461bcd60e51b81526004016103c1906136f7565b60008381526005602090815260408083206001600160a01b038616845290915290205460ff16610fe25760405162461bcd60e51b81526004016103c190613a20565b6006810180546001600160a01b0319166001600160a01b0384161760ff60a01b1916600160a01b17905561101a60058201600061303c565b60005b600582015481101561110257600082600501828154811061104e57634e487b7160e01b600052603260045260246000fd5b6000918252602090912001546001600160a01b039081169150841681146110ef576000816001600160a01b031660015460405161108a906134bc565b60006040518083038185875af1925050503d80600081146110c7576040519150601f19603f3d011682016040523d82523d6000602084013e6110cc565b606091505b50509050806110ed5760405162461bcd60e51b81526004016103c1906139ac565b505b50806110fa81613fbb565b91505061101d565b5060008051602061404083398151915283600060016040516104e893929190613dcc565b60005481106111475760405162461bcd60e51b81526004016103c190613ced565b600080828154811061116957634e487b7160e01b600052603260045260246000fd5b60009182526020909120600a9091020160048101549091506001600160a01b031633148015906111a6575060068101546001600160a01b03163314155b6111c25760405162461bcd60e51b81526004016103c19061379f565b60036006820154600160a01b900460ff1660048111156111f257634e487b7160e01b600052602160045260246000fd5b1461120f5760405162461bcd60e51b81526004016103c1906138ae565b6006810180546001600160a81b031916905560405160008051602061404083398151915290611245908490600390600090613dcc565b60405180910390a15050565b600460209081526000928352604080842090915290825290205460ff1681565b600360209081526000928352604080842090915290825290205460ff1681565b60005481106112b25760405162461bcd60e51b81526004016103c190613ced565b60008082815481106112d457634e487b7160e01b600052603260045260246000fd5b60009182526020909120600a9091020160048101549091506001600160a01b031633146113135760405162461bcd60e51b81526004016103c190613b88565b60006006820154600160a01b900460ff16600481111561134357634e487b7160e01b600052602160045260246000fd5b146113605760405162461bcd60e51b81526004016103c190613c0e565b600154600682015460009161138491600160a81b90046001600160401b0316613f31565b905060005b60058301548110156114575760008360050182815481106113ba57634e487b7160e01b600052603260045260246000fd5b6000918252602090912001546001546040516001600160a01b03909216916113e1906134bc565b60006040518083038185875af1925050503d806000811461141e576040519150601f19603f3d011682016040523d82523d6000602084013e611423565b606091505b50509050806114445760405162461bcd60e51b81526004016103c190613bd7565b508061144f81613fbb565b915050611389565b5060005461146790600190613f69565b83146116da576000805461147d90600190613f69565b8154811061149b57634e487b7160e01b600052603260045260246000fd5b90600052602060002090600a0201600084815481106114ca57634e487b7160e01b600052603260045260246000fd5b90600052602060002090600a02016000820154816000015560018201816001019080546114f690613f80565b61150192919061305d565b50600282018160020190805461151690613f80565b61152192919061305d565b506003828101549082015560048083015490820180546001600160a01b0319166001600160a01b039092169190911790556005808301805461156692840191906130d8565b506006828101805491830180546001600160a01b0319166001600160a01b0390931692909217808355905460ff600160a01b9182900416929160ff60a01b1916908360048111156115c757634e487b7160e01b600052602160045260246000fd5b0217905550600682810154908201805467ffffffffffffffff60a81b1916600160a81b928390046001600160401b0390811690930217905560078084018054918401805492841667ffffffffffffffff1990931692909217808355905467ffffffffffffffff60401b19909116600160401b9182900490931602919091179055600880830180549183019161165b90613f80565b61166692919061305d565b50600982810154908201805460ff9092169160ff1916600183600281111561169e57634e487b7160e01b600052602160045260246000fd5b021790555090505082600084815481106116c857634e487b7160e01b600052603260045260246000fd5b60009182526020909120600a90910201555b60008054806116f957634e487b7160e01b600052603160045260246000fd5b600082815260208120600a600019909301928302018181559061171f6001830182613117565b61172d600283016000613117565b6000600383018190556004830180546001600160a01b031916905561175690600584019061303c565b6006820180546001600160e81b03191690556007820180546001600160801b0319169055611788600883016000613117565b50600901805460ff191690559055604051600090339083906117a9906134bc565b60006040518083038185875af1925050503d80600081146117e6576040519150601f19603f3d011682016040523d82523d6000602084013e6117eb565b606091505b505090508061180c5760405162461bcd60e51b81526004016103c190613c86565b7fba1c16e049c7a348b951726f087bd968f9f40e6c64c8cf9ae55ed756ae629440843360405161095c929190613d94565b600054821061185e5760405162461bcd60e51b81526004016103c190613ced565b600080838154811061188057634e487b7160e01b600052603260045260246000fd5b60009182526020909120600a9091020160048101549091506001600160a01b031633148015906118bd575060068101546001600160a01b03163314155b6118d95760405162461bcd60e51b81526004016103c19061379f565b60036006820154600160a01b900460ff16600481111561190957634e487b7160e01b600052602160045260246000fd5b146119265760405162461bcd60e51b81526004016103c1906138ae565b600083815260036020908152604080832033845290915290205460ff16156119605760405162461bcd60e51b81526004016103c190613c4f565b60015434146119815760405162461bcd60e51b81526004016103c190613768565b600083815260036020908152604080832033808552908352818420805460ff19166001908117909155878552600284529184208054928301815584529190922090910180546001600160a01b03191690911790558115611a20576007810180546001600160401b03169060006119f683613fd6565b91906101000a8154816001600160401b0302191690836001600160401b0316021790555050611a68565b600781018054600160401b90046001600160401b0316906008611a4283613fd6565b91906101000a8154816001600160401b0302191690836001600160401b03160217905550505b60006003600154611a799190613f49565b9050600081600154611a8b9190613f31565b90506000336001600160a01b031682604051611aa6906134bc565b60006040518083038185875af1925050503d8060008114611ae3576040519150601f19603f3d011682016040523d82523d6000602084013e611ae8565b606091505b5050905080611b095760405162461bcd60e51b81526004016103c190613d1d565b7fc9d2ff8d0995175448926c3772b9348991ca8fecf6638d1e32cf1700e208ca41863387604051611b3c93929190613dab565b60405180910390a160008681526002602052604090205460031415611ba657600784015460026001600160401b0390911610611b8057611b7b86612d14565b611ba6565b60078401546002600160401b9091046001600160401b031610611ba657611ba686612e29565b505050505050565b60606000805b600054811015611c2c57836001600160a01b031660008281548110611be957634e487b7160e01b600052603260045260246000fd5b600091825260209091206006600a9092020101546001600160a01b03161415611c1a5781611c1681613fbb565b9250505b80611c2481613fbb565b915050611bb4565b506000816001600160401b03811115611c5557634e487b7160e01b600052604160045260246000fd5b604051908082528060200260200182016040528015611c8e57816020015b611c7b612fa4565b815260200190600190039081611c735790505b5090506000805b600054811015610ee657856001600160a01b031660008281548110611cca57634e487b7160e01b600052603260045260246000fd5b600091825260209091206006600a9092020101546001600160a01b031614156120aa5760008181548110611d0e57634e487b7160e01b600052603260045260246000fd5b90600052602060002090600a0201604051806101a001604052908160008201548152602001600182018054611d4290613f80565b80601f0160208091040260200160405190810160405280929190818152602001828054611d6e90613f80565b8015611dbb5780601f10611d9057610100808354040283529160200191611dbb565b820191906000526020600020905b815481529060010190602001808311611d9e57829003601f168201915b50505050508152602001600282018054611dd490613f80565b80601f0160208091040260200160405190810160405280929190818152602001828054611e0090613f80565b8015611e4d5780601f10611e2257610100808354040283529160200191611e4d565b820191906000526020600020905b815481529060010190602001808311611e3057829003601f168201915b50505050508152602001600382015481526020016004820160009054906101000a90046001600160a01b03166001600160a01b03166001600160a01b0316815260200160058201805480602002602001604051908101604052809291908181526020018280548015611ee857602002820191906000526020600020905b81546001600160a01b03168152600190910190602001808311611eca575b505050918352505060068201546001600160a01b0381166020830152604090910190600160a01b900460ff166004811115611f3357634e487b7160e01b600052602160045260246000fd5b6004811115611f5257634e487b7160e01b600052602160045260246000fd5b815260068201546001600160401b03600160a81b9091048116602083015260078301548082166040840152600160401b9004166060820152600882018054608090920191611f9f90613f80565b80601f0160208091040260200160405190810160405280929190818152602001828054611fcb90613f80565b80156120185780601f10611fed57610100808354040283529160200191612018565b820191906000526020600020905b815481529060010190602001808311611ffb57829003601f168201915b5050509183525050600982015460209091019060ff16600281111561204d57634e487b7160e01b600052602160045260246000fd5b600281111561206c57634e487b7160e01b600052602160045260246000fd5b8152505083838151811061209057634e487b7160e01b600052603260045260246000fd5b602002602001018190525081806120a690613fbb565b9250505b806120b481613fbb565b915050611c95565b60008451116120dd5760405162461bcd60e51b81526004016103c190613877565b60008351116120fe5760405162461bcd60e51b81526004016103c190613688565b6000816001600160401b0316116121275760405162461bcd60e51b81526004016103c190613967565b60015461213d906001600160401b038316613f31565b341461215b5760405162461bcd60e51b81526004016103c1906136cb565b60008054604080516101a0810182528281526020808201898152828401899052606083018890523360808401528351868152808301855260a084015260c0830186905260e083018690526001600160401b03871661010084015261012083018690526101408301869052835180830190945285845261016083019390935261018082018590526001840185559380528051600a84027f290decd9548b62a8d60345a988386fc84ba6bc95484008f6362f93160ef3e563810191825592518051949592949193612251937f290decd9548b62a8d60345a988386fc84ba6bc95484008f6362f93160ef3e56490910192910190612f20565b506040820151805161226d916002840191602090910190612f20565b506060820151600382015560808201516004820180546001600160a01b0319166001600160a01b0390921691909117905560a082015180516122b9916005840191602090910190613153565b5060c08201516006820180546001600160a01b0319166001600160a01b039092169190911780825560e0840151919060ff60a01b1916600160a01b83600481111561231457634e487b7160e01b600052602160045260246000fd5b02179055506101008201516006820180546001600160401b03928316600160a81b0267ffffffffffffffff60a81b199091161790556101208301516007830180546101408601518416600160401b0267ffffffffffffffff60401b199390941667ffffffffffffffff19909116179190911691909117905561016082015180516123a8916008840191602090910190612f20565b5061018082015160098201805460ff191660018360028111156123db57634e487b7160e01b600052602160045260246000fd5b021790555050507fcffd0e6082a20f68ed59dc9a29f8c7c3a32633d297ebf1e27a04357ff034738a818686863360008860405161241e9796959493929190613eb0565b60405180910390a15050505050565b600381565b60015481565b600560209081526000928352604080842090915290825290205460ff1681565b60606000805b6000548110156124d657836001600160a01b03166000828154811061249357634e487b7160e01b600052603260045260246000fd5b600091825260209091206004600a9092020101546001600160a01b031614156124c457816124c081613fbb565b9250505b806124ce81613fbb565b91505061245e565b506000816001600160401b038111156124ff57634e487b7160e01b600052604160045260246000fd5b60405190808252806020026020018201604052801561253857816020015b612525612fa4565b81526020019060019003908161251d5790505b5090506000805b600054811015610ee657856001600160a01b03166000828154811061257457634e487b7160e01b600052603260045260246000fd5b600091825260209091206004600a9092020101546001600160a01b0316141561295457600081815481106125b857634e487b7160e01b600052603260045260246000fd5b90600052602060002090600a0201604051806101a0016040529081600082015481526020016001820180546125ec90613f80565b80601f016020809104026020016040519081016040528092919081815260200182805461261890613f80565b80156126655780601f1061263a57610100808354040283529160200191612665565b820191906000526020600020905b81548152906001019060200180831161264857829003601f168201915b5050505050815260200160028201805461267e90613f80565b80601f01602080910402602001604051908101604052809291908181526020018280546126aa90613f80565b80156126f75780601f106126cc576101008083540402835291602001916126f7565b820191906000526020600020905b8154815290600101906020018083116126da57829003601f168201915b50505050508152602001600382015481526020016004820160009054906101000a90046001600160a01b03166001600160a01b03166001600160a01b031681526020016005820180548060200260200160405190810160405280929190818152602001828054801561279257602002820191906000526020600020905b81546001600160a01b03168152600190910190602001808311612774575b505050918352505060068201546001600160a01b0381166020830152604090910190600160a01b900460ff1660048111156127dd57634e487b7160e01b600052602160045260246000fd5b60048111156127fc57634e487b7160e01b600052602160045260246000fd5b815260068201546001600160401b03600160a81b9091048116602083015260078301548082166040840152600160401b900416606082015260088201805460809092019161284990613f80565b80601f016020809104026020016040519081016040528092919081815260200182805461287590613f80565b80156128c25780601f10612897576101008083540402835291602001916128c2565b820191906000526020600020905b8154815290600101906020018083116128a557829003601f168201915b5050509183525050600982015460209091019060ff1660028111156128f757634e487b7160e01b600052602160045260246000fd5b600281111561291657634e487b7160e01b600052602160045260246000fd5b8152505083838151811061293a57634e487b7160e01b600052603260045260246000fd5b6020026020010181905250818061295090613fbb565b9250505b8061295e81613fbb565b91505061253f565b6002602052816000526040600020818154811061298257600080fd5b6000918252602090912001546001600160a01b03169150829050565b60005481106129bf5760405162461bcd60e51b81526004016103c190613ced565b60008082815481106129e157634e487b7160e01b600052603260045260246000fd5b60009182526020909120600a9091020160048101549091506001600160a01b03163314612a205760405162461bcd60e51b81526004016103c190613833565b60026006820154600160a01b900460ff166004811115612a5057634e487b7160e01b600052602160045260246000fd5b14612a6d5760405162461bcd60e51b81526004016103c1906137ef565b60068101805460ff60a01b1916600360a01b1790556007810180546001600160801b031916905560005b600083815260026020526040902054811015612b2e57600083815260036020908152604080832060029092528220805483919085908110612ae857634e487b7160e01b600052603260045260246000fd5b6000918252602080832091909101546001600160a01b031683528201929092526040019020805460ff191691151591909117905580612b2681613fbb565b915050612a97565b506000828152600260205260408120612b469161303c565b600080516020614040833981519152826002600360405161124593929190613dcc565b60005481908110612b8c5760405162461bcd60e51b81526004016103c190613ced565b6000808381548110612bae57634e487b7160e01b600052603260045260246000fd5b60009182526020909120600a9091020160048101549091506001600160a01b0316331415612bee5760405162461bcd60e51b81526004016103c190613926565b60006006820154600160a01b900460ff166004811115612c1e57634e487b7160e01b600052602160045260246000fd5b14612c3b5760405162461bcd60e51b81526004016103c1906136f7565b600083815260056020908152604080832033845290915290205460ff1615612c755760405162461bcd60e51b81526004016103c190613ab9565b6001543414612c965760405162461bcd60e51b81526004016103c190613768565b60058082018054600181810183556000928352602080842090920180546001600160a01b03191633908117909155878452938252604080842085855290925291819020805460ff1916909217909155517f8725bffe8d13528e1bab35c1d9aa412f46d228a07bef71d732e5fe603f9abc05916104e891869190613d94565b6000808281548110612d3657634e487b7160e01b600052603260045260246000fd5b600091825260208220600a919091020160068101805460ff60a01b1916600160a21b179081905560098201805460ff19166001908117909155549193506001600160a01b03811691612d9791600160a81b90046001600160401b0316613f31565b604051612da3906134bc565b60006040518083038185875af1925050503d8060008114612de0576040519150601f19603f3d011682016040523d82523d6000602084013e612de5565b606091505b5050905080612e065760405162461bcd60e51b81526004016103c190613b05565b60008051602061404083398151915283600360046040516104e893929190613dcc565b6000808281548110612e4b57634e487b7160e01b600052603260045260246000fd5b600091825260208220600a919091020160068101805460ff60a01b1916600160a21b1790819055600982018054600260ff1990911617905560048201546001549294506001600160a01b031691612eb191600160a81b90046001600160401b0316613f31565b604051612ebd906134bc565b60006040518083038185875af1925050503d8060008114612efa576040519150601f19603f3d011682016040523d82523d6000602084013e612eff565b606091505b5050905080612e065760405162461bcd60e51b81526004016103c1906139f2565b828054612f2c90613f80565b90600052602060002090601f016020900481019282612f4e5760008555612f94565b82601f10612f6757805160ff1916838001178555612f94565b82800160010185558215612f94579182015b82811115612f94578251825591602001919060010190612f79565b50612fa09291506131a8565b5090565b604051806101a001604052806000815260200160608152602001606081526020016000815260200160006001600160a01b031681526020016060815260200160006001600160a01b031681526020016000600481111561301457634e487b7160e01b600052602160045260246000fd5b8152600060208201819052604082018190526060808301829052608083015260a09091015290565b508054600082559060005260206000209081019061305a91906131a8565b50565b82805461306990613f80565b90600052602060002090601f01602090048101928261308b5760008555612f94565b82601f1061309c5780548555612f94565b82800160010185558215612f9457600052602060002091601f016020900482015b82811115612f945782548255916001019190600101906130bd565b828054828255906000526020600020908101928215612f9457600052602060002091820182811115612f945782548255916001019190600101906130bd565b50805461312390613f80565b6000825580601f10613135575061305a565b601f01602090049060005260206000209081019061305a91906131a8565b828054828255906000526020600020908101928215612f94579160200282015b82811115612f9457825182546001600160a01b0319166001600160a01b03909116178255602090920191600190910190613173565b5b80821115612fa057600081556001016131a9565b80356001600160a01b0381168114610eed57600080fd5b600082601f8301126131e4578081fd5b81356001600160401b03808211156131fe576131fe614029565b604051601f8301601f19168101602001828111828210171561322257613222614029565b604052828152848301602001861015613239578384fd5b82602086016020830137918201602001929092529392505050565b600060208284031215613265578081fd5b61326e826131bd565b9392505050565b600060208284031215613286578081fd5b81356005811061326e578182fd5b600080600080608085870312156132a9578283fd5b84356001600160401b03808211156132bf578485fd5b6132cb888389016131d4565b955060208701359150808211156132e0578485fd5b6132ec888389016131d4565b945060408701359350606087013591508082168214613309578283fd5b50939692955090935050565b600060208284031215613326578081fd5b5035919050565b6000806040838503121561333f578182fd5b8235915061334f602084016131bd565b90509250929050565b6000806040838503121561336a578182fd5b8235915060208301358015158114613380578182fd5b809150509250929050565b6000806040838503121561339d578182fd5b8235915060208301356001600160401b038111156133b9578182fd5b6133c5858286016131d4565b9150509250929050565b600080604083850312156133e1578182fd5b50508035926020909101359150565b6001600160a01b03169052565b6000815180845260208085019450808401835b838110156134355781516001600160a01b031687529582019590820190600101613410565b509495945050505050565b6003811061345057613450614013565b9052565b6005811061345057613450614013565b60008151808452815b818110156134895760208185018101518683018201520161346d565b8181111561349a5782602083870101525b50601f01601f19169290920160200192915050565b6001600160401b03169052565b90565b6001600160a01b0391909116815260200190565b60208082528251828201819052600091906040908185019080840286018301878501865b8381101561362757603f1989840301855281516101a08151855288820151818a87015261352682870182613464565b915050878201518582038987015261353e8282613464565b915050606080830151818701525060808083015161355e828801826133f0565b505060a0808301518683038288015261357783826133fd565b9250505060c08083015161358d828801826133f0565b505060e0808301516135a182880182613454565b5050610100808301516135b6828801826134af565b5050610120808301516135cb828801826134af565b5050610140808301516135e0828801826134af565b505061016080830151868303828801526135fa8382613464565b9250505061018080830151925061361381870184613440565b5095880195935050908601906001016134f7565b509098975050505050505050565b901515815260200190565b60208082526028908201527f566572696669636174696f6e2066656520726566756e6420746f20636c69656e6040820152671d0819985a5b195960c21b606082015260800190565b60208082526023908201527f50726f6a656374206465736372697074696f6e2063616e6e6f7420626520656d60408201526270747960e81b606082015260800190565b602080825260129082015271125b98dbdc9c9958dd08115512081cd95b9d60721b604082015260600190565b602080825260139082015272283937b532b1ba1034b9903737ba1037b832b760691b604082015260600190565b60208082526024908201527f4f6e6c79207468652070726f6a6563742063726561746f722063616e20617070604082015263726f766560e01b606082015260800190565b6020808252601a908201527f496e636f727265637420766572696669636174696f6e20666565000000000000604082015260600190565b60208082526030908201527f56657269666965722063616e6e6f742062652070726f6a65637420637265617460408201526f37b91037b910333932b2b630b731b2b960811b606082015260800190565b60208082526024908201527f50726f6a656374206d7573742062652077616974696e6720666f7220617070726040820152631bdd985b60e21b606082015260800190565b60208082526024908201527f4f6e6c79207468652070726f6a6563742063726561746f722063616e206469736040820152637075746560e01b606082015260800190565b6020808252601c908201527f50726f6a656374206e616d652063616e6e6f7420626520656d70747900000000604082015260600190565b6020808252601a908201527f50726f6a656374206d75737420626520696e2064697370757465000000000000604082015260600190565b60208082526021908201527f466565207472616e7366657220746f20667265656c616e636572206661696c656040820152601960fa1b606082015260800190565b60208082526021908201527f43726561746f722063616e6e6f7420616363657074206f776e2070726f6a65636040820152601d60fa1b606082015260800190565b60208082526025908201527f50726f6a65637420666565206d7573742062652067726561746572207468616e604082015264207a65726f60d81b606082015260800190565b60208082526026908201527f526566756e6420746f20756e73656c656374656420667265656c616e6365722060408201526519985a5b195960d21b606082015260800190565b60208082526014908201527310db1a595b9d081c99599d5b990819985a5b195960621b604082015260600190565b60208082526028908201527f467265656c616e63657220686173206e6f742061636365707465642074686973604082015267081c1c9bda9958dd60c21b606082015260800190565b60208082526031908201527f4f6e6c792074686520667265656c616e6365722063616e206d61726b2070726f6040820152701a9958dd08185cc818dbdb5c1b195d1959607a1b606082015260800190565b6020808252602c908201527f467265656c616e6365722068617320616c72656164792061636365707465642060408201526b1d1a1a5cc81c1c9bda9958dd60a21b606082015260800190565b60208082526019908201527f467265656c616e636572207061796d656e74206661696c656400000000000000604082015260600190565b6020808252602c908201527f4f6e6c792070726f6a6563742063726561746f722063616e2073656c6563742060408201526b3090333932b2b630b731b2b960a11b606082015260800190565b6020808252602f908201527f4f6e6c79207468652070726f6a6563742063726561746f722063616e2072656d60408201526e1bdd99481d1a19481c1c9bda9958dd608a1b606082015260800190565b6020808252601b908201527f526566756e6420746f20667265656c616e636572206661696c65640000000000604082015260600190565b60208082526021908201527f4f6e6c79206f70656e2070726f6a656374732063616e2062652072656d6f76656040820152601960fa1b606082015260800190565b6020808252601a908201527f56657269666965722068617320616c726561647920766f746564000000000000604082015260600190565b6020808252601690820152751499599d5b99081d1c985b9cd9995c8819985a5b195960521b604082015260600190565b6020808252601a908201527f50726f6f66206c696e6b2063616e6e6f7420626520656d707479000000000000604082015260600190565b602080825260169082015275141c9bda9958dd08191bd95cc81b9bdd08195e1a5cdd60521b604082015260600190565b6020808252601f908201527f566572696669657220726577617264207472616e73666572206661696c656400604082015260600190565b6020808252601b908201527f50726f6a656374206d75737420626520696e2070726f67726573730000000000604082015260600190565b90815260200190565b9182526001600160a01b0316602082015260400190565b9283526001600160a01b039190911660208301521515604082015260600190565b83815260608101613de06020830185613454565b613ded6040830184613454565b949350505050565b60006101808e8352806020840152613e0f8184018f613464565b90508281036040840152613e23818e613464565b606084018d90526001600160a01b038c811660808601528b1660a08501529050613e5060c084018a613454565b6001600160401b03881660e0840152613e6d6101008401886134af565b613e7b6101208401876134af565b828103610140840152613e8e8186613464565b915050613e9f610160830184613440565b9d9c50505050505050505050505050565b600088825260e06020830152613ec960e0830189613464565b8281036040840152613edb8189613464565b606084018890526001600160a01b03871660808501529150613f02905060a0830185613454565b6001600160401b03831660c083015298975050505050505050565b6001600160401b0391909116815260200190565b60008219821115613f4457613f44613ffd565b500190565b600082613f6457634e487b7160e01b81526012600452602481fd5b500490565b600082821015613f7b57613f7b613ffd565b500390565b600281046001821680613f9457607f821691505b60208210811415613fb557634e487b7160e01b600052602260045260246000fd5b50919050565b6000600019821415613fcf57613fcf613ffd565b5060010190565b60006001600160401b0380831681811415613ff357613ff3613ffd565b6001019392505050565b634e487b7160e01b600052601160045260246000fd5b634e487b7160e01b600052602160045260246000fd5b634e487b7160e01b600052604160045260246000fdfe15a4a29eccf92a0bbf94f24a6840487aa0226f7fb02d3402f1f86b3360bdfc6aa26469706673582212209efd3b696e8d7eb88db736e0b62a45687ed00689d03bdd0cd177097879c67e2864736f6c63430008000033",
  "linkReferences": {},
  "deployedLinkReferences": {}
}