{
  "_format": "hh-sol-artifact-1",
  "contractName": "ProjectManager",
  "sourceName": "contracts/ProjectManager.sol",
  "abi": [
    {
      "anonymous": false,
      "inputs": [
        {
          "indexed": false,
          "internalType": "uint256",
          "name": "projectId",
          "type": "uint256"
        },
        {
          "indexed": false,
          "internalType": "string",
          "name": "name",
          "type": "string"
        },
        {
          "indexed": false,
          "internalType": "string",
          "name": "description",
          "type": "string"
        },
        {
          "indexed": false,
          "internalType": "uint256",
          "name": "timestamp",
          "type": "uint256"
        },
        {
          "indexed": false,
          "internalType": "address",
          "name": "creator",
          "type": "address"
        },
        {
          "indexed": false,
          "internalType": "enum ProjectManager.Status",
          "name": "status",
          "type": "uint8"
        },
        {
          "indexed": false,
          "internalType": "uint256",
          "name": "projectFee",
          "type": "uint256"
        }
      ],
      "name": "ProjectCreated",
      "type": "event"
    },
    {
      "anonymous": false,
      "inputs": [
        {
          "indexed": false,
          "internalType": "uint256",
          "name": "projectId",
          "type": "uint256"
        },
        {
          "indexed": false,
          "internalType": "address",
          "name": "creator",
          "type": "address"
        }
      ],
      "name": "ProjectRemoved",
      "type": "event"
    },
    {
      "anonymous": false,
      "inputs": [
        {
          "indexed": false,
          "internalType": "uint256",
          "name": "projectId",
          "type": "uint256"
        },
        {
          "indexed": false,
          "internalType": "enum ProjectManager.Status",
          "name": "oldStatus",
          "type": "uint8"
        },
        {
          "indexed": false,
          "internalType": "enum ProjectManager.Status",
          "name": "newStatus",
          "type": "uint8"
        }
      ],
      "name": "ProjectStatusUpdated",
      "type": "event"
    },
    {
      "inputs": [
        {
          "internalType": "string",
          "name": "_name",
          "type": "string"
        },
        {
          "internalType": "string",
          "name": "_description",
          "type": "string"
        },
        {
          "internalType": "uint256",
          "name": "_timestamp",
          "type": "uint256"
        },
        {
          "internalType": "uint256",
          "name": "_projectFee",
          "type": "uint256"
        }
      ],
      "name": "createProject",
      "outputs": [],
      "stateMutability": "payable",
      "type": "function"
    },
    {
      "inputs": [
        {
          "internalType": "address",
          "name": "_creator",
          "type": "address"
        }
      ],
      "name": "getProjectsByAddress",
      "outputs": [
        {
          "components": [
            {
              "internalType": "uint256",
              "name": "id",
              "type": "uint256"
            },
            {
              "internalType": "string",
              "name": "name",
              "type": "string"
            },
            {
              "internalType": "string",
              "name": "description",
              "type": "string"
            },
            {
              "internalType": "uint256",
              "name": "timestamp",
              "type": "uint256"
            },
            {
              "internalType": "address",
              "name": "creator",
              "type": "address"
            },
            {
              "internalType": "enum ProjectManager.Status",
              "name": "status",
              "type": "uint8"
            },
            {
              "internalType": "uint256",
              "name": "projectFee",
              "type": "uint256"
            }
          ],
          "internalType": "struct ProjectManager.Project[]",
          "name": "",
          "type": "tuple[]"
        }
      ],
      "stateMutability": "view",
      "type": "function"
    },
    {
      "inputs": [
        {
          "internalType": "enum ProjectManager.Status",
          "name": "_status",
          "type": "uint8"
        }
      ],
      "name": "getProjectsByStatus",
      "outputs": [
        {
          "components": [
            {
              "internalType": "uint256",
              "name": "id",
              "type": "uint256"
            },
            {
              "internalType": "string",
              "name": "name",
              "type": "string"
            },
            {
              "internalType": "string",
              "name": "description",
              "type": "string"
            },
            {
              "internalType": "uint256",
              "name": "timestamp",
              "type": "uint256"
            },
            {
              "internalType": "address",
              "name": "creator",
              "type": "address"
            },
            {
              "internalType": "enum ProjectManager.Status",
              "name": "status",
              "type": "uint8"
            },
            {
              "internalType": "uint256",
              "name": "projectFee",
              "type": "uint256"
            }
          ],
          "internalType": "struct ProjectManager.Project[]",
          "name": "",
          "type": "tuple[]"
        }
      ],
      "stateMutability": "view",
      "type": "function"
    },
    {
      "inputs": [
        {
          "internalType": "uint256",
          "name": "",
          "type": "uint256"
        }
      ],
      "name": "projects",
      "outputs": [
        {
          "internalType": "uint256",
          "name": "id",
          "type": "uint256"
        },
        {
          "internalType": "string",
          "name": "name",
          "type": "string"
        },
        {
          "internalType": "string",
          "name": "description",
          "type": "string"
        },
        {
          "internalType": "uint256",
          "name": "timestamp",
          "type": "uint256"
        },
        {
          "internalType": "address",
          "name": "creator",
          "type": "address"
        },
        {
          "internalType": "enum ProjectManager.Status",
          "name": "status",
          "type": "uint8"
        },
        {
          "internalType": "uint256",
          "name": "projectFee",
          "type": "uint256"
        }
      ],
      "stateMutability": "view",
      "type": "function"
    },
    {
      "inputs": [
        {
          "internalType": "uint256",
          "name": "_projectId",
          "type": "uint256"
        }
      ],
      "name": "removeProject",
      "outputs": [],
      "stateMutability": "nonpayable",
      "type": "function"
    },
    {
      "inputs": [],
      "name": "verificationFee",
      "outputs": [
        {
          "internalType": "uint256",
          "name": "",
          "type": "uint256"
        }
      ],
      "stateMutability": "view",
      "type": "function"
    }
  ],
  "bytecode": "0x6080604052660110d9316ec00060015534801561001b57600080fd5b5061222a8061002b6000396000f3fe6080604052600436106100555760003560e01c8063107046bd1461005a5780631aa22bba1461009d5780635873f998146100da57806394ba970914610103578063a8c278a21461011f578063d5842c8b1461014a575b600080fd5b34801561006657600080fd5b50610081600480360381019061007c91906118fc565b610187565b6040516100949796959493929190611dde565b60405180910390f35b3480156100a957600080fd5b506100c460048036038101906100bf9190611840565b610316565b6040516100d19190611cd8565b60405180910390f35b3480156100e657600080fd5b5061010160048036038101906100fc91906118fc565b61085f565b005b61011d60048036038101906101189190611869565b610e41565b005b34801561012b57600080fd5b50610134611088565b6040516101419190611d9a565b60405180910390f35b34801561015657600080fd5b50610171600480360381019061016c9190611817565b61108e565b60405161017e9190611cd8565b60405180910390f35b6000818154811061019757600080fd5b90600052602060002090600602016000915090508060000154908060010180546101c09061205a565b80601f01602080910402602001604051908101604052809291908181526020018280546101ec9061205a565b80156102395780601f1061020e57610100808354040283529160200191610239565b820191906000526020600020905b81548152906001019060200180831161021c57829003601f168201915b50505050509080600201805461024e9061205a565b80601f016020809104026020016040519081016040528092919081815260200182805461027a9061205a565b80156102c75780601f1061029c576101008083540402835291602001916102c7565b820191906000526020600020905b8154815290600101906020018083116102aa57829003601f168201915b5050505050908060030154908060040160009054906101000a900473ffffffffffffffffffffffffffffffffffffffff16908060040160149054906101000a900460ff16908060050154905087565b60606000805b60008054905081101561041b57836003811115610362577f4e487b7100000000000000000000000000000000000000000000000000000000600052602160045260246000fd5b6000828154811061039c577f4e487b7100000000000000000000000000000000000000000000000000000000600052603260045260246000fd5b906000526020600020906006020160040160149054906101000a900460ff1660038111156103f3577f4e487b7100000000000000000000000000000000000000000000000000000000600052602160045260246000fd5b14156104085781806104049061208c565b9250505b80806104139061208c565b91505061031c565b5060008167ffffffffffffffff81111561045e577f4e487b7100000000000000000000000000000000000000000000000000000000600052604160045260246000fd5b60405190808252806020026020018201604052801561049757816020015b610484611575565b81526020019060019003908161047c5790505b5090506000805b600080549050811015610853578560038111156104e4577f4e487b7100000000000000000000000000000000000000000000000000000000600052602160045260246000fd5b6000828154811061051e577f4e487b7100000000000000000000000000000000000000000000000000000000600052603260045260246000fd5b906000526020600020906006020160040160149054906101000a900460ff166003811115610575577f4e487b7100000000000000000000000000000000000000000000000000000000600052602160045260246000fd5b141561084057600081815481106105b5577f4e487b7100000000000000000000000000000000000000000000000000000000600052603260045260246000fd5b90600052602060002090600602016040518060e0016040529081600082015481526020016001820180546105e89061205a565b80601f01602080910402602001604051908101604052809291908181526020018280546106149061205a565b80156106615780601f1061063657610100808354040283529160200191610661565b820191906000526020600020905b81548152906001019060200180831161064457829003601f168201915b5050505050815260200160028201805461067a9061205a565b80601f01602080910402602001604051908101604052809291908181526020018280546106a69061205a565b80156106f35780601f106106c8576101008083540402835291602001916106f3565b820191906000526020600020905b8154815290600101906020018083116106d657829003601f168201915b50505050508152602001600382015481526020016004820160009054906101000a900473ffffffffffffffffffffffffffffffffffffffff1673ffffffffffffffffffffffffffffffffffffffff1673ffffffffffffffffffffffffffffffffffffffff1681526020016004820160149054906101000a900460ff1660038111156107a7577f4e487b7100000000000000000000000000000000000000000000000000000000600052602160045260246000fd5b60038111156107df577f4e487b7100000000000000000000000000000000000000000000000000000000600052602160045260246000fd5b8152602001600582015481525050838381518110610826577f4e487b7100000000000000000000000000000000000000000000000000000000600052603260045260246000fd5b6020026020010181905250818061083c9061208c565b9250505b808061084b9061208c565b91505061049e565b50819350505050919050565b60008054905081106108a6576040517f08c379a000000000000000000000000000000000000000000000000000000000815260040161089d90611d7a565b60405180910390fd5b60008082815481106108e1577f4e487b7100000000000000000000000000000000000000000000000000000000600052603260045260246000fd5b906000526020600020906006020190508060040160009054906101000a900473ffffffffffffffffffffffffffffffffffffffff1673ffffffffffffffffffffffffffffffffffffffff163373ffffffffffffffffffffffffffffffffffffffff1614610983576040517f08c379a000000000000000000000000000000000000000000000000000000000815260040161097a90611d1a565b60405180910390fd5b600060038111156109bd577f4e487b7100000000000000000000000000000000000000000000000000000000600052602160045260246000fd5b8160040160149054906101000a900460ff166003811115610a07577f4e487b7100000000000000000000000000000000000000000000000000000000600052602160045260246000fd5b14610a47576040517f08c379a0000000000000000000000000000000000000000000000000000000008152600401610a3e90611d3a565b60405180910390fd5b60006001548260050154610a5b9190611f2d565b90506001600080549050610a6f9190611f83565b8314610c925760006001600080549050610a899190611f83565b81548110610ac0577f4e487b7100000000000000000000000000000000000000000000000000000000600052603260045260246000fd5b906000526020600020906006020160008481548110610b08577f4e487b7100000000000000000000000000000000000000000000000000000000600052603260045260246000fd5b9060005260206000209060060201600082015481600001556001820181600101908054610b349061205a565b610b3f929190611600565b506002820181600201908054610b549061205a565b610b5f929190611600565b50600382015481600301556004820160009054906101000a900473ffffffffffffffffffffffffffffffffffffffff168160040160006101000a81548173ffffffffffffffffffffffffffffffffffffffff021916908373ffffffffffffffffffffffffffffffffffffffff1602179055506004820160149054906101000a900460ff168160040160146101000a81548160ff02191690836003811115610c2f577f4e487b7100000000000000000000000000000000000000000000000000000000600052602160045260246000fd5b0217905550600582015481600501559050508260008481548110610c7c577f4e487b7100000000000000000000000000000000000000000000000000000000600052603260045260246000fd5b9060005260206000209060060201600001819055505b6000805480610cca577f4e487b7100000000000000000000000000000000000000000000000000000000600052603160045260246000fd5b6001900381819060005260206000209060060201600080820160009055600182016000610cf7919061168d565b600282016000610d07919061168d565b60038201600090556004820160006101000a81549073ffffffffffffffffffffffffffffffffffffffff02191690556004820160146101000a81549060ff021916905560058201600090555050905560003373ffffffffffffffffffffffffffffffffffffffff1682604051610d7c90611cc3565b60006040518083038185875af1925050503d8060008114610db9576040519150601f19603f3d011682016040523d82523d6000602084013e610dbe565b606091505b5050905080610e02576040517f08c379a0000000000000000000000000000000000000000000000000000000008152600401610df990611d5a565b60405180910390fd5b7fba1c16e049c7a348b951726f087bd968f9f40e6c64c8cf9ae55ed756ae6294408433604051610e33929190611db5565b60405180910390a150505050565b60015481610e4f9190611f2d565b3414610e90576040517f08c379a0000000000000000000000000000000000000000000000000000000008152600401610e8790611cfa565b60405180910390fd5b60008080549050905060006040518060e001604052808381526020018781526020018681526020018581526020013373ffffffffffffffffffffffffffffffffffffffff16815260200160006003811115610f14577f4e487b7100000000000000000000000000000000000000000000000000000000600052602160045260246000fd5b8152602001848152509080600181540180825580915050600190039060005260206000209060060201600090919091909150600082015181600001556020820151816001019080519060200190610f6c9291906116cd565b506040820151816002019080519060200190610f899291906116cd565b506060820151816003015560808201518160040160006101000a81548173ffffffffffffffffffffffffffffffffffffffff021916908373ffffffffffffffffffffffffffffffffffffffff16021790555060a08201518160040160146101000a81548160ff0219169083600381111561102c577f4e487b7100000000000000000000000000000000000000000000000000000000600052602160045260246000fd5b021790555060c0820151816005015550507f59efe781992d5ecfa36fc33ea75b2d74345c30fd2e5762bfe91d37159b14965281868686336000886040516110799796959493929190611dde565b60405180910390a15050505050565b60015481565b60606000805b600080549050811015611162578373ffffffffffffffffffffffffffffffffffffffff16600082815481106110f2577f4e487b7100000000000000000000000000000000000000000000000000000000600052603260045260246000fd5b906000526020600020906006020160040160009054906101000a900473ffffffffffffffffffffffffffffffffffffffff1673ffffffffffffffffffffffffffffffffffffffff16141561114f57818061114b9061208c565b9250505b808061115a9061208c565b915050611094565b5060008167ffffffffffffffff8111156111a5577f4e487b7100000000000000000000000000000000000000000000000000000000600052604160045260246000fd5b6040519080825280602002602001820160405280156111de57816020015b6111cb611575565b8152602001906001900390816111c35790505b5090506000805b600080549050811015611569578573ffffffffffffffffffffffffffffffffffffffff1660008281548110611243577f4e487b7100000000000000000000000000000000000000000000000000000000600052603260045260246000fd5b906000526020600020906006020160040160009054906101000a900473ffffffffffffffffffffffffffffffffffffffff1673ffffffffffffffffffffffffffffffffffffffff16141561155657600081815481106112cb577f4e487b7100000000000000000000000000000000000000000000000000000000600052603260045260246000fd5b90600052602060002090600602016040518060e0016040529081600082015481526020016001820180546112fe9061205a565b80601f016020809104026020016040519081016040528092919081815260200182805461132a9061205a565b80156113775780601f1061134c57610100808354040283529160200191611377565b820191906000526020600020905b81548152906001019060200180831161135a57829003601f168201915b505050505081526020016002820180546113909061205a565b80601f01602080910402602001604051908101604052809291908181526020018280546113bc9061205a565b80156114095780601f106113de57610100808354040283529160200191611409565b820191906000526020600020905b8154815290600101906020018083116113ec57829003601f168201915b50505050508152602001600382015481526020016004820160009054906101000a900473ffffffffffffffffffffffffffffffffffffffff1673ffffffffffffffffffffffffffffffffffffffff1673ffffffffffffffffffffffffffffffffffffffff1681526020016004820160149054906101000a900460ff1660038111156114bd577f4e487b7100000000000000000000000000000000000000000000000000000000600052602160045260246000fd5b60038111156114f5577f4e487b7100000000000000000000000000000000000000000000000000000000600052602160045260246000fd5b815260200160058201548152505083838151811061153c577f4e487b7100000000000000000000000000000000000000000000000000000000600052603260045260246000fd5b602002602001018190525081806115529061208c565b9250505b80806115619061208c565b9150506111e5565b50819350505050919050565b6040518060e0016040528060008152602001606081526020016060815260200160008152602001600073ffffffffffffffffffffffffffffffffffffffff168152602001600060038111156115f3577f4e487b7100000000000000000000000000000000000000000000000000000000600052602160045260246000fd5b8152602001600081525090565b82805461160c9061205a565b90600052602060002090601f01602090048101928261162e576000855561167c565b82601f1061163f578054855561167c565b8280016001018555821561167c57600052602060002091601f016020900482015b8281111561167b578254825591600101919060010190611660565b5b5090506116899190611753565b5090565b5080546116999061205a565b6000825580601f106116ab57506116ca565b601f0160209004906000526020600020908101906116c99190611753565b5b50565b8280546116d99061205a565b90600052602060002090601f0160209004810192826116fb5760008555611742565b82601f1061171457805160ff1916838001178555611742565b82800160010185558215611742579182015b82811115611741578251825591602001919060010190611726565b5b50905061174f9190611753565b5090565b5b8082111561176c576000816000905550600101611754565b5090565b600061178361177e84611e8c565b611e5b565b90508281526020810184848401111561179b57600080fd5b6117a6848285612018565b509392505050565b6000813590506117bd816121b6565b92915050565b6000813590506117d2816121cd565b92915050565b600082601f8301126117e957600080fd5b81356117f9848260208601611770565b91505092915050565b600081359050611811816121dd565b92915050565b60006020828403121561182957600080fd5b6000611837848285016117ae565b91505092915050565b60006020828403121561185257600080fd5b6000611860848285016117c3565b91505092915050565b6000806000806080858703121561187f57600080fd5b600085013567ffffffffffffffff81111561189957600080fd5b6118a5878288016117d8565b945050602085013567ffffffffffffffff8111156118c257600080fd5b6118ce878288016117d8565b93505060406118df87828801611802565b92505060606118f087828801611802565b91505092959194509250565b60006020828403121561190e57600080fd5b600061191c84828501611802565b91505092915050565b60006119318383611c02565b905092915050565b61194281611fb7565b82525050565b61195181611fb7565b82525050565b600061196282611ecc565b61196c8185611eef565b93508360208202850161197e85611ebc565b8060005b858110156119ba578484038952815161199b8582611925565b94506119a683611ee2565b925060208a01995050600181019050611982565b50829750879550505050505092915050565b6119d581612006565b82525050565b6119e481612006565b82525050565b60006119f582611ed7565b6119ff8185611f0b565b9350611a0f818560208601612027565b611a1881612191565b840191505092915050565b6000611a2e82611ed7565b611a388185611f1c565b9350611a48818560208601612027565b611a5181612191565b840191505092915050565b6000611a69601283611f1c565b91507f496e636f7272656374204554482073656e7400000000000000000000000000006000830152602082019050919050565b6000611aa9600083611f00565b9150600082019050919050565b6000611ac3602f83611f1c565b91507f4f6e6c79207468652070726f6a6563742063726561746f722063616e2072656d60008301527f6f7665207468652070726f6a65637400000000000000000000000000000000006020830152604082019050919050565b6000611b29602183611f1c565b91507f4f6e6c79206f70656e2070726f6a656374732063616e2062652072656d6f766560008301527f64000000000000000000000000000000000000000000000000000000000000006020830152604082019050919050565b6000611b8f601683611f1c565b91507f526566756e64207472616e73666572206661696c6564000000000000000000006000830152602082019050919050565b6000611bcf601683611f1c565b91507f50726f6a65637420646f6573206e6f74206578697374000000000000000000006000830152602082019050919050565b600060e083016000830151611c1a6000860182611ca5565b5060208301518482036020860152611c3282826119ea565b91505060408301518482036040860152611c4c82826119ea565b9150506060830151611c616060860182611ca5565b506080830151611c746080860182611939565b5060a0830151611c8760a08601826119cc565b5060c0830151611c9a60c0860182611ca5565b508091505092915050565b611cae81611ffc565b82525050565b611cbd81611ffc565b82525050565b6000611cce82611a9c565b9150819050919050565b60006020820190508181036000830152611cf28184611957565b905092915050565b60006020820190508181036000830152611d1381611a5c565b9050919050565b60006020820190508181036000830152611d3381611ab6565b9050919050565b60006020820190508181036000830152611d5381611b1c565b9050919050565b60006020820190508181036000830152611d7381611b82565b9050919050565b60006020820190508181036000830152611d9381611bc2565b9050919050565b6000602082019050611daf6000830184611cb4565b92915050565b6000604082019050611dca6000830185611cb4565b611dd76020830184611948565b9392505050565b600060e082019050611df3600083018a611cb4565b8181036020830152611e058189611a23565b90508181036040830152611e198188611a23565b9050611e286060830187611cb4565b611e356080830186611948565b611e4260a08301856119db565b611e4f60c0830184611cb4565b98975050505050505050565b6000604051905081810181811067ffffffffffffffff82111715611e8257611e81612162565b5b8060405250919050565b600067ffffffffffffffff821115611ea757611ea6612162565b5b601f19601f8301169050602081019050919050565b6000819050602082019050919050565b600081519050919050565b600081519050919050565b6000602082019050919050565b600082825260208201905092915050565b600081905092915050565b600082825260208201905092915050565b600082825260208201905092915050565b6000611f3882611ffc565b9150611f4383611ffc565b9250827fffffffffffffffffffffffffffffffffffffffffffffffffffffffffffffffff03821115611f7857611f776120d5565b5b828201905092915050565b6000611f8e82611ffc565b9150611f9983611ffc565b925082821015611fac57611fab6120d5565b5b828203905092915050565b6000611fc282611fdc565b9050919050565b6000819050611fd7826121a2565b919050565b600073ffffffffffffffffffffffffffffffffffffffff82169050919050565b6000819050919050565b600061201182611fc9565b9050919050565b82818337600083830152505050565b60005b8381101561204557808201518184015260208101905061202a565b83811115612054576000848401525b50505050565b6000600282049050600182168061207257607f821691505b6020821081141561208657612085612133565b5b50919050565b600061209782611ffc565b91507fffffffffffffffffffffffffffffffffffffffffffffffffffffffffffffffff8214156120ca576120c96120d5565b5b600182019050919050565b7f4e487b7100000000000000000000000000000000000000000000000000000000600052601160045260246000fd5b7f4e487b7100000000000000000000000000000000000000000000000000000000600052602160045260246000fd5b7f4e487b7100000000000000000000000000000000000000000000000000000000600052602260045260246000fd5b7f4e487b7100000000000000000000000000000000000000000000000000000000600052604160045260246000fd5b6000601f19601f8301169050919050565b600481106121b3576121b2612104565b5b50565b6121bf81611fb7565b81146121ca57600080fd5b50565b600481106121da57600080fd5b50565b6121e681611ffc565b81146121f157600080fd5b5056fea26469706673582212200950bd2cd4a646d9c20e97396770adae58679dfd3bcbb6c772b63a5c107d9ade64736f6c63430008000033",
  "linkReferences": {},
  "deployedLinkReferences": {}
}