{
  "_format": "hh-sol-artifact-1",
  "contractName": "ProjectManager",
  "sourceName": "contracts/ProjectManager.sol",
  "abi": [
    {
      "anonymous": false,
      "inputs": [
        {
          "indexed": false,
          "internalType": "uint256",
          "name": "projectId",
          "type": "uint256"
        },
        {
          "indexed": false,
          "internalType": "string",
          "name": "name",
          "type": "string"
        },
        {
          "indexed": false,
          "internalType": "string",
          "name": "description",
          "type": "string"
        },
        {
          "indexed": false,
          "internalType": "uint256",
          "name": "timestamp",
          "type": "uint256"
        },
        {
          "indexed": false,
          "internalType": "address",
          "name": "creator",
          "type": "address"
        },
        {
          "indexed": false,
          "internalType": "enum ProjectManager.Status",
          "name": "status",
          "type": "uint8"
        },
        {
          "indexed": false,
          "internalType": "uint256",
          "name": "projectFee",
          "type": "uint256"
        }
      ],
      "name": "ProjectCreated",
      "type": "event"
    },
    {
      "anonymous": false,
      "inputs": [
        {
          "indexed": false,
          "internalType": "uint256",
          "name": "projectId",
          "type": "uint256"
        },
        {
          "indexed": false,
          "internalType": "address",
          "name": "creator",
          "type": "address"
        }
      ],
      "name": "ProjectRemoved",
      "type": "event"
    },
    {
      "anonymous": false,
      "inputs": [
        {
          "indexed": false,
          "internalType": "uint256",
          "name": "projectId",
          "type": "uint256"
        },
        {
          "indexed": false,
          "internalType": "enum ProjectManager.Status",
          "name": "oldStatus",
          "type": "uint8"
        },
        {
          "indexed": false,
          "internalType": "enum ProjectManager.Status",
          "name": "newStatus",
          "type": "uint8"
        }
      ],
      "name": "ProjectStatusUpdated",
      "type": "event"
    },
    {
      "inputs": [
        {
          "internalType": "uint256",
          "name": "_projectId",
          "type": "uint256"
        }
      ],
      "name": "acceptProject",
      "outputs": [],
      "stateMutability": "payable",
      "type": "function"
    },
    {
      "inputs": [
        {
          "internalType": "string",
          "name": "_name",
          "type": "string"
        },
        {
          "internalType": "string",
          "name": "_description",
          "type": "string"
        },
        {
          "internalType": "uint256",
          "name": "_timestamp",
          "type": "uint256"
        },
        {
          "internalType": "uint256",
          "name": "_projectFee",
          "type": "uint256"
        }
      ],
      "name": "createProject",
      "outputs": [],
      "stateMutability": "payable",
      "type": "function"
    },
    {
      "inputs": [
        {
          "internalType": "address",
          "name": "_creator",
          "type": "address"
        }
      ],
      "name": "getProjectsByAddress",
      "outputs": [
        {
          "components": [
            {
              "internalType": "uint256",
              "name": "id",
              "type": "uint256"
            },
            {
              "internalType": "string",
              "name": "name",
              "type": "string"
            },
            {
              "internalType": "string",
              "name": "description",
              "type": "string"
            },
            {
              "internalType": "uint256",
              "name": "timestamp",
              "type": "uint256"
            },
            {
              "internalType": "address",
              "name": "creator",
              "type": "address"
            },
            {
              "internalType": "address",
              "name": "freelancer",
              "type": "address"
            },
            {
              "internalType": "enum ProjectManager.Status",
              "name": "status",
              "type": "uint8"
            },
            {
              "internalType": "uint256",
              "name": "projectFee",
              "type": "uint256"
            }
          ],
          "internalType": "struct ProjectManager.Project[]",
          "name": "",
          "type": "tuple[]"
        }
      ],
      "stateMutability": "view",
      "type": "function"
    },
    {
      "inputs": [
        {
          "internalType": "enum ProjectManager.Status",
          "name": "_status",
          "type": "uint8"
        }
      ],
      "name": "getProjectsByStatus",
      "outputs": [
        {
          "components": [
            {
              "internalType": "uint256",
              "name": "id",
              "type": "uint256"
            },
            {
              "internalType": "string",
              "name": "name",
              "type": "string"
            },
            {
              "internalType": "string",
              "name": "description",
              "type": "string"
            },
            {
              "internalType": "uint256",
              "name": "timestamp",
              "type": "uint256"
            },
            {
              "internalType": "address",
              "name": "creator",
              "type": "address"
            },
            {
              "internalType": "address",
              "name": "freelancer",
              "type": "address"
            },
            {
              "internalType": "enum ProjectManager.Status",
              "name": "status",
              "type": "uint8"
            },
            {
              "internalType": "uint256",
              "name": "projectFee",
              "type": "uint256"
            }
          ],
          "internalType": "struct ProjectManager.Project[]",
          "name": "",
          "type": "tuple[]"
        }
      ],
      "stateMutability": "view",
      "type": "function"
    },
    {
      "inputs": [
        {
          "internalType": "address",
          "name": "_freelancer",
          "type": "address"
        }
      ],
      "name": "getProjectsForFreelancer",
      "outputs": [
        {
          "components": [
            {
              "internalType": "uint256",
              "name": "id",
              "type": "uint256"
            },
            {
              "internalType": "string",
              "name": "name",
              "type": "string"
            },
            {
              "internalType": "string",
              "name": "description",
              "type": "string"
            },
            {
              "internalType": "uint256",
              "name": "timestamp",
              "type": "uint256"
            },
            {
              "internalType": "address",
              "name": "creator",
              "type": "address"
            },
            {
              "internalType": "address",
              "name": "freelancer",
              "type": "address"
            },
            {
              "internalType": "enum ProjectManager.Status",
              "name": "status",
              "type": "uint8"
            },
            {
              "internalType": "uint256",
              "name": "projectFee",
              "type": "uint256"
            }
          ],
          "internalType": "struct ProjectManager.Project[]",
          "name": "",
          "type": "tuple[]"
        }
      ],
      "stateMutability": "view",
      "type": "function"
    },
    {
      "inputs": [
        {
          "internalType": "uint256",
          "name": "",
          "type": "uint256"
        }
      ],
      "name": "projects",
      "outputs": [
        {
          "internalType": "uint256",
          "name": "id",
          "type": "uint256"
        },
        {
          "internalType": "string",
          "name": "name",
          "type": "string"
        },
        {
          "internalType": "string",
          "name": "description",
          "type": "string"
        },
        {
          "internalType": "uint256",
          "name": "timestamp",
          "type": "uint256"
        },
        {
          "internalType": "address",
          "name": "creator",
          "type": "address"
        },
        {
          "internalType": "address",
          "name": "freelancer",
          "type": "address"
        },
        {
          "internalType": "enum ProjectManager.Status",
          "name": "status",
          "type": "uint8"
        },
        {
          "internalType": "uint256",
          "name": "projectFee",
          "type": "uint256"
        }
      ],
      "stateMutability": "view",
      "type": "function"
    },
    {
      "inputs": [
        {
          "internalType": "uint256",
          "name": "_projectId",
          "type": "uint256"
        }
      ],
      "name": "removeProject",
      "outputs": [],
      "stateMutability": "nonpayable",
      "type": "function"
    },
    {
      "inputs": [],
      "name": "verificationFee",
      "outputs": [
        {
          "internalType": "uint256",
          "name": "",
          "type": "uint256"
        }
      ],
      "stateMutability": "view",
      "type": "function"
    }
  ],
  "bytecode": "0x6080604052660110d9316ec00060015534801561001b57600080fd5b50612fe18061002b6000396000f3fe60806040526004361061007b5760003560e01c806394ba97091161004e57806394ba970914610167578063a8c278a214610183578063d5842c8b146101ae578063fd1d5ea9146101eb5761007b565b8063107046bd146100805780631aa22bba146100c45780635873f99814610101578063919b725a1461012a575b600080fd5b34801561008c57600080fd5b506100a760048036038101906100a29190612436565b610207565b6040516100bb989796959493929190612b09565b60405180910390f35b3480156100d057600080fd5b506100eb60048036038101906100e6919061237a565b6103bc565b6040516100f8919061294c565b60405180910390f35b34801561010d57600080fd5b5061012860048036038101906101239190612436565b61095c565b005b34801561013657600080fd5b50610151600480360381019061014c9190612351565b610fcc565b60405161015e919061294c565b60405180910390f35b610181600480360381019061017c91906123a3565b61150a565b005b34801561018f57600080fd5b506101986117b6565b6040516101a59190612a8e565b60405180910390f35b3480156101ba57600080fd5b506101d560048036038101906101d09190612351565b6117bc565b6040516101e2919061294c565b60405180910390f35b61020560048036038101906102009190612436565b611cfa565b005b6000818154811061021757600080fd5b906000526020600020906007020160009150905080600001549080600101805461024090612e11565b80601f016020809104026020016040519081016040528092919081815260200182805461026c90612e11565b80156102b95780601f1061028e576101008083540402835291602001916102b9565b820191906000526020600020905b81548152906001019060200180831161029c57829003601f168201915b5050505050908060020180546102ce90612e11565b80601f01602080910402602001604051908101604052809291908181526020018280546102fa90612e11565b80156103475780601f1061031c57610100808354040283529160200191610347565b820191906000526020600020905b81548152906001019060200180831161032a57829003601f168201915b5050505050908060030154908060040160009054906101000a900473ffffffffffffffffffffffffffffffffffffffff16908060050160009054906101000a900473ffffffffffffffffffffffffffffffffffffffff16908060050160149054906101000a900460ff16908060060154905088565b60606000805b6000805490508110156104c157836003811115610408577f4e487b7100000000000000000000000000000000000000000000000000000000600052602160045260246000fd5b60008281548110610442577f4e487b7100000000000000000000000000000000000000000000000000000000600052603260045260246000fd5b906000526020600020906007020160050160149054906101000a900460ff166003811115610499577f4e487b7100000000000000000000000000000000000000000000000000000000600052602160045260246000fd5b14156104ae5781806104aa90612e43565b9250505b80806104b990612e43565b9150506103c2565b5060008167ffffffffffffffff811115610504577f4e487b7100000000000000000000000000000000000000000000000000000000600052604160045260246000fd5b60405190808252806020026020018201604052801561053d57816020015b61052a612091565b8152602001906001900390816105225790505b5090506000805b6000805490508110156109505785600381111561058a577f4e487b7100000000000000000000000000000000000000000000000000000000600052602160045260246000fd5b600082815481106105c4577f4e487b7100000000000000000000000000000000000000000000000000000000600052603260045260246000fd5b906000526020600020906007020160050160149054906101000a900460ff16600381111561061b577f4e487b7100000000000000000000000000000000000000000000000000000000600052602160045260246000fd5b141561093d576000818154811061065b577f4e487b7100000000000000000000000000000000000000000000000000000000600052603260045260246000fd5b9060005260206000209060070201604051806101000160405290816000820154815260200160018201805461068f90612e11565b80601f01602080910402602001604051908101604052809291908181526020018280546106bb90612e11565b80156107085780601f106106dd57610100808354040283529160200191610708565b820191906000526020600020905b8154815290600101906020018083116106eb57829003601f168201915b5050505050815260200160028201805461072190612e11565b80601f016020809104026020016040519081016040528092919081815260200182805461074d90612e11565b801561079a5780601f1061076f5761010080835404028352916020019161079a565b820191906000526020600020905b81548152906001019060200180831161077d57829003601f168201915b50505050508152602001600382015481526020016004820160009054906101000a900473ffffffffffffffffffffffffffffffffffffffff1673ffffffffffffffffffffffffffffffffffffffff1673ffffffffffffffffffffffffffffffffffffffff1681526020016005820160009054906101000a900473ffffffffffffffffffffffffffffffffffffffff1673ffffffffffffffffffffffffffffffffffffffff1673ffffffffffffffffffffffffffffffffffffffff1681526020016005820160149054906101000a900460ff1660038111156108a4577f4e487b7100000000000000000000000000000000000000000000000000000000600052602160045260246000fd5b60038111156108dc577f4e487b7100000000000000000000000000000000000000000000000000000000600052602160045260246000fd5b8152602001600682015481525050838381518110610923577f4e487b7100000000000000000000000000000000000000000000000000000000600052603260045260246000fd5b6020026020010181905250818061093990612e43565b9250505b808061094890612e43565b915050610544565b50819350505050919050565b60008054905081106109a3576040517f08c379a000000000000000000000000000000000000000000000000000000000815260040161099a90612a6e565b60405180910390fd5b60008082815481106109de577f4e487b7100000000000000000000000000000000000000000000000000000000600052603260045260246000fd5b906000526020600020906007020190508060040160009054906101000a900473ffffffffffffffffffffffffffffffffffffffff1673ffffffffffffffffffffffffffffffffffffffff163373ffffffffffffffffffffffffffffffffffffffff1614610a80576040517f08c379a0000000000000000000000000000000000000000000000000000000008152600401610a7790612a0e565b60405180910390fd5b60006003811115610aba577f4e487b7100000000000000000000000000000000000000000000000000000000600052602160045260246000fd5b8160050160149054906101000a900460ff166003811115610b04577f4e487b7100000000000000000000000000000000000000000000000000000000600052602160045260246000fd5b14610b44576040517f08c379a0000000000000000000000000000000000000000000000000000000008152600401610b3b90612a2e565b60405180910390fd5b60006001548260060154610b589190612ce4565b90506001600080549050610b6c9190612d3a565b8314610df65760006001600080549050610b869190612d3a565b81548110610bbd577f4e487b7100000000000000000000000000000000000000000000000000000000600052603260045260246000fd5b906000526020600020906007020160008481548110610c05577f4e487b7100000000000000000000000000000000000000000000000000000000600052603260045260246000fd5b9060005260206000209060070201600082015481600001556001820181600101908054610c3190612e11565b610c3c92919061213a565b506002820181600201908054610c5190612e11565b610c5c92919061213a565b50600382015481600301556004820160009054906101000a900473ffffffffffffffffffffffffffffffffffffffff168160040160006101000a81548173ffffffffffffffffffffffffffffffffffffffff021916908373ffffffffffffffffffffffffffffffffffffffff1602179055506005820160009054906101000a900473ffffffffffffffffffffffffffffffffffffffff168160050160006101000a81548173ffffffffffffffffffffffffffffffffffffffff021916908373ffffffffffffffffffffffffffffffffffffffff1602179055506005820160149054906101000a900460ff168160050160146101000a81548160ff02191690836003811115610d93577f4e487b7100000000000000000000000000000000000000000000000000000000600052602160045260246000fd5b0217905550600682015481600601559050508260008481548110610de0577f4e487b7100000000000000000000000000000000000000000000000000000000600052603260045260246000fd5b9060005260206000209060070201600001819055505b6000805480610e2e577f4e487b7100000000000000000000000000000000000000000000000000000000600052603160045260246000fd5b6001900381819060005260206000209060070201600080820160009055600182016000610e5b91906121c7565b600282016000610e6b91906121c7565b60038201600090556004820160006101000a81549073ffffffffffffffffffffffffffffffffffffffff02191690556005820160006101000a81549073ffffffffffffffffffffffffffffffffffffffff02191690556005820160146101000a81549060ff021916905560068201600090555050905560003373ffffffffffffffffffffffffffffffffffffffff1682604051610f0790612937565b60006040518083038185875af1925050503d8060008114610f44576040519150601f19603f3d011682016040523d82523d6000602084013e610f49565b606091505b5050905080610f8d576040517f08c379a0000000000000000000000000000000000000000000000000000000008152600401610f8490612a4e565b60405180910390fd5b7fba1c16e049c7a348b951726f087bd968f9f40e6c64c8cf9ae55ed756ae6294408433604051610fbe929190612aa9565b60405180910390a150505050565b60606000805b6000805490508110156110a0578373ffffffffffffffffffffffffffffffffffffffff1660008281548110611030577f4e487b7100000000000000000000000000000000000000000000000000000000600052603260045260246000fd5b906000526020600020906007020160050160009054906101000a900473ffffffffffffffffffffffffffffffffffffffff1673ffffffffffffffffffffffffffffffffffffffff16141561108d57818061108990612e43565b9250505b808061109890612e43565b915050610fd2565b5060008167ffffffffffffffff8111156110e3577f4e487b7100000000000000000000000000000000000000000000000000000000600052604160045260246000fd5b60405190808252806020026020018201604052801561111c57816020015b611109612091565b8152602001906001900390816111015790505b5090506000805b6000805490508110156114fe578573ffffffffffffffffffffffffffffffffffffffff1660008281548110611181577f4e487b7100000000000000000000000000000000000000000000000000000000600052603260045260246000fd5b906000526020600020906007020160050160009054906101000a900473ffffffffffffffffffffffffffffffffffffffff1673ffffffffffffffffffffffffffffffffffffffff1614156114eb5760008181548110611209577f4e487b7100000000000000000000000000000000000000000000000000000000600052603260045260246000fd5b9060005260206000209060070201604051806101000160405290816000820154815260200160018201805461123d90612e11565b80601f016020809104026020016040519081016040528092919081815260200182805461126990612e11565b80156112b65780601f1061128b576101008083540402835291602001916112b6565b820191906000526020600020905b81548152906001019060200180831161129957829003601f168201915b505050505081526020016002820180546112cf90612e11565b80601f01602080910402602001604051908101604052809291908181526020018280546112fb90612e11565b80156113485780601f1061131d57610100808354040283529160200191611348565b820191906000526020600020905b81548152906001019060200180831161132b57829003601f168201915b50505050508152602001600382015481526020016004820160009054906101000a900473ffffffffffffffffffffffffffffffffffffffff1673ffffffffffffffffffffffffffffffffffffffff1673ffffffffffffffffffffffffffffffffffffffff1681526020016005820160009054906101000a900473ffffffffffffffffffffffffffffffffffffffff1673ffffffffffffffffffffffffffffffffffffffff1673ffffffffffffffffffffffffffffffffffffffff1681526020016005820160149054906101000a900460ff166003811115611452577f4e487b7100000000000000000000000000000000000000000000000000000000600052602160045260246000fd5b600381111561148a577f4e487b7100000000000000000000000000000000000000000000000000000000600052602160045260246000fd5b81526020016006820154815250508383815181106114d1577f4e487b7100000000000000000000000000000000000000000000000000000000600052603260045260246000fd5b602002602001018190525081806114e790612e43565b9250505b80806114f690612e43565b915050611123565b50819350505050919050565b600154816115189190612ce4565b3414611559576040517f08c379a00000000000000000000000000000000000000000000000000000000081526004016115509061296e565b60405180910390fd5b60008080549050905060006040518061010001604052808381526020018781526020018681526020018581526020013373ffffffffffffffffffffffffffffffffffffffff168152602001600073ffffffffffffffffffffffffffffffffffffffff168152602001600060038111156115fb577f4e487b7100000000000000000000000000000000000000000000000000000000600052602160045260246000fd5b8152602001848152509080600181540180825580915050600190039060005260206000209060070201600090919091909150600082015181600001556020820151816001019080519060200190611653929190612207565b506040820151816002019080519060200190611670929190612207565b506060820151816003015560808201518160040160006101000a81548173ffffffffffffffffffffffffffffffffffffffff021916908373ffffffffffffffffffffffffffffffffffffffff16021790555060a08201518160050160006101000a81548173ffffffffffffffffffffffffffffffffffffffff021916908373ffffffffffffffffffffffffffffffffffffffff16021790555060c08201518160050160146101000a81548160ff0219169083600381111561175a577f4e487b7100000000000000000000000000000000000000000000000000000000600052602160045260246000fd5b021790555060e0820151816006015550507f59efe781992d5ecfa36fc33ea75b2d74345c30fd2e5762bfe91d37159b14965281868686336000886040516117a79796959493929190612b95565b60405180910390a15050505050565b60015481565b60606000805b600080549050811015611890578373ffffffffffffffffffffffffffffffffffffffff1660008281548110611820577f4e487b7100000000000000000000000000000000000000000000000000000000600052603260045260246000fd5b906000526020600020906007020160040160009054906101000a900473ffffffffffffffffffffffffffffffffffffffff1673ffffffffffffffffffffffffffffffffffffffff16141561187d57818061187990612e43565b9250505b808061188890612e43565b9150506117c2565b5060008167ffffffffffffffff8111156118d3577f4e487b7100000000000000000000000000000000000000000000000000000000600052604160045260246000fd5b60405190808252806020026020018201604052801561190c57816020015b6118f9612091565b8152602001906001900390816118f15790505b5090506000805b600080549050811015611cee578573ffffffffffffffffffffffffffffffffffffffff1660008281548110611971577f4e487b7100000000000000000000000000000000000000000000000000000000600052603260045260246000fd5b906000526020600020906007020160040160009054906101000a900473ffffffffffffffffffffffffffffffffffffffff1673ffffffffffffffffffffffffffffffffffffffff161415611cdb57600081815481106119f9577f4e487b7100000000000000000000000000000000000000000000000000000000600052603260045260246000fd5b90600052602060002090600702016040518061010001604052908160008201548152602001600182018054611a2d90612e11565b80601f0160208091040260200160405190810160405280929190818152602001828054611a5990612e11565b8015611aa65780601f10611a7b57610100808354040283529160200191611aa6565b820191906000526020600020905b815481529060010190602001808311611a8957829003601f168201915b50505050508152602001600282018054611abf90612e11565b80601f0160208091040260200160405190810160405280929190818152602001828054611aeb90612e11565b8015611b385780601f10611b0d57610100808354040283529160200191611b38565b820191906000526020600020905b815481529060010190602001808311611b1b57829003601f168201915b50505050508152602001600382015481526020016004820160009054906101000a900473ffffffffffffffffffffffffffffffffffffffff1673ffffffffffffffffffffffffffffffffffffffff1673ffffffffffffffffffffffffffffffffffffffff1681526020016005820160009054906101000a900473ffffffffffffffffffffffffffffffffffffffff1673ffffffffffffffffffffffffffffffffffffffff1673ffffffffffffffffffffffffffffffffffffffff1681526020016005820160149054906101000a900460ff166003811115611c42577f4e487b7100000000000000000000000000000000000000000000000000000000600052602160045260246000fd5b6003811115611c7a577f4e487b7100000000000000000000000000000000000000000000000000000000600052602160045260246000fd5b8152602001600682015481525050838381518110611cc1577f4e487b7100000000000000000000000000000000000000000000000000000000600052603260045260246000fd5b60200260200101819052508180611cd790612e43565b9250505b8080611ce690612e43565b915050611913565b50819350505050919050565b6000805490508110611d41576040517f08c379a0000000000000000000000000000000000000000000000000000000008152600401611d3890612a6e565b60405180910390fd5b6000808281548110611d7c577f4e487b7100000000000000000000000000000000000000000000000000000000600052603260045260246000fd5b906000526020600020906007020190508060040160009054906101000a900473ffffffffffffffffffffffffffffffffffffffff1673ffffffffffffffffffffffffffffffffffffffff163373ffffffffffffffffffffffffffffffffffffffff161415611e1f576040517f08c379a0000000000000000000000000000000000000000000000000000000008152600401611e16906129ce565b60405180910390fd5b60006003811115611e59577f4e487b7100000000000000000000000000000000000000000000000000000000600052602160045260246000fd5b8160050160149054906101000a900460ff166003811115611ea3577f4e487b7100000000000000000000000000000000000000000000000000000000600052602160045260246000fd5b14611ee3576040517f08c379a0000000000000000000000000000000000000000000000000000000008152600401611eda9061298e565b60405180910390fd5b600073ffffffffffffffffffffffffffffffffffffffff168160050160009054906101000a900473ffffffffffffffffffffffffffffffffffffffff1673ffffffffffffffffffffffffffffffffffffffff1614611f76576040517f08c379a0000000000000000000000000000000000000000000000000000000008152600401611f6d906129ee565b60405180910390fd5b6001543414611fba576040517f08c379a0000000000000000000000000000000000000000000000000000000008152600401611fb1906129ae565b60405180910390fd5b338160050160006101000a81548173ffffffffffffffffffffffffffffffffffffffff021916908373ffffffffffffffffffffffffffffffffffffffff16021790555060018160050160146101000a81548160ff0219169083600381111561204b577f4e487b7100000000000000000000000000000000000000000000000000000000600052602160045260246000fd5b02179055507f15a4a29eccf92a0bbf94f24a6840487aa0226f7fb02d3402f1f86b3360bdfc6a826000600160405161208593929190612ad2565b60405180910390a15050565b60405180610100016040528060008152602001606081526020016060815260200160008152602001600073ffffffffffffffffffffffffffffffffffffffff168152602001600073ffffffffffffffffffffffffffffffffffffffff1681526020016000600381111561212d577f4e487b7100000000000000000000000000000000000000000000000000000000600052602160045260246000fd5b8152602001600081525090565b82805461214690612e11565b90600052602060002090601f01602090048101928261216857600085556121b6565b82601f1061217957805485556121b6565b828001600101855582156121b657600052602060002091601f016020900482015b828111156121b557825482559160010191906001019061219a565b5b5090506121c3919061228d565b5090565b5080546121d390612e11565b6000825580601f106121e55750612204565b601f016020900490600052602060002090810190612203919061228d565b5b50565b82805461221390612e11565b90600052602060002090601f016020900481019282612235576000855561227c565b82601f1061224e57805160ff191683800117855561227c565b8280016001018555821561227c579182015b8281111561227b578251825591602001919060010190612260565b5b509050612289919061228d565b5090565b5b808211156122a657600081600090555060010161228e565b5090565b60006122bd6122b884612c43565b612c12565b9050828152602081018484840111156122d557600080fd5b6122e0848285612dcf565b509392505050565b6000813590506122f781612f6d565b92915050565b60008135905061230c81612f84565b92915050565b600082601f83011261232357600080fd5b81356123338482602086016122aa565b91505092915050565b60008135905061234b81612f94565b92915050565b60006020828403121561236357600080fd5b6000612371848285016122e8565b91505092915050565b60006020828403121561238c57600080fd5b600061239a848285016122fd565b91505092915050565b600080600080608085870312156123b957600080fd5b600085013567ffffffffffffffff8111156123d357600080fd5b6123df87828801612312565b945050602085013567ffffffffffffffff8111156123fc57600080fd5b61240887828801612312565b93505060406124198782880161233c565b925050606061242a8782880161233c565b91505092959194509250565b60006020828403121561244857600080fd5b60006124568482850161233c565b91505092915050565b600061246b8383612862565b905092915050565b61247c81612d6e565b82525050565b61248b81612d6e565b82525050565b600061249c82612c83565b6124a68185612ca6565b9350836020820285016124b885612c73565b8060005b858110156124f457848403895281516124d5858261245f565b94506124e083612c99565b925060208a019950506001810190506124bc565b50829750879550505050505092915050565b61250f81612dbd565b82525050565b61251e81612dbd565b82525050565b600061252f82612c8e565b6125398185612cc2565b9350612549818560208601612dde565b61255281612f48565b840191505092915050565b600061256882612c8e565b6125728185612cd3565b9350612582818560208601612dde565b61258b81612f48565b840191505092915050565b60006125a3601283612cd3565b91507f496e636f7272656374204554482073656e7400000000000000000000000000006000830152602082019050919050565b60006125e3601383612cd3565b91507f50726f6a656374206973206e6f74206f70656e000000000000000000000000006000830152602082019050919050565b6000612623601a83612cd3565b91507f496e636f727265637420766572696669636174696f6e206665650000000000006000830152602082019050919050565b6000612663602183612cd3565b91507f43726561746f722063616e6e6f7420616363657074206f776e2070726f6a656360008301527f74000000000000000000000000000000000000000000000000000000000000006020830152604082019050919050565b60006126c9602083612cd3565b91507f50726f6a65637420616c726561647920686173206120667265656c616e6365726000830152602082019050919050565b6000612709600083612cb7565b9150600082019050919050565b6000612723602f83612cd3565b91507f4f6e6c79207468652070726f6a6563742063726561746f722063616e2072656d60008301527f6f7665207468652070726f6a65637400000000000000000000000000000000006020830152604082019050919050565b6000612789602183612cd3565b91507f4f6e6c79206f70656e2070726f6a656374732063616e2062652072656d6f766560008301527f64000000000000000000000000000000000000000000000000000000000000006020830152604082019050919050565b60006127ef601683612cd3565b91507f526566756e64207472616e73666572206661696c6564000000000000000000006000830152602082019050919050565b600061282f601683612cd3565b91507f50726f6a65637420646f6573206e6f74206578697374000000000000000000006000830152602082019050919050565b60006101008301600083015161287b6000860182612919565b50602083015184820360208601526128938282612524565b915050604083015184820360408601526128ad8282612524565b91505060608301516128c26060860182612919565b5060808301516128d56080860182612473565b5060a08301516128e860a0860182612473565b5060c08301516128fb60c0860182612506565b5060e083015161290e60e0860182612919565b508091505092915050565b61292281612db3565b82525050565b61293181612db3565b82525050565b6000612942826126fc565b9150819050919050565b600060208201905081810360008301526129668184612491565b905092915050565b6000602082019050818103600083015261298781612596565b9050919050565b600060208201905081810360008301526129a7816125d6565b9050919050565b600060208201905081810360008301526129c781612616565b9050919050565b600060208201905081810360008301526129e781612656565b9050919050565b60006020820190508181036000830152612a07816126bc565b9050919050565b60006020820190508181036000830152612a2781612716565b9050919050565b60006020820190508181036000830152612a478161277c565b9050919050565b60006020820190508181036000830152612a67816127e2565b9050919050565b60006020820190508181036000830152612a8781612822565b9050919050565b6000602082019050612aa36000830184612928565b92915050565b6000604082019050612abe6000830185612928565b612acb6020830184612482565b9392505050565b6000606082019050612ae76000830186612928565b612af46020830185612515565b612b016040830184612515565b949350505050565b600061010082019050612b1f600083018b612928565b8181036020830152612b31818a61255d565b90508181036040830152612b45818961255d565b9050612b546060830188612928565b612b616080830187612482565b612b6e60a0830186612482565b612b7b60c0830185612515565b612b8860e0830184612928565b9998505050505050505050565b600060e082019050612baa600083018a612928565b8181036020830152612bbc818961255d565b90508181036040830152612bd0818861255d565b9050612bdf6060830187612928565b612bec6080830186612482565b612bf960a0830185612515565b612c0660c0830184612928565b98975050505050505050565b6000604051905081810181811067ffffffffffffffff82111715612c3957612c38612f19565b5b8060405250919050565b600067ffffffffffffffff821115612c5e57612c5d612f19565b5b601f19601f8301169050602081019050919050565b6000819050602082019050919050565b600081519050919050565b600081519050919050565b6000602082019050919050565b600082825260208201905092915050565b600081905092915050565b600082825260208201905092915050565b600082825260208201905092915050565b6000612cef82612db3565b9150612cfa83612db3565b9250827fffffffffffffffffffffffffffffffffffffffffffffffffffffffffffffffff03821115612d2f57612d2e612e8c565b5b828201905092915050565b6000612d4582612db3565b9150612d5083612db3565b925082821015612d6357612d62612e8c565b5b828203905092915050565b6000612d7982612d93565b9050919050565b6000819050612d8e82612f59565b919050565b600073ffffffffffffffffffffffffffffffffffffffff82169050919050565b6000819050919050565b6000612dc882612d80565b9050919050565b82818337600083830152505050565b60005b83811015612dfc578082015181840152602081019050612de1565b83811115612e0b576000848401525b50505050565b60006002820490506001821680612e2957607f821691505b60208210811415612e3d57612e3c612eea565b5b50919050565b6000612e4e82612db3565b91507fffffffffffffffffffffffffffffffffffffffffffffffffffffffffffffffff821415612e8157612e80612e8c565b5b600182019050919050565b7f4e487b7100000000000000000000000000000000000000000000000000000000600052601160045260246000fd5b7f4e487b7100000000000000000000000000000000000000000000000000000000600052602160045260246000fd5b7f4e487b7100000000000000000000000000000000000000000000000000000000600052602260045260246000fd5b7f4e487b7100000000000000000000000000000000000000000000000000000000600052604160045260246000fd5b6000601f19601f8301169050919050565b60048110612f6a57612f69612ebb565b5b50565b612f7681612d6e565b8114612f8157600080fd5b50565b60048110612f9157600080fd5b50565b612f9d81612db3565b8114612fa857600080fd5b5056fea264697066735822122011cc181577144d31e37d2c2a413a6260eff76aee6d2426a5a595ed8a9e7ab06964736f6c63430008000033",
  "linkReferences": {},
  "deployedLinkReferences": {}
}