{
  "_format": "hh-sol-artifact-1",
  "contractName": "ProjectManager",
  "sourceName": "contracts/ProjectManager.sol",
  "abi": [
    {
      "anonymous": false,
      "inputs": [
        {
          "indexed": false,
          "internalType": "string",
          "name": "name",
          "type": "string"
        },
        {
          "indexed": false,
          "internalType": "string",
          "name": "description",
          "type": "string"
        },
        {
          "indexed": false,
          "internalType": "uint256",
          "name": "timestamp",
          "type": "uint256"
        },
        {
          "indexed": false,
          "internalType": "address",
          "name": "creator",
          "type": "address"
        },
        {
          "indexed": false,
          "internalType": "enum ProjectManager.Status",
          "name": "status",
          "type": "uint8"
        }
      ],
      "name": "ProjectCreated",
      "type": "event"
    },
    {
      "anonymous": false,
      "inputs": [
        {
          "indexed": false,
          "internalType": "uint256",
          "name": "projectId",
          "type": "uint256"
        },
        {
          "indexed": false,
          "internalType": "enum ProjectManager.Status",
          "name": "oldStatus",
          "type": "uint8"
        },
        {
          "indexed": false,
          "internalType": "enum ProjectManager.Status",
          "name": "newStatus",
          "type": "uint8"
        }
      ],
      "name": "ProjectStatusUpdated",
      "type": "event"
    },
    {
      "inputs": [
        {
          "internalType": "string",
          "name": "_name",
          "type": "string"
        },
        {
          "internalType": "string",
          "name": "_description",
          "type": "string"
        },
        {
          "internalType": "uint256",
          "name": "_timestamp",
          "type": "uint256"
        }
      ],
      "name": "createProject",
      "outputs": [],
      "stateMutability": "nonpayable",
      "type": "function"
    },
    {
      "inputs": [
        {
          "internalType": "address",
          "name": "_creator",
          "type": "address"
        }
      ],
      "name": "getProjectsByAddress",
      "outputs": [
        {
          "components": [
            {
              "internalType": "string",
              "name": "name",
              "type": "string"
            },
            {
              "internalType": "string",
              "name": "description",
              "type": "string"
            },
            {
              "internalType": "uint256",
              "name": "timestamp",
              "type": "uint256"
            },
            {
              "internalType": "address",
              "name": "creator",
              "type": "address"
            },
            {
              "internalType": "enum ProjectManager.Status",
              "name": "status",
              "type": "uint8"
            }
          ],
          "internalType": "struct ProjectManager.Project[]",
          "name": "",
          "type": "tuple[]"
        }
      ],
      "stateMutability": "view",
      "type": "function"
    },
    {
      "inputs": [
        {
          "internalType": "enum ProjectManager.Status",
          "name": "_status",
          "type": "uint8"
        }
      ],
      "name": "getProjectsByStatus",
      "outputs": [
        {
          "components": [
            {
              "internalType": "string",
              "name": "name",
              "type": "string"
            },
            {
              "internalType": "string",
              "name": "description",
              "type": "string"
            },
            {
              "internalType": "uint256",
              "name": "timestamp",
              "type": "uint256"
            },
            {
              "internalType": "address",
              "name": "creator",
              "type": "address"
            },
            {
              "internalType": "enum ProjectManager.Status",
              "name": "status",
              "type": "uint8"
            }
          ],
          "internalType": "struct ProjectManager.Project[]",
          "name": "",
          "type": "tuple[]"
        }
      ],
      "stateMutability": "view",
      "type": "function"
    },
    {
      "inputs": [
        {
          "internalType": "uint256",
          "name": "",
          "type": "uint256"
        }
      ],
      "name": "projects",
      "outputs": [
        {
          "internalType": "string",
          "name": "name",
          "type": "string"
        },
        {
          "internalType": "string",
          "name": "description",
          "type": "string"
        },
        {
          "internalType": "uint256",
          "name": "timestamp",
          "type": "uint256"
        },
        {
          "internalType": "address",
          "name": "creator",
          "type": "address"
        },
        {
          "internalType": "enum ProjectManager.Status",
          "name": "status",
          "type": "uint8"
        }
      ],
      "stateMutability": "view",
      "type": "function"
    },
    {
      "inputs": [
        {
          "internalType": "uint256",
          "name": "_projectId",
          "type": "uint256"
        },
        {
          "internalType": "enum ProjectManager.Status",
          "name": "_newStatus",
          "type": "uint8"
        }
      ],
      "name": "updateProjectStatus",
      "outputs": [],
      "stateMutability": "nonpayable",
      "type": "function"
    }
  ],
  "bytecode": "0x608060405234801561001057600080fd5b50611a7a806100206000396000f3fe608060405234801561001057600080fd5b50600436106100575760003560e01c8063107046bd1461005c5780631aa22bba1461009057806323c55448146100c0578063d11d498b146100dc578063d5842c8b146100f8575b600080fd5b61007660048036038101906100719190611369565b610128565b604051610087959493929190611668565b60405180910390f35b6100aa60048036038101906100a591906112c1565b6102ab565b6040516100b79190611646565b60405180910390f35b6100da60048036038101906100d591906112ea565b6107e0565b005b6100f660048036038101906100f19190611392565b6109a9565b005b610112600480360381019061010d9190611298565b610bfe565b60405161011f9190611646565b60405180910390f35b6000818154811061013857600080fd5b906000526020600020906004020160009150905080600001805461015b906118aa565b80601f0160208091040260200160405190810160405280929190818152602001828054610187906118aa565b80156101d45780601f106101a9576101008083540402835291602001916101d4565b820191906000526020600020905b8154815290600101906020018083116101b757829003601f168201915b5050505050908060010180546101e9906118aa565b80601f0160208091040260200160405190810160405280929190818152602001828054610215906118aa565b80156102625780601f1061023757610100808354040283529160200191610262565b820191906000526020600020905b81548152906001019060200180831161024557829003601f168201915b5050505050908060020154908060030160009054906101000a900473ffffffffffffffffffffffffffffffffffffffff16908060030160149054906101000a900460ff16905085565b60606000805b6000805490508110156103b0578360038111156102f7577f4e487b7100000000000000000000000000000000000000000000000000000000600052602160045260246000fd5b60008281548110610331577f4e487b7100000000000000000000000000000000000000000000000000000000600052603260045260246000fd5b906000526020600020906004020160030160149054906101000a900460ff166003811115610388577f4e487b7100000000000000000000000000000000000000000000000000000000600052602160045260246000fd5b141561039d578180610399906118dc565b9250505b80806103a8906118dc565b9150506102b1565b5060008167ffffffffffffffff8111156103f3577f4e487b7100000000000000000000000000000000000000000000000000000000600052604160045260246000fd5b60405190808252806020026020018201604052801561042c57816020015b6104196110d1565b8152602001906001900390816104115790505b5090506000805b6000805490508110156107d457856003811115610479577f4e487b7100000000000000000000000000000000000000000000000000000000600052602160045260246000fd5b600082815481106104b3577f4e487b7100000000000000000000000000000000000000000000000000000000600052603260045260246000fd5b906000526020600020906004020160030160149054906101000a900460ff16600381111561050a577f4e487b7100000000000000000000000000000000000000000000000000000000600052602160045260246000fd5b14156107c1576000818154811061054a577f4e487b7100000000000000000000000000000000000000000000000000000000600052603260045260246000fd5b90600052602060002090600402016040518060a0016040529081600082018054610573906118aa565b80601f016020809104026020016040519081016040528092919081815260200182805461059f906118aa565b80156105ec5780601f106105c1576101008083540402835291602001916105ec565b820191906000526020600020905b8154815290600101906020018083116105cf57829003601f168201915b50505050508152602001600182018054610605906118aa565b80601f0160208091040260200160405190810160405280929190818152602001828054610631906118aa565b801561067e5780601f106106535761010080835404028352916020019161067e565b820191906000526020600020905b81548152906001019060200180831161066157829003601f168201915b50505050508152602001600282015481526020016003820160009054906101000a900473ffffffffffffffffffffffffffffffffffffffff1673ffffffffffffffffffffffffffffffffffffffff1673ffffffffffffffffffffffffffffffffffffffff1681526020016003820160149054906101000a900460ff166003811115610732577f4e487b7100000000000000000000000000000000000000000000000000000000600052602160045260246000fd5b600381111561076a577f4e487b7100000000000000000000000000000000000000000000000000000000600052602160045260246000fd5b815250508383815181106107a7577f4e487b7100000000000000000000000000000000000000000000000000000000600052603260045260246000fd5b602002602001018190525081806107bd906118dc565b9250505b80806107cc906118dc565b915050610433565b50819350505050919050565b60006040518060a001604052808581526020018481526020018381526020013373ffffffffffffffffffffffffffffffffffffffff16815260200160006003811115610855577f4e487b7100000000000000000000000000000000000000000000000000000000600052602160045260246000fd5b8152509080600181540180825580915050600190039060005260206000209060040201600090919091909150600082015181600001908051906020019061089d92919061114e565b5060208201518160010190805190602001906108ba92919061114e565b506040820151816002015560608201518160030160006101000a81548173ffffffffffffffffffffffffffffffffffffffff021916908373ffffffffffffffffffffffffffffffffffffffff16021790555060808201518160030160146101000a81548160ff0219169083600381111561095d577f4e487b7100000000000000000000000000000000000000000000000000000000600052602160045260246000fd5b021790555050507f65643d366363d4cafb11a8ca802f029dd5311b5b3e24ae55ba4fb8b808d8bf5883838333600060405161099c959493929190611668565b60405180910390a1505050565b60008054905082106109f0576040517f08c379a00000000000000000000000000000000000000000000000000000000081526004016109e7906116e9565b60405180910390fd5b3373ffffffffffffffffffffffffffffffffffffffff1660008381548110610a41577f4e487b7100000000000000000000000000000000000000000000000000000000600052603260045260246000fd5b906000526020600020906004020160030160009054906101000a900473ffffffffffffffffffffffffffffffffffffffff1673ffffffffffffffffffffffffffffffffffffffff1614610ac9576040517f08c379a0000000000000000000000000000000000000000000000000000000008152600401610ac0906116c9565b60405180910390fd5b6000808381548110610b04577f4e487b7100000000000000000000000000000000000000000000000000000000600052603260045260246000fd5b906000526020600020906004020160030160149054906101000a900460ff1690508160008481548110610b60577f4e487b7100000000000000000000000000000000000000000000000000000000600052603260045260246000fd5b906000526020600020906004020160030160146101000a81548160ff02191690836003811115610bb9577f4e487b7100000000000000000000000000000000000000000000000000000000600052602160045260246000fd5b02179055507f15a4a29eccf92a0bbf94f24a6840487aa0226f7fb02d3402f1f86b3360bdfc6a838284604051610bf193929190611709565b60405180910390a1505050565b60606000805b600080549050811015610cd2578373ffffffffffffffffffffffffffffffffffffffff1660008281548110610c62577f4e487b7100000000000000000000000000000000000000000000000000000000600052603260045260246000fd5b906000526020600020906004020160030160009054906101000a900473ffffffffffffffffffffffffffffffffffffffff1673ffffffffffffffffffffffffffffffffffffffff161415610cbf578180610cbb906118dc565b9250505b8080610cca906118dc565b915050610c04565b5060008167ffffffffffffffff811115610d15577f4e487b7100000000000000000000000000000000000000000000000000000000600052604160045260246000fd5b604051908082528060200260200182016040528015610d4e57816020015b610d3b6110d1565b815260200190600190039081610d335790505b5090506000805b6000805490508110156110c5578573ffffffffffffffffffffffffffffffffffffffff1660008281548110610db3577f4e487b7100000000000000000000000000000000000000000000000000000000600052603260045260246000fd5b906000526020600020906004020160030160009054906101000a900473ffffffffffffffffffffffffffffffffffffffff1673ffffffffffffffffffffffffffffffffffffffff1614156110b25760008181548110610e3b577f4e487b7100000000000000000000000000000000000000000000000000000000600052603260045260246000fd5b90600052602060002090600402016040518060a0016040529081600082018054610e64906118aa565b80601f0160208091040260200160405190810160405280929190818152602001828054610e90906118aa565b8015610edd5780601f10610eb257610100808354040283529160200191610edd565b820191906000526020600020905b815481529060010190602001808311610ec057829003601f168201915b50505050508152602001600182018054610ef6906118aa565b80601f0160208091040260200160405190810160405280929190818152602001828054610f22906118aa565b8015610f6f5780601f10610f4457610100808354040283529160200191610f6f565b820191906000526020600020905b815481529060010190602001808311610f5257829003601f168201915b50505050508152602001600282015481526020016003820160009054906101000a900473ffffffffffffffffffffffffffffffffffffffff1673ffffffffffffffffffffffffffffffffffffffff1673ffffffffffffffffffffffffffffffffffffffff1681526020016003820160149054906101000a900460ff166003811115611023577f4e487b7100000000000000000000000000000000000000000000000000000000600052602160045260246000fd5b600381111561105b577f4e487b7100000000000000000000000000000000000000000000000000000000600052602160045260246000fd5b81525050838381518110611098577f4e487b7100000000000000000000000000000000000000000000000000000000600052603260045260246000fd5b602002602001018190525081806110ae906118dc565b9250505b80806110bd906118dc565b915050610d55565b50819350505050919050565b6040518060a00160405280606081526020016060815260200160008152602001600073ffffffffffffffffffffffffffffffffffffffff16815260200160006003811115611148577f4e487b7100000000000000000000000000000000000000000000000000000000600052602160045260246000fd5b81525090565b82805461115a906118aa565b90600052602060002090601f01602090048101928261117c57600085556111c3565b82601f1061119557805160ff19168380011785556111c3565b828001600101855582156111c3579182015b828111156111c25782518255916020019190600101906111a7565b5b5090506111d091906111d4565b5090565b5b808211156111ed5760008160009055506001016111d5565b5090565b60006112046111ff84611771565b611740565b90508281526020810184848401111561121c57600080fd5b611227848285611868565b509392505050565b60008135905061123e81611a06565b92915050565b60008135905061125381611a1d565b92915050565b600082601f83011261126a57600080fd5b813561127a8482602086016111f1565b91505092915050565b60008135905061129281611a2d565b92915050565b6000602082840312156112aa57600080fd5b60006112b88482850161122f565b91505092915050565b6000602082840312156112d357600080fd5b60006112e184828501611244565b91505092915050565b6000806000606084860312156112ff57600080fd5b600084013567ffffffffffffffff81111561131957600080fd5b61132586828701611259565b935050602084013567ffffffffffffffff81111561134257600080fd5b61134e86828701611259565b925050604061135f86828701611283565b9150509250925092565b60006020828403121561137b57600080fd5b600061138984828501611283565b91505092915050565b600080604083850312156113a557600080fd5b60006113b385828601611283565b92505060206113c485828601611244565b9150509250929050565b60006113da83836115ab565b905092915050565b6113eb81611807565b82525050565b6113fa81611807565b82525050565b600061140b826117b1565b61141581856117d4565b935083602082028501611427856117a1565b8060005b85811015611463578484038952815161144485826113ce565b945061144f836117c7565b925060208a0199505060018101905061142b565b50829750879550505050505092915050565b61147e81611856565b82525050565b61148d81611856565b82525050565b600061149e826117bc565b6114a881856117e5565b93506114b8818560208601611877565b6114c1816119e1565b840191505092915050565b60006114d7826117bc565b6114e181856117f6565b93506114f1818560208601611877565b6114fa816119e1565b840191505092915050565b60006115126026836117f6565b91507f4f6e6c79207468652063726561746f722063616e20757064617465207468652060008301527f73746174757300000000000000000000000000000000000000000000000000006020830152604082019050919050565b60006115786012836117f6565b91507f496e76616c69642070726f6a65637420494400000000000000000000000000006000830152602082019050919050565b600060a08301600083015184820360008601526115c88282611493565b915050602083015184820360208601526115e28282611493565b91505060408301516115f76040860182611628565b50606083015161160a60608601826113e2565b50608083015161161d6080860182611475565b508091505092915050565b6116318161184c565b82525050565b6116408161184c565b82525050565b600060208201905081810360008301526116608184611400565b905092915050565b600060a082019050818103600083015261168281886114cc565b9050818103602083015261169681876114cc565b90506116a56040830186611637565b6116b260608301856113f1565b6116bf6080830184611484565b9695505050505050565b600060208201905081810360008301526116e281611505565b9050919050565b600060208201905081810360008301526117028161156b565b9050919050565b600060608201905061171e6000830186611637565b61172b6020830185611484565b6117386040830184611484565b949350505050565b6000604051905081810181811067ffffffffffffffff82111715611767576117666119b2565b5b8060405250919050565b600067ffffffffffffffff82111561178c5761178b6119b2565b5b601f19601f8301169050602081019050919050565b6000819050602082019050919050565b600081519050919050565b600081519050919050565b6000602082019050919050565b600082825260208201905092915050565b600082825260208201905092915050565b600082825260208201905092915050565b60006118128261182c565b9050919050565b6000819050611827826119f2565b919050565b600073ffffffffffffffffffffffffffffffffffffffff82169050919050565b6000819050919050565b600061186182611819565b9050919050565b82818337600083830152505050565b60005b8381101561189557808201518184015260208101905061187a565b838111156118a4576000848401525b50505050565b600060028204905060018216806118c257607f821691505b602082108114156118d6576118d5611983565b5b50919050565b60006118e78261184c565b91507fffffffffffffffffffffffffffffffffffffffffffffffffffffffffffffffff82141561191a57611919611925565b5b600182019050919050565b7f4e487b7100000000000000000000000000000000000000000000000000000000600052601160045260246000fd5b7f4e487b7100000000000000000000000000000000000000000000000000000000600052602160045260246000fd5b7f4e487b7100000000000000000000000000000000000000000000000000000000600052602260045260246000fd5b7f4e487b7100000000000000000000000000000000000000000000000000000000600052604160045260246000fd5b6000601f19601f8301169050919050565b60048110611a0357611a02611954565b5b50565b611a0f81611807565b8114611a1a57600080fd5b50565b60048110611a2a57600080fd5b50565b611a368161184c565b8114611a4157600080fd5b5056fea26469706673582212205587d7e058d5f0c57d01280fee88da12b8ff25fa18a099df14a909f11e80c2fe64736f6c63430008000033",
  "linkReferences": {},
  "deployedLinkReferences": {}
}