{
  "_format": "hh-sol-artifact-1",
  "contractName": "ProjectManager",
  "sourceName": "contracts/ProjectManager.sol",
  "abi": [
    {
      "anonymous": false,
      "inputs": [
        {
          "indexed": false,
          "internalType": "uint256",
          "name": "projectId",
          "type": "uint256"
        },
        {
          "indexed": false,
          "internalType": "address",
          "name": "recipient",
          "type": "address"
        },
        {
          "indexed": false,
          "internalType": "uint256",
          "name": "amount",
          "type": "uint256"
        }
      ],
      "name": "FundsTransferred",
      "type": "event"
    },
    {
      "anonymous": false,
      "inputs": [
        {
          "indexed": false,
          "internalType": "uint256",
          "name": "projectId",
          "type": "uint256"
        },
        {
          "indexed": false,
          "internalType": "string",
          "name": "name",
          "type": "string"
        },
        {
          "indexed": false,
          "internalType": "string",
          "name": "description",
          "type": "string"
        },
        {
          "indexed": false,
          "internalType": "uint256",
          "name": "timestamp",
          "type": "uint256"
        },
        {
          "indexed": false,
          "internalType": "address",
          "name": "creator",
          "type": "address"
        },
        {
          "indexed": false,
          "internalType": "enum ProjectManager.Status",
          "name": "status",
          "type": "uint8"
        },
        {
          "indexed": false,
          "internalType": "uint256",
          "name": "projectFee",
          "type": "uint256"
        },
        {
          "indexed": false,
          "internalType": "uint256",
          "name": "verificationFee",
          "type": "uint256"
        }
      ],
      "name": "ProjectCreated",
      "type": "event"
    },
    {
      "anonymous": false,
      "inputs": [
        {
          "indexed": false,
          "internalType": "uint256",
          "name": "projectId",
          "type": "uint256"
        },
        {
          "indexed": false,
          "internalType": "address",
          "name": "creator",
          "type": "address"
        }
      ],
      "name": "ProjectRemoved",
      "type": "event"
    },
    {
      "anonymous": false,
      "inputs": [
        {
          "indexed": false,
          "internalType": "uint256",
          "name": "projectId",
          "type": "uint256"
        },
        {
          "indexed": false,
          "internalType": "enum ProjectManager.Status",
          "name": "newStatus",
          "type": "uint8"
        }
      ],
      "name": "ProjectStatusChanged",
      "type": "event"
    },
    {
      "inputs": [],
      "name": "VERIFICATION_FEE",
      "outputs": [
        {
          "internalType": "uint256",
          "name": "",
          "type": "uint256"
        }
      ],
      "stateMutability": "view",
      "type": "function"
    },
    {
      "inputs": [
        {
          "internalType": "string",
          "name": "_name",
          "type": "string"
        },
        {
          "internalType": "string",
          "name": "_description",
          "type": "string"
        },
        {
          "internalType": "uint256",
          "name": "_timestamp",
          "type": "uint256"
        },
        {
          "internalType": "uint256",
          "name": "_projectFee",
          "type": "uint256"
        }
      ],
      "name": "createProject",
      "outputs": [],
      "stateMutability": "nonpayable",
      "type": "function"
    },
    {
      "inputs": [
        {
          "internalType": "address",
          "name": "_creator",
          "type": "address"
        }
      ],
      "name": "getProjectsByAddress",
      "outputs": [
        {
          "components": [
            {
              "internalType": "string",
              "name": "name",
              "type": "string"
            },
            {
              "internalType": "string",
              "name": "description",
              "type": "string"
            },
            {
              "internalType": "uint256",
              "name": "timestamp",
              "type": "uint256"
            },
            {
              "internalType": "address",
              "name": "creator",
              "type": "address"
            },
            {
              "internalType": "address",
              "name": "freelancer",
              "type": "address"
            },
            {
              "internalType": "enum ProjectManager.Status",
              "name": "status",
              "type": "uint8"
            },
            {
              "internalType": "uint256",
              "name": "projectFee",
              "type": "uint256"
            },
            {
              "internalType": "uint256",
              "name": "verificationFee",
              "type": "uint256"
            },
            {
              "internalType": "bool",
              "name": "isTransferred",
              "type": "bool"
            },
            {
              "internalType": "bool",
              "name": "isActive",
              "type": "bool"
            }
          ],
          "internalType": "struct ProjectManager.Project[]",
          "name": "",
          "type": "tuple[]"
        }
      ],
      "stateMutability": "view",
      "type": "function"
    },
    {
      "inputs": [
        {
          "internalType": "enum ProjectManager.Status",
          "name": "_status",
          "type": "uint8"
        }
      ],
      "name": "getProjectsByStatus",
      "outputs": [
        {
          "components": [
            {
              "internalType": "string",
              "name": "name",
              "type": "string"
            },
            {
              "internalType": "string",
              "name": "description",
              "type": "string"
            },
            {
              "internalType": "uint256",
              "name": "timestamp",
              "type": "uint256"
            },
            {
              "internalType": "address",
              "name": "creator",
              "type": "address"
            },
            {
              "internalType": "address",
              "name": "freelancer",
              "type": "address"
            },
            {
              "internalType": "enum ProjectManager.Status",
              "name": "status",
              "type": "uint8"
            },
            {
              "internalType": "uint256",
              "name": "projectFee",
              "type": "uint256"
            },
            {
              "internalType": "uint256",
              "name": "verificationFee",
              "type": "uint256"
            },
            {
              "internalType": "bool",
              "name": "isTransferred",
              "type": "bool"
            },
            {
              "internalType": "bool",
              "name": "isActive",
              "type": "bool"
            }
          ],
          "internalType": "struct ProjectManager.Project[]",
          "name": "",
          "type": "tuple[]"
        }
      ],
      "stateMutability": "view",
      "type": "function"
    },
    {
      "inputs": [
        {
          "internalType": "uint256",
          "name": "",
          "type": "uint256"
        }
      ],
      "name": "projects",
      "outputs": [
        {
          "internalType": "string",
          "name": "name",
          "type": "string"
        },
        {
          "internalType": "string",
          "name": "description",
          "type": "string"
        },
        {
          "internalType": "uint256",
          "name": "timestamp",
          "type": "uint256"
        },
        {
          "internalType": "address",
          "name": "creator",
          "type": "address"
        },
        {
          "internalType": "address",
          "name": "freelancer",
          "type": "address"
        },
        {
          "internalType": "enum ProjectManager.Status",
          "name": "status",
          "type": "uint8"
        },
        {
          "internalType": "uint256",
          "name": "projectFee",
          "type": "uint256"
        },
        {
          "internalType": "uint256",
          "name": "verificationFee",
          "type": "uint256"
        },
        {
          "internalType": "bool",
          "name": "isTransferred",
          "type": "bool"
        },
        {
          "internalType": "bool",
          "name": "isActive",
          "type": "bool"
        }
      ],
      "stateMutability": "view",
      "type": "function"
    },
    {
      "inputs": [
        {
          "internalType": "uint256",
          "name": "_projectId",
          "type": "uint256"
        }
      ],
      "name": "removeProject",
      "outputs": [],
      "stateMutability": "nonpayable",
      "type": "function"
    },
    {
      "inputs": [
        {
          "internalType": "uint256",
          "name": "_projectId",
          "type": "uint256"
        },
        {
          "internalType": "address",
          "name": "_freelancer",
          "type": "address"
        }
      ],
      "name": "transferFunds",
      "outputs": [],
      "stateMutability": "payable",
      "type": "function"
    },
    {
      "inputs": [
        {
          "internalType": "uint256",
          "name": "_projectId",
          "type": "uint256"
        },
        {
          "internalType": "enum ProjectManager.Status",
          "name": "_newStatus",
          "type": "uint8"
        }
      ],
      "name": "updateProjectStatus",
      "outputs": [],
      "stateMutability": "nonpayable",
      "type": "function"
    }
  ],
  "bytecode": "0x608060405234801561001057600080fd5b50612e67806100206000396000f3fe60806040526004361061007b5760003560e01c806394ba97091161004e57806394ba970914610157578063d11d498b14610180578063d5842c8b146101a9578063f08e362f146101e65761007b565b8063107046bd146100805780631aa22bba146100c65780635873f9981461010357806378a1bffd1461012c575b600080fd5b34801561008c57600080fd5b506100a760048036038101906100a29190612174565b610202565b6040516100bd9a99989796959493929190612792565b60405180910390f35b3480156100d257600080fd5b506100ed60048036038101906100e891906120b8565b6103dd565b6040516100fa9190612770565b60405180910390f35b34801561010f57600080fd5b5061012a60048036038101906101259190612174565b6109b3565b005b34801561013857600080fd5b50610141610f91565b60405161014e919061295c565b60405180910390f35b34801561016357600080fd5b5061017e600480360381019061017991906120e1565b610f9c565b005b34801561018c57600080fd5b506101a760048036038101906101a291906121d9565b611264565b005b3480156101b557600080fd5b506101d060048036038101906101cb919061208f565b611469565b6040516101dd9190612770565b60405180910390f35b61020060048036038101906101fb919061219d565b611a9f565b005b6000818154811061021257600080fd5b906000526020600020906008020160009150905080600001805461023590612c97565b80601f016020809104026020016040519081016040528092919081815260200182805461026190612c97565b80156102ae5780601f10610283576101008083540402835291602001916102ae565b820191906000526020600020905b81548152906001019060200180831161029157829003601f168201915b5050505050908060010180546102c390612c97565b80601f01602080910402602001604051908101604052809291908181526020018280546102ef90612c97565b801561033c5780601f106103115761010080835404028352916020019161033c565b820191906000526020600020905b81548152906001019060200180831161031f57829003601f168201915b5050505050908060020154908060030160009054906101000a900473ffffffffffffffffffffffffffffffffffffffff16908060040160009054906101000a900473ffffffffffffffffffffffffffffffffffffffff16908060040160149054906101000a900460ff16908060050154908060060154908060070160009054906101000a900460ff16908060070160019054906101000a900460ff1690508a565b60606000805b6000805490508110156104e257836003811115610429577f4e487b7100000000000000000000000000000000000000000000000000000000600052602160045260246000fd5b60008281548110610463577f4e487b7100000000000000000000000000000000000000000000000000000000600052603260045260246000fd5b906000526020600020906008020160040160149054906101000a900460ff1660038111156104ba577f4e487b7100000000000000000000000000000000000000000000000000000000600052602160045260246000fd5b14156104cf5781806104cb90612cc9565b9250505b80806104da90612cc9565b9150506103e3565b5060008167ffffffffffffffff811115610525577f4e487b7100000000000000000000000000000000000000000000000000000000600052604160045260246000fd5b60405190808252806020026020018201604052801561055e57816020015b61054b611dbd565b8152602001906001900390816105435790505b5090506000805b6000805490508110156109a7578560038111156105ab577f4e487b7100000000000000000000000000000000000000000000000000000000600052602160045260246000fd5b600082815481106105e5577f4e487b7100000000000000000000000000000000000000000000000000000000600052603260045260246000fd5b906000526020600020906008020160040160149054906101000a900460ff16600381111561063c577f4e487b7100000000000000000000000000000000000000000000000000000000600052602160045260246000fd5b1415610994576000818154811061067c577f4e487b7100000000000000000000000000000000000000000000000000000000600052603260045260246000fd5b9060005260206000209060080201604051806101400160405290816000820180546106a690612c97565b80601f01602080910402602001604051908101604052809291908181526020018280546106d290612c97565b801561071f5780601f106106f45761010080835404028352916020019161071f565b820191906000526020600020905b81548152906001019060200180831161070257829003601f168201915b5050505050815260200160018201805461073890612c97565b80601f016020809104026020016040519081016040528092919081815260200182805461076490612c97565b80156107b15780601f10610786576101008083540402835291602001916107b1565b820191906000526020600020905b81548152906001019060200180831161079457829003601f168201915b50505050508152602001600282015481526020016003820160009054906101000a900473ffffffffffffffffffffffffffffffffffffffff1673ffffffffffffffffffffffffffffffffffffffff1673ffffffffffffffffffffffffffffffffffffffff1681526020016004820160009054906101000a900473ffffffffffffffffffffffffffffffffffffffff1673ffffffffffffffffffffffffffffffffffffffff1673ffffffffffffffffffffffffffffffffffffffff1681526020016004820160149054906101000a900460ff1660038111156108bb577f4e487b7100000000000000000000000000000000000000000000000000000000600052602160045260246000fd5b60038111156108f3577f4e487b7100000000000000000000000000000000000000000000000000000000600052602160045260246000fd5b815260200160058201548152602001600682015481526020016007820160009054906101000a900460ff161515151581526020016007820160019054906101000a900460ff16151515158152505083838151811061097a577f4e487b7100000000000000000000000000000000000000000000000000000000600052603260045260246000fd5b6020026020010181905250818061099090612cc9565b9250505b808061099f90612cc9565b915050610565565b50819350505050919050565b60008054905081106109fa576040517f08c379a00000000000000000000000000000000000000000000000000000000081526004016109f19061293c565b60405180910390fd5b6000808281548110610a35577f4e487b7100000000000000000000000000000000000000000000000000000000600052603260045260246000fd5b906000526020600020906008020190508060030160009054906101000a900473ffffffffffffffffffffffffffffffffffffffff1673ffffffffffffffffffffffffffffffffffffffff163373ffffffffffffffffffffffffffffffffffffffff1614610ad7576040517f08c379a0000000000000000000000000000000000000000000000000000000008152600401610ace906128fc565b60405180910390fd5b60006003811115610b11577f4e487b7100000000000000000000000000000000000000000000000000000000600052602160045260246000fd5b8160040160149054906101000a900460ff166003811115610b5b577f4e487b7100000000000000000000000000000000000000000000000000000000600052602160045260246000fd5b14610b9b576040517f08c379a0000000000000000000000000000000000000000000000000000000008152600401610b929061291c565b60405180910390fd5b6001600080549050610bad9190612bb4565b8214610e415760006001600080549050610bc79190612bb4565b81548110610bfe577f4e487b7100000000000000000000000000000000000000000000000000000000600052603260045260246000fd5b906000526020600020906008020160008381548110610c46577f4e487b7100000000000000000000000000000000000000000000000000000000600052603260045260246000fd5b90600052602060002090600802016000820181600001908054610c6890612c97565b610c73929190611e78565b506001820181600101908054610c8890612c97565b610c93929190611e78565b50600282015481600201556003820160009054906101000a900473ffffffffffffffffffffffffffffffffffffffff168160030160006101000a81548173ffffffffffffffffffffffffffffffffffffffff021916908373ffffffffffffffffffffffffffffffffffffffff1602179055506004820160009054906101000a900473ffffffffffffffffffffffffffffffffffffffff168160040160006101000a81548173ffffffffffffffffffffffffffffffffffffffff021916908373ffffffffffffffffffffffffffffffffffffffff1602179055506004820160149054906101000a900460ff168160040160146101000a81548160ff02191690836003811115610dca577f4e487b7100000000000000000000000000000000000000000000000000000000600052602160045260246000fd5b021790555060058201548160050155600682015481600601556007820160009054906101000a900460ff168160070160006101000a81548160ff0219169083151502179055506007820160019054906101000a900460ff168160070160016101000a81548160ff0219169083151502179055509050505b6000805480610e79577f4e487b7100000000000000000000000000000000000000000000000000000000600052603160045260246000fd5b600190038181906000526020600020906008020160008082016000610e9e9190611f05565b600182016000610eae9190611f05565b60028201600090556003820160006101000a81549073ffffffffffffffffffffffffffffffffffffffff02191690556004820160006101000a81549073ffffffffffffffffffffffffffffffffffffffff02191690556004820160146101000a81549060ff0219169055600582016000905560068201600090556007820160006101000a81549060ff02191690556007820160016101000a81549060ff0219169055505090557fba1c16e049c7a348b951726f087bd968f9f40e6c64c8cf9ae55ed756ae6294408233604051610f85929190612977565b60405180910390a15050565b6601c6bf5263400081565b60006040518061014001604052808681526020018581526020018481526020013373ffffffffffffffffffffffffffffffffffffffff168152602001600073ffffffffffffffffffffffffffffffffffffffff1681526020016000600381111561102f577f4e487b7100000000000000000000000000000000000000000000000000000000600052602160045260246000fd5b81526020018381526020016601c6bf526340008152602001600015158152602001600115158152509080600181540180825580915050600190039060005260206000209060080201600090919091909150600082015181600001908051906020019061109c929190611f45565b5060208201518160010190805190602001906110b9929190611f45565b506040820151816002015560608201518160030160006101000a81548173ffffffffffffffffffffffffffffffffffffffff021916908373ffffffffffffffffffffffffffffffffffffffff16021790555060808201518160040160006101000a81548173ffffffffffffffffffffffffffffffffffffffff021916908373ffffffffffffffffffffffffffffffffffffffff16021790555060a08201518160040160146101000a81548160ff021916908360038111156111a3577f4e487b7100000000000000000000000000000000000000000000000000000000600052602160045260246000fd5b021790555060c0820151816005015560e082015181600601556101008201518160070160006101000a81548160ff0219169083151502179055506101208201518160070160016101000a81548160ff02191690831515021790555050507f69b1a6a11291637d7f852f47bf0677f8e28d23b65683484742accabb621284a660016000805490506112339190612bb4565b858585336000876601c6bf52634000604051611256989796959493929190612a00565b60405180910390a150505050565b60008054905082106112ab576040517f08c379a00000000000000000000000000000000000000000000000000000000081526004016112a29061293c565b60405180910390fd5b60008083815481106112e6577f4e487b7100000000000000000000000000000000000000000000000000000000600052603260045260246000fd5b906000526020600020906008020190508060030160009054906101000a900473ffffffffffffffffffffffffffffffffffffffff1673ffffffffffffffffffffffffffffffffffffffff163373ffffffffffffffffffffffffffffffffffffffff1614611388576040517f08c379a000000000000000000000000000000000000000000000000000000000815260040161137f9061285c565b60405180910390fd5b8060070160019054906101000a900460ff166113d9576040517f08c379a00000000000000000000000000000000000000000000000000000000081526004016113d0906128dc565b60405180910390fd5b818160040160146101000a81548160ff02191690836003811115611426577f4e487b7100000000000000000000000000000000000000000000000000000000600052602160045260246000fd5b02179055507f35872be4c2085eaf9ca9a10d056eefec79968f825846792411ede75f331e9392838360405161145c9291906129d7565b60405180910390a1505050565b60606000805b60008054905081101561159e578373ffffffffffffffffffffffffffffffffffffffff16600082815481106114cd577f4e487b7100000000000000000000000000000000000000000000000000000000600052603260045260246000fd5b906000526020600020906008020160030160009054906101000a900473ffffffffffffffffffffffffffffffffffffffff1673ffffffffffffffffffffffffffffffffffffffff16148015611577575060008181548110611557577f4e487b7100000000000000000000000000000000000000000000000000000000600052603260045260246000fd5b906000526020600020906008020160070160019054906101000a900460ff165b1561158b57818061158790612cc9565b9250505b808061159690612cc9565b91505061146f565b5060008167ffffffffffffffff8111156115e1577f4e487b7100000000000000000000000000000000000000000000000000000000600052604160045260246000fd5b60405190808252806020026020018201604052801561161a57816020015b611607611dbd565b8152602001906001900390816115ff5790505b5090506000805b600080549050811015611a93578573ffffffffffffffffffffffffffffffffffffffff166000828154811061167f577f4e487b7100000000000000000000000000000000000000000000000000000000600052603260045260246000fd5b906000526020600020906008020160030160009054906101000a900473ffffffffffffffffffffffffffffffffffffffff1673ffffffffffffffffffffffffffffffffffffffff16148015611729575060008181548110611709577f4e487b7100000000000000000000000000000000000000000000000000000000600052603260045260246000fd5b906000526020600020906008020160070160019054906101000a900460ff165b15611a805760008181548110611768577f4e487b7100000000000000000000000000000000000000000000000000000000600052603260045260246000fd5b90600052602060002090600802016040518061014001604052908160008201805461179290612c97565b80601f01602080910402602001604051908101604052809291908181526020018280546117be90612c97565b801561180b5780601f106117e05761010080835404028352916020019161180b565b820191906000526020600020905b8154815290600101906020018083116117ee57829003601f168201915b5050505050815260200160018201805461182490612c97565b80601f016020809104026020016040519081016040528092919081815260200182805461185090612c97565b801561189d5780601f106118725761010080835404028352916020019161189d565b820191906000526020600020905b81548152906001019060200180831161188057829003601f168201915b50505050508152602001600282015481526020016003820160009054906101000a900473ffffffffffffffffffffffffffffffffffffffff1673ffffffffffffffffffffffffffffffffffffffff1673ffffffffffffffffffffffffffffffffffffffff1681526020016004820160009054906101000a900473ffffffffffffffffffffffffffffffffffffffff1673ffffffffffffffffffffffffffffffffffffffff1673ffffffffffffffffffffffffffffffffffffffff1681526020016004820160149054906101000a900460ff1660038111156119a7577f4e487b7100000000000000000000000000000000000000000000000000000000600052602160045260246000fd5b60038111156119df577f4e487b7100000000000000000000000000000000000000000000000000000000600052602160045260246000fd5b815260200160058201548152602001600682015481526020016007820160009054906101000a900460ff161515151581526020016007820160019054906101000a900460ff161515151581525050838381518110611a66577f4e487b7100000000000000000000000000000000000000000000000000000000600052603260045260246000fd5b60200260200101819052508180611a7c90612cc9565b9250505b8080611a8b90612cc9565b915050611621565b50819350505050919050565b6000805490508210611ae6576040517f08c379a0000000000000000000000000000000000000000000000000000000008152600401611add9061293c565b60405180910390fd5b6000808381548110611b21577f4e487b7100000000000000000000000000000000000000000000000000000000600052603260045260246000fd5b906000526020600020906008020190508060030160009054906101000a900473ffffffffffffffffffffffffffffffffffffffff1673ffffffffffffffffffffffffffffffffffffffff163373ffffffffffffffffffffffffffffffffffffffff1614611bc3576040517f08c379a0000000000000000000000000000000000000000000000000000000008152600401611bba9061289c565b60405180910390fd5b8060070160009054906101000a900460ff1615611c15576040517f08c379a0000000000000000000000000000000000000000000000000000000008152600401611c0c9061287c565b60405180910390fd5b600081600601548260050154611c2b9190612b5e565b9050803414611c6f576040517f08c379a0000000000000000000000000000000000000000000000000000000008152600401611c66906128bc565b60405180910390fd5b828260040160006101000a81548173ffffffffffffffffffffffffffffffffffffffff021916908373ffffffffffffffffffffffffffffffffffffffff16021790555060018260070160006101000a81548160ff02191690831515021790555060008373ffffffffffffffffffffffffffffffffffffffff1634604051611cf59061275b565b60006040518083038185875af1925050503d8060008114611d32576040519150601f19603f3d011682016040523d82523d6000602084013e611d37565b606091505b5050905080611d7b576040517f08c379a0000000000000000000000000000000000000000000000000000000008152600401611d729061283c565b60405180910390fd5b7fe90ae330e5aefc2a73ddff0dd88bcaf8f4a0629d6553a2a85b22cac3d5f4a19e858534604051611dae939291906129a0565b60405180910390a15050505050565b604051806101400160405280606081526020016060815260200160008152602001600073ffffffffffffffffffffffffffffffffffffffff168152602001600073ffffffffffffffffffffffffffffffffffffffff16815260200160006003811115611e52577f4e487b7100000000000000000000000000000000000000000000000000000000600052602160045260246000fd5b815260200160008152602001600081526020016000151581526020016000151581525090565b828054611e8490612c97565b90600052602060002090601f016020900481019282611ea65760008555611ef4565b82601f10611eb75780548555611ef4565b82800160010185558215611ef457600052602060002091601f016020900482015b82811115611ef3578254825591600101919060010190611ed8565b5b509050611f019190611fcb565b5090565b508054611f1190612c97565b6000825580601f10611f235750611f42565b601f016020900490600052602060002090810190611f419190611fcb565b5b50565b828054611f5190612c97565b90600052602060002090601f016020900481019282611f735760008555611fba565b82601f10611f8c57805160ff1916838001178555611fba565b82800160010185558215611fba579182015b82811115611fb9578251825591602001919060010190611f9e565b5b509050611fc79190611fcb565b5090565b5b80821115611fe4576000816000905550600101611fcc565b5090565b6000611ffb611ff684612abd565b612a8c565b90508281526020810184848401111561201357600080fd5b61201e848285612c55565b509392505050565b60008135905061203581612df3565b92915050565b60008135905061204a81612e0a565b92915050565b600082601f83011261206157600080fd5b8135612071848260208601611fe8565b91505092915050565b60008135905061208981612e1a565b92915050565b6000602082840312156120a157600080fd5b60006120af84828501612026565b91505092915050565b6000602082840312156120ca57600080fd5b60006120d88482850161203b565b91505092915050565b600080600080608085870312156120f757600080fd5b600085013567ffffffffffffffff81111561211157600080fd5b61211d87828801612050565b945050602085013567ffffffffffffffff81111561213a57600080fd5b61214687828801612050565b93505060406121578782880161207a565b92505060606121688782880161207a565b91505092959194509250565b60006020828403121561218657600080fd5b60006121948482850161207a565b91505092915050565b600080604083850312156121b057600080fd5b60006121be8582860161207a565b92505060206121cf85828601612026565b9150509250929050565b600080604083850312156121ec57600080fd5b60006121fa8582860161207a565b925050602061220b8582860161203b565b9150509250929050565b6000612221838361265c565b905092915050565b61223281612be8565b82525050565b61224181612be8565b82525050565b600061225282612afd565b61225c8185612b20565b93508360208202850161226e85612aed565b8060005b858110156122aa578484038952815161228b8582612215565b945061229683612b13565b925060208a01995050600181019050612272565b50829750879550505050505092915050565b6122c581612bfa565b82525050565b6122d481612bfa565b82525050565b6122e381612c43565b82525050565b6122f281612c43565b82525050565b600061230382612b08565b61230d8185612b3c565b935061231d818560208601612c64565b61232681612dce565b840191505092915050565b600061233c82612b08565b6123468185612b4d565b9350612356818560208601612c64565b61235f81612dce565b840191505092915050565b6000612377600f83612b4d565b91507f5472616e73666572206661696c656400000000000000000000000000000000006000830152602082019050919050565b60006123b7602a83612b4d565b91507f4f6e6c79207468652070726f6a6563742063726561746f722063616e2075706460008301527f61746520737461747573000000000000000000000000000000000000000000006020830152604082019050919050565b600061241d601983612b4d565b91507f46756e647320616c7265616479207472616e73666572726564000000000000006000830152602082019050919050565b600061245d602383612b4d565b91507f4f6e6c79207468652063726561746f722063616e207472616e7366657220667560008301527f6e647300000000000000000000000000000000000000000000000000000000006020830152604082019050919050565b60006124c3601983612b4d565b91507f496e636f72726563742066656520616d6f756e742073656e74000000000000006000830152602082019050919050565b6000612503601583612b4d565b91507f50726f6a656374206973206e6f742061637469766500000000000000000000006000830152602082019050919050565b6000612543600083612b31565b9150600082019050919050565b600061255d602f83612b4d565b91507f4f6e6c79207468652070726f6a6563742063726561746f722063616e2072656d60008301527f6f7665207468652070726f6a65637400000000000000000000000000000000006020830152604082019050919050565b60006125c3602183612b4d565b91507f4f6e6c79206f70656e2070726f6a656374732063616e2062652072656d6f766560008301527f64000000000000000000000000000000000000000000000000000000000000006020830152604082019050919050565b6000612629601683612b4d565b91507f50726f6a65637420646f6573206e6f74206578697374000000000000000000006000830152602082019050919050565b600061014083016000830151848203600086015261267a82826122f8565b9150506020830151848203602086015261269482826122f8565b91505060408301516126a9604086018261273d565b5060608301516126bc6060860182612229565b5060808301516126cf6080860182612229565b5060a08301516126e260a08601826122da565b5060c08301516126f560c086018261273d565b5060e083015161270860e086018261273d565b5061010083015161271d6101008601826122bc565b506101208301516127326101208601826122bc565b508091505092915050565b61274681612c39565b82525050565b61275581612c39565b82525050565b600061276682612536565b9150819050919050565b6000602082019050818103600083015261278a8184612247565b905092915050565b60006101408201905081810360008301526127ad818d612331565b905081810360208301526127c1818c612331565b90506127d0604083018b61274c565b6127dd606083018a612238565b6127ea6080830189612238565b6127f760a08301886122e9565b61280460c083018761274c565b61281160e083018661274c565b61281f6101008301856122cb565b61282d6101208301846122cb565b9b9a5050505050505050505050565b600060208201905081810360008301526128558161236a565b9050919050565b60006020820190508181036000830152612875816123aa565b9050919050565b6000602082019050818103600083015261289581612410565b9050919050565b600060208201905081810360008301526128b581612450565b9050919050565b600060208201905081810360008301526128d5816124b6565b9050919050565b600060208201905081810360008301526128f5816124f6565b9050919050565b6000602082019050818103600083015261291581612550565b9050919050565b60006020820190508181036000830152612935816125b6565b9050919050565b600060208201905081810360008301526129558161261c565b9050919050565b6000602082019050612971600083018461274c565b92915050565b600060408201905061298c600083018561274c565b6129996020830184612238565b9392505050565b60006060820190506129b5600083018661274c565b6129c26020830185612238565b6129cf604083018461274c565b949350505050565b60006040820190506129ec600083018561274c565b6129f960208301846122e9565b9392505050565b600061010082019050612a16600083018b61274c565b8181036020830152612a28818a612331565b90508181036040830152612a3c8189612331565b9050612a4b606083018861274c565b612a586080830187612238565b612a6560a08301866122e9565b612a7260c083018561274c565b612a7f60e083018461274c565b9998505050505050505050565b6000604051905081810181811067ffffffffffffffff82111715612ab357612ab2612d9f565b5b8060405250919050565b600067ffffffffffffffff821115612ad857612ad7612d9f565b5b601f19601f8301169050602081019050919050565b6000819050602082019050919050565b600081519050919050565b600081519050919050565b6000602082019050919050565b600082825260208201905092915050565b600081905092915050565b600082825260208201905092915050565b600082825260208201905092915050565b6000612b6982612c39565b9150612b7483612c39565b9250827fffffffffffffffffffffffffffffffffffffffffffffffffffffffffffffffff03821115612ba957612ba8612d12565b5b828201905092915050565b6000612bbf82612c39565b9150612bca83612c39565b925082821015612bdd57612bdc612d12565b5b828203905092915050565b6000612bf382612c19565b9050919050565b60008115159050919050565b6000819050612c1482612ddf565b919050565b600073ffffffffffffffffffffffffffffffffffffffff82169050919050565b6000819050919050565b6000612c4e82612c06565b9050919050565b82818337600083830152505050565b60005b83811015612c82578082015181840152602081019050612c67565b83811115612c91576000848401525b50505050565b60006002820490506001821680612caf57607f821691505b60208210811415612cc357612cc2612d70565b5b50919050565b6000612cd482612c39565b91507fffffffffffffffffffffffffffffffffffffffffffffffffffffffffffffffff821415612d0757612d06612d12565b5b600182019050919050565b7f4e487b7100000000000000000000000000000000000000000000000000000000600052601160045260246000fd5b7f4e487b7100000000000000000000000000000000000000000000000000000000600052602160045260246000fd5b7f4e487b7100000000000000000000000000000000000000000000000000000000600052602260045260246000fd5b7f4e487b7100000000000000000000000000000000000000000000000000000000600052604160045260246000fd5b6000601f19601f8301169050919050565b60048110612df057612def612d41565b5b50565b612dfc81612be8565b8114612e0757600080fd5b50565b60048110612e1757600080fd5b50565b612e2381612c39565b8114612e2e57600080fd5b5056fea2646970667358221220d0b56afb996719724e4c4fe102a86ac88bcf1832f02f4bdd047621ff86b7ed1764736f6c63430008000033",
  "linkReferences": {},
  "deployedLinkReferences": {}
}