{
  "_format": "hh-sol-artifact-1",
  "contractName": "ProjectManager",
  "sourceName": "contracts/ProjectManager.sol",
  "abi": [
    {
      "anonymous": false,
      "inputs": [
        {
          "indexed": false,
          "internalType": "uint256",
          "name": "projectId",
          "type": "uint256"
        },
        {
          "indexed": false,
          "internalType": "address",
          "name": "freelancer",
          "type": "address"
        }
      ],
      "name": "FreelancerAccepted",
      "type": "event"
    },
    {
      "anonymous": false,
      "inputs": [
        {
          "indexed": false,
          "internalType": "uint256",
          "name": "projectId",
          "type": "uint256"
        },
        {
          "indexed": false,
          "internalType": "string",
          "name": "name",
          "type": "string"
        },
        {
          "indexed": false,
          "internalType": "string",
          "name": "description",
          "type": "string"
        },
        {
          "indexed": false,
          "internalType": "uint256",
          "name": "timestamp",
          "type": "uint256"
        },
        {
          "indexed": false,
          "internalType": "address",
          "name": "creator",
          "type": "address"
        },
        {
          "indexed": false,
          "internalType": "enum ProjectManager.Status",
          "name": "status",
          "type": "uint8"
        },
        {
          "indexed": false,
          "internalType": "uint256",
          "name": "projectFee",
          "type": "uint256"
        }
      ],
      "name": "ProjectCreated",
      "type": "event"
    },
    {
      "anonymous": false,
      "inputs": [
        {
          "indexed": false,
          "internalType": "uint256",
          "name": "projectId",
          "type": "uint256"
        },
        {
          "indexed": false,
          "internalType": "address",
          "name": "creator",
          "type": "address"
        }
      ],
      "name": "ProjectRemoved",
      "type": "event"
    },
    {
      "anonymous": false,
      "inputs": [
        {
          "indexed": false,
          "internalType": "uint256",
          "name": "projectId",
          "type": "uint256"
        },
        {
          "indexed": false,
          "internalType": "enum ProjectManager.Status",
          "name": "oldStatus",
          "type": "uint8"
        },
        {
          "indexed": false,
          "internalType": "enum ProjectManager.Status",
          "name": "newStatus",
          "type": "uint8"
        }
      ],
      "name": "ProjectStatusUpdated",
      "type": "event"
    },
    {
      "anonymous": false,
      "inputs": [
        {
          "indexed": false,
          "internalType": "uint256",
          "name": "projectId",
          "type": "uint256"
        },
        {
          "indexed": false,
          "internalType": "address",
          "name": "verifier",
          "type": "address"
        },
        {
          "indexed": false,
          "internalType": "bool",
          "name": "vote",
          "type": "bool"
        }
      ],
      "name": "VerifierVoted",
      "type": "event"
    },
    {
      "inputs": [],
      "name": "REQUIRED_VERIFIERS",
      "outputs": [
        {
          "internalType": "uint256",
          "name": "",
          "type": "uint256"
        }
      ],
      "stateMutability": "view",
      "type": "function"
    },
    {
      "inputs": [
        {
          "internalType": "uint256",
          "name": "_projectId",
          "type": "uint256"
        }
      ],
      "name": "acceptProject",
      "outputs": [],
      "stateMutability": "payable",
      "type": "function"
    },
    {
      "inputs": [
        {
          "internalType": "uint256",
          "name": "_projectId",
          "type": "uint256"
        }
      ],
      "name": "approveProjectCompletion",
      "outputs": [],
      "stateMutability": "nonpayable",
      "type": "function"
    },
    {
      "inputs": [
        {
          "internalType": "string",
          "name": "_name",
          "type": "string"
        },
        {
          "internalType": "string",
          "name": "_description",
          "type": "string"
        },
        {
          "internalType": "uint256",
          "name": "_timestamp",
          "type": "uint256"
        },
        {
          "internalType": "uint256",
          "name": "_projectFee",
          "type": "uint256"
        }
      ],
      "name": "createProject",
      "outputs": [],
      "stateMutability": "payable",
      "type": "function"
    },
    {
      "inputs": [
        {
          "internalType": "uint256",
          "name": "_projectId",
          "type": "uint256"
        }
      ],
      "name": "disputeProjectCompletion",
      "outputs": [],
      "stateMutability": "nonpayable",
      "type": "function"
    },
    {
      "inputs": [
        {
          "internalType": "uint256",
          "name": "",
          "type": "uint256"
        },
        {
          "internalType": "address",
          "name": "",
          "type": "address"
        }
      ],
      "name": "freelancerAcceptedProjects",
      "outputs": [
        {
          "internalType": "bool",
          "name": "",
          "type": "bool"
        }
      ],
      "stateMutability": "view",
      "type": "function"
    },
    {
      "inputs": [
        {
          "internalType": "address",
          "name": "_creator",
          "type": "address"
        }
      ],
      "name": "getProjectsByAddress",
      "outputs": [
        {
          "components": [
            {
              "internalType": "uint256",
              "name": "id",
              "type": "uint256"
            },
            {
              "internalType": "string",
              "name": "name",
              "type": "string"
            },
            {
              "internalType": "string",
              "name": "description",
              "type": "string"
            },
            {
              "internalType": "uint256",
              "name": "timestamp",
              "type": "uint256"
            },
            {
              "internalType": "address",
              "name": "creator",
              "type": "address"
            },
            {
              "internalType": "address[]",
              "name": "potentialFreelancers",
              "type": "address[]"
            },
            {
              "internalType": "address",
              "name": "selectedFreelancer",
              "type": "address"
            },
            {
              "internalType": "enum ProjectManager.Status",
              "name": "status",
              "type": "uint8"
            },
            {
              "internalType": "uint256",
              "name": "projectFee",
              "type": "uint256"
            },
            {
              "internalType": "uint256",
              "name": "acceptVotes",
              "type": "uint256"
            },
            {
              "internalType": "uint256",
              "name": "rejectVotes",
              "type": "uint256"
            },
            {
              "internalType": "string",
              "name": "proofLink",
              "type": "string"
            }
          ],
          "internalType": "struct ProjectManager.Project[]",
          "name": "",
          "type": "tuple[]"
        }
      ],
      "stateMutability": "view",
      "type": "function"
    },
    {
      "inputs": [
        {
          "internalType": "enum ProjectManager.Status",
          "name": "_status",
          "type": "uint8"
        }
      ],
      "name": "getProjectsByStatus",
      "outputs": [
        {
          "components": [
            {
              "internalType": "uint256",
              "name": "id",
              "type": "uint256"
            },
            {
              "internalType": "string",
              "name": "name",
              "type": "string"
            },
            {
              "internalType": "string",
              "name": "description",
              "type": "string"
            },
            {
              "internalType": "uint256",
              "name": "timestamp",
              "type": "uint256"
            },
            {
              "internalType": "address",
              "name": "creator",
              "type": "address"
            },
            {
              "internalType": "address[]",
              "name": "potentialFreelancers",
              "type": "address[]"
            },
            {
              "internalType": "address",
              "name": "selectedFreelancer",
              "type": "address"
            },
            {
              "internalType": "enum ProjectManager.Status",
              "name": "status",
              "type": "uint8"
            },
            {
              "internalType": "uint256",
              "name": "projectFee",
              "type": "uint256"
            },
            {
              "internalType": "uint256",
              "name": "acceptVotes",
              "type": "uint256"
            },
            {
              "internalType": "uint256",
              "name": "rejectVotes",
              "type": "uint256"
            },
            {
              "internalType": "string",
              "name": "proofLink",
              "type": "string"
            }
          ],
          "internalType": "struct ProjectManager.Project[]",
          "name": "",
          "type": "tuple[]"
        }
      ],
      "stateMutability": "view",
      "type": "function"
    },
    {
      "inputs": [
        {
          "internalType": "address",
          "name": "_freelancer",
          "type": "address"
        }
      ],
      "name": "getProjectsForFreelancer",
      "outputs": [
        {
          "components": [
            {
              "internalType": "uint256",
              "name": "id",
              "type": "uint256"
            },
            {
              "internalType": "string",
              "name": "name",
              "type": "string"
            },
            {
              "internalType": "string",
              "name": "description",
              "type": "string"
            },
            {
              "internalType": "uint256",
              "name": "timestamp",
              "type": "uint256"
            },
            {
              "internalType": "address",
              "name": "creator",
              "type": "address"
            },
            {
              "internalType": "address[]",
              "name": "potentialFreelancers",
              "type": "address[]"
            },
            {
              "internalType": "address",
              "name": "selectedFreelancer",
              "type": "address"
            },
            {
              "internalType": "enum ProjectManager.Status",
              "name": "status",
              "type": "uint8"
            },
            {
              "internalType": "uint256",
              "name": "projectFee",
              "type": "uint256"
            },
            {
              "internalType": "uint256",
              "name": "acceptVotes",
              "type": "uint256"
            },
            {
              "internalType": "uint256",
              "name": "rejectVotes",
              "type": "uint256"
            },
            {
              "internalType": "string",
              "name": "proofLink",
              "type": "string"
            }
          ],
          "internalType": "struct ProjectManager.Project[]",
          "name": "",
          "type": "tuple[]"
        }
      ],
      "stateMutability": "view",
      "type": "function"
    },
    {
      "inputs": [
        {
          "internalType": "uint256",
          "name": "",
          "type": "uint256"
        },
        {
          "internalType": "address",
          "name": "",
          "type": "address"
        }
      ],
      "name": "hasVerified",
      "outputs": [
        {
          "internalType": "bool",
          "name": "",
          "type": "bool"
        }
      ],
      "stateMutability": "view",
      "type": "function"
    },
    {
      "inputs": [
        {
          "internalType": "uint256",
          "name": "_projectId",
          "type": "uint256"
        },
        {
          "internalType": "string",
          "name": "_proofLink",
          "type": "string"
        }
      ],
      "name": "markProjectAsCompleted",
      "outputs": [],
      "stateMutability": "nonpayable",
      "type": "function"
    },
    {
      "inputs": [
        {
          "internalType": "uint256",
          "name": "",
          "type": "uint256"
        },
        {
          "internalType": "uint256",
          "name": "",
          "type": "uint256"
        }
      ],
      "name": "projectVerifiers",
      "outputs": [
        {
          "internalType": "address",
          "name": "",
          "type": "address"
        }
      ],
      "stateMutability": "view",
      "type": "function"
    },
    {
      "inputs": [
        {
          "internalType": "uint256",
          "name": "",
          "type": "uint256"
        }
      ],
      "name": "projects",
      "outputs": [
        {
          "internalType": "uint256",
          "name": "id",
          "type": "uint256"
        },
        {
          "internalType": "string",
          "name": "name",
          "type": "string"
        },
        {
          "internalType": "string",
          "name": "description",
          "type": "string"
        },
        {
          "internalType": "uint256",
          "name": "timestamp",
          "type": "uint256"
        },
        {
          "internalType": "address",
          "name": "creator",
          "type": "address"
        },
        {
          "internalType": "address",
          "name": "selectedFreelancer",
          "type": "address"
        },
        {
          "internalType": "enum ProjectManager.Status",
          "name": "status",
          "type": "uint8"
        },
        {
          "internalType": "uint256",
          "name": "projectFee",
          "type": "uint256"
        },
        {
          "internalType": "uint256",
          "name": "acceptVotes",
          "type": "uint256"
        },
        {
          "internalType": "uint256",
          "name": "rejectVotes",
          "type": "uint256"
        },
        {
          "internalType": "string",
          "name": "proofLink",
          "type": "string"
        }
      ],
      "stateMutability": "view",
      "type": "function"
    },
    {
      "inputs": [
        {
          "internalType": "uint256",
          "name": "_projectId",
          "type": "uint256"
        }
      ],
      "name": "rejectProjectCompletion",
      "outputs": [],
      "stateMutability": "nonpayable",
      "type": "function"
    },
    {
      "inputs": [
        {
          "internalType": "uint256",
          "name": "_projectId",
          "type": "uint256"
        }
      ],
      "name": "removeProject",
      "outputs": [],
      "stateMutability": "nonpayable",
      "type": "function"
    },
    {
      "inputs": [
        {
          "internalType": "uint256",
          "name": "_projectId",
          "type": "uint256"
        },
        {
          "internalType": "address",
          "name": "_freelancer",
          "type": "address"
        }
      ],
      "name": "selectFreelancer",
      "outputs": [],
      "stateMutability": "nonpayable",
      "type": "function"
    },
    {
      "inputs": [],
      "name": "verificationFee",
      "outputs": [
        {
          "internalType": "uint256",
          "name": "",
          "type": "uint256"
        }
      ],
      "stateMutability": "view",
      "type": "function"
    },
    {
      "inputs": [
        {
          "internalType": "uint256",
          "name": "",
          "type": "uint256"
        },
        {
          "internalType": "address",
          "name": "",
          "type": "address"
        }
      ],
      "name": "verifierVotes",
      "outputs": [
        {
          "internalType": "bool",
          "name": "",
          "type": "bool"
        }
      ],
      "stateMutability": "view",
      "type": "function"
    },
    {
      "inputs": [
        {
          "internalType": "uint256",
          "name": "_projectId",
          "type": "uint256"
        },
        {
          "internalType": "bool",
          "name": "_accept",
          "type": "bool"
        }
      ],
      "name": "verifyProjectCompletion",
      "outputs": [],
      "stateMutability": "payable",
      "type": "function"
    }
  ],
  "bytecode": "0x6080604052660110d9316ec00060015534801561001b57600080fd5b50613bdd8061002b6000396000f3fe6080604052600436106101145760003560e01c80638d34129f116100a0578063cc9eb47011610064578063cc9eb470146102f2578063d5842c8b14610312578063dbff65e814610332578063f57ad8cc1461035f578063fd1d5ea91461037f57610114565b80638d34129f14610275578063919b725a1461028857806394ba9709146102a8578063a74c341f146102bb578063a8c278a2146102dd57610114565b8063380deabc116100e7578063380deabc146101c85780633bd09de0146101e85780633beddfd91461020857806356563e4a146102355780635873f9981461025557610114565b80630be15f4514610119578063107046bd1461013b57806312a4e33f1461017b5780631aa22bba1461019b575b600080fd5b34801561012557600080fd5b50610139610134366004612fae565b610392565b005b34801561014757600080fd5b5061015b610156366004612f38565b6104e7565b6040516101729b9a999897969594939291906139be565b60405180910390f35b34801561018757600080fd5b50610139610196366004612f38565b6106ff565b3480156101a757600080fd5b506101bb6101b6366004612ea8565b610928565b60405161017291906130e8565b3480156101d457600080fd5b506101396101e3366004612f50565b610e47565b3480156101f457600080fd5b50610139610203366004612f38565b61107b565b34801561021457600080fd5b50610228610223366004612f50565b6111a6565b6040516101729190613216565b34801561024157600080fd5b50610228610250366004612f50565b6111c6565b34801561026157600080fd5b50610139610270366004612f38565b6111e6565b610139610283366004612f7b565b6116ea565b34801561029457600080fd5b506101bb6102a3366004612e87565b6119e9565b6101396102b6366004612ec7565b611e8e565b3480156102c757600080fd5b506102d0612154565b6040516101729190613954565b3480156102e957600080fd5b506102d0612159565b3480156102fe57600080fd5b5061022861030d366004612f50565b61215f565b34801561031e57600080fd5b506101bb61032d366004612e87565b61217f565b34801561033e57600080fd5b5061035261034d366004612ff3565b612624565b60405161017291906130d4565b34801561036b57600080fd5b5061013961037a366004612f38565b61265c565b61013961038d366004612f38565b612823565b60005482106103bc5760405162461bcd60e51b81526004016103b3906138b6565b60405180910390fd5b60008083815481106103de57634e487b7160e01b600052603260045260246000fd5b60009182526020909120600b9091020160068101549091506001600160a01b0316331461041d5760405162461bcd60e51b81526004016103b3906135e2565b60016006820154600160a01b900460ff16600481111561044d57634e487b7160e01b600052602160045260246000fd5b1461046a5760405162461bcd60e51b81526004016103b39061391d565b600082511161048b5760405162461bcd60e51b81526004016103b39061387f565b81516104a090600a8301906020850190612b58565b5060068101805460ff60a01b1916600160a11b179055604051600080516020613b88833981519152906104da908590600190600290613995565b60405180910390a1505050565b600081815481106104f757600080fd5b60009182526020909120600b9091020180546001820180549193509061051c90613b05565b80601f016020809104026020016040519081016040528092919081815260200182805461054890613b05565b80156105955780601f1061056a57610100808354040283529160200191610595565b820191906000526020600020905b81548152906001019060200180831161057857829003601f168201915b5050505050908060020180546105aa90613b05565b80601f01602080910402602001604051908101604052809291908181526020018280546105d690613b05565b80156106235780601f106105f857610100808354040283529160200191610623565b820191906000526020600020905b81548152906001019060200180831161060657829003601f168201915b50505050600383015460048401546006850154600786015460088701546009880154600a89018054989996986001600160a01b03968716985095851696600160a01b90950460ff16959394929391929161067c90613b05565b80601f01602080910402602001604051908101604052809291908181526020018280546106a890613b05565b80156106f55780601f106106ca576101008083540402835291602001916106f5565b820191906000526020600020905b8154815290600101906020018083116106d857829003601f168201915b505050505090508b565b60005481106107205760405162461bcd60e51b81526004016103b3906138b6565b600080828154811061074257634e487b7160e01b600052603260045260246000fd5b60009182526020909120600b9091020160048101549091506001600160a01b031633146107815760405162461bcd60e51b81526004016103b390613407565b60026006820154600160a01b900460ff1660048111156107b157634e487b7160e01b600052602160045260246000fd5b146107ce5760405162461bcd60e51b81526004016103b39061338c565b60068101805460ff60a01b1916600160a21b179081905560015460078301546000926001600160a01b03169161080391613ab6565b60405161080f906130d1565b60006040518083038185875af1925050503d806000811461084c576040519150601f19603f3d011682016040523d82523d6000602084013e610851565b606091505b50509050806108725760405162461bcd60e51b81526004016103b39061348d565b60048201546001546040516000926001600160a01b03169190610894906130d1565b60006040518083038185875af1925050503d80600081146108d1576040519150601f19603f3d011682016040523d82523d6000602084013e6108d6565b606091505b50509050806108f75760405162461bcd60e51b81526004016103b390613221565b600080516020613b88833981519152846002600460405161091a93929190613995565b60405180910390a150505050565b60606000805b6000548110156109dd5783600481111561095857634e487b7160e01b600052602160045260246000fd5b6000828154811061097957634e487b7160e01b600052603260045260246000fd5b90600052602060002090600b020160060160149054906101000a900460ff1660048111156109b757634e487b7160e01b600052602160045260246000fd5b14156109cb57816109c781613b40565b9250505b806109d581613b40565b91505061092e565b5060008167ffffffffffffffff811115610a0757634e487b7160e01b600052604160045260246000fd5b604051908082528060200260200182016040528015610a4057816020015b610a2d612bdc565b815260200190600190039081610a255790505b5090506000805b600054811015610e3b57856004811115610a7157634e487b7160e01b600052602160045260246000fd5b60008281548110610a9257634e487b7160e01b600052603260045260246000fd5b90600052602060002090600b020160060160149054906101000a900460ff166004811115610ad057634e487b7160e01b600052602160045260246000fd5b1415610e295760008181548110610af757634e487b7160e01b600052603260045260246000fd5b90600052602060002090600b02016040518061018001604052908160008201548152602001600182018054610b2b90613b05565b80601f0160208091040260200160405190810160405280929190818152602001828054610b5790613b05565b8015610ba45780601f10610b7957610100808354040283529160200191610ba4565b820191906000526020600020905b815481529060010190602001808311610b8757829003601f168201915b50505050508152602001600282018054610bbd90613b05565b80601f0160208091040260200160405190810160405280929190818152602001828054610be990613b05565b8015610c365780601f10610c0b57610100808354040283529160200191610c36565b820191906000526020600020905b815481529060010190602001808311610c1957829003601f168201915b50505050508152602001600382015481526020016004820160009054906101000a90046001600160a01b03166001600160a01b03166001600160a01b0316815260200160058201805480602002602001604051908101604052809291908181526020018280548015610cd157602002820191906000526020600020905b81546001600160a01b03168152600190910190602001808311610cb3575b505050918352505060068201546001600160a01b0381166020830152604090910190600160a01b900460ff166004811115610d1c57634e487b7160e01b600052602160045260246000fd5b6004811115610d3b57634e487b7160e01b600052602160045260246000fd5b8152602001600782015481526020016008820154815260200160098201548152602001600a82018054610d6d90613b05565b80601f0160208091040260200160405190810160405280929190818152602001828054610d9990613b05565b8015610de65780601f10610dbb57610100808354040283529160200191610de6565b820191906000526020600020905b815481529060010190602001808311610dc957829003601f168201915b505050505081525050838381518110610e0f57634e487b7160e01b600052603260045260246000fd5b60200260200101819052508180610e2590613b40565b9250505b80610e3381613b40565b915050610a47565b5090925050505b919050565b6000808381548110610e6957634e487b7160e01b600052603260045260246000fd5b60009182526020909120600b9091020160048101549091506001600160a01b03163314610ea85760405162461bcd60e51b81526004016103b390613705565b60006006820154600160a01b900460ff166004811115610ed857634e487b7160e01b600052602160045260246000fd5b14610ef55760405162461bcd60e51b81526004016103b3906132d8565b60008381526005602090815260408083206001600160a01b038616845290915290205460ff16610f375760405162461bcd60e51b81526004016103b39061359a565b6006810180546001600160a01b0319166001600160a01b0384161760ff60a01b1916600160a01b179055610f6f600582016000612c6e565b60005b6005820154811015611057576000826005018281548110610fa357634e487b7160e01b600052603260045260246000fd5b6000918252602090912001546001600160a01b03908116915084168114611044576000816001600160a01b0316600154604051610fdf906130d1565b60006040518083038185875af1925050503d806000811461101c576040519150601f19603f3d011682016040523d82523d6000602084013e611021565b606091505b50509050806110425760405162461bcd60e51b81526004016103b390613554565b505b508061104f81613b40565b915050610f72565b50600080516020613b8883398151915283600060016040516104da93929190613995565b600054811061109c5760405162461bcd60e51b81526004016103b3906138b6565b60008082815481106110be57634e487b7160e01b600052603260045260246000fd5b60009182526020909120600b9091020160048101549091506001600160a01b031633148015906110fb575060068101546001600160a01b03163314155b6111175760405162461bcd60e51b81526004016103b39061333c565b60036006820154600160a01b900460ff16600481111561114757634e487b7160e01b600052602160045260246000fd5b146111645760405162461bcd60e51b81526004016103b390613456565b6006810180546001600160a81b0319169055604051600080516020613b888339815191529061119a908490600390600090613995565b60405180910390a15050565b600460209081526000928352604080842090915290825290205460ff1681565b600360209081526000928352604080842090915290825290205460ff1681565b60005481106112075760405162461bcd60e51b81526004016103b3906138b6565b600080828154811061122957634e487b7160e01b600052603260045260246000fd5b60009182526020909120600b9091020160048101549091506001600160a01b031633146112685760405162461bcd60e51b81526004016103b390613751565b60006006820154600160a01b900460ff16600481111561129857634e487b7160e01b600052602160045260246000fd5b146112b55760405162461bcd60e51b81526004016103b3906137d7565b600060015482600701546112c99190613ab6565b905060005b600583015481101561139c5760008360050182815481106112ff57634e487b7160e01b600052603260045260246000fd5b6000918252602090912001546001546040516001600160a01b0390921691611326906130d1565b60006040518083038185875af1925050503d8060008114611363576040519150601f19603f3d011682016040523d82523d6000602084013e611368565b606091505b50509050806113895760405162461bcd60e51b81526004016103b3906137a0565b508061139481613b40565b9150506112ce565b506000546113ac90600190613aee565b831461158657600080546113c290600190613aee565b815481106113e057634e487b7160e01b600052603260045260246000fd5b90600052602060002090600b02016000848154811061140f57634e487b7160e01b600052603260045260246000fd5b90600052602060002090600b020160008201548160000155600182018160010190805461143b90613b05565b611446929190612c8f565b50600282018160020190805461145b90613b05565b611466929190612c8f565b506003828101549082015560048083015490820180546001600160a01b0319166001600160a01b03909216919091179055600580830180546114ab9284019190612d0a565b506006828101805491830180546001600160a01b0319166001600160a01b0390931692909217808355905460ff600160a01b9182900416929160ff60a01b19169083600481111561150c57634e487b7160e01b600052602160045260246000fd5b0217905550600782015481600701556008820154816008015560098201548160090155600a820181600a0190805461154390613b05565b61154e929190612c8f565b50905050826000848154811061157457634e487b7160e01b600052603260045260246000fd5b60009182526020909120600b90910201555b60008054806115a557634e487b7160e01b600052603160045260246000fd5b600082815260208120600b60001990930192830201818155906115cb6001830182612d49565b6115d9600283016000612d49565b6000600383018190556004830180546001600160a01b0319169055611602906005840190612c6e565b6006820180546001600160a81b0319169055600060078301819055600883018190556009830181905561163990600a840190612d49565b505090556000336001600160a01b031682604051611656906130d1565b60006040518083038185875af1925050503d8060008114611693576040519150601f19603f3d011682016040523d82523d6000602084013e611698565b606091505b50509050806116b95760405162461bcd60e51b81526004016103b39061384f565b7fba1c16e049c7a348b951726f087bd968f9f40e6c64c8cf9ae55ed756ae629440843360405161091a92919061395d565b6000548290811061170d5760405162461bcd60e51b81526004016103b3906138b6565b600080848154811061172f57634e487b7160e01b600052603260045260246000fd5b60009182526020909120600b9091020160048101549091506001600160a01b0316331480159061176c575060068101546001600160a01b03163314155b6117885760405162461bcd60e51b81526004016103b39061333c565b60036006820154600160a01b900460ff1660048111156117b857634e487b7160e01b600052602160045260246000fd5b146117d55760405162461bcd60e51b81526004016103b390613456565b600084815260036020908152604080832033845290915290205460ff161561180f5760405162461bcd60e51b81526004016103b390613818565b60015434146118305760405162461bcd60e51b81526004016103b390613305565b600084815260036020908152604080832033808552908352818420805460ff19166001908117909155888552600284529184208054928301815584529190922090910180546001600160a01b031916909117905582156118a65760088101805490600061189c83613b40565b91905055506118be565b6009810180549060006118b883613b40565b91905055505b600060036001546118cf9190613ace565b90506000816001546118e19190613ab6565b90506000336001600160a01b0316826040516118fc906130d1565b60006040518083038185875af1925050503d8060008114611939576040519150601f19603f3d011682016040523d82523d6000602084013e61193e565b606091505b505090508061195f5760405162461bcd60e51b81526004016103b3906138e6565b7fc9d2ff8d0995175448926c3772b9348991ca8fecf6638d1e32cf1700e208ca4187338860405161199293929190613974565b60405180910390a1600087815260026020526040902054600314156119e05760028460080154106119cb576119c6876129ce565b6119e0565b60028460090154106119e0576119e087612aca565b50505050505050565b60606000805b600054811015611a6757836001600160a01b031660008281548110611a2457634e487b7160e01b600052603260045260246000fd5b600091825260209091206006600b9092020101546001600160a01b03161415611a555781611a5181613b40565b9250505b80611a5f81613b40565b9150506119ef565b5060008167ffffffffffffffff811115611a9157634e487b7160e01b600052604160045260246000fd5b604051908082528060200260200182016040528015611aca57816020015b611ab7612bdc565b815260200190600190039081611aaf5790505b5090506000805b600054811015610e3b57856001600160a01b031660008281548110611b0657634e487b7160e01b600052603260045260246000fd5b600091825260209091206006600b9092020101546001600160a01b03161415611e7c5760008181548110611b4a57634e487b7160e01b600052603260045260246000fd5b90600052602060002090600b02016040518061018001604052908160008201548152602001600182018054611b7e90613b05565b80601f0160208091040260200160405190810160405280929190818152602001828054611baa90613b05565b8015611bf75780601f10611bcc57610100808354040283529160200191611bf7565b820191906000526020600020905b815481529060010190602001808311611bda57829003601f168201915b50505050508152602001600282018054611c1090613b05565b80601f0160208091040260200160405190810160405280929190818152602001828054611c3c90613b05565b8015611c895780601f10611c5e57610100808354040283529160200191611c89565b820191906000526020600020905b815481529060010190602001808311611c6c57829003601f168201915b50505050508152602001600382015481526020016004820160009054906101000a90046001600160a01b03166001600160a01b03166001600160a01b0316815260200160058201805480602002602001604051908101604052809291908181526020018280548015611d2457602002820191906000526020600020905b81546001600160a01b03168152600190910190602001808311611d06575b505050918352505060068201546001600160a01b0381166020830152604090910190600160a01b900460ff166004811115611d6f57634e487b7160e01b600052602160045260246000fd5b6004811115611d8e57634e487b7160e01b600052602160045260246000fd5b8152602001600782015481526020016008820154815260200160098201548152602001600a82018054611dc090613b05565b80601f0160208091040260200160405190810160405280929190818152602001828054611dec90613b05565b8015611e395780601f10611e0e57610100808354040283529160200191611e39565b820191906000526020600020905b815481529060010190602001808311611e1c57829003601f168201915b505050505081525050838381518110611e6257634e487b7160e01b600052603260045260246000fd5b60200260200101819052508180611e7890613b40565b9250505b80611e8681613b40565b915050611ad1565b6000845111611eaf5760405162461bcd60e51b81526004016103b3906133d0565b6000835111611ed05760405162461bcd60e51b81526004016103b390613269565b60008111611ef05760405162461bcd60e51b81526004016103b39061350f565b600154611efd9082613ab6565b3414611f1b5760405162461bcd60e51b81526004016103b3906132ac565b6000805460408051610180810182528281526020808201898152828401899052606083018890523360808401528351868152808301855260a084015260c0830186905260e0830186905261010083018790526101208301869052610140830186905283518083019094528584526101608301939093526001840185559380528051600b84027f290decd9548b62a8d60345a988386fc84ba6bc95484008f6362f93160ef3e563810191825592518051949592949193612001937f290decd9548b62a8d60345a988386fc84ba6bc95484008f6362f93160ef3e56490910192910190612b58565b506040820151805161201d916002840191602090910190612b58565b506060820151600382015560808201516004820180546001600160a01b0319166001600160a01b0390921691909117905560a08201518051612069916005840191602090910190612d85565b5060c08201516006820180546001600160a01b0319166001600160a01b039092169190911780825560e0840151919060ff60a01b1916600160a01b8360048111156120c457634e487b7160e01b600052602160045260246000fd5b0217905550610100820151600782015561012082015160088201556101408201516009820155610160820151805161210691600a840191602090910190612b58565b5050507f59efe781992d5ecfa36fc33ea75b2d74345c30fd2e5762bfe91d37159b14965281868686336000886040516121459796959493929190613a52565b60405180910390a15050505050565b600381565b60015481565b600560209081526000928352604080842090915290825290205460ff1681565b60606000805b6000548110156121fd57836001600160a01b0316600082815481106121ba57634e487b7160e01b600052603260045260246000fd5b600091825260209091206004600b9092020101546001600160a01b031614156121eb57816121e781613b40565b9250505b806121f581613b40565b915050612185565b5060008167ffffffffffffffff81111561222757634e487b7160e01b600052604160045260246000fd5b60405190808252806020026020018201604052801561226057816020015b61224d612bdc565b8152602001906001900390816122455790505b5090506000805b600054811015610e3b57856001600160a01b03166000828154811061229c57634e487b7160e01b600052603260045260246000fd5b600091825260209091206004600b9092020101546001600160a01b0316141561261257600081815481106122e057634e487b7160e01b600052603260045260246000fd5b90600052602060002090600b0201604051806101800160405290816000820154815260200160018201805461231490613b05565b80601f016020809104026020016040519081016040528092919081815260200182805461234090613b05565b801561238d5780601f106123625761010080835404028352916020019161238d565b820191906000526020600020905b81548152906001019060200180831161237057829003601f168201915b505050505081526020016002820180546123a690613b05565b80601f01602080910402602001604051908101604052809291908181526020018280546123d290613b05565b801561241f5780601f106123f45761010080835404028352916020019161241f565b820191906000526020600020905b81548152906001019060200180831161240257829003601f168201915b50505050508152602001600382015481526020016004820160009054906101000a90046001600160a01b03166001600160a01b03166001600160a01b03168152602001600582018054806020026020016040519081016040528092919081815260200182805480156124ba57602002820191906000526020600020905b81546001600160a01b0316815260019091019060200180831161249c575b505050918352505060068201546001600160a01b0381166020830152604090910190600160a01b900460ff16600481111561250557634e487b7160e01b600052602160045260246000fd5b600481111561252457634e487b7160e01b600052602160045260246000fd5b8152602001600782015481526020016008820154815260200160098201548152602001600a8201805461255690613b05565b80601f016020809104026020016040519081016040528092919081815260200182805461258290613b05565b80156125cf5780601f106125a4576101008083540402835291602001916125cf565b820191906000526020600020905b8154815290600101906020018083116125b257829003601f168201915b5050505050815250508383815181106125f857634e487b7160e01b600052603260045260246000fd5b6020026020010181905250818061260e90613b40565b9250505b8061261c81613b40565b915050612267565b6002602052816000526040600020818154811061264057600080fd5b6000918252602090912001546001600160a01b03169150829050565b600054811061267d5760405162461bcd60e51b81526004016103b3906138b6565b600080828154811061269f57634e487b7160e01b600052603260045260246000fd5b60009182526020909120600b9091020160048101549091506001600160a01b031633146126de5760405162461bcd60e51b81526004016103b390613633565b60026006820154600160a01b900460ff16600481111561270e57634e487b7160e01b600052602160045260246000fd5b1461272b5760405162461bcd60e51b81526004016103b39061338c565b60068101805460ff60a01b1916600360a01b179055600060088201819055600982018190555b6000838152600260205260409020548110156127e8576000838152600360209081526040808320600290925282208054839190859081106127a257634e487b7160e01b600052603260045260246000fd5b6000918252602080832091909101546001600160a01b031683528201929092526040019020805460ff1916911515919091179055806127e081613b40565b915050612751565b50600082815260026020526040812061280091612c6e565b600080516020613b88833981519152826002600360405161119a93929190613995565b600054819081106128465760405162461bcd60e51b81526004016103b3906138b6565b600080838154811061286857634e487b7160e01b600052603260045260246000fd5b60009182526020909120600b9091020160048101549091506001600160a01b03163314156128a85760405162461bcd60e51b81526004016103b3906134ce565b60006006820154600160a01b900460ff1660048111156128d857634e487b7160e01b600052602160045260246000fd5b146128f55760405162461bcd60e51b81526004016103b3906132d8565b600083815260056020908152604080832033845290915290205460ff161561292f5760405162461bcd60e51b81526004016103b390613682565b60015434146129505760405162461bcd60e51b81526004016103b390613305565b60058082018054600181810183556000928352602080842090920180546001600160a01b03191633908117909155878452938252604080842085855290925291819020805460ff1916909217909155517f8725bffe8d13528e1bab35c1d9aa412f46d228a07bef71d732e5fe603f9abc05916104da9186919061395d565b60008082815481106129f057634e487b7160e01b600052603260045260246000fd5b600091825260208220600b919091020160068101805460ff60a01b1916600160a21b179081905560015460078301549294506001600160a01b0390911691612a389190613ab6565b604051612a44906130d1565b60006040518083038185875af1925050503d8060008114612a81576040519150601f19603f3d011682016040523d82523d6000602084013e612a86565b606091505b5050905080612aa75760405162461bcd60e51b81526004016103b3906136ce565b600080516020613b8883398151915283600360046040516104da93929190613995565b6000808281548110612aec57634e487b7160e01b600052603260045260246000fd5b600091825260208083206006600b939093020191820180546001600160a81b031916905560088201839055600982018390558483526002905260408220909250612b3591612c6e565b600080516020613b88833981519152826003600060405161119a93929190613995565b828054612b6490613b05565b90600052602060002090601f016020900481019282612b865760008555612bcc565b82601f10612b9f57805160ff1916838001178555612bcc565b82800160010185558215612bcc579182015b82811115612bcc578251825591602001919060010190612bb1565b50612bd8929150612dda565b5090565b6040518061018001604052806000815260200160608152602001606081526020016000815260200160006001600160a01b031681526020016060815260200160006001600160a01b0316815260200160006004811115612c4c57634e487b7160e01b600052602160045260246000fd5b8152602001600081526020016000815260200160008152602001606081525090565b5080546000825590600052602060002090810190612c8c9190612dda565b50565b828054612c9b90613b05565b90600052602060002090601f016020900481019282612cbd5760008555612bcc565b82601f10612cce5780548555612bcc565b82800160010185558215612bcc57600052602060002091601f016020900482015b82811115612bcc578254825591600101919060010190612cef565b828054828255906000526020600020908101928215612bcc57600052602060002091820182811115612bcc578254825591600101919060010190612cef565b508054612d5590613b05565b6000825580601f10612d675750612c8c565b601f016020900490600052602060002090810190612c8c9190612dda565b828054828255906000526020600020908101928215612bcc579160200282015b82811115612bcc57825182546001600160a01b0319166001600160a01b03909116178255602090920191600190910190612da5565b5b80821115612bd85760008155600101612ddb565b80356001600160a01b0381168114610e4257600080fd5b600082601f830112612e16578081fd5b813567ffffffffffffffff80821115612e3157612e31613b71565b604051601f8301601f191681016020018281118282101715612e5557612e55613b71565b604052828152848301602001861015612e6c578384fd5b82602086016020830137918201602001929092529392505050565b600060208284031215612e98578081fd5b612ea182612def565b9392505050565b600060208284031215612eb9578081fd5b813560058110612ea1578182fd5b60008060008060808587031215612edc578283fd5b843567ffffffffffffffff80821115612ef3578485fd5b612eff88838901612e06565b95506020870135915080821115612f14578485fd5b50612f2187828801612e06565b949794965050505060408301359260600135919050565b600060208284031215612f49578081fd5b5035919050565b60008060408385031215612f62578182fd5b82359150612f7260208401612def565b90509250929050565b60008060408385031215612f8d578182fd5b8235915060208301358015158114612fa3578182fd5b809150509250929050565b60008060408385031215612fc0578182fd5b82359150602083013567ffffffffffffffff811115612fdd578182fd5b612fe985828601612e06565b9150509250929050565b60008060408385031215613005578182fd5b50508035926020909101359150565b6001600160a01b03169052565b6000815180845260208085019450808401835b838110156130595781516001600160a01b031687529582019590820190600101613034565b509495945050505050565b6005811061308257634e487b7160e01b600052602160045260246000fd5b9052565b60008151808452815b818110156130ab5760208185018101518683018201520161308f565b818111156130bc5782602083870101525b50601f01601f19169290920160200192915050565b90565b6001600160a01b0391909116815260200190565b60208082528251828201819052600091906040908185019080840286018301878501865b8381101561320857603f1989840301855281516101808151855288820151818a87015261313b82870182613086565b91505087820151858203898701526131538282613086565b915050606080830151818701525060808083015161317382880182613014565b505060a0808301518683038288015261318c8382613021565b9250505060c0808301516131a282880182613014565b505060e0808301516131b682880182613064565b505061010082810151908601526101208083015190860152610140808301519086015261016091820151858203928601929092526131f48183613086565b96890196945050509086019060010161310c565b509098975050505050505050565b901515815260200190565b60208082526028908201527f566572696669636174696f6e2066656520726566756e6420746f20636c69656e6040820152671d0819985a5b195960c21b606082015260800190565b60208082526023908201527f50726f6a656374206465736372697074696f6e2063616e6e6f7420626520656d60408201526270747960e81b606082015260800190565b602080825260129082015271125b98dbdc9c9958dd08115512081cd95b9d60721b604082015260600190565b602080825260139082015272283937b532b1ba1034b9903737ba1037b832b760691b604082015260600190565b6020808252601a908201527f496e636f727265637420766572696669636174696f6e20666565000000000000604082015260600190565b60208082526030908201527f56657269666965722063616e6e6f742062652070726f6a65637420637265617460408201526f37b91037b910333932b2b630b731b2b960811b606082015260800190565b60208082526024908201527f50726f6a656374206d7573742062652077616974696e6720666f7220617070726040820152631bdd985b60e21b606082015260800190565b6020808252601c908201527f50726f6a656374206e616d652063616e6e6f7420626520656d70747900000000604082015260600190565b6020808252602f908201527f4f6e6c79207468652070726f6a6563742063726561746f722063616e2061707060408201526e3937bb329031b7b6b83632ba34b7b760891b606082015260800190565b6020808252601a908201527f50726f6a656374206d75737420626520696e2064697370757465000000000000604082015260600190565b60208082526021908201527f466565207472616e7366657220746f20667265656c616e636572206661696c656040820152601960fa1b606082015260800190565b60208082526021908201527f43726561746f722063616e6e6f7420616363657074206f776e2070726f6a65636040820152601d60fa1b606082015260800190565b60208082526025908201527f50726f6a65637420666565206d7573742062652067726561746572207468616e604082015264207a65726f60d81b606082015260800190565b60208082526026908201527f526566756e6420746f20756e73656c656374656420667265656c616e6365722060408201526519985a5b195960d21b606082015260800190565b60208082526028908201527f467265656c616e63657220686173206e6f742061636365707465642074686973604082015267081c1c9bda9958dd60c21b606082015260800190565b60208082526031908201527f4f6e6c792074686520667265656c616e6365722063616e206d61726b2070726f6040820152701a9958dd08185cc818dbdb5c1b195d1959607a1b606082015260800190565b6020808252602f908201527f4f6e6c79207468652070726f6a6563742063726561746f722063616e2064697360408201526e383aba329031b7b6b83632ba34b7b760891b606082015260800190565b6020808252602c908201527f467265656c616e6365722068617320616c72656164792061636365707465642060408201526b1d1a1a5cc81c1c9bda9958dd60a21b606082015260800190565b60208082526019908201527f467265656c616e636572207061796d656e74206661696c656400000000000000604082015260600190565b6020808252602c908201527f4f6e6c792070726f6a6563742063726561746f722063616e2073656c6563742060408201526b3090333932b2b630b731b2b960a11b606082015260800190565b6020808252602f908201527f4f6e6c79207468652070726f6a6563742063726561746f722063616e2072656d60408201526e1bdd99481d1a19481c1c9bda9958dd608a1b606082015260800190565b6020808252601b908201527f526566756e6420746f20667265656c616e636572206661696c65640000000000604082015260600190565b60208082526021908201527f4f6e6c79206f70656e2070726f6a656374732063616e2062652072656d6f76656040820152601960fa1b606082015260800190565b6020808252601a908201527f56657269666965722068617320616c726561647920766f746564000000000000604082015260600190565b6020808252601690820152751499599d5b99081d1c985b9cd9995c8819985a5b195960521b604082015260600190565b6020808252601a908201527f50726f6f66206c696e6b2063616e6e6f7420626520656d707479000000000000604082015260600190565b602080825260169082015275141c9bda9958dd08191bd95cc81b9bdd08195e1a5cdd60521b604082015260600190565b6020808252601f908201527f566572696669657220726577617264207472616e73666572206661696c656400604082015260600190565b6020808252601b908201527f50726f6a656374206d75737420626520696e2070726f67726573730000000000604082015260600190565b90815260200190565b9182526001600160a01b0316602082015260400190565b9283526001600160a01b039190911660208301521515604082015260600190565b838152606081016139a96020830185613064565b6139b66040830184613064565b949350505050565b60006101608d83528060208401526139d88184018e613086565b905082810360408401526139ec818d613086565b606084018c90526001600160a01b038b811660808601528a1660a08501529050613a1960c0840189613064565b8660e08401528561010084015284610120840152828103610140840152613a408185613086565b9e9d5050505050505050505050505050565b600088825260e06020830152613a6b60e0830189613086565b8281036040840152613a7d8189613086565b606084018890526001600160a01b03871660808501529150613aa4905060a0830185613064565b8260c083015298975050505050505050565b60008219821115613ac957613ac9613b5b565b500190565b600082613ae957634e487b7160e01b81526012600452602481fd5b500490565b600082821015613b0057613b00613b5b565b500390565b600281046001821680613b1957607f821691505b60208210811415613b3a57634e487b7160e01b600052602260045260246000fd5b50919050565b6000600019821415613b5457613b54613b5b565b5060010190565b634e487b7160e01b600052601160045260246000fd5b634e487b7160e01b600052604160045260246000fdfe15a4a29eccf92a0bbf94f24a6840487aa0226f7fb02d3402f1f86b3360bdfc6aa26469706673582212203388e0011e0d346a5ed0b2e0bf57fc89db057f346241cb8fdb201df2390329c464736f6c63430008000033",
  "linkReferences": {},
  "deployedLinkReferences": {}
}