{
  "_format": "hh-sol-artifact-1",
  "contractName": "ProjectManager",
  "sourceName": "contracts/ProjectManager.sol",
  "abi": [
    {
      "anonymous": false,
      "inputs": [
        {
          "indexed": false,
          "internalType": "string",
          "name": "name",
          "type": "string"
        },
        {
          "indexed": false,
          "internalType": "string",
          "name": "description",
          "type": "string"
        },
        {
          "indexed": false,
          "internalType": "uint256",
          "name": "timestamp",
          "type": "uint256"
        },
        {
          "indexed": false,
          "internalType": "address",
          "name": "creator",
          "type": "address"
        }
      ],
      "name": "ProjectCreated",
      "type": "event"
    },
    {
      "inputs": [
        {
          "internalType": "string",
          "name": "_name",
          "type": "string"
        },
        {
          "internalType": "string",
          "name": "_description",
          "type": "string"
        },
        {
          "internalType": "uint256",
          "name": "_timestamp",
          "type": "uint256"
        }
      ],
      "name": "createProject",
      "outputs": [],
      "stateMutability": "nonpayable",
      "type": "function"
    },
    {
      "inputs": [
        {
          "internalType": "address",
          "name": "_creator",
          "type": "address"
        }
      ],
      "name": "getProjectsByAddress",
      "outputs": [
        {
          "components": [
            {
              "internalType": "string",
              "name": "name",
              "type": "string"
            },
            {
              "internalType": "string",
              "name": "description",
              "type": "string"
            },
            {
              "internalType": "uint256",
              "name": "timestamp",
              "type": "uint256"
            },
            {
              "internalType": "address",
              "name": "creator",
              "type": "address"
            }
          ],
          "internalType": "struct ProjectManager.Project[]",
          "name": "",
          "type": "tuple[]"
        }
      ],
      "stateMutability": "view",
      "type": "function"
    },
    {
      "inputs": [
        {
          "internalType": "uint256",
          "name": "",
          "type": "uint256"
        }
      ],
      "name": "projects",
      "outputs": [
        {
          "internalType": "string",
          "name": "name",
          "type": "string"
        },
        {
          "internalType": "string",
          "name": "description",
          "type": "string"
        },
        {
          "internalType": "uint256",
          "name": "timestamp",
          "type": "uint256"
        },
        {
          "internalType": "address",
          "name": "creator",
          "type": "address"
        }
      ],
      "stateMutability": "view",
      "type": "function"
    }
  ],
  "bytecode": "0x608060405234801561001057600080fd5b50610ece806100206000396000f3fe608060405234801561001057600080fd5b50600436106100415760003560e01c8063107046bd1461004657806323c5544814610079578063d5842c8b14610095575b600080fd5b610060600480360381019061005b91906109cd565b6100c5565b6040516100709493929190610bb9565b60405180910390f35b610093600480360381019061008e919061094e565b610235565b005b6100af60048036038101906100aa9190610925565b610366565b6040516100bc9190610b97565b60405180910390f35b600081815481106100d557600080fd5b90600052602060002090600402016000915090508060000180546100f890610d51565b80601f016020809104026020016040519081016040528092919081815260200182805461012490610d51565b80156101715780601f1061014657610100808354040283529160200191610171565b820191906000526020600020905b81548152906001019060200180831161015457829003601f168201915b50505050509080600101805461018690610d51565b80601f01602080910402602001604051908101604052809291908181526020018280546101b290610d51565b80156101ff5780601f106101d4576101008083540402835291602001916101ff565b820191906000526020600020905b8154815290600101906020018083116101e257829003601f168201915b5050505050908060020154908060030160009054906101000a900473ffffffffffffffffffffffffffffffffffffffff16905084565b600060405180608001604052808581526020018481526020018381526020013373ffffffffffffffffffffffffffffffffffffffff16815250908060018154018082558091505060019003906000526020600020906004020160009091909190915060008201518160000190805190602001906102b39291906107b2565b5060208201518160010190805190602001906102d09291906107b2565b506040820151816002015560608201518160030160006101000a81548173ffffffffffffffffffffffffffffffffffffffff021916908373ffffffffffffffffffffffffffffffffffffffff16021790555050507f43620f12eb6f0684c0792b2ab6f559d115424312dd3fc7625477dbb21efaac86838383336040516103599493929190610bb9565b60405180910390a1505050565b60606000805b60008054905081101561043a578373ffffffffffffffffffffffffffffffffffffffff16600082815481106103ca577f4e487b7100000000000000000000000000000000000000000000000000000000600052603260045260246000fd5b906000526020600020906004020160030160009054906101000a900473ffffffffffffffffffffffffffffffffffffffff1673ffffffffffffffffffffffffffffffffffffffff16141561042757818061042390610d83565b9250505b808061043290610d83565b91505061036c565b5060008167ffffffffffffffff81111561047d577f4e487b7100000000000000000000000000000000000000000000000000000000600052604160045260246000fd5b6040519080825280602002602001820160405280156104b657816020015b6104a3610838565b81526020019060019003908161049b5790505b5090506000805b6000805490508110156107a6578573ffffffffffffffffffffffffffffffffffffffff166000828154811061051b577f4e487b7100000000000000000000000000000000000000000000000000000000600052603260045260246000fd5b906000526020600020906004020160030160009054906101000a900473ffffffffffffffffffffffffffffffffffffffff1673ffffffffffffffffffffffffffffffffffffffff16141561079357600081815481106105a3577f4e487b7100000000000000000000000000000000000000000000000000000000600052603260045260246000fd5b90600052602060002090600402016040518060800160405290816000820180546105cc90610d51565b80601f01602080910402602001604051908101604052809291908181526020018280546105f890610d51565b80156106455780601f1061061a57610100808354040283529160200191610645565b820191906000526020600020905b81548152906001019060200180831161062857829003601f168201915b5050505050815260200160018201805461065e90610d51565b80601f016020809104026020016040519081016040528092919081815260200182805461068a90610d51565b80156106d75780601f106106ac576101008083540402835291602001916106d7565b820191906000526020600020905b8154815290600101906020018083116106ba57829003601f168201915b50505050508152602001600282015481526020016003820160009054906101000a900473ffffffffffffffffffffffffffffffffffffffff1673ffffffffffffffffffffffffffffffffffffffff1673ffffffffffffffffffffffffffffffffffffffff1681525050838381518110610779577f4e487b7100000000000000000000000000000000000000000000000000000000600052603260045260246000fd5b6020026020010181905250818061078f90610d83565b9250505b808061079e90610d83565b9150506104bd565b50819350505050919050565b8280546107be90610d51565b90600052602060002090601f0160209004810192826107e05760008555610827565b82601f106107f957805160ff1916838001178555610827565b82800160010185558215610827579182015b8281111561082657825182559160200191906001019061080b565b5b5090506108349190610876565b5090565b6040518060800160405280606081526020016060815260200160008152602001600073ffffffffffffffffffffffffffffffffffffffff1681525090565b5b8082111561088f576000816000905550600101610877565b5090565b60006108a66108a184610c3d565b610c0c565b9050828152602081018484840111156108be57600080fd5b6108c9848285610d0f565b509392505050565b6000813590506108e081610e6a565b92915050565b600082601f8301126108f757600080fd5b8135610907848260208601610893565b91505092915050565b60008135905061091f81610e81565b92915050565b60006020828403121561093757600080fd5b6000610945848285016108d1565b91505092915050565b60008060006060848603121561096357600080fd5b600084013567ffffffffffffffff81111561097d57600080fd5b610989868287016108e6565b935050602084013567ffffffffffffffff8111156109a657600080fd5b6109b2868287016108e6565b92505060406109c386828701610910565b9150509250925092565b6000602082840312156109df57600080fd5b60006109ed84828501610910565b91505092915050565b6000610a028383610b0f565b905092915050565b610a1381610cd3565b82525050565b610a2281610cd3565b82525050565b6000610a3382610c7d565b610a3d8185610ca0565b935083602082028501610a4f85610c6d565b8060005b85811015610a8b5784840389528151610a6c85826109f6565b9450610a7783610c93565b925060208a01995050600181019050610a53565b50829750879550505050505092915050565b6000610aa882610c88565b610ab28185610cb1565b9350610ac2818560208601610d1e565b610acb81610e59565b840191505092915050565b6000610ae182610c88565b610aeb8185610cc2565b9350610afb818560208601610d1e565b610b0481610e59565b840191505092915050565b60006080830160008301518482036000860152610b2c8282610a9d565b91505060208301518482036020860152610b468282610a9d565b9150506040830151610b5b6040860182610b79565b506060830151610b6e6060860182610a0a565b508091505092915050565b610b8281610d05565b82525050565b610b9181610d05565b82525050565b60006020820190508181036000830152610bb18184610a28565b905092915050565b60006080820190508181036000830152610bd38187610ad6565b90508181036020830152610be78186610ad6565b9050610bf66040830185610b88565b610c036060830184610a19565b95945050505050565b6000604051905081810181811067ffffffffffffffff82111715610c3357610c32610e2a565b5b8060405250919050565b600067ffffffffffffffff821115610c5857610c57610e2a565b5b601f19601f8301169050602081019050919050565b6000819050602082019050919050565b600081519050919050565b600081519050919050565b6000602082019050919050565b600082825260208201905092915050565b600082825260208201905092915050565b600082825260208201905092915050565b6000610cde82610ce5565b9050919050565b600073ffffffffffffffffffffffffffffffffffffffff82169050919050565b6000819050919050565b82818337600083830152505050565b60005b83811015610d3c578082015181840152602081019050610d21565b83811115610d4b576000848401525b50505050565b60006002820490506001821680610d6957607f821691505b60208210811415610d7d57610d7c610dfb565b5b50919050565b6000610d8e82610d05565b91507fffffffffffffffffffffffffffffffffffffffffffffffffffffffffffffffff821415610dc157610dc0610dcc565b5b600182019050919050565b7f4e487b7100000000000000000000000000000000000000000000000000000000600052601160045260246000fd5b7f4e487b7100000000000000000000000000000000000000000000000000000000600052602260045260246000fd5b7f4e487b7100000000000000000000000000000000000000000000000000000000600052604160045260246000fd5b6000601f19601f8301169050919050565b610e7381610cd3565b8114610e7e57600080fd5b50565b610e8a81610d05565b8114610e9557600080fd5b5056fea2646970667358221220f5aba2ce60ff4b6d4ec228b13323b37233fc310179a9c6be93e7af31f06d2d6f64736f6c63430008000033",
  "linkReferences": {},
  "deployedLinkReferences": {}
}