{
  "_format": "hh-sol-artifact-1",
  "contractName": "ProjectManager",
  "sourceName": "contracts/ProjectManager.sol",
  "abi": [
    {
      "anonymous": false,
      "inputs": [
        {
          "indexed": false,
          "internalType": "uint256",
          "name": "projectId",
          "type": "uint256"
        },
        {
          "indexed": false,
          "internalType": "address",
          "name": "recipient",
          "type": "address"
        },
        {
          "indexed": false,
          "internalType": "uint256",
          "name": "amount",
          "type": "uint256"
        }
      ],
      "name": "FundsTransferred",
      "type": "event"
    },
    {
      "anonymous": false,
      "inputs": [
        {
          "indexed": false,
          "internalType": "uint256",
          "name": "projectId",
          "type": "uint256"
        },
        {
          "indexed": false,
          "internalType": "string",
          "name": "name",
          "type": "string"
        },
        {
          "indexed": false,
          "internalType": "string",
          "name": "description",
          "type": "string"
        },
        {
          "indexed": false,
          "internalType": "uint256",
          "name": "timestamp",
          "type": "uint256"
        },
        {
          "indexed": false,
          "internalType": "address",
          "name": "creator",
          "type": "address"
        },
        {
          "indexed": false,
          "internalType": "enum ProjectManager.Status",
          "name": "status",
          "type": "uint8"
        },
        {
          "indexed": false,
          "internalType": "uint256",
          "name": "projectFee",
          "type": "uint256"
        },
        {
          "indexed": false,
          "internalType": "uint256",
          "name": "verificationFee",
          "type": "uint256"
        }
      ],
      "name": "ProjectCreated",
      "type": "event"
    },
    {
      "inputs": [],
      "name": "VERIFICATION_FEE",
      "outputs": [
        {
          "internalType": "uint256",
          "name": "",
          "type": "uint256"
        }
      ],
      "stateMutability": "view",
      "type": "function"
    },
    {
      "inputs": [
        {
          "internalType": "string",
          "name": "_name",
          "type": "string"
        },
        {
          "internalType": "string",
          "name": "_description",
          "type": "string"
        },
        {
          "internalType": "uint256",
          "name": "_timestamp",
          "type": "uint256"
        },
        {
          "internalType": "uint256",
          "name": "_projectFee",
          "type": "uint256"
        }
      ],
      "name": "createProject",
      "outputs": [],
      "stateMutability": "nonpayable",
      "type": "function"
    },
    {
      "inputs": [
        {
          "internalType": "address",
          "name": "_creator",
          "type": "address"
        }
      ],
      "name": "getProjectsByAddress",
      "outputs": [
        {
          "components": [
            {
              "internalType": "string",
              "name": "name",
              "type": "string"
            },
            {
              "internalType": "string",
              "name": "description",
              "type": "string"
            },
            {
              "internalType": "uint256",
              "name": "timestamp",
              "type": "uint256"
            },
            {
              "internalType": "address",
              "name": "creator",
              "type": "address"
            },
            {
              "internalType": "address",
              "name": "freelancer",
              "type": "address"
            },
            {
              "internalType": "enum ProjectManager.Status",
              "name": "status",
              "type": "uint8"
            },
            {
              "internalType": "uint256",
              "name": "projectFee",
              "type": "uint256"
            },
            {
              "internalType": "uint256",
              "name": "verificationFee",
              "type": "uint256"
            },
            {
              "internalType": "bool",
              "name": "isTransferred",
              "type": "bool"
            }
          ],
          "internalType": "struct ProjectManager.Project[]",
          "name": "",
          "type": "tuple[]"
        }
      ],
      "stateMutability": "view",
      "type": "function"
    },
    {
      "inputs": [
        {
          "internalType": "enum ProjectManager.Status",
          "name": "_status",
          "type": "uint8"
        }
      ],
      "name": "getProjectsByStatus",
      "outputs": [
        {
          "components": [
            {
              "internalType": "string",
              "name": "name",
              "type": "string"
            },
            {
              "internalType": "string",
              "name": "description",
              "type": "string"
            },
            {
              "internalType": "uint256",
              "name": "timestamp",
              "type": "uint256"
            },
            {
              "internalType": "address",
              "name": "creator",
              "type": "address"
            },
            {
              "internalType": "address",
              "name": "freelancer",
              "type": "address"
            },
            {
              "internalType": "enum ProjectManager.Status",
              "name": "status",
              "type": "uint8"
            },
            {
              "internalType": "uint256",
              "name": "projectFee",
              "type": "uint256"
            },
            {
              "internalType": "uint256",
              "name": "verificationFee",
              "type": "uint256"
            },
            {
              "internalType": "bool",
              "name": "isTransferred",
              "type": "bool"
            }
          ],
          "internalType": "struct ProjectManager.Project[]",
          "name": "",
          "type": "tuple[]"
        }
      ],
      "stateMutability": "view",
      "type": "function"
    },
    {
      "inputs": [
        {
          "internalType": "uint256",
          "name": "",
          "type": "uint256"
        }
      ],
      "name": "projects",
      "outputs": [
        {
          "internalType": "string",
          "name": "name",
          "type": "string"
        },
        {
          "internalType": "string",
          "name": "description",
          "type": "string"
        },
        {
          "internalType": "uint256",
          "name": "timestamp",
          "type": "uint256"
        },
        {
          "internalType": "address",
          "name": "creator",
          "type": "address"
        },
        {
          "internalType": "address",
          "name": "freelancer",
          "type": "address"
        },
        {
          "internalType": "enum ProjectManager.Status",
          "name": "status",
          "type": "uint8"
        },
        {
          "internalType": "uint256",
          "name": "projectFee",
          "type": "uint256"
        },
        {
          "internalType": "uint256",
          "name": "verificationFee",
          "type": "uint256"
        },
        {
          "internalType": "bool",
          "name": "isTransferred",
          "type": "bool"
        }
      ],
      "stateMutability": "view",
      "type": "function"
    },
    {
      "inputs": [
        {
          "internalType": "uint256",
          "name": "_projectId",
          "type": "uint256"
        },
        {
          "internalType": "address",
          "name": "_freelancer",
          "type": "address"
        }
      ],
      "name": "transferFunds",
      "outputs": [],
      "stateMutability": "payable",
      "type": "function"
    }
  ],
  "bytecode": "0x608060405234801561001057600080fd5b5061215c806100206000396000f3fe6080604052600436106100555760003560e01c8063107046bd1461005a5780631aa22bba1461009f57806378a1bffd146100dc57806394ba970914610107578063d5842c8b14610130578063f08e362f1461016d575b600080fd5b34801561006657600080fd5b50610081600480360381019061007c919061170d565b610189565b60405161009699989796959493929190611b68565b60405180910390f35b3480156100ab57600080fd5b506100c660048036038101906100c19190611651565b610351565b6040516100d39190611b46565b60405180910390f35b3480156100e857600080fd5b506100f161090c565b6040516100fe9190611ca3565b60405180910390f35b34801561011357600080fd5b5061012e6004803603810190610129919061167a565b610917565b005b34801561013c57600080fd5b5061015760048036038101906101529190611628565b610bb5565b6040516101649190611b46565b60405180910390f35b61018760048036038101906101829190611736565b61110e565b005b6000818154811061019957600080fd5b90600052602060002090600802016000915090508060000180546101bc90611f8c565b80601f01602080910402602001604051908101604052809291908181526020018280546101e890611f8c565b80156102355780601f1061020a57610100808354040283529160200191610235565b820191906000526020600020905b81548152906001019060200180831161021857829003601f168201915b50505050509080600101805461024a90611f8c565b80601f016020809104026020016040519081016040528092919081815260200182805461027690611f8c565b80156102c35780601f10610298576101008083540402835291602001916102c3565b820191906000526020600020905b8154815290600101906020018083116102a657829003601f168201915b5050505050908060020154908060030160009054906101000a900473ffffffffffffffffffffffffffffffffffffffff16908060040160009054906101000a900473ffffffffffffffffffffffffffffffffffffffff16908060040160149054906101000a900460ff16908060050154908060060154908060070160009054906101000a900460ff16905089565b60606000805b6000805490508110156104565783600381111561039d577f4e487b7100000000000000000000000000000000000000000000000000000000600052602160045260246000fd5b600082815481106103d7577f4e487b7100000000000000000000000000000000000000000000000000000000600052603260045260246000fd5b906000526020600020906008020160040160149054906101000a900460ff16600381111561042e577f4e487b7100000000000000000000000000000000000000000000000000000000600052602160045260246000fd5b141561044357818061043f90611fbe565b9250505b808061044e90611fbe565b915050610357565b5060008167ffffffffffffffff811115610499577f4e487b7100000000000000000000000000000000000000000000000000000000600052604160045260246000fd5b6040519080825280602002602001820160405280156104d257816020015b6104bf61142c565b8152602001906001900390816104b75790505b5090506000805b6000805490508110156109005785600381111561051f577f4e487b7100000000000000000000000000000000000000000000000000000000600052602160045260246000fd5b60008281548110610559577f4e487b7100000000000000000000000000000000000000000000000000000000600052603260045260246000fd5b906000526020600020906008020160040160149054906101000a900460ff1660038111156105b0577f4e487b7100000000000000000000000000000000000000000000000000000000600052602160045260246000fd5b14156108ed57600081815481106105f0577f4e487b7100000000000000000000000000000000000000000000000000000000600052603260045260246000fd5b90600052602060002090600802016040518061012001604052908160008201805461061a90611f8c565b80601f016020809104026020016040519081016040528092919081815260200182805461064690611f8c565b80156106935780601f1061066857610100808354040283529160200191610693565b820191906000526020600020905b81548152906001019060200180831161067657829003601f168201915b505050505081526020016001820180546106ac90611f8c565b80601f01602080910402602001604051908101604052809291908181526020018280546106d890611f8c565b80156107255780601f106106fa57610100808354040283529160200191610725565b820191906000526020600020905b81548152906001019060200180831161070857829003601f168201915b50505050508152602001600282015481526020016003820160009054906101000a900473ffffffffffffffffffffffffffffffffffffffff1673ffffffffffffffffffffffffffffffffffffffff1673ffffffffffffffffffffffffffffffffffffffff1681526020016004820160009054906101000a900473ffffffffffffffffffffffffffffffffffffffff1673ffffffffffffffffffffffffffffffffffffffff1673ffffffffffffffffffffffffffffffffffffffff1681526020016004820160149054906101000a900460ff16600381111561082f577f4e487b7100000000000000000000000000000000000000000000000000000000600052602160045260246000fd5b6003811115610867577f4e487b7100000000000000000000000000000000000000000000000000000000600052602160045260246000fd5b815260200160058201548152602001600682015481526020016007820160009054906101000a900460ff1615151515815250508383815181106108d3577f4e487b7100000000000000000000000000000000000000000000000000000000600052603260045260246000fd5b602002602001018190525081806108e990611fbe565b9250505b80806108f890611fbe565b9150506104d9565b50819350505050919050565b6601c6bf5263400081565b60006040518061012001604052808681526020018581526020018481526020013373ffffffffffffffffffffffffffffffffffffffff168152602001600073ffffffffffffffffffffffffffffffffffffffff168152602001600060038111156109aa577f4e487b7100000000000000000000000000000000000000000000000000000000600052602160045260246000fd5b81526020018381526020016601c6bf5263400081526020016000151581525090806001815401808255809150506001900390600052602060002090600802016000909190919091506000820151816000019080519060200190610a0e9291906114de565b506020820151816001019080519060200190610a2b9291906114de565b506040820151816002015560608201518160030160006101000a81548173ffffffffffffffffffffffffffffffffffffffff021916908373ffffffffffffffffffffffffffffffffffffffff16021790555060808201518160040160006101000a81548173ffffffffffffffffffffffffffffffffffffffff021916908373ffffffffffffffffffffffffffffffffffffffff16021790555060a08201518160040160146101000a81548160ff02191690836003811115610b15577f4e487b7100000000000000000000000000000000000000000000000000000000600052602160045260246000fd5b021790555060c0820151816005015560e082015181600601556101008201518160070160006101000a81548160ff02191690831515021790555050507f69b1a6a11291637d7f852f47bf0677f8e28d23b65683484742accabb621284a66001600080549050610b849190611ea9565b858585336000876601c6bf52634000604051610ba7989796959493929190611cf5565b60405180910390a150505050565b60606000805b600080549050811015610c89578373ffffffffffffffffffffffffffffffffffffffff1660008281548110610c19577f4e487b7100000000000000000000000000000000000000000000000000000000600052603260045260246000fd5b906000526020600020906008020160030160009054906101000a900473ffffffffffffffffffffffffffffffffffffffff1673ffffffffffffffffffffffffffffffffffffffff161415610c76578180610c7290611fbe565b9250505b8080610c8190611fbe565b915050610bbb565b5060008167ffffffffffffffff811115610ccc577f4e487b7100000000000000000000000000000000000000000000000000000000600052604160045260246000fd5b604051908082528060200260200182016040528015610d0557816020015b610cf261142c565b815260200190600190039081610cea5790505b5090506000805b600080549050811015611102578573ffffffffffffffffffffffffffffffffffffffff1660008281548110610d6a577f4e487b7100000000000000000000000000000000000000000000000000000000600052603260045260246000fd5b906000526020600020906008020160030160009054906101000a900473ffffffffffffffffffffffffffffffffffffffff1673ffffffffffffffffffffffffffffffffffffffff1614156110ef5760008181548110610df2577f4e487b7100000000000000000000000000000000000000000000000000000000600052603260045260246000fd5b906000526020600020906008020160405180610120016040529081600082018054610e1c90611f8c565b80601f0160208091040260200160405190810160405280929190818152602001828054610e4890611f8c565b8015610e955780601f10610e6a57610100808354040283529160200191610e95565b820191906000526020600020905b815481529060010190602001808311610e7857829003601f168201915b50505050508152602001600182018054610eae90611f8c565b80601f0160208091040260200160405190810160405280929190818152602001828054610eda90611f8c565b8015610f275780601f10610efc57610100808354040283529160200191610f27565b820191906000526020600020905b815481529060010190602001808311610f0a57829003601f168201915b50505050508152602001600282015481526020016003820160009054906101000a900473ffffffffffffffffffffffffffffffffffffffff1673ffffffffffffffffffffffffffffffffffffffff1673ffffffffffffffffffffffffffffffffffffffff1681526020016004820160009054906101000a900473ffffffffffffffffffffffffffffffffffffffff1673ffffffffffffffffffffffffffffffffffffffff1673ffffffffffffffffffffffffffffffffffffffff1681526020016004820160149054906101000a900460ff166003811115611031577f4e487b7100000000000000000000000000000000000000000000000000000000600052602160045260246000fd5b6003811115611069577f4e487b7100000000000000000000000000000000000000000000000000000000600052602160045260246000fd5b815260200160058201548152602001600682015481526020016007820160009054906101000a900460ff1615151515815250508383815181106110d5577f4e487b7100000000000000000000000000000000000000000000000000000000600052603260045260246000fd5b602002602001018190525081806110eb90611fbe565b9250505b80806110fa90611fbe565b915050610d0c565b50819350505050919050565b6000805490508210611155576040517f08c379a000000000000000000000000000000000000000000000000000000000815260040161114c90611c83565b60405180910390fd5b6000808381548110611190577f4e487b7100000000000000000000000000000000000000000000000000000000600052603260045260246000fd5b906000526020600020906008020190508060030160009054906101000a900473ffffffffffffffffffffffffffffffffffffffff1673ffffffffffffffffffffffffffffffffffffffff163373ffffffffffffffffffffffffffffffffffffffff1614611232576040517f08c379a000000000000000000000000000000000000000000000000000000000815260040161122990611c43565b60405180910390fd5b8060070160009054906101000a900460ff1615611284576040517f08c379a000000000000000000000000000000000000000000000000000000000815260040161127b90611c23565b60405180910390fd5b60008160060154826005015461129a9190611e53565b90508034146112de576040517f08c379a00000000000000000000000000000000000000000000000000000000081526004016112d590611c63565b60405180910390fd5b828260040160006101000a81548173ffffffffffffffffffffffffffffffffffffffff021916908373ffffffffffffffffffffffffffffffffffffffff16021790555060018260070160006101000a81548160ff02191690831515021790555060008373ffffffffffffffffffffffffffffffffffffffff163460405161136490611b31565b60006040518083038185875af1925050503d80600081146113a1576040519150601f19603f3d011682016040523d82523d6000602084013e6113a6565b606091505b50509050806113ea576040517f08c379a00000000000000000000000000000000000000000000000000000000081526004016113e190611c03565b60405180910390fd5b7fe90ae330e5aefc2a73ddff0dd88bcaf8f4a0629d6553a2a85b22cac3d5f4a19e85853460405161141d93929190611cbe565b60405180910390a15050505050565b604051806101200160405280606081526020016060815260200160008152602001600073ffffffffffffffffffffffffffffffffffffffff168152602001600073ffffffffffffffffffffffffffffffffffffffff168152602001600060038111156114c1577f4e487b7100000000000000000000000000000000000000000000000000000000600052602160045260246000fd5b815260200160008152602001600081526020016000151581525090565b8280546114ea90611f8c565b90600052602060002090601f01602090048101928261150c5760008555611553565b82601f1061152557805160ff1916838001178555611553565b82800160010185558215611553579182015b82811115611552578251825591602001919060010190611537565b5b5090506115609190611564565b5090565b5b8082111561157d576000816000905550600101611565565b5090565b600061159461158f84611db2565b611d81565b9050828152602081018484840111156115ac57600080fd5b6115b7848285611f4a565b509392505050565b6000813590506115ce816120e8565b92915050565b6000813590506115e3816120ff565b92915050565b600082601f8301126115fa57600080fd5b813561160a848260208601611581565b91505092915050565b6000813590506116228161210f565b92915050565b60006020828403121561163a57600080fd5b6000611648848285016115bf565b91505092915050565b60006020828403121561166357600080fd5b6000611671848285016115d4565b91505092915050565b6000806000806080858703121561169057600080fd5b600085013567ffffffffffffffff8111156116aa57600080fd5b6116b6878288016115e9565b945050602085013567ffffffffffffffff8111156116d357600080fd5b6116df878288016115e9565b93505060406116f087828801611613565b925050606061170187828801611613565b91505092959194509250565b60006020828403121561171f57600080fd5b600061172d84828501611613565b91505092915050565b6000806040838503121561174957600080fd5b600061175785828601611613565b9250506020611768858286016115bf565b9150509250929050565b600061177e8383611a47565b905092915050565b61178f81611edd565b82525050565b61179e81611edd565b82525050565b60006117af82611df2565b6117b98185611e15565b9350836020820285016117cb85611de2565b8060005b8581101561180757848403895281516117e88582611772565b94506117f383611e08565b925060208a019950506001810190506117cf565b50829750879550505050505092915050565b61182281611eef565b82525050565b61183181611eef565b82525050565b61184081611f38565b82525050565b61184f81611f38565b82525050565b600061186082611dfd565b61186a8185611e31565b935061187a818560208601611f59565b611883816120c3565b840191505092915050565b600061189982611dfd565b6118a38185611e42565b93506118b3818560208601611f59565b6118bc816120c3565b840191505092915050565b60006118d4600f83611e42565b91507f5472616e73666572206661696c656400000000000000000000000000000000006000830152602082019050919050565b6000611914601983611e42565b91507f46756e647320616c7265616479207472616e73666572726564000000000000006000830152602082019050919050565b6000611954602383611e42565b91507f4f6e6c79207468652063726561746f722063616e207472616e7366657220667560008301527f6e647300000000000000000000000000000000000000000000000000000000006020830152604082019050919050565b60006119ba601983611e42565b91507f496e636f72726563742066656520616d6f756e742073656e74000000000000006000830152602082019050919050565b60006119fa600083611e26565b9150600082019050919050565b6000611a14601683611e42565b91507f50726f6a65637420646f6573206e6f74206578697374000000000000000000006000830152602082019050919050565b6000610120830160008301518482036000860152611a658282611855565b91505060208301518482036020860152611a7f8282611855565b9150506040830151611a946040860182611b13565b506060830151611aa76060860182611786565b506080830151611aba6080860182611786565b5060a0830151611acd60a0860182611837565b5060c0830151611ae060c0860182611b13565b5060e0830151611af360e0860182611b13565b50610100830151611b08610100860182611819565b508091505092915050565b611b1c81611f2e565b82525050565b611b2b81611f2e565b82525050565b6000611b3c826119ed565b9150819050919050565b60006020820190508181036000830152611b6081846117a4565b905092915050565b6000610120820190508181036000830152611b83818c61188e565b90508181036020830152611b97818b61188e565b9050611ba6604083018a611b22565b611bb36060830189611795565b611bc06080830188611795565b611bcd60a0830187611846565b611bda60c0830186611b22565b611be760e0830185611b22565b611bf5610100830184611828565b9a9950505050505050505050565b60006020820190508181036000830152611c1c816118c7565b9050919050565b60006020820190508181036000830152611c3c81611907565b9050919050565b60006020820190508181036000830152611c5c81611947565b9050919050565b60006020820190508181036000830152611c7c816119ad565b9050919050565b60006020820190508181036000830152611c9c81611a07565b9050919050565b6000602082019050611cb86000830184611b22565b92915050565b6000606082019050611cd36000830186611b22565b611ce06020830185611795565b611ced6040830184611b22565b949350505050565b600061010082019050611d0b600083018b611b22565b8181036020830152611d1d818a61188e565b90508181036040830152611d31818961188e565b9050611d406060830188611b22565b611d4d6080830187611795565b611d5a60a0830186611846565b611d6760c0830185611b22565b611d7460e0830184611b22565b9998505050505050505050565b6000604051905081810181811067ffffffffffffffff82111715611da857611da7612094565b5b8060405250919050565b600067ffffffffffffffff821115611dcd57611dcc612094565b5b601f19601f8301169050602081019050919050565b6000819050602082019050919050565b600081519050919050565b600081519050919050565b6000602082019050919050565b600082825260208201905092915050565b600081905092915050565b600082825260208201905092915050565b600082825260208201905092915050565b6000611e5e82611f2e565b9150611e6983611f2e565b9250827fffffffffffffffffffffffffffffffffffffffffffffffffffffffffffffffff03821115611e9e57611e9d612007565b5b828201905092915050565b6000611eb482611f2e565b9150611ebf83611f2e565b925082821015611ed257611ed1612007565b5b828203905092915050565b6000611ee882611f0e565b9050919050565b60008115159050919050565b6000819050611f09826120d4565b919050565b600073ffffffffffffffffffffffffffffffffffffffff82169050919050565b6000819050919050565b6000611f4382611efb565b9050919050565b82818337600083830152505050565b60005b83811015611f77578082015181840152602081019050611f5c565b83811115611f86576000848401525b50505050565b60006002820490506001821680611fa457607f821691505b60208210811415611fb857611fb7612065565b5b50919050565b6000611fc982611f2e565b91507fffffffffffffffffffffffffffffffffffffffffffffffffffffffffffffffff821415611ffc57611ffb612007565b5b600182019050919050565b7f4e487b7100000000000000000000000000000000000000000000000000000000600052601160045260246000fd5b7f4e487b7100000000000000000000000000000000000000000000000000000000600052602160045260246000fd5b7f4e487b7100000000000000000000000000000000000000000000000000000000600052602260045260246000fd5b7f4e487b7100000000000000000000000000000000000000000000000000000000600052604160045260246000fd5b6000601f19601f8301169050919050565b600481106120e5576120e4612036565b5b50565b6120f181611edd565b81146120fc57600080fd5b50565b6004811061210c57600080fd5b50565b61211881611f2e565b811461212357600080fd5b5056fea264697066735822122082c4e42a65d12c5a0d9e68f364acc734d950110a5aa8e92b2b0601efaf8d35f264736f6c63430008000033",
  "linkReferences": {},
  "deployedLinkReferences": {}
}