{
  "_format": "hh-sol-artifact-1",
  "contractName": "ProjectManager",
  "sourceName": "contracts/ProjectManager.sol",
  "abi": [
    {
      "anonymous": false,
      "inputs": [
        {
          "indexed": false,
          "internalType": "uint256",
          "name": "projectId",
          "type": "uint256"
        },
        {
          "indexed": false,
          "internalType": "address",
          "name": "recipient",
          "type": "address"
        },
        {
          "indexed": false,
          "internalType": "uint256",
          "name": "amount",
          "type": "uint256"
        }
      ],
      "name": "FundsTransferred",
      "type": "event"
    },
    {
      "anonymous": false,
      "inputs": [
        {
          "indexed": false,
          "internalType": "uint256",
          "name": "projectId",
          "type": "uint256"
        },
        {
          "indexed": false,
          "internalType": "string",
          "name": "name",
          "type": "string"
        },
        {
          "indexed": false,
          "internalType": "string",
          "name": "description",
          "type": "string"
        },
        {
          "indexed": false,
          "internalType": "uint256",
          "name": "timestamp",
          "type": "uint256"
        },
        {
          "indexed": false,
          "internalType": "address",
          "name": "creator",
          "type": "address"
        },
        {
          "indexed": false,
          "internalType": "enum ProjectManager.Status",
          "name": "status",
          "type": "uint8"
        },
        {
          "indexed": false,
          "internalType": "uint256",
          "name": "projectFee",
          "type": "uint256"
        },
        {
          "indexed": false,
          "internalType": "uint256",
          "name": "verificationFee",
          "type": "uint256"
        }
      ],
      "name": "ProjectCreated",
      "type": "event"
    },
    {
      "inputs": [],
      "name": "VERIFICATION_FEE",
      "outputs": [
        {
          "internalType": "uint256",
          "name": "",
          "type": "uint256"
        }
      ],
      "stateMutability": "view",
      "type": "function"
    },
    {
      "inputs": [
        {
          "internalType": "string",
          "name": "_name",
          "type": "string"
        },
        {
          "internalType": "string",
          "name": "_description",
          "type": "string"
        },
        {
          "internalType": "uint256",
          "name": "_timestamp",
          "type": "uint256"
        },
        {
          "internalType": "uint256",
          "name": "_projectFee",
          "type": "uint256"
        }
      ],
      "name": "createProject",
      "outputs": [],
      "stateMutability": "nonpayable",
      "type": "function"
    },
    {
      "inputs": [
        {
          "internalType": "address",
          "name": "_creator",
          "type": "address"
        }
      ],
      "name": "getProjectsByAddress",
      "outputs": [
        {
          "components": [
            {
              "internalType": "string",
              "name": "name",
              "type": "string"
            },
            {
              "internalType": "string",
              "name": "description",
              "type": "string"
            },
            {
              "internalType": "uint256",
              "name": "timestamp",
              "type": "uint256"
            },
            {
              "internalType": "address",
              "name": "creator",
              "type": "address"
            },
            {
              "internalType": "address",
              "name": "freelancer",
              "type": "address"
            },
            {
              "internalType": "enum ProjectManager.Status",
              "name": "status",
              "type": "uint8"
            },
            {
              "internalType": "uint256",
              "name": "projectFee",
              "type": "uint256"
            },
            {
              "internalType": "uint256",
              "name": "verificationFee",
              "type": "uint256"
            },
            {
              "internalType": "bool",
              "name": "isTransferred",
              "type": "bool"
            }
          ],
          "internalType": "struct ProjectManager.Project[]",
          "name": "",
          "type": "tuple[]"
        }
      ],
      "stateMutability": "view",
      "type": "function"
    },
    {
      "inputs": [
        {
          "internalType": "enum ProjectManager.Status",
          "name": "_status",
          "type": "uint8"
        }
      ],
      "name": "getProjectsByStatus",
      "outputs": [
        {
          "components": [
            {
              "internalType": "string",
              "name": "name",
              "type": "string"
            },
            {
              "internalType": "string",
              "name": "description",
              "type": "string"
            },
            {
              "internalType": "uint256",
              "name": "timestamp",
              "type": "uint256"
            },
            {
              "internalType": "address",
              "name": "creator",
              "type": "address"
            },
            {
              "internalType": "address",
              "name": "freelancer",
              "type": "address"
            },
            {
              "internalType": "enum ProjectManager.Status",
              "name": "status",
              "type": "uint8"
            },
            {
              "internalType": "uint256",
              "name": "projectFee",
              "type": "uint256"
            },
            {
              "internalType": "uint256",
              "name": "verificationFee",
              "type": "uint256"
            },
            {
              "internalType": "bool",
              "name": "isTransferred",
              "type": "bool"
            }
          ],
          "internalType": "struct ProjectManager.Project[]",
          "name": "",
          "type": "tuple[]"
        }
      ],
      "stateMutability": "view",
      "type": "function"
    },
    {
      "inputs": [
        {
          "internalType": "uint256",
          "name": "",
          "type": "uint256"
        }
      ],
      "name": "projects",
      "outputs": [
        {
          "internalType": "string",
          "name": "name",
          "type": "string"
        },
        {
          "internalType": "string",
          "name": "description",
          "type": "string"
        },
        {
          "internalType": "uint256",
          "name": "timestamp",
          "type": "uint256"
        },
        {
          "internalType": "address",
          "name": "creator",
          "type": "address"
        },
        {
          "internalType": "address",
          "name": "freelancer",
          "type": "address"
        },
        {
          "internalType": "enum ProjectManager.Status",
          "name": "status",
          "type": "uint8"
        },
        {
          "internalType": "uint256",
          "name": "projectFee",
          "type": "uint256"
        },
        {
          "internalType": "uint256",
          "name": "verificationFee",
          "type": "uint256"
        },
        {
          "internalType": "bool",
          "name": "isTransferred",
          "type": "bool"
        }
      ],
      "stateMutability": "view",
      "type": "function"
    },
    {
      "inputs": [
        {
          "internalType": "uint256",
          "name": "_projectId",
          "type": "uint256"
        },
        {
          "internalType": "address",
          "name": "_freelancer",
          "type": "address"
        }
      ],
      "name": "transferFunds",
      "outputs": [],
      "stateMutability": "payable",
      "type": "function"
    }
  ],
  "bytecode": "0x608060405234801561001057600080fd5b5061205c806100206000396000f3fe6080604052600436106100555760003560e01c8063107046bd1461005a5780631aa22bba1461009f57806378a1bffd146100dc57806394ba970914610107578063d5842c8b14610130578063f08e362f1461016d575b600080fd5b34801561006657600080fd5b50610081600480360381019061007c91906116a7565b610189565b60405161009699989796959493929190611a93565b60405180910390f35b3480156100ab57600080fd5b506100c660048036038101906100c191906115eb565b610351565b6040516100d39190611a71565b60405180910390f35b3480156100e857600080fd5b506100f161090c565b6040516100fe9190611bae565b60405180910390f35b34801561011357600080fd5b5061012e60048036038101906101299190611614565b610917565b005b34801561013c57600080fd5b50610157600480360381019061015291906115c2565b610bb5565b6040516101649190611a71565b60405180910390f35b610187600480360381019061018291906116d0565b61110e565b005b6000818154811061019957600080fd5b90600052602060002090600802016000915090508060000180546101bc90611e8c565b80601f01602080910402602001604051908101604052809291908181526020018280546101e890611e8c565b80156102355780601f1061020a57610100808354040283529160200191610235565b820191906000526020600020905b81548152906001019060200180831161021857829003601f168201915b50505050509080600101805461024a90611e8c565b80601f016020809104026020016040519081016040528092919081815260200182805461027690611e8c565b80156102c35780601f10610298576101008083540402835291602001916102c3565b820191906000526020600020905b8154815290600101906020018083116102a657829003601f168201915b5050505050908060020154908060030160009054906101000a900473ffffffffffffffffffffffffffffffffffffffff16908060040160009054906101000a900473ffffffffffffffffffffffffffffffffffffffff16908060040160149054906101000a900460ff16908060050154908060060154908060070160009054906101000a900460ff16905089565b60606000805b6000805490508110156104565783600381111561039d577f4e487b7100000000000000000000000000000000000000000000000000000000600052602160045260246000fd5b600082815481106103d7577f4e487b7100000000000000000000000000000000000000000000000000000000600052603260045260246000fd5b906000526020600020906008020160040160149054906101000a900460ff16600381111561042e577f4e487b7100000000000000000000000000000000000000000000000000000000600052602160045260246000fd5b141561044357818061043f90611ebe565b9250505b808061044e90611ebe565b915050610357565b5060008167ffffffffffffffff811115610499577f4e487b7100000000000000000000000000000000000000000000000000000000600052604160045260246000fd5b6040519080825280602002602001820160405280156104d257816020015b6104bf6113c6565b8152602001906001900390816104b75790505b5090506000805b6000805490508110156109005785600381111561051f577f4e487b7100000000000000000000000000000000000000000000000000000000600052602160045260246000fd5b60008281548110610559577f4e487b7100000000000000000000000000000000000000000000000000000000600052603260045260246000fd5b906000526020600020906008020160040160149054906101000a900460ff1660038111156105b0577f4e487b7100000000000000000000000000000000000000000000000000000000600052602160045260246000fd5b14156108ed57600081815481106105f0577f4e487b7100000000000000000000000000000000000000000000000000000000600052603260045260246000fd5b90600052602060002090600802016040518061012001604052908160008201805461061a90611e8c565b80601f016020809104026020016040519081016040528092919081815260200182805461064690611e8c565b80156106935780601f1061066857610100808354040283529160200191610693565b820191906000526020600020905b81548152906001019060200180831161067657829003601f168201915b505050505081526020016001820180546106ac90611e8c565b80601f01602080910402602001604051908101604052809291908181526020018280546106d890611e8c565b80156107255780601f106106fa57610100808354040283529160200191610725565b820191906000526020600020905b81548152906001019060200180831161070857829003601f168201915b50505050508152602001600282015481526020016003820160009054906101000a900473ffffffffffffffffffffffffffffffffffffffff1673ffffffffffffffffffffffffffffffffffffffff1673ffffffffffffffffffffffffffffffffffffffff1681526020016004820160009054906101000a900473ffffffffffffffffffffffffffffffffffffffff1673ffffffffffffffffffffffffffffffffffffffff1673ffffffffffffffffffffffffffffffffffffffff1681526020016004820160149054906101000a900460ff16600381111561082f577f4e487b7100000000000000000000000000000000000000000000000000000000600052602160045260246000fd5b6003811115610867577f4e487b7100000000000000000000000000000000000000000000000000000000600052602160045260246000fd5b815260200160058201548152602001600682015481526020016007820160009054906101000a900460ff1615151515815250508383815181106108d3577f4e487b7100000000000000000000000000000000000000000000000000000000600052603260045260246000fd5b602002602001018190525081806108e990611ebe565b9250505b80806108f890611ebe565b9150506104d9565b50819350505050919050565b6601c6bf5263400081565b60006040518061012001604052808681526020018581526020018481526020013373ffffffffffffffffffffffffffffffffffffffff168152602001600073ffffffffffffffffffffffffffffffffffffffff168152602001600060038111156109aa577f4e487b7100000000000000000000000000000000000000000000000000000000600052602160045260246000fd5b81526020018381526020016601c6bf5263400081526020016000151581525090806001815401808255809150506001900390600052602060002090600802016000909190919091506000820151816000019080519060200190610a0e929190611478565b506020820151816001019080519060200190610a2b929190611478565b506040820151816002015560608201518160030160006101000a81548173ffffffffffffffffffffffffffffffffffffffff021916908373ffffffffffffffffffffffffffffffffffffffff16021790555060808201518160040160006101000a81548173ffffffffffffffffffffffffffffffffffffffff021916908373ffffffffffffffffffffffffffffffffffffffff16021790555060a08201518160040160146101000a81548160ff02191690836003811115610b15577f4e487b7100000000000000000000000000000000000000000000000000000000600052602160045260246000fd5b021790555060c0820151816005015560e082015181600601556101008201518160070160006101000a81548160ff02191690831515021790555050507f69b1a6a11291637d7f852f47bf0677f8e28d23b65683484742accabb621284a66001600080549050610b849190611da9565b858585336000876601c6bf52634000604051610ba7989796959493929190611c00565b60405180910390a150505050565b60606000805b600080549050811015610c89578373ffffffffffffffffffffffffffffffffffffffff1660008281548110610c19577f4e487b7100000000000000000000000000000000000000000000000000000000600052603260045260246000fd5b906000526020600020906008020160030160009054906101000a900473ffffffffffffffffffffffffffffffffffffffff1673ffffffffffffffffffffffffffffffffffffffff161415610c76578180610c7290611ebe565b9250505b8080610c8190611ebe565b915050610bbb565b5060008167ffffffffffffffff811115610ccc577f4e487b7100000000000000000000000000000000000000000000000000000000600052604160045260246000fd5b604051908082528060200260200182016040528015610d0557816020015b610cf26113c6565b815260200190600190039081610cea5790505b5090506000805b600080549050811015611102578573ffffffffffffffffffffffffffffffffffffffff1660008281548110610d6a577f4e487b7100000000000000000000000000000000000000000000000000000000600052603260045260246000fd5b906000526020600020906008020160030160009054906101000a900473ffffffffffffffffffffffffffffffffffffffff1673ffffffffffffffffffffffffffffffffffffffff1614156110ef5760008181548110610df2577f4e487b7100000000000000000000000000000000000000000000000000000000600052603260045260246000fd5b906000526020600020906008020160405180610120016040529081600082018054610e1c90611e8c565b80601f0160208091040260200160405190810160405280929190818152602001828054610e4890611e8c565b8015610e955780601f10610e6a57610100808354040283529160200191610e95565b820191906000526020600020905b815481529060010190602001808311610e7857829003601f168201915b50505050508152602001600182018054610eae90611e8c565b80601f0160208091040260200160405190810160405280929190818152602001828054610eda90611e8c565b8015610f275780601f10610efc57610100808354040283529160200191610f27565b820191906000526020600020905b815481529060010190602001808311610f0a57829003601f168201915b50505050508152602001600282015481526020016003820160009054906101000a900473ffffffffffffffffffffffffffffffffffffffff1673ffffffffffffffffffffffffffffffffffffffff1673ffffffffffffffffffffffffffffffffffffffff1681526020016004820160009054906101000a900473ffffffffffffffffffffffffffffffffffffffff1673ffffffffffffffffffffffffffffffffffffffff1673ffffffffffffffffffffffffffffffffffffffff1681526020016004820160149054906101000a900460ff166003811115611031577f4e487b7100000000000000000000000000000000000000000000000000000000600052602160045260246000fd5b6003811115611069577f4e487b7100000000000000000000000000000000000000000000000000000000600052602160045260246000fd5b815260200160058201548152602001600682015481526020016007820160009054906101000a900460ff1615151515815250508383815181106110d5577f4e487b7100000000000000000000000000000000000000000000000000000000600052603260045260246000fd5b602002602001018190525081806110eb90611ebe565b9250505b80806110fa90611ebe565b915050610d0c565b50819350505050919050565b6000805490508210611155576040517f08c379a000000000000000000000000000000000000000000000000000000000815260040161114c90611b8e565b60405180910390fd5b6000808381548110611190577f4e487b7100000000000000000000000000000000000000000000000000000000600052603260045260246000fd5b906000526020600020906008020190508060030160009054906101000a900473ffffffffffffffffffffffffffffffffffffffff1673ffffffffffffffffffffffffffffffffffffffff163373ffffffffffffffffffffffffffffffffffffffff1614611232576040517f08c379a000000000000000000000000000000000000000000000000000000000815260040161122990611b4e565b60405180910390fd5b8060070160009054906101000a900460ff1615611284576040517f08c379a000000000000000000000000000000000000000000000000000000000815260040161127b90611b2e565b60405180910390fd5b60008160060154826005015461129a9190611d53565b90508034146112de576040517f08c379a00000000000000000000000000000000000000000000000000000000081526004016112d590611b6e565b60405180910390fd5b828260040160006101000a81548173ffffffffffffffffffffffffffffffffffffffff021916908373ffffffffffffffffffffffffffffffffffffffff16021790555060018260070160006101000a81548160ff0219169083151502179055508273ffffffffffffffffffffffffffffffffffffffff166108fc349081150290604051600060405180830381858888f19350505050158015611384573d6000803e3d6000fd5b507fe90ae330e5aefc2a73ddff0dd88bcaf8f4a0629d6553a2a85b22cac3d5f4a19e8484346040516113b893929190611bc9565b60405180910390a150505050565b604051806101200160405280606081526020016060815260200160008152602001600073ffffffffffffffffffffffffffffffffffffffff168152602001600073ffffffffffffffffffffffffffffffffffffffff1681526020016000600381111561145b577f4e487b7100000000000000000000000000000000000000000000000000000000600052602160045260246000fd5b815260200160008152602001600081526020016000151581525090565b82805461148490611e8c565b90600052602060002090601f0160209004810192826114a657600085556114ed565b82601f106114bf57805160ff19168380011785556114ed565b828001600101855582156114ed579182015b828111156114ec5782518255916020019190600101906114d1565b5b5090506114fa91906114fe565b5090565b5b808211156115175760008160009055506001016114ff565b5090565b600061152e61152984611cbd565b611c8c565b90508281526020810184848401111561154657600080fd5b611551848285611e4a565b509392505050565b60008135905061156881611fe8565b92915050565b60008135905061157d81611fff565b92915050565b600082601f83011261159457600080fd5b81356115a484826020860161151b565b91505092915050565b6000813590506115bc8161200f565b92915050565b6000602082840312156115d457600080fd5b60006115e284828501611559565b91505092915050565b6000602082840312156115fd57600080fd5b600061160b8482850161156e565b91505092915050565b6000806000806080858703121561162a57600080fd5b600085013567ffffffffffffffff81111561164457600080fd5b61165087828801611583565b945050602085013567ffffffffffffffff81111561166d57600080fd5b61167987828801611583565b935050604061168a878288016115ad565b925050606061169b878288016115ad565b91505092959194509250565b6000602082840312156116b957600080fd5b60006116c7848285016115ad565b91505092915050565b600080604083850312156116e357600080fd5b60006116f1858286016115ad565b925050602061170285828601611559565b9150509250929050565b60006117188383611987565b905092915050565b61172981611ddd565b82525050565b61173881611ddd565b82525050565b600061174982611cfd565b6117538185611d20565b93508360208202850161176585611ced565b8060005b858110156117a15784840389528151611782858261170c565b945061178d83611d13565b925060208a01995050600181019050611769565b50829750879550505050505092915050565b6117bc81611def565b82525050565b6117cb81611def565b82525050565b6117da81611e38565b82525050565b6117e981611e38565b82525050565b60006117fa82611d08565b6118048185611d31565b9350611814818560208601611e59565b61181d81611fc3565b840191505092915050565b600061183382611d08565b61183d8185611d42565b935061184d818560208601611e59565b61185681611fc3565b840191505092915050565b600061186e601983611d42565b91507f46756e647320616c7265616479207472616e73666572726564000000000000006000830152602082019050919050565b60006118ae602383611d42565b91507f4f6e6c79207468652063726561746f722063616e207472616e7366657220667560008301527f6e647300000000000000000000000000000000000000000000000000000000006020830152604082019050919050565b6000611914601983611d42565b91507f496e636f72726563742066656520616d6f756e742073656e74000000000000006000830152602082019050919050565b6000611954601683611d42565b91507f50726f6a65637420646f6573206e6f74206578697374000000000000000000006000830152602082019050919050565b60006101208301600083015184820360008601526119a582826117ef565b915050602083015184820360208601526119bf82826117ef565b91505060408301516119d46040860182611a53565b5060608301516119e76060860182611720565b5060808301516119fa6080860182611720565b5060a0830151611a0d60a08601826117d1565b5060c0830151611a2060c0860182611a53565b5060e0830151611a3360e0860182611a53565b50610100830151611a486101008601826117b3565b508091505092915050565b611a5c81611e2e565b82525050565b611a6b81611e2e565b82525050565b60006020820190508181036000830152611a8b818461173e565b905092915050565b6000610120820190508181036000830152611aae818c611828565b90508181036020830152611ac2818b611828565b9050611ad1604083018a611a62565b611ade606083018961172f565b611aeb608083018861172f565b611af860a08301876117e0565b611b0560c0830186611a62565b611b1260e0830185611a62565b611b206101008301846117c2565b9a9950505050505050505050565b60006020820190508181036000830152611b4781611861565b9050919050565b60006020820190508181036000830152611b67816118a1565b9050919050565b60006020820190508181036000830152611b8781611907565b9050919050565b60006020820190508181036000830152611ba781611947565b9050919050565b6000602082019050611bc36000830184611a62565b92915050565b6000606082019050611bde6000830186611a62565b611beb602083018561172f565b611bf86040830184611a62565b949350505050565b600061010082019050611c16600083018b611a62565b8181036020830152611c28818a611828565b90508181036040830152611c3c8189611828565b9050611c4b6060830188611a62565b611c58608083018761172f565b611c6560a08301866117e0565b611c7260c0830185611a62565b611c7f60e0830184611a62565b9998505050505050505050565b6000604051905081810181811067ffffffffffffffff82111715611cb357611cb2611f94565b5b8060405250919050565b600067ffffffffffffffff821115611cd857611cd7611f94565b5b601f19601f8301169050602081019050919050565b6000819050602082019050919050565b600081519050919050565b600081519050919050565b6000602082019050919050565b600082825260208201905092915050565b600082825260208201905092915050565b600082825260208201905092915050565b6000611d5e82611e2e565b9150611d6983611e2e565b9250827fffffffffffffffffffffffffffffffffffffffffffffffffffffffffffffffff03821115611d9e57611d9d611f07565b5b828201905092915050565b6000611db482611e2e565b9150611dbf83611e2e565b925082821015611dd257611dd1611f07565b5b828203905092915050565b6000611de882611e0e565b9050919050565b60008115159050919050565b6000819050611e0982611fd4565b919050565b600073ffffffffffffffffffffffffffffffffffffffff82169050919050565b6000819050919050565b6000611e4382611dfb565b9050919050565b82818337600083830152505050565b60005b83811015611e77578082015181840152602081019050611e5c565b83811115611e86576000848401525b50505050565b60006002820490506001821680611ea457607f821691505b60208210811415611eb857611eb7611f65565b5b50919050565b6000611ec982611e2e565b91507fffffffffffffffffffffffffffffffffffffffffffffffffffffffffffffffff821415611efc57611efb611f07565b5b600182019050919050565b7f4e487b7100000000000000000000000000000000000000000000000000000000600052601160045260246000fd5b7f4e487b7100000000000000000000000000000000000000000000000000000000600052602160045260246000fd5b7f4e487b7100000000000000000000000000000000000000000000000000000000600052602260045260246000fd5b7f4e487b7100000000000000000000000000000000000000000000000000000000600052604160045260246000fd5b6000601f19601f8301169050919050565b60048110611fe557611fe4611f36565b5b50565b611ff181611ddd565b8114611ffc57600080fd5b50565b6004811061200c57600080fd5b50565b61201881611e2e565b811461202357600080fd5b5056fea26469706673582212207ab9974e68f3aa237bf142b786482a4495d0c40169b72ee0df8b0d27bee5307364736f6c63430008000033",
  "linkReferences": {},
  "deployedLinkReferences": {}
}