{
  "_format": "hh-sol-artifact-1",
  "contractName": "ProjectManager",
  "sourceName": "contracts/ProjectManager.sol",
  "abi": [
    {
      "anonymous": false,
      "inputs": [
        {
          "indexed": false,
          "internalType": "uint256",
          "name": "projectId",
          "type": "uint256"
        },
        {
          "indexed": false,
          "internalType": "address",
          "name": "recipient",
          "type": "address"
        },
        {
          "indexed": false,
          "internalType": "uint256",
          "name": "amount",
          "type": "uint256"
        }
      ],
      "name": "FundsTransferred",
      "type": "event"
    },
    {
      "anonymous": false,
      "inputs": [
        {
          "indexed": false,
          "internalType": "uint256",
          "name": "projectId",
          "type": "uint256"
        },
        {
          "indexed": false,
          "internalType": "string",
          "name": "name",
          "type": "string"
        },
        {
          "indexed": false,
          "internalType": "string",
          "name": "description",
          "type": "string"
        },
        {
          "indexed": false,
          "internalType": "uint256",
          "name": "timestamp",
          "type": "uint256"
        },
        {
          "indexed": false,
          "internalType": "address",
          "name": "creator",
          "type": "address"
        },
        {
          "indexed": false,
          "internalType": "enum ProjectManager.Status",
          "name": "status",
          "type": "uint8"
        },
        {
          "indexed": false,
          "internalType": "uint256",
          "name": "projectFee",
          "type": "uint256"
        },
        {
          "indexed": false,
          "internalType": "uint256",
          "name": "verificationFee",
          "type": "uint256"
        }
      ],
      "name": "ProjectCreated",
      "type": "event"
    },
    {
      "inputs": [],
      "name": "VERIFICATION_FEE",
      "outputs": [
        {
          "internalType": "uint256",
          "name": "",
          "type": "uint256"
        }
      ],
      "stateMutability": "view",
      "type": "function"
    },
    {
      "inputs": [
        {
          "internalType": "string",
          "name": "_name",
          "type": "string"
        },
        {
          "internalType": "string",
          "name": "_description",
          "type": "string"
        },
        {
          "internalType": "uint256",
          "name": "_timestamp",
          "type": "uint256"
        },
        {
          "internalType": "uint256",
          "name": "_projectFee",
          "type": "uint256"
        }
      ],
      "name": "createProject",
      "outputs": [],
      "stateMutability": "nonpayable",
      "type": "function"
    },
    {
      "inputs": [
        {
          "internalType": "address",
          "name": "_creator",
          "type": "address"
        }
      ],
      "name": "getProjectsByAddress",
      "outputs": [
        {
          "components": [
            {
              "internalType": "string",
              "name": "name",
              "type": "string"
            },
            {
              "internalType": "string",
              "name": "description",
              "type": "string"
            },
            {
              "internalType": "uint256",
              "name": "timestamp",
              "type": "uint256"
            },
            {
              "internalType": "address",
              "name": "creator",
              "type": "address"
            },
            {
              "internalType": "address",
              "name": "freelancer",
              "type": "address"
            },
            {
              "internalType": "enum ProjectManager.Status",
              "name": "status",
              "type": "uint8"
            },
            {
              "internalType": "uint256",
              "name": "projectFee",
              "type": "uint256"
            },
            {
              "internalType": "uint256",
              "name": "verificationFee",
              "type": "uint256"
            },
            {
              "internalType": "bool",
              "name": "isTransferred",
              "type": "bool"
            }
          ],
          "internalType": "struct ProjectManager.Project[]",
          "name": "",
          "type": "tuple[]"
        }
      ],
      "stateMutability": "view",
      "type": "function"
    },
    {
      "inputs": [
        {
          "internalType": "uint256",
          "name": "",
          "type": "uint256"
        }
      ],
      "name": "projects",
      "outputs": [
        {
          "internalType": "string",
          "name": "name",
          "type": "string"
        },
        {
          "internalType": "string",
          "name": "description",
          "type": "string"
        },
        {
          "internalType": "uint256",
          "name": "timestamp",
          "type": "uint256"
        },
        {
          "internalType": "address",
          "name": "creator",
          "type": "address"
        },
        {
          "internalType": "address",
          "name": "freelancer",
          "type": "address"
        },
        {
          "internalType": "enum ProjectManager.Status",
          "name": "status",
          "type": "uint8"
        },
        {
          "internalType": "uint256",
          "name": "projectFee",
          "type": "uint256"
        },
        {
          "internalType": "uint256",
          "name": "verificationFee",
          "type": "uint256"
        },
        {
          "internalType": "bool",
          "name": "isTransferred",
          "type": "bool"
        }
      ],
      "stateMutability": "view",
      "type": "function"
    },
    {
      "inputs": [
        {
          "internalType": "uint256",
          "name": "_projectId",
          "type": "uint256"
        },
        {
          "internalType": "address",
          "name": "_freelancer",
          "type": "address"
        }
      ],
      "name": "transferFunds",
      "outputs": [],
      "stateMutability": "payable",
      "type": "function"
    }
  ],
  "bytecode": "0x608060405234801561001057600080fd5b50611a0b806100206000396000f3fe60806040526004361061004a5760003560e01c8063107046bd1461004f57806378a1bffd1461009457806394ba9709146100bf578063d5842c8b146100e8578063f08e362f14610125575b600080fd5b34801561005b57600080fd5b5061007660048036038101906100719190611066565b610141565b60405161008b99989796959493929190611452565b60405180910390f35b3480156100a057600080fd5b506100a9610309565b6040516100b6919061156d565b60405180910390f35b3480156100cb57600080fd5b506100e660048036038101906100e19190610fd3565b610314565b005b3480156100f457600080fd5b5061010f600480360381019061010a9190610faa565b6105b2565b60405161011c9190611430565b60405180910390f35b61013f600480360381019061013a919061108f565b610b0b565b005b6000818154811061015157600080fd5b90600052602060002090600802016000915090508060000180546101749061184b565b80601f01602080910402602001604051908101604052809291908181526020018280546101a09061184b565b80156101ed5780601f106101c2576101008083540402835291602001916101ed565b820191906000526020600020905b8154815290600101906020018083116101d057829003601f168201915b5050505050908060010180546102029061184b565b80601f016020809104026020016040519081016040528092919081815260200182805461022e9061184b565b801561027b5780601f106102505761010080835404028352916020019161027b565b820191906000526020600020905b81548152906001019060200180831161025e57829003601f168201915b5050505050908060020154908060030160009054906101000a900473ffffffffffffffffffffffffffffffffffffffff16908060040160009054906101000a900473ffffffffffffffffffffffffffffffffffffffff16908060040160149054906101000a900460ff16908060050154908060060154908060070160009054906101000a900460ff16905089565b6601c6bf5263400081565b60006040518061012001604052808681526020018581526020018481526020013373ffffffffffffffffffffffffffffffffffffffff168152602001600073ffffffffffffffffffffffffffffffffffffffff168152602001600060038111156103a7577f4e487b7100000000000000000000000000000000000000000000000000000000600052602160045260246000fd5b81526020018381526020016601c6bf526340008152602001600015158152509080600181540180825580915050600190039060005260206000209060080201600090919091909150600082015181600001908051906020019061040b929190610dc3565b506020820151816001019080519060200190610428929190610dc3565b506040820151816002015560608201518160030160006101000a81548173ffffffffffffffffffffffffffffffffffffffff021916908373ffffffffffffffffffffffffffffffffffffffff16021790555060808201518160040160006101000a81548173ffffffffffffffffffffffffffffffffffffffff021916908373ffffffffffffffffffffffffffffffffffffffff16021790555060a08201518160040160146101000a81548160ff02191690836003811115610512577f4e487b7100000000000000000000000000000000000000000000000000000000600052602160045260246000fd5b021790555060c0820151816005015560e082015181600601556101008201518160070160006101000a81548160ff02191690831515021790555050507f69b1a6a11291637d7f852f47bf0677f8e28d23b65683484742accabb621284a660016000805490506105819190611768565b858585336000876601c6bf526340006040516105a49897969594939291906115bf565b60405180910390a150505050565b60606000805b600080549050811015610686578373ffffffffffffffffffffffffffffffffffffffff1660008281548110610616577f4e487b7100000000000000000000000000000000000000000000000000000000600052603260045260246000fd5b906000526020600020906008020160030160009054906101000a900473ffffffffffffffffffffffffffffffffffffffff1673ffffffffffffffffffffffffffffffffffffffff16141561067357818061066f9061187d565b9250505b808061067e9061187d565b9150506105b8565b5060008167ffffffffffffffff8111156106c9577f4e487b7100000000000000000000000000000000000000000000000000000000600052604160045260246000fd5b60405190808252806020026020018201604052801561070257816020015b6106ef610e49565b8152602001906001900390816106e75790505b5090506000805b600080549050811015610aff578573ffffffffffffffffffffffffffffffffffffffff1660008281548110610767577f4e487b7100000000000000000000000000000000000000000000000000000000600052603260045260246000fd5b906000526020600020906008020160030160009054906101000a900473ffffffffffffffffffffffffffffffffffffffff1673ffffffffffffffffffffffffffffffffffffffff161415610aec57600081815481106107ef577f4e487b7100000000000000000000000000000000000000000000000000000000600052603260045260246000fd5b9060005260206000209060080201604051806101200160405290816000820180546108199061184b565b80601f01602080910402602001604051908101604052809291908181526020018280546108459061184b565b80156108925780601f1061086757610100808354040283529160200191610892565b820191906000526020600020905b81548152906001019060200180831161087557829003601f168201915b505050505081526020016001820180546108ab9061184b565b80601f01602080910402602001604051908101604052809291908181526020018280546108d79061184b565b80156109245780601f106108f957610100808354040283529160200191610924565b820191906000526020600020905b81548152906001019060200180831161090757829003601f168201915b50505050508152602001600282015481526020016003820160009054906101000a900473ffffffffffffffffffffffffffffffffffffffff1673ffffffffffffffffffffffffffffffffffffffff1673ffffffffffffffffffffffffffffffffffffffff1681526020016004820160009054906101000a900473ffffffffffffffffffffffffffffffffffffffff1673ffffffffffffffffffffffffffffffffffffffff1673ffffffffffffffffffffffffffffffffffffffff1681526020016004820160149054906101000a900460ff166003811115610a2e577f4e487b7100000000000000000000000000000000000000000000000000000000600052602160045260246000fd5b6003811115610a66577f4e487b7100000000000000000000000000000000000000000000000000000000600052602160045260246000fd5b815260200160058201548152602001600682015481526020016007820160009054906101000a900460ff161515151581525050838381518110610ad2577f4e487b7100000000000000000000000000000000000000000000000000000000600052603260045260246000fd5b60200260200101819052508180610ae89061187d565b9250505b8080610af79061187d565b915050610709565b50819350505050919050565b6000805490508210610b52576040517f08c379a0000000000000000000000000000000000000000000000000000000008152600401610b499061154d565b60405180910390fd5b6000808381548110610b8d577f4e487b7100000000000000000000000000000000000000000000000000000000600052603260045260246000fd5b906000526020600020906008020190508060030160009054906101000a900473ffffffffffffffffffffffffffffffffffffffff1673ffffffffffffffffffffffffffffffffffffffff163373ffffffffffffffffffffffffffffffffffffffff1614610c2f576040517f08c379a0000000000000000000000000000000000000000000000000000000008152600401610c269061150d565b60405180910390fd5b8060070160009054906101000a900460ff1615610c81576040517f08c379a0000000000000000000000000000000000000000000000000000000008152600401610c78906114ed565b60405180910390fd5b600081600601548260050154610c979190611712565b9050803414610cdb576040517f08c379a0000000000000000000000000000000000000000000000000000000008152600401610cd29061152d565b60405180910390fd5b828260040160006101000a81548173ffffffffffffffffffffffffffffffffffffffff021916908373ffffffffffffffffffffffffffffffffffffffff16021790555060018260070160006101000a81548160ff0219169083151502179055508273ffffffffffffffffffffffffffffffffffffffff166108fc349081150290604051600060405180830381858888f19350505050158015610d81573d6000803e3d6000fd5b507fe90ae330e5aefc2a73ddff0dd88bcaf8f4a0629d6553a2a85b22cac3d5f4a19e848434604051610db593929190611588565b60405180910390a150505050565b828054610dcf9061184b565b90600052602060002090601f016020900481019282610df15760008555610e38565b82601f10610e0a57805160ff1916838001178555610e38565b82800160010185558215610e38579182015b82811115610e37578251825591602001919060010190610e1c565b5b509050610e459190610efb565b5090565b604051806101200160405280606081526020016060815260200160008152602001600073ffffffffffffffffffffffffffffffffffffffff168152602001600073ffffffffffffffffffffffffffffffffffffffff16815260200160006003811115610ede577f4e487b7100000000000000000000000000000000000000000000000000000000600052602160045260246000fd5b815260200160008152602001600081526020016000151581525090565b5b80821115610f14576000816000905550600101610efc565b5090565b6000610f2b610f268461167c565b61164b565b905082815260208101848484011115610f4357600080fd5b610f4e848285611809565b509392505050565b600081359050610f65816119a7565b92915050565b600082601f830112610f7c57600080fd5b8135610f8c848260208601610f18565b91505092915050565b600081359050610fa4816119be565b92915050565b600060208284031215610fbc57600080fd5b6000610fca84828501610f56565b91505092915050565b60008060008060808587031215610fe957600080fd5b600085013567ffffffffffffffff81111561100357600080fd5b61100f87828801610f6b565b945050602085013567ffffffffffffffff81111561102c57600080fd5b61103887828801610f6b565b935050604061104987828801610f95565b925050606061105a87828801610f95565b91505092959194509250565b60006020828403121561107857600080fd5b600061108684828501610f95565b91505092915050565b600080604083850312156110a257600080fd5b60006110b085828601610f95565b92505060206110c185828601610f56565b9150509250929050565b60006110d78383611346565b905092915050565b6110e88161179c565b82525050565b6110f78161179c565b82525050565b6000611108826116bc565b61111281856116df565b935083602082028501611124856116ac565b8060005b85811015611160578484038952815161114185826110cb565b945061114c836116d2565b925060208a01995050600181019050611128565b50829750879550505050505092915050565b61117b816117ae565b82525050565b61118a816117ae565b82525050565b611199816117f7565b82525050565b6111a8816117f7565b82525050565b60006111b9826116c7565b6111c381856116f0565b93506111d3818560208601611818565b6111dc81611982565b840191505092915050565b60006111f2826116c7565b6111fc8185611701565b935061120c818560208601611818565b61121581611982565b840191505092915050565b600061122d601983611701565b91507f46756e647320616c7265616479207472616e73666572726564000000000000006000830152602082019050919050565b600061126d602383611701565b91507f4f6e6c79207468652063726561746f722063616e207472616e7366657220667560008301527f6e647300000000000000000000000000000000000000000000000000000000006020830152604082019050919050565b60006112d3601983611701565b91507f496e636f72726563742066656520616d6f756e742073656e74000000000000006000830152602082019050919050565b6000611313601683611701565b91507f50726f6a65637420646f6573206e6f74206578697374000000000000000000006000830152602082019050919050565b600061012083016000830151848203600086015261136482826111ae565b9150506020830151848203602086015261137e82826111ae565b91505060408301516113936040860182611412565b5060608301516113a660608601826110df565b5060808301516113b960808601826110df565b5060a08301516113cc60a0860182611190565b5060c08301516113df60c0860182611412565b5060e08301516113f260e0860182611412565b50610100830151611407610100860182611172565b508091505092915050565b61141b816117ed565b82525050565b61142a816117ed565b82525050565b6000602082019050818103600083015261144a81846110fd565b905092915050565b600061012082019050818103600083015261146d818c6111e7565b90508181036020830152611481818b6111e7565b9050611490604083018a611421565b61149d60608301896110ee565b6114aa60808301886110ee565b6114b760a083018761119f565b6114c460c0830186611421565b6114d160e0830185611421565b6114df610100830184611181565b9a9950505050505050505050565b6000602082019050818103600083015261150681611220565b9050919050565b6000602082019050818103600083015261152681611260565b9050919050565b60006020820190508181036000830152611546816112c6565b9050919050565b6000602082019050818103600083015261156681611306565b9050919050565b60006020820190506115826000830184611421565b92915050565b600060608201905061159d6000830186611421565b6115aa60208301856110ee565b6115b76040830184611421565b949350505050565b6000610100820190506115d5600083018b611421565b81810360208301526115e7818a6111e7565b905081810360408301526115fb81896111e7565b905061160a6060830188611421565b61161760808301876110ee565b61162460a083018661119f565b61163160c0830185611421565b61163e60e0830184611421565b9998505050505050505050565b6000604051905081810181811067ffffffffffffffff8211171561167257611671611953565b5b8060405250919050565b600067ffffffffffffffff82111561169757611696611953565b5b601f19601f8301169050602081019050919050565b6000819050602082019050919050565b600081519050919050565b600081519050919050565b6000602082019050919050565b600082825260208201905092915050565b600082825260208201905092915050565b600082825260208201905092915050565b600061171d826117ed565b9150611728836117ed565b9250827fffffffffffffffffffffffffffffffffffffffffffffffffffffffffffffffff0382111561175d5761175c6118c6565b5b828201905092915050565b6000611773826117ed565b915061177e836117ed565b925082821015611791576117906118c6565b5b828203905092915050565b60006117a7826117cd565b9050919050565b60008115159050919050565b60008190506117c882611993565b919050565b600073ffffffffffffffffffffffffffffffffffffffff82169050919050565b6000819050919050565b6000611802826117ba565b9050919050565b82818337600083830152505050565b60005b8381101561183657808201518184015260208101905061181b565b83811115611845576000848401525b50505050565b6000600282049050600182168061186357607f821691505b6020821081141561187757611876611924565b5b50919050565b6000611888826117ed565b91507fffffffffffffffffffffffffffffffffffffffffffffffffffffffffffffffff8214156118bb576118ba6118c6565b5b600182019050919050565b7f4e487b7100000000000000000000000000000000000000000000000000000000600052601160045260246000fd5b7f4e487b7100000000000000000000000000000000000000000000000000000000600052602160045260246000fd5b7f4e487b7100000000000000000000000000000000000000000000000000000000600052602260045260246000fd5b7f4e487b7100000000000000000000000000000000000000000000000000000000600052604160045260246000fd5b6000601f19601f8301169050919050565b600481106119a4576119a36118f5565b5b50565b6119b08161179c565b81146119bb57600080fd5b50565b6119c7816117ed565b81146119d257600080fd5b5056fea26469706673582212203ca9f7d6681e693b9e6780c1a4ca59d5651c906b5b0eb55858e89c99f34f67a664736f6c63430008000033",
  "linkReferences": {},
  "deployedLinkReferences": {}
}