{
  "_format": "hh-sol-artifact-1",
  "contractName": "ProjectManager",
  "sourceName": "contracts/ProjectManager.sol",
  "abi": [
    {
      "anonymous": false,
      "inputs": [
        {
          "indexed": false,
          "internalType": "uint256",
          "name": "projectId",
          "type": "uint256"
        },
        {
          "indexed": false,
          "internalType": "address",
          "name": "freelancer",
          "type": "address"
        }
      ],
      "name": "FreelancerAccepted",
      "type": "event"
    },
    {
      "anonymous": false,
      "inputs": [
        {
          "indexed": false,
          "internalType": "uint256",
          "name": "projectId",
          "type": "uint256"
        },
        {
          "indexed": false,
          "internalType": "string",
          "name": "name",
          "type": "string"
        },
        {
          "indexed": false,
          "internalType": "string",
          "name": "description",
          "type": "string"
        },
        {
          "indexed": false,
          "internalType": "uint256",
          "name": "timestamp",
          "type": "uint256"
        },
        {
          "indexed": false,
          "internalType": "address",
          "name": "creator",
          "type": "address"
        },
        {
          "indexed": false,
          "internalType": "enum ProjectManager.Status",
          "name": "status",
          "type": "uint8"
        },
        {
          "indexed": false,
          "internalType": "uint256",
          "name": "projectFee",
          "type": "uint256"
        }
      ],
      "name": "ProjectCreated",
      "type": "event"
    },
    {
      "anonymous": false,
      "inputs": [
        {
          "indexed": false,
          "internalType": "uint256",
          "name": "projectId",
          "type": "uint256"
        },
        {
          "indexed": false,
          "internalType": "address",
          "name": "creator",
          "type": "address"
        }
      ],
      "name": "ProjectRemoved",
      "type": "event"
    },
    {
      "anonymous": false,
      "inputs": [
        {
          "indexed": false,
          "internalType": "uint256",
          "name": "projectId",
          "type": "uint256"
        },
        {
          "indexed": false,
          "internalType": "enum ProjectManager.Status",
          "name": "oldStatus",
          "type": "uint8"
        },
        {
          "indexed": false,
          "internalType": "enum ProjectManager.Status",
          "name": "newStatus",
          "type": "uint8"
        }
      ],
      "name": "ProjectStatusUpdated",
      "type": "event"
    },
    {
      "anonymous": false,
      "inputs": [
        {
          "indexed": false,
          "internalType": "uint256",
          "name": "projectId",
          "type": "uint256"
        },
        {
          "indexed": false,
          "internalType": "address",
          "name": "verifier",
          "type": "address"
        },
        {
          "indexed": false,
          "internalType": "bool",
          "name": "vote",
          "type": "bool"
        }
      ],
      "name": "VerifierVoted",
      "type": "event"
    },
    {
      "inputs": [],
      "name": "REQUIRED_VERIFIERS",
      "outputs": [
        {
          "internalType": "uint256",
          "name": "",
          "type": "uint256"
        }
      ],
      "stateMutability": "view",
      "type": "function"
    },
    {
      "inputs": [
        {
          "internalType": "uint256",
          "name": "_projectId",
          "type": "uint256"
        }
      ],
      "name": "acceptProject",
      "outputs": [],
      "stateMutability": "payable",
      "type": "function"
    },
    {
      "inputs": [
        {
          "internalType": "uint256",
          "name": "_projectId",
          "type": "uint256"
        }
      ],
      "name": "approveProjectCompletion",
      "outputs": [],
      "stateMutability": "nonpayable",
      "type": "function"
    },
    {
      "inputs": [
        {
          "internalType": "string",
          "name": "_name",
          "type": "string"
        },
        {
          "internalType": "string",
          "name": "_description",
          "type": "string"
        },
        {
          "internalType": "uint256",
          "name": "_timestamp",
          "type": "uint256"
        },
        {
          "internalType": "uint256",
          "name": "_projectFee",
          "type": "uint256"
        }
      ],
      "name": "createProject",
      "outputs": [],
      "stateMutability": "payable",
      "type": "function"
    },
    {
      "inputs": [
        {
          "internalType": "uint256",
          "name": "_projectId",
          "type": "uint256"
        }
      ],
      "name": "disputeProjectCompletion",
      "outputs": [],
      "stateMutability": "nonpayable",
      "type": "function"
    },
    {
      "inputs": [
        {
          "internalType": "uint256",
          "name": "",
          "type": "uint256"
        },
        {
          "internalType": "address",
          "name": "",
          "type": "address"
        }
      ],
      "name": "freelancerAcceptedProjects",
      "outputs": [
        {
          "internalType": "bool",
          "name": "",
          "type": "bool"
        }
      ],
      "stateMutability": "view",
      "type": "function"
    },
    {
      "inputs": [
        {
          "internalType": "address",
          "name": "_creator",
          "type": "address"
        }
      ],
      "name": "getProjectsByAddress",
      "outputs": [
        {
          "components": [
            {
              "internalType": "uint256",
              "name": "id",
              "type": "uint256"
            },
            {
              "internalType": "string",
              "name": "name",
              "type": "string"
            },
            {
              "internalType": "string",
              "name": "description",
              "type": "string"
            },
            {
              "internalType": "uint256",
              "name": "timestamp",
              "type": "uint256"
            },
            {
              "internalType": "address",
              "name": "creator",
              "type": "address"
            },
            {
              "internalType": "address[]",
              "name": "potentialFreelancers",
              "type": "address[]"
            },
            {
              "internalType": "address",
              "name": "selectedFreelancer",
              "type": "address"
            },
            {
              "internalType": "enum ProjectManager.Status",
              "name": "status",
              "type": "uint8"
            },
            {
              "internalType": "uint256",
              "name": "projectFee",
              "type": "uint256"
            },
            {
              "internalType": "uint256",
              "name": "acceptVotes",
              "type": "uint256"
            },
            {
              "internalType": "uint256",
              "name": "rejectVotes",
              "type": "uint256"
            },
            {
              "internalType": "string",
              "name": "proofLink",
              "type": "string"
            },
            {
              "internalType": "enum ProjectManager.Status2",
              "name": "status2",
              "type": "uint8"
            }
          ],
          "internalType": "struct ProjectManager.Project[]",
          "name": "",
          "type": "tuple[]"
        }
      ],
      "stateMutability": "view",
      "type": "function"
    },
    {
      "inputs": [
        {
          "internalType": "enum ProjectManager.Status",
          "name": "_status",
          "type": "uint8"
        }
      ],
      "name": "getProjectsByStatus",
      "outputs": [
        {
          "components": [
            {
              "internalType": "uint256",
              "name": "id",
              "type": "uint256"
            },
            {
              "internalType": "string",
              "name": "name",
              "type": "string"
            },
            {
              "internalType": "string",
              "name": "description",
              "type": "string"
            },
            {
              "internalType": "uint256",
              "name": "timestamp",
              "type": "uint256"
            },
            {
              "internalType": "address",
              "name": "creator",
              "type": "address"
            },
            {
              "internalType": "address[]",
              "name": "potentialFreelancers",
              "type": "address[]"
            },
            {
              "internalType": "address",
              "name": "selectedFreelancer",
              "type": "address"
            },
            {
              "internalType": "enum ProjectManager.Status",
              "name": "status",
              "type": "uint8"
            },
            {
              "internalType": "uint256",
              "name": "projectFee",
              "type": "uint256"
            },
            {
              "internalType": "uint256",
              "name": "acceptVotes",
              "type": "uint256"
            },
            {
              "internalType": "uint256",
              "name": "rejectVotes",
              "type": "uint256"
            },
            {
              "internalType": "string",
              "name": "proofLink",
              "type": "string"
            },
            {
              "internalType": "enum ProjectManager.Status2",
              "name": "status2",
              "type": "uint8"
            }
          ],
          "internalType": "struct ProjectManager.Project[]",
          "name": "",
          "type": "tuple[]"
        }
      ],
      "stateMutability": "view",
      "type": "function"
    },
    {
      "inputs": [
        {
          "internalType": "address",
          "name": "_freelancer",
          "type": "address"
        }
      ],
      "name": "getProjectsForFreelancer",
      "outputs": [
        {
          "components": [
            {
              "internalType": "uint256",
              "name": "id",
              "type": "uint256"
            },
            {
              "internalType": "string",
              "name": "name",
              "type": "string"
            },
            {
              "internalType": "string",
              "name": "description",
              "type": "string"
            },
            {
              "internalType": "uint256",
              "name": "timestamp",
              "type": "uint256"
            },
            {
              "internalType": "address",
              "name": "creator",
              "type": "address"
            },
            {
              "internalType": "address[]",
              "name": "potentialFreelancers",
              "type": "address[]"
            },
            {
              "internalType": "address",
              "name": "selectedFreelancer",
              "type": "address"
            },
            {
              "internalType": "enum ProjectManager.Status",
              "name": "status",
              "type": "uint8"
            },
            {
              "internalType": "uint256",
              "name": "projectFee",
              "type": "uint256"
            },
            {
              "internalType": "uint256",
              "name": "acceptVotes",
              "type": "uint256"
            },
            {
              "internalType": "uint256",
              "name": "rejectVotes",
              "type": "uint256"
            },
            {
              "internalType": "string",
              "name": "proofLink",
              "type": "string"
            },
            {
              "internalType": "enum ProjectManager.Status2",
              "name": "status2",
              "type": "uint8"
            }
          ],
          "internalType": "struct ProjectManager.Project[]",
          "name": "",
          "type": "tuple[]"
        }
      ],
      "stateMutability": "view",
      "type": "function"
    },
    {
      "inputs": [
        {
          "internalType": "uint256",
          "name": "",
          "type": "uint256"
        },
        {
          "internalType": "address",
          "name": "",
          "type": "address"
        }
      ],
      "name": "hasVerified",
      "outputs": [
        {
          "internalType": "bool",
          "name": "",
          "type": "bool"
        }
      ],
      "stateMutability": "view",
      "type": "function"
    },
    {
      "inputs": [
        {
          "internalType": "uint256",
          "name": "_projectId",
          "type": "uint256"
        },
        {
          "internalType": "string",
          "name": "_proofLink",
          "type": "string"
        }
      ],
      "name": "markProjectAsCompleted",
      "outputs": [],
      "stateMutability": "nonpayable",
      "type": "function"
    },
    {
      "inputs": [
        {
          "internalType": "uint256",
          "name": "",
          "type": "uint256"
        },
        {
          "internalType": "uint256",
          "name": "",
          "type": "uint256"
        }
      ],
      "name": "projectVerifiers",
      "outputs": [
        {
          "internalType": "address",
          "name": "",
          "type": "address"
        }
      ],
      "stateMutability": "view",
      "type": "function"
    },
    {
      "inputs": [
        {
          "internalType": "uint256",
          "name": "",
          "type": "uint256"
        }
      ],
      "name": "projects",
      "outputs": [
        {
          "internalType": "uint256",
          "name": "id",
          "type": "uint256"
        },
        {
          "internalType": "string",
          "name": "name",
          "type": "string"
        },
        {
          "internalType": "string",
          "name": "description",
          "type": "string"
        },
        {
          "internalType": "uint256",
          "name": "timestamp",
          "type": "uint256"
        },
        {
          "internalType": "address",
          "name": "creator",
          "type": "address"
        },
        {
          "internalType": "address",
          "name": "selectedFreelancer",
          "type": "address"
        },
        {
          "internalType": "enum ProjectManager.Status",
          "name": "status",
          "type": "uint8"
        },
        {
          "internalType": "uint256",
          "name": "projectFee",
          "type": "uint256"
        },
        {
          "internalType": "uint256",
          "name": "acceptVotes",
          "type": "uint256"
        },
        {
          "internalType": "uint256",
          "name": "rejectVotes",
          "type": "uint256"
        },
        {
          "internalType": "string",
          "name": "proofLink",
          "type": "string"
        },
        {
          "internalType": "enum ProjectManager.Status2",
          "name": "status2",
          "type": "uint8"
        }
      ],
      "stateMutability": "view",
      "type": "function"
    },
    {
      "inputs": [
        {
          "internalType": "uint256",
          "name": "_projectId",
          "type": "uint256"
        }
      ],
      "name": "rejectProjectCompletion",
      "outputs": [],
      "stateMutability": "nonpayable",
      "type": "function"
    },
    {
      "inputs": [
        {
          "internalType": "uint256",
          "name": "_projectId",
          "type": "uint256"
        }
      ],
      "name": "removeProject",
      "outputs": [],
      "stateMutability": "nonpayable",
      "type": "function"
    },
    {
      "inputs": [
        {
          "internalType": "uint256",
          "name": "_projectId",
          "type": "uint256"
        },
        {
          "internalType": "address",
          "name": "_freelancer",
          "type": "address"
        }
      ],
      "name": "selectFreelancer",
      "outputs": [],
      "stateMutability": "nonpayable",
      "type": "function"
    },
    {
      "inputs": [],
      "name": "verificationFee",
      "outputs": [
        {
          "internalType": "uint256",
          "name": "",
          "type": "uint256"
        }
      ],
      "stateMutability": "view",
      "type": "function"
    },
    {
      "inputs": [
        {
          "internalType": "uint256",
          "name": "",
          "type": "uint256"
        },
        {
          "internalType": "address",
          "name": "",
          "type": "address"
        }
      ],
      "name": "verifierVotes",
      "outputs": [
        {
          "internalType": "bool",
          "name": "",
          "type": "bool"
        }
      ],
      "stateMutability": "view",
      "type": "function"
    },
    {
      "inputs": [
        {
          "internalType": "uint256",
          "name": "_projectId",
          "type": "uint256"
        },
        {
          "internalType": "bool",
          "name": "_accept",
          "type": "bool"
        }
      ],
      "name": "verifyProjectCompletion",
      "outputs": [],
      "stateMutability": "payable",
      "type": "function"
    }
  ],
  "bytecode": "0x6080604052660110d9316ec00060015534801561001b57600080fd5b50613e4a8061002b6000396000f3fe6080604052600436106101145760003560e01c80638d34129f116100a0578063cc9eb47011610064578063cc9eb470146102f3578063d5842c8b14610313578063dbff65e814610333578063f57ad8cc14610360578063fd1d5ea91461038057610114565b80638d34129f14610276578063919b725a1461028957806394ba9709146102a9578063a74c341f146102bc578063a8c278a2146102de57610114565b8063380deabc116100e7578063380deabc146101c95780633bd09de0146101e95780633beddfd91461020957806356563e4a146102365780635873f9981461025657610114565b80630be15f4514610119578063107046bd1461013b57806312a4e33f1461017c5780631aa22bba1461019c575b600080fd5b34801561012557600080fd5b506101396101343660046131c5565b610393565b005b34801561014757600080fd5b5061015b61015636600461314f565b6104e8565b6040516101739c9b9a99989796959493929190613c05565b60405180910390f35b34801561018857600080fd5b5061013961019736600461314f565b610709565b3480156101a857600080fd5b506101bc6101b73660046130bf565b610942565b6040516101739190613301565b3480156101d557600080fd5b506101396101e4366004613167565b610eb0565b3480156101f557600080fd5b5061013961020436600461314f565b6110e4565b34801561021557600080fd5b50610229610224366004613167565b61120f565b6040516101739190613445565b34801561024257600080fd5b50610229610251366004613167565b61122f565b34801561026257600080fd5b5061013961027136600461314f565b61124f565b610139610284366004613192565b611793565b34801561029557600080fd5b506101bc6102a436600461309e565b611a8f565b6101396102b73660046130de565b611f83565b3480156102c857600080fd5b506102d1612288565b6040516101739190613b9b565b3480156102ea57600080fd5b506102d161228d565b3480156102ff57600080fd5b5061022961030e366004613167565b612293565b34801561031f57600080fd5b506101bc61032e36600461309e565b6122b3565b34801561033f57600080fd5b5061035361034e36600461320a565b6127a7565b60405161017391906132ed565b34801561036c57600080fd5b5061013961037b36600461314f565b6127df565b61013961038e36600461314f565b6129a6565b60005482106103bd5760405162461bcd60e51b81526004016103b490613afd565b60405180910390fd5b60008083815481106103df57634e487b7160e01b600052603260045260246000fd5b60009182526020909120600c9091020160068101549091506001600160a01b0316331461041e5760405162461bcd60e51b81526004016103b490613878565b60016006820154600160a01b900460ff16600481111561044e57634e487b7160e01b600052602160045260246000fd5b1461046b5760405162461bcd60e51b81526004016103b490613b64565b600082511161048c5760405162461bcd60e51b81526004016103b490613ac6565b81516104a190600a8301906020850190612d4a565b5060068101805460ff60a01b1916600160a11b179055604051600080516020613df5833981519152906104db908590600190600290613bdc565b60405180910390a1505050565b600081815481106104f857600080fd5b60009182526020909120600c9091020180546001820180549193509061051d90613d5c565b80601f016020809104026020016040519081016040528092919081815260200182805461054990613d5c565b80156105965780601f1061056b57610100808354040283529160200191610596565b820191906000526020600020905b81548152906001019060200180831161057957829003601f168201915b5050505050908060020180546105ab90613d5c565b80601f01602080910402602001604051908101604052809291908181526020018280546105d790613d5c565b80156106245780601f106105f957610100808354040283529160200191610624565b820191906000526020600020905b81548152906001019060200180831161060757829003601f168201915b50505050600383015460048401546006850154600786015460088701546009880154600a89018054989996986001600160a01b03968716985095851696600160a01b90950460ff16959394929391929161067d90613d5c565b80601f01602080910402602001604051908101604052809291908181526020018280546106a990613d5c565b80156106f65780601f106106cb576101008083540402835291602001916106f6565b820191906000526020600020905b8154815290600101906020018083116106d957829003601f168201915b505050600b909301549192505060ff168c565b600054811061072a5760405162461bcd60e51b81526004016103b490613afd565b600080828154811061074c57634e487b7160e01b600052603260045260246000fd5b60009182526020909120600c9091020160048101549091506001600160a01b0316331461078b5760405162461bcd60e51b81526004016103b490613534565b60026006820154600160a01b900460ff1660048111156107bb57634e487b7160e01b600052602160045260246000fd5b146107d85760405162461bcd60e51b81526004016103b4906135ff565b60068101805460ff60a01b1916600160a21b1790819055600b8201805460ff191660019081179091555460078301546000926001600160a01b03169161081d91613d0d565b604051610829906132ea565b60006040518083038185875af1925050503d8060008114610866576040519150601f19603f3d011682016040523d82523d6000602084013e61086b565b606091505b505090508061088c5760405162461bcd60e51b81526004016103b4906136f5565b60048201546001546040516000926001600160a01b031691906108ae906132ea565b60006040518083038185875af1925050503d80600081146108eb576040519150601f19603f3d011682016040523d82523d6000602084013e6108f0565b606091505b50509050806109115760405162461bcd60e51b81526004016103b490613450565b600080516020613df5833981519152846002600460405161093493929190613bdc565b60405180910390a150505050565b60606000805b6000548110156109f75783600481111561097257634e487b7160e01b600052602160045260246000fd5b6000828154811061099357634e487b7160e01b600052603260045260246000fd5b90600052602060002090600c020160060160149054906101000a900460ff1660048111156109d157634e487b7160e01b600052602160045260246000fd5b14156109e557816109e181613d97565b9250505b806109ef81613d97565b915050610948565b5060008167ffffffffffffffff811115610a2157634e487b7160e01b600052604160045260246000fd5b604051908082528060200260200182016040528015610a5a57816020015b610a47612dce565b815260200190600190039081610a3f5790505b5090506000805b600054811015610ea457856004811115610a8b57634e487b7160e01b600052602160045260246000fd5b60008281548110610aac57634e487b7160e01b600052603260045260246000fd5b90600052602060002090600c020160060160149054906101000a900460ff166004811115610aea57634e487b7160e01b600052602160045260246000fd5b1415610e925760008181548110610b1157634e487b7160e01b600052603260045260246000fd5b90600052602060002090600c0201604051806101a001604052908160008201548152602001600182018054610b4590613d5c565b80601f0160208091040260200160405190810160405280929190818152602001828054610b7190613d5c565b8015610bbe5780601f10610b9357610100808354040283529160200191610bbe565b820191906000526020600020905b815481529060010190602001808311610ba157829003601f168201915b50505050508152602001600282018054610bd790613d5c565b80601f0160208091040260200160405190810160405280929190818152602001828054610c0390613d5c565b8015610c505780601f10610c2557610100808354040283529160200191610c50565b820191906000526020600020905b815481529060010190602001808311610c3357829003601f168201915b50505050508152602001600382015481526020016004820160009054906101000a90046001600160a01b03166001600160a01b03166001600160a01b0316815260200160058201805480602002602001604051908101604052809291908181526020018280548015610ceb57602002820191906000526020600020905b81546001600160a01b03168152600190910190602001808311610ccd575b505050918352505060068201546001600160a01b0381166020830152604090910190600160a01b900460ff166004811115610d3657634e487b7160e01b600052602160045260246000fd5b6004811115610d5557634e487b7160e01b600052602160045260246000fd5b8152602001600782015481526020016008820154815260200160098201548152602001600a82018054610d8790613d5c565b80601f0160208091040260200160405190810160405280929190818152602001828054610db390613d5c565b8015610e005780601f10610dd557610100808354040283529160200191610e00565b820191906000526020600020905b815481529060010190602001808311610de357829003601f168201915b5050509183525050600b82015460209091019060ff166002811115610e3557634e487b7160e01b600052602160045260246000fd5b6002811115610e5457634e487b7160e01b600052602160045260246000fd5b81525050838381518110610e7857634e487b7160e01b600052603260045260246000fd5b60200260200101819052508180610e8e90613d97565b9250505b80610e9c81613d97565b915050610a61565b5090925050505b919050565b6000808381548110610ed257634e487b7160e01b600052603260045260246000fd5b60009182526020909120600c9091020160048101549091506001600160a01b03163314610f115760405162461bcd60e51b81526004016103b49061394c565b60006006820154600160a01b900460ff166004811115610f4157634e487b7160e01b600052602160045260246000fd5b14610f5e5760405162461bcd60e51b81526004016103b490613507565b60008381526005602090815260408083206001600160a01b038616845290915290205460ff16610fa05760405162461bcd60e51b81526004016103b490613830565b6006810180546001600160a01b0319166001600160a01b0384161760ff60a01b1916600160a01b179055610fd8600582016000612e85565b60005b60058201548110156110c057600082600501828154811061100c57634e487b7160e01b600052603260045260246000fd5b6000918252602090912001546001600160a01b039081169150841681146110ad576000816001600160a01b0316600154604051611048906132ea565b60006040518083038185875af1925050503d8060008114611085576040519150601f19603f3d011682016040523d82523d6000602084013e61108a565b606091505b50509050806110ab5760405162461bcd60e51b81526004016103b4906137bc565b505b50806110b881613d97565b915050610fdb565b50600080516020613df583398151915283600060016040516104db93929190613bdc565b60005481106111055760405162461bcd60e51b81526004016103b490613afd565b600080828154811061112757634e487b7160e01b600052603260045260246000fd5b60009182526020909120600c9091020160048101549091506001600160a01b03163314801590611164575060068101546001600160a01b03163314155b6111805760405162461bcd60e51b81526004016103b4906135af565b60036006820154600160a01b900460ff1660048111156111b057634e487b7160e01b600052602160045260246000fd5b146111cd5760405162461bcd60e51b81526004016103b4906136be565b6006810180546001600160a81b0319169055604051600080516020613df583398151915290611203908490600390600090613bdc565b60405180910390a15050565b600460209081526000928352604080842090915290825290205460ff1681565b600360209081526000928352604080842090915290825290205460ff1681565b60005481106112705760405162461bcd60e51b81526004016103b490613afd565b600080828154811061129257634e487b7160e01b600052603260045260246000fd5b60009182526020909120600c9091020160048101549091506001600160a01b031633146112d15760405162461bcd60e51b81526004016103b490613998565b60006006820154600160a01b900460ff16600481111561130157634e487b7160e01b600052602160045260246000fd5b1461131e5760405162461bcd60e51b81526004016103b490613a1e565b600060015482600701546113329190613d0d565b905060005b600583015481101561140557600083600501828154811061136857634e487b7160e01b600052603260045260246000fd5b6000918252602090912001546001546040516001600160a01b039092169161138f906132ea565b60006040518083038185875af1925050503d80600081146113cc576040519150601f19603f3d011682016040523d82523d6000602084013e6113d1565b606091505b50509050806113f25760405162461bcd60e51b81526004016103b4906139e7565b50806113fd81613d97565b915050611337565b5060005461141590600190613d45565b831461162b576000805461142b90600190613d45565b8154811061144957634e487b7160e01b600052603260045260246000fd5b90600052602060002090600c02016000848154811061147857634e487b7160e01b600052603260045260246000fd5b90600052602060002090600c02016000820154816000015560018201816001019080546114a490613d5c565b6114af929190612ea6565b5060028201816002019080546114c490613d5c565b6114cf929190612ea6565b506003828101549082015560048083015490820180546001600160a01b0319166001600160a01b03909216919091179055600580830180546115149284019190612f21565b506006828101805491830180546001600160a01b0319166001600160a01b0390931692909217808355905460ff600160a01b9182900416929160ff60a01b19169083600481111561157557634e487b7160e01b600052602160045260246000fd5b0217905550600782015481600701556008820154816008015560098201548160090155600a820181600a019080546115ac90613d5c565b6115b7929190612ea6565b50600b82810154908201805460ff9092169160ff191660018360028111156115ef57634e487b7160e01b600052602160045260246000fd5b0217905550905050826000848154811061161957634e487b7160e01b600052603260045260246000fd5b60009182526020909120600c90910201555b600080548061164a57634e487b7160e01b600052603160045260246000fd5b600082815260208120600c60001990930192830201818155906116706001830182612f60565b61167e600283016000612f60565b6000600383018190556004830180546001600160a01b03191690556116a7906005840190612e85565b6006820180546001600160a81b031916905560006007830181905560088301819055600983018190556116de90600a840190612f60565b50600b01805460ff191690559055604051600090339083906116ff906132ea565b60006040518083038185875af1925050503d806000811461173c576040519150601f19603f3d011682016040523d82523d6000602084013e611741565b606091505b50509050806117625760405162461bcd60e51b81526004016103b490613a96565b7fba1c16e049c7a348b951726f087bd968f9f40e6c64c8cf9ae55ed756ae6294408433604051610934929190613ba4565b60005482106117b45760405162461bcd60e51b81526004016103b490613afd565b60008083815481106117d657634e487b7160e01b600052603260045260246000fd5b60009182526020909120600c9091020160048101549091506001600160a01b03163314801590611813575060068101546001600160a01b03163314155b61182f5760405162461bcd60e51b81526004016103b4906135af565b60036006820154600160a01b900460ff16600481111561185f57634e487b7160e01b600052602160045260246000fd5b1461187c5760405162461bcd60e51b81526004016103b4906136be565b600083815260036020908152604080832033845290915290205460ff16156118b65760405162461bcd60e51b81526004016103b490613a5f565b60015434146118d75760405162461bcd60e51b81526004016103b490613578565b600083815260036020908152604080832033808552908352818420805460ff19166001908117909155878552600284529184208054928301815584529190922090910180546001600160a01b0319169091179055811561194d5760088101805490600061194383613d97565b9190505550611965565b60098101805490600061195f83613d97565b91905055505b600060036001546119769190613d25565b90506000816001546119889190613d0d565b90506000336001600160a01b0316826040516119a3906132ea565b60006040518083038185875af1925050503d80600081146119e0576040519150601f19603f3d011682016040523d82523d6000602084013e6119e5565b606091505b5050905080611a065760405162461bcd60e51b81526004016103b490613b2d565b7fc9d2ff8d0995175448926c3772b9348991ca8fecf6638d1e32cf1700e208ca41863387604051611a3993929190613bbb565b60405180910390a160008681526002602052604090205460031415611a87576002846008015410611a7257611a6d86612b51565b611a87565b6002846009015410611a8757611a8786612c5d565b505050505050565b60606000805b600054811015611b0d57836001600160a01b031660008281548110611aca57634e487b7160e01b600052603260045260246000fd5b600091825260209091206006600c9092020101546001600160a01b03161415611afb5781611af781613d97565b9250505b80611b0581613d97565b915050611a95565b5060008167ffffffffffffffff811115611b3757634e487b7160e01b600052604160045260246000fd5b604051908082528060200260200182016040528015611b7057816020015b611b5d612dce565b815260200190600190039081611b555790505b5090506000805b600054811015610ea457856001600160a01b031660008281548110611bac57634e487b7160e01b600052603260045260246000fd5b600091825260209091206006600c9092020101546001600160a01b03161415611f715760008181548110611bf057634e487b7160e01b600052603260045260246000fd5b90600052602060002090600c0201604051806101a001604052908160008201548152602001600182018054611c2490613d5c565b80601f0160208091040260200160405190810160405280929190818152602001828054611c5090613d5c565b8015611c9d5780601f10611c7257610100808354040283529160200191611c9d565b820191906000526020600020905b815481529060010190602001808311611c8057829003601f168201915b50505050508152602001600282018054611cb690613d5c565b80601f0160208091040260200160405190810160405280929190818152602001828054611ce290613d5c565b8015611d2f5780601f10611d0457610100808354040283529160200191611d2f565b820191906000526020600020905b815481529060010190602001808311611d1257829003601f168201915b50505050508152602001600382015481526020016004820160009054906101000a90046001600160a01b03166001600160a01b03166001600160a01b0316815260200160058201805480602002602001604051908101604052809291908181526020018280548015611dca57602002820191906000526020600020905b81546001600160a01b03168152600190910190602001808311611dac575b505050918352505060068201546001600160a01b0381166020830152604090910190600160a01b900460ff166004811115611e1557634e487b7160e01b600052602160045260246000fd5b6004811115611e3457634e487b7160e01b600052602160045260246000fd5b8152602001600782015481526020016008820154815260200160098201548152602001600a82018054611e6690613d5c565b80601f0160208091040260200160405190810160405280929190818152602001828054611e9290613d5c565b8015611edf5780601f10611eb457610100808354040283529160200191611edf565b820191906000526020600020905b815481529060010190602001808311611ec257829003601f168201915b5050509183525050600b82015460209091019060ff166002811115611f1457634e487b7160e01b600052602160045260246000fd5b6002811115611f3357634e487b7160e01b600052602160045260246000fd5b81525050838381518110611f5757634e487b7160e01b600052603260045260246000fd5b60200260200101819052508180611f6d90613d97565b9250505b80611f7b81613d97565b915050611b77565b6000845111611fa45760405162461bcd60e51b81526004016103b490613687565b6000835111611fc55760405162461bcd60e51b81526004016103b490613498565b60008111611fe55760405162461bcd60e51b81526004016103b490613777565b600154611ff29082613d0d565b34146120105760405162461bcd60e51b81526004016103b4906134db565b60008054604080516101a0810182528281526020808201898152828401899052606083018890523360808401528351868152808301855260a084015260c0830186905260e08301869052610100830187905261012083018690526101408301869052835180830190945285845261016083019390935261018082018590526001840185559380528051600c84027f290decd9548b62a8d60345a988386fc84ba6bc95484008f6362f93160ef3e5638101918255925180519495929491936120fe937f290decd9548b62a8d60345a988386fc84ba6bc95484008f6362f93160ef3e56490910192910190612d4a565b506040820151805161211a916002840191602090910190612d4a565b506060820151600382015560808201516004820180546001600160a01b0319166001600160a01b0390921691909117905560a08201518051612166916005840191602090910190612f9c565b5060c08201516006820180546001600160a01b0319166001600160a01b039092169190911780825560e0840151919060ff60a01b1916600160a01b8360048111156121c157634e487b7160e01b600052602160045260246000fd5b0217905550610100820151600782015561012082015160088201556101408201516009820155610160820151805161220391600a840191602090910190612d4a565b50610180820151600b8201805460ff1916600183600281111561223657634e487b7160e01b600052602160045260246000fd5b021790555050507f59efe781992d5ecfa36fc33ea75b2d74345c30fd2e5762bfe91d37159b14965281868686336000886040516122799796959493929190613ca9565b60405180910390a15050505050565b600381565b60015481565b600560209081526000928352604080842090915290825290205460ff1681565b60606000805b60005481101561233157836001600160a01b0316600082815481106122ee57634e487b7160e01b600052603260045260246000fd5b600091825260209091206004600c9092020101546001600160a01b0316141561231f578161231b81613d97565b9250505b8061232981613d97565b9150506122b9565b5060008167ffffffffffffffff81111561235b57634e487b7160e01b600052604160045260246000fd5b60405190808252806020026020018201604052801561239457816020015b612381612dce565b8152602001906001900390816123795790505b5090506000805b600054811015610ea457856001600160a01b0316600082815481106123d057634e487b7160e01b600052603260045260246000fd5b600091825260209091206004600c9092020101546001600160a01b03161415612795576000818154811061241457634e487b7160e01b600052603260045260246000fd5b90600052602060002090600c0201604051806101a00160405290816000820154815260200160018201805461244890613d5c565b80601f016020809104026020016040519081016040528092919081815260200182805461247490613d5c565b80156124c15780601f10612496576101008083540402835291602001916124c1565b820191906000526020600020905b8154815290600101906020018083116124a457829003601f168201915b505050505081526020016002820180546124da90613d5c565b80601f016020809104026020016040519081016040528092919081815260200182805461250690613d5c565b80156125535780601f1061252857610100808354040283529160200191612553565b820191906000526020600020905b81548152906001019060200180831161253657829003601f168201915b50505050508152602001600382015481526020016004820160009054906101000a90046001600160a01b03166001600160a01b03166001600160a01b03168152602001600582018054806020026020016040519081016040528092919081815260200182805480156125ee57602002820191906000526020600020905b81546001600160a01b031681526001909101906020018083116125d0575b505050918352505060068201546001600160a01b0381166020830152604090910190600160a01b900460ff16600481111561263957634e487b7160e01b600052602160045260246000fd5b600481111561265857634e487b7160e01b600052602160045260246000fd5b8152602001600782015481526020016008820154815260200160098201548152602001600a8201805461268a90613d5c565b80601f01602080910402602001604051908101604052809291908181526020018280546126b690613d5c565b80156127035780601f106126d857610100808354040283529160200191612703565b820191906000526020600020905b8154815290600101906020018083116126e657829003601f168201915b5050509183525050600b82015460209091019060ff16600281111561273857634e487b7160e01b600052602160045260246000fd5b600281111561275757634e487b7160e01b600052602160045260246000fd5b8152505083838151811061277b57634e487b7160e01b600052603260045260246000fd5b6020026020010181905250818061279190613d97565b9250505b8061279f81613d97565b91505061239b565b600260205281600052604060002081815481106127c357600080fd5b6000918252602090912001546001600160a01b03169150829050565b60005481106128005760405162461bcd60e51b81526004016103b490613afd565b600080828154811061282257634e487b7160e01b600052603260045260246000fd5b60009182526020909120600c9091020160048101549091506001600160a01b031633146128615760405162461bcd60e51b81526004016103b490613643565b60026006820154600160a01b900460ff16600481111561289157634e487b7160e01b600052602160045260246000fd5b146128ae5760405162461bcd60e51b81526004016103b4906135ff565b60068101805460ff60a01b1916600360a01b179055600060088201819055600982018190555b60008381526002602052604090205481101561296b5760008381526003602090815260408083206002909252822080548391908590811061292557634e487b7160e01b600052603260045260246000fd5b6000918252602080832091909101546001600160a01b031683528201929092526040019020805460ff19169115159190911790558061296381613d97565b9150506128d4565b50600082815260026020526040812061298391612e85565b600080516020613df5833981519152826002600360405161120393929190613bdc565b600054819081106129c95760405162461bcd60e51b81526004016103b490613afd565b60008083815481106129eb57634e487b7160e01b600052603260045260246000fd5b60009182526020909120600c9091020160048101549091506001600160a01b0316331415612a2b5760405162461bcd60e51b81526004016103b490613736565b60006006820154600160a01b900460ff166004811115612a5b57634e487b7160e01b600052602160045260246000fd5b14612a785760405162461bcd60e51b81526004016103b490613507565b600083815260056020908152604080832033845290915290205460ff1615612ab25760405162461bcd60e51b81526004016103b4906138c9565b6001543414612ad35760405162461bcd60e51b81526004016103b490613578565b60058082018054600181810183556000928352602080842090920180546001600160a01b03191633908117909155878452938252604080842085855290925291819020805460ff1916909217909155517f8725bffe8d13528e1bab35c1d9aa412f46d228a07bef71d732e5fe603f9abc05916104db91869190613ba4565b6000808281548110612b7357634e487b7160e01b600052603260045260246000fd5b600091825260208220600c919091020160068101805460ff60a01b1916600160a21b1790819055600b8201805460ff191660019081179091555460078301549294506001600160a01b0390911691612bcb9190613d0d565b604051612bd7906132ea565b60006040518083038185875af1925050503d8060008114612c14576040519150601f19603f3d011682016040523d82523d6000602084013e612c19565b606091505b5050905080612c3a5760405162461bcd60e51b81526004016103b490613915565b600080516020613df583398151915283600360046040516104db93929190613bdc565b6000808281548110612c7f57634e487b7160e01b600052603260045260246000fd5b6000918252602082206006600c909202019081018054600160a21b60ff60a01b19909116179055600b8101805460ff19166002179055600481015460015460078301549294506001600160a01b0390911691612cdb9190613d0d565b604051612ce7906132ea565b60006040518083038185875af1925050503d8060008114612d24576040519150601f19603f3d011682016040523d82523d6000602084013e612d29565b606091505b5050905080612c3a5760405162461bcd60e51b81526004016103b490613802565b828054612d5690613d5c565b90600052602060002090601f016020900481019282612d785760008555612dbe565b82601f10612d9157805160ff1916838001178555612dbe565b82800160010185558215612dbe579182015b82811115612dbe578251825591602001919060010190612da3565b50612dca929150612ff1565b5090565b604051806101a001604052806000815260200160608152602001606081526020016000815260200160006001600160a01b031681526020016060815260200160006001600160a01b0316815260200160006004811115612e3e57634e487b7160e01b600052602160045260246000fd5b81526020016000815260200160008152602001600081526020016060815260200160006002811115612e8057634e487b7160e01b600052602160045260246000fd5b905290565b5080546000825590600052602060002090810190612ea39190612ff1565b50565b828054612eb290613d5c565b90600052602060002090601f016020900481019282612ed45760008555612dbe565b82601f10612ee55780548555612dbe565b82800160010185558215612dbe57600052602060002091601f016020900482015b82811115612dbe578254825591600101919060010190612f06565b828054828255906000526020600020908101928215612dbe57600052602060002091820182811115612dbe578254825591600101919060010190612f06565b508054612f6c90613d5c565b6000825580601f10612f7e5750612ea3565b601f016020900490600052602060002090810190612ea39190612ff1565b828054828255906000526020600020908101928215612dbe579160200282015b82811115612dbe57825182546001600160a01b0319166001600160a01b03909116178255602090920191600190910190612fbc565b5b80821115612dca5760008155600101612ff2565b80356001600160a01b0381168114610eab57600080fd5b600082601f83011261302d578081fd5b813567ffffffffffffffff8082111561304857613048613dde565b604051601f8301601f19168101602001828111828210171561306c5761306c613dde565b604052828152848301602001861015613083578384fd5b82602086016020830137918201602001929092529392505050565b6000602082840312156130af578081fd5b6130b882613006565b9392505050565b6000602082840312156130d0578081fd5b8135600581106130b8578182fd5b600080600080608085870312156130f3578283fd5b843567ffffffffffffffff8082111561310a578485fd5b6131168883890161301d565b9550602087013591508082111561312b578485fd5b506131388782880161301d565b949794965050505060408301359260600135919050565b600060208284031215613160578081fd5b5035919050565b60008060408385031215613179578182fd5b8235915061318960208401613006565b90509250929050565b600080604083850312156131a4578182fd5b82359150602083013580151581146131ba578182fd5b809150509250929050565b600080604083850312156131d7578182fd5b82359150602083013567ffffffffffffffff8111156131f4578182fd5b6132008582860161301d565b9150509250929050565b6000806040838503121561321c578182fd5b50508035926020909101359150565b6001600160a01b03169052565b6000815180845260208085019450808401835b838110156132705781516001600160a01b03168752958201959082019060010161324b565b509495945050505050565b6003811061328b5761328b613dc8565b9052565b6005811061328b5761328b613dc8565b60008151808452815b818110156132c4576020818501810151868301820152016132a8565b818111156132d55782602083870101525b50601f01601f19169290920160200192915050565b90565b6001600160a01b0391909116815260200190565b60208082528251828201819052600091906040908185019080840286018301878501865b8381101561343757603f1989840301855281516101a08151855288820151818a8701526133548287018261329f565b915050878201518582038987015261336c828261329f565b915050606080830151818701525060808083015161338c8288018261322b565b505060a080830151868303828801526133a58382613238565b9250505060c0808301516133bb8288018261322b565b505060e0808301516133cf8288018261328f565b5050610100828101519086015261012080830151908601526101408083015190860152610160808301518683038288015261340a838261329f565b925050506101808083015192506134238187018461327b565b509588019593505090860190600101613325565b509098975050505050505050565b901515815260200190565b60208082526028908201527f566572696669636174696f6e2066656520726566756e6420746f20636c69656e6040820152671d0819985a5b195960c21b606082015260800190565b60208082526023908201527f50726f6a656374206465736372697074696f6e2063616e6e6f7420626520656d60408201526270747960e81b606082015260800190565b602080825260129082015271125b98dbdc9c9958dd08115512081cd95b9d60721b604082015260600190565b602080825260139082015272283937b532b1ba1034b9903737ba1037b832b760691b604082015260600190565b60208082526024908201527f4f6e6c79207468652070726f6a6563742063726561746f722063616e20617070604082015263726f766560e01b606082015260800190565b6020808252601a908201527f496e636f727265637420766572696669636174696f6e20666565000000000000604082015260600190565b60208082526030908201527f56657269666965722063616e6e6f742062652070726f6a65637420637265617460408201526f37b91037b910333932b2b630b731b2b960811b606082015260800190565b60208082526024908201527f50726f6a656374206d7573742062652077616974696e6720666f7220617070726040820152631bdd985b60e21b606082015260800190565b60208082526024908201527f4f6e6c79207468652070726f6a6563742063726561746f722063616e206469736040820152637075746560e01b606082015260800190565b6020808252601c908201527f50726f6a656374206e616d652063616e6e6f7420626520656d70747900000000604082015260600190565b6020808252601a908201527f50726f6a656374206d75737420626520696e2064697370757465000000000000604082015260600190565b60208082526021908201527f466565207472616e7366657220746f20667265656c616e636572206661696c656040820152601960fa1b606082015260800190565b60208082526021908201527f43726561746f722063616e6e6f7420616363657074206f776e2070726f6a65636040820152601d60fa1b606082015260800190565b60208082526025908201527f50726f6a65637420666565206d7573742062652067726561746572207468616e604082015264207a65726f60d81b606082015260800190565b60208082526026908201527f526566756e6420746f20756e73656c656374656420667265656c616e6365722060408201526519985a5b195960d21b606082015260800190565b60208082526014908201527310db1a595b9d081c99599d5b990819985a5b195960621b604082015260600190565b60208082526028908201527f467265656c616e63657220686173206e6f742061636365707465642074686973604082015267081c1c9bda9958dd60c21b606082015260800190565b60208082526031908201527f4f6e6c792074686520667265656c616e6365722063616e206d61726b2070726f6040820152701a9958dd08185cc818dbdb5c1b195d1959607a1b606082015260800190565b6020808252602c908201527f467265656c616e6365722068617320616c72656164792061636365707465642060408201526b1d1a1a5cc81c1c9bda9958dd60a21b606082015260800190565b60208082526019908201527f467265656c616e636572207061796d656e74206661696c656400000000000000604082015260600190565b6020808252602c908201527f4f6e6c792070726f6a6563742063726561746f722063616e2073656c6563742060408201526b3090333932b2b630b731b2b960a11b606082015260800190565b6020808252602f908201527f4f6e6c79207468652070726f6a6563742063726561746f722063616e2072656d60408201526e1bdd99481d1a19481c1c9bda9958dd608a1b606082015260800190565b6020808252601b908201527f526566756e6420746f20667265656c616e636572206661696c65640000000000604082015260600190565b60208082526021908201527f4f6e6c79206f70656e2070726f6a656374732063616e2062652072656d6f76656040820152601960fa1b606082015260800190565b6020808252601a908201527f56657269666965722068617320616c726561647920766f746564000000000000604082015260600190565b6020808252601690820152751499599d5b99081d1c985b9cd9995c8819985a5b195960521b604082015260600190565b6020808252601a908201527f50726f6f66206c696e6b2063616e6e6f7420626520656d707479000000000000604082015260600190565b602080825260169082015275141c9bda9958dd08191bd95cc81b9bdd08195e1a5cdd60521b604082015260600190565b6020808252601f908201527f566572696669657220726577617264207472616e73666572206661696c656400604082015260600190565b6020808252601b908201527f50726f6a656374206d75737420626520696e2070726f67726573730000000000604082015260600190565b90815260200190565b9182526001600160a01b0316602082015260400190565b9283526001600160a01b039190911660208301521515604082015260600190565b83815260608101613bf0602083018561328f565b613bfd604083018461328f565b949350505050565b60006101808e8352806020840152613c1f8184018f61329f565b90508281036040840152613c33818e61329f565b606084018d90526001600160a01b038c811660808601528b1660a08501529050613c6060c084018a61328f565b8760e08401528661010084015285610120840152828103610140840152613c87818661329f565b915050613c9861016083018461327b565b9d9c50505050505050505050505050565b600088825260e06020830152613cc260e083018961329f565b8281036040840152613cd4818961329f565b606084018890526001600160a01b03871660808501529150613cfb905060a083018561328f565b8260c083015298975050505050505050565b60008219821115613d2057613d20613db2565b500190565b600082613d4057634e487b7160e01b81526012600452602481fd5b500490565b600082821015613d5757613d57613db2565b500390565b600281046001821680613d7057607f821691505b60208210811415613d9157634e487b7160e01b600052602260045260246000fd5b50919050565b6000600019821415613dab57613dab613db2565b5060010190565b634e487b7160e01b600052601160045260246000fd5b634e487b7160e01b600052602160045260246000fd5b634e487b7160e01b600052604160045260246000fdfe15a4a29eccf92a0bbf94f24a6840487aa0226f7fb02d3402f1f86b3360bdfc6aa2646970667358221220ef6a3385afb73e3db5f9360536deed0db62e8517a32c675136479ee23de97e6864736f6c63430008000033",
  "linkReferences": {},
  "deployedLinkReferences": {}
}