{
  "_format": "hh-sol-artifact-1",
  "contractName": "ProjectManager",
  "sourceName": "contracts/ProjectManager.sol",
  "abi": [
    {
      "anonymous": false,
      "inputs": [
        {
          "indexed": false,
          "internalType": "uint256",
          "name": "projectId",
          "type": "uint256"
        },
        {
          "indexed": false,
          "internalType": "address",
          "name": "freelancer",
          "type": "address"
        }
      ],
      "name": "FreelancerAccepted",
      "type": "event"
    },
    {
      "anonymous": false,
      "inputs": [
        {
          "indexed": false,
          "internalType": "uint256",
          "name": "projectId",
          "type": "uint256"
        },
        {
          "indexed": false,
          "internalType": "string",
          "name": "name",
          "type": "string"
        },
        {
          "indexed": false,
          "internalType": "string",
          "name": "description",
          "type": "string"
        },
        {
          "indexed": false,
          "internalType": "uint256",
          "name": "timestamp",
          "type": "uint256"
        },
        {
          "indexed": false,
          "internalType": "address",
          "name": "creator",
          "type": "address"
        },
        {
          "indexed": false,
          "internalType": "enum ProjectManager.Status",
          "name": "status",
          "type": "uint8"
        },
        {
          "indexed": false,
          "internalType": "uint256",
          "name": "projectFee",
          "type": "uint256"
        }
      ],
      "name": "ProjectCreated",
      "type": "event"
    },
    {
      "anonymous": false,
      "inputs": [
        {
          "indexed": false,
          "internalType": "uint256",
          "name": "projectId",
          "type": "uint256"
        },
        {
          "indexed": false,
          "internalType": "address",
          "name": "creator",
          "type": "address"
        }
      ],
      "name": "ProjectRemoved",
      "type": "event"
    },
    {
      "anonymous": false,
      "inputs": [
        {
          "indexed": false,
          "internalType": "uint256",
          "name": "projectId",
          "type": "uint256"
        },
        {
          "indexed": false,
          "internalType": "enum ProjectManager.Status",
          "name": "oldStatus",
          "type": "uint8"
        },
        {
          "indexed": false,
          "internalType": "enum ProjectManager.Status",
          "name": "newStatus",
          "type": "uint8"
        }
      ],
      "name": "ProjectStatusUpdated",
      "type": "event"
    },
    {
      "anonymous": false,
      "inputs": [
        {
          "indexed": false,
          "internalType": "uint256",
          "name": "projectId",
          "type": "uint256"
        },
        {
          "indexed": false,
          "internalType": "address",
          "name": "verifier",
          "type": "address"
        },
        {
          "indexed": false,
          "internalType": "bool",
          "name": "vote",
          "type": "bool"
        }
      ],
      "name": "VerifierVoted",
      "type": "event"
    },
    {
      "inputs": [],
      "name": "REQUIRED_VERIFIERS",
      "outputs": [
        {
          "internalType": "uint256",
          "name": "",
          "type": "uint256"
        }
      ],
      "stateMutability": "view",
      "type": "function"
    },
    {
      "inputs": [
        {
          "internalType": "uint256",
          "name": "_projectId",
          "type": "uint256"
        }
      ],
      "name": "acceptProject",
      "outputs": [],
      "stateMutability": "payable",
      "type": "function"
    },
    {
      "inputs": [
        {
          "internalType": "uint256",
          "name": "_projectId",
          "type": "uint256"
        }
      ],
      "name": "approveProjectCompletion",
      "outputs": [],
      "stateMutability": "nonpayable",
      "type": "function"
    },
    {
      "inputs": [
        {
          "internalType": "string",
          "name": "_name",
          "type": "string"
        },
        {
          "internalType": "string",
          "name": "_description",
          "type": "string"
        },
        {
          "internalType": "uint256",
          "name": "_timestamp",
          "type": "uint256"
        },
        {
          "internalType": "uint256",
          "name": "_projectFee",
          "type": "uint256"
        }
      ],
      "name": "createProject",
      "outputs": [],
      "stateMutability": "payable",
      "type": "function"
    },
    {
      "inputs": [
        {
          "internalType": "uint256",
          "name": "_projectId",
          "type": "uint256"
        }
      ],
      "name": "disputeProjectCompletion",
      "outputs": [],
      "stateMutability": "nonpayable",
      "type": "function"
    },
    {
      "inputs": [
        {
          "internalType": "uint256",
          "name": "",
          "type": "uint256"
        },
        {
          "internalType": "address",
          "name": "",
          "type": "address"
        }
      ],
      "name": "freelancerAcceptedProjects",
      "outputs": [
        {
          "internalType": "bool",
          "name": "",
          "type": "bool"
        }
      ],
      "stateMutability": "view",
      "type": "function"
    },
    {
      "inputs": [
        {
          "internalType": "address",
          "name": "_creator",
          "type": "address"
        }
      ],
      "name": "getProjectsByAddress",
      "outputs": [
        {
          "components": [
            {
              "internalType": "uint256",
              "name": "id",
              "type": "uint256"
            },
            {
              "internalType": "string",
              "name": "name",
              "type": "string"
            },
            {
              "internalType": "string",
              "name": "description",
              "type": "string"
            },
            {
              "internalType": "uint256",
              "name": "timestamp",
              "type": "uint256"
            },
            {
              "internalType": "address",
              "name": "creator",
              "type": "address"
            },
            {
              "internalType": "address[]",
              "name": "potentialFreelancers",
              "type": "address[]"
            },
            {
              "internalType": "address",
              "name": "selectedFreelancer",
              "type": "address"
            },
            {
              "internalType": "enum ProjectManager.Status",
              "name": "status",
              "type": "uint8"
            },
            {
              "internalType": "uint256",
              "name": "projectFee",
              "type": "uint256"
            },
            {
              "internalType": "uint256",
              "name": "acceptVotes",
              "type": "uint256"
            },
            {
              "internalType": "uint256",
              "name": "rejectVotes",
              "type": "uint256"
            }
          ],
          "internalType": "struct ProjectManager.Project[]",
          "name": "",
          "type": "tuple[]"
        }
      ],
      "stateMutability": "view",
      "type": "function"
    },
    {
      "inputs": [
        {
          "internalType": "enum ProjectManager.Status",
          "name": "_status",
          "type": "uint8"
        }
      ],
      "name": "getProjectsByStatus",
      "outputs": [
        {
          "components": [
            {
              "internalType": "uint256",
              "name": "id",
              "type": "uint256"
            },
            {
              "internalType": "string",
              "name": "name",
              "type": "string"
            },
            {
              "internalType": "string",
              "name": "description",
              "type": "string"
            },
            {
              "internalType": "uint256",
              "name": "timestamp",
              "type": "uint256"
            },
            {
              "internalType": "address",
              "name": "creator",
              "type": "address"
            },
            {
              "internalType": "address[]",
              "name": "potentialFreelancers",
              "type": "address[]"
            },
            {
              "internalType": "address",
              "name": "selectedFreelancer",
              "type": "address"
            },
            {
              "internalType": "enum ProjectManager.Status",
              "name": "status",
              "type": "uint8"
            },
            {
              "internalType": "uint256",
              "name": "projectFee",
              "type": "uint256"
            },
            {
              "internalType": "uint256",
              "name": "acceptVotes",
              "type": "uint256"
            },
            {
              "internalType": "uint256",
              "name": "rejectVotes",
              "type": "uint256"
            }
          ],
          "internalType": "struct ProjectManager.Project[]",
          "name": "",
          "type": "tuple[]"
        }
      ],
      "stateMutability": "view",
      "type": "function"
    },
    {
      "inputs": [
        {
          "internalType": "address",
          "name": "_freelancer",
          "type": "address"
        }
      ],
      "name": "getProjectsForFreelancer",
      "outputs": [
        {
          "components": [
            {
              "internalType": "uint256",
              "name": "id",
              "type": "uint256"
            },
            {
              "internalType": "string",
              "name": "name",
              "type": "string"
            },
            {
              "internalType": "string",
              "name": "description",
              "type": "string"
            },
            {
              "internalType": "uint256",
              "name": "timestamp",
              "type": "uint256"
            },
            {
              "internalType": "address",
              "name": "creator",
              "type": "address"
            },
            {
              "internalType": "address[]",
              "name": "potentialFreelancers",
              "type": "address[]"
            },
            {
              "internalType": "address",
              "name": "selectedFreelancer",
              "type": "address"
            },
            {
              "internalType": "enum ProjectManager.Status",
              "name": "status",
              "type": "uint8"
            },
            {
              "internalType": "uint256",
              "name": "projectFee",
              "type": "uint256"
            },
            {
              "internalType": "uint256",
              "name": "acceptVotes",
              "type": "uint256"
            },
            {
              "internalType": "uint256",
              "name": "rejectVotes",
              "type": "uint256"
            }
          ],
          "internalType": "struct ProjectManager.Project[]",
          "name": "",
          "type": "tuple[]"
        }
      ],
      "stateMutability": "view",
      "type": "function"
    },
    {
      "inputs": [
        {
          "internalType": "uint256",
          "name": "",
          "type": "uint256"
        },
        {
          "internalType": "address",
          "name": "",
          "type": "address"
        }
      ],
      "name": "hasVerified",
      "outputs": [
        {
          "internalType": "bool",
          "name": "",
          "type": "bool"
        }
      ],
      "stateMutability": "view",
      "type": "function"
    },
    {
      "inputs": [
        {
          "internalType": "uint256",
          "name": "_projectId",
          "type": "uint256"
        }
      ],
      "name": "markProjectAsCompleted",
      "outputs": [],
      "stateMutability": "nonpayable",
      "type": "function"
    },
    {
      "inputs": [
        {
          "internalType": "uint256",
          "name": "",
          "type": "uint256"
        },
        {
          "internalType": "uint256",
          "name": "",
          "type": "uint256"
        }
      ],
      "name": "projectVerifiers",
      "outputs": [
        {
          "internalType": "address",
          "name": "",
          "type": "address"
        }
      ],
      "stateMutability": "view",
      "type": "function"
    },
    {
      "inputs": [
        {
          "internalType": "uint256",
          "name": "",
          "type": "uint256"
        }
      ],
      "name": "projects",
      "outputs": [
        {
          "internalType": "uint256",
          "name": "id",
          "type": "uint256"
        },
        {
          "internalType": "string",
          "name": "name",
          "type": "string"
        },
        {
          "internalType": "string",
          "name": "description",
          "type": "string"
        },
        {
          "internalType": "uint256",
          "name": "timestamp",
          "type": "uint256"
        },
        {
          "internalType": "address",
          "name": "creator",
          "type": "address"
        },
        {
          "internalType": "address",
          "name": "selectedFreelancer",
          "type": "address"
        },
        {
          "internalType": "enum ProjectManager.Status",
          "name": "status",
          "type": "uint8"
        },
        {
          "internalType": "uint256",
          "name": "projectFee",
          "type": "uint256"
        },
        {
          "internalType": "uint256",
          "name": "acceptVotes",
          "type": "uint256"
        },
        {
          "internalType": "uint256",
          "name": "rejectVotes",
          "type": "uint256"
        }
      ],
      "stateMutability": "view",
      "type": "function"
    },
    {
      "inputs": [
        {
          "internalType": "uint256",
          "name": "_projectId",
          "type": "uint256"
        }
      ],
      "name": "rejectProjectCompletion",
      "outputs": [],
      "stateMutability": "nonpayable",
      "type": "function"
    },
    {
      "inputs": [
        {
          "internalType": "uint256",
          "name": "_projectId",
          "type": "uint256"
        }
      ],
      "name": "removeProject",
      "outputs": [],
      "stateMutability": "nonpayable",
      "type": "function"
    },
    {
      "inputs": [
        {
          "internalType": "uint256",
          "name": "_projectId",
          "type": "uint256"
        },
        {
          "internalType": "address",
          "name": "_freelancer",
          "type": "address"
        }
      ],
      "name": "selectFreelancer",
      "outputs": [],
      "stateMutability": "nonpayable",
      "type": "function"
    },
    {
      "inputs": [],
      "name": "verificationFee",
      "outputs": [
        {
          "internalType": "uint256",
          "name": "",
          "type": "uint256"
        }
      ],
      "stateMutability": "view",
      "type": "function"
    },
    {
      "inputs": [
        {
          "internalType": "uint256",
          "name": "",
          "type": "uint256"
        },
        {
          "internalType": "address",
          "name": "",
          "type": "address"
        }
      ],
      "name": "verifierVotes",
      "outputs": [
        {
          "internalType": "bool",
          "name": "",
          "type": "bool"
        }
      ],
      "stateMutability": "view",
      "type": "function"
    },
    {
      "inputs": [
        {
          "internalType": "uint256",
          "name": "_projectId",
          "type": "uint256"
        },
        {
          "internalType": "bool",
          "name": "_accept",
          "type": "bool"
        }
      ],
      "name": "verifyProjectCompletion",
      "outputs": [],
      "stateMutability": "payable",
      "type": "function"
    }
  ],
  "bytecode": "0x6080604052660110d9316ec00060015534801561001b57600080fd5b50615e4c806200002c6000396000f3fe6080604052600436106101145760003560e01c80638d34129f116100a0578063cc9eb47011610064578063cc9eb470146103ae578063d5842c8b146103eb578063dbff65e814610428578063f57ad8cc14610465578063fd1d5ea91461048e57610114565b80638d34129f146102e3578063919b725a146102ff57806394ba97091461033c578063a74c341f14610358578063a8c278a21461038357610114565b80633bd09de0116100e75780633bd09de0146101ee5780633beddfd91461021757806356563e4a146102545780635873f99814610291578063720413d1146102ba57610114565b8063107046bd1461011957806312a4e33f1461015f5780631aa22bba14610188578063380deabc146101c5575b600080fd5b34801561012557600080fd5b50610140600480360381019061013b9190614839565b6104aa565b6040516101569a9998979695949392919061589a565b60405180910390f35b34801561016b57600080fd5b5061018660048036038101906101819190614839565b61066b565b005b34801561019457600080fd5b506101af60048036038101906101aa919061477d565b610a9c565b6040516101bc919061548b565b60405180910390f35b3480156101d157600080fd5b506101ec60048036038101906101e79190614862565b6110de565b005b3480156101fa57600080fd5b5061021560048036038101906102109190614839565b611579565b005b34801561022357600080fd5b5061023e60048036038101906102399190614862565b611896565b60405161024b91906154ad565b60405180910390f35b34801561026057600080fd5b5061027b60048036038101906102769190614862565b6118c5565b60405161028891906154ad565b60405180910390f35b34801561029d57600080fd5b506102b860048036038101906102b39190614839565b6118f4565b005b3480156102c657600080fd5b506102e160048036038101906102dc9190614839565b6120ea565b005b6102fd60048036038101906102f8919061489e565b612366565b005b34801561030b57600080fd5b5061032660048036038101906103219190614754565b612911565b604051610333919061548b565b60405180910390f35b610356600480360381019061035191906147a6565b612ef1565b005b34801561036457600080fd5b5061036d613254565b60405161037a91906157e8565b60405180910390f35b34801561038f57600080fd5b50610398613259565b6040516103a591906157e8565b60405180910390f35b3480156103ba57600080fd5b506103d560048036038101906103d09190614862565b61325f565b6040516103e291906154ad565b60405180910390f35b3480156103f757600080fd5b50610412600480360381019061040d9190614754565b61328e565b60405161041f919061548b565b60405180910390f35b34801561043457600080fd5b5061044f600480360381019061044a91906148da565b61386e565b60405161045c9190615470565b60405180910390f35b34801561047157600080fd5b5061048c60048036038101906104879190614839565b6138bc565b005b6104a860048036038101906104a39190614839565b613c7e565b005b600081815481106104ba57600080fd5b90600052602060002090600a02016000915090508060000154908060010180546104e390615c36565b80601f016020809104026020016040519081016040528092919081815260200182805461050f90615c36565b801561055c5780601f106105315761010080835404028352916020019161055c565b820191906000526020600020905b81548152906001019060200180831161053f57829003601f168201915b50505050509080600201805461057190615c36565b80601f016020809104026020016040519081016040528092919081815260200182805461059d90615c36565b80156105ea5780601f106105bf576101008083540402835291602001916105ea565b820191906000526020600020905b8154815290600101906020018083116105cd57829003601f168201915b5050505050908060030154908060040160009054906101000a900473ffffffffffffffffffffffffffffffffffffffff16908060060160009054906101000a900473ffffffffffffffffffffffffffffffffffffffff16908060060160149054906101000a900460ff1690806007015490806008015490806009015490508a565b60008054905081106106b2576040517f08c379a00000000000000000000000000000000000000000000000000000000081526004016106a990615788565b60405180910390fd5b60008082815481106106ed577f4e487b7100000000000000000000000000000000000000000000000000000000600052603260045260246000fd5b90600052602060002090600a020190508060040160009054906101000a900473ffffffffffffffffffffffffffffffffffffffff1673ffffffffffffffffffffffffffffffffffffffff163373ffffffffffffffffffffffffffffffffffffffff161461078f576040517f08c379a000000000000000000000000000000000000000000000000000000000815260040161078690615588565b60405180910390fd5b600260048111156107c9577f4e487b7100000000000000000000000000000000000000000000000000000000600052602160045260246000fd5b8160060160149054906101000a900460ff166004811115610813577f4e487b7100000000000000000000000000000000000000000000000000000000600052602160045260246000fd5b14610853576040517f08c379a000000000000000000000000000000000000000000000000000000000815260040161084a90615568565b60405180910390fd5b60048160060160146101000a81548160ff021916908360048111156108a1577f4e487b7100000000000000000000000000000000000000000000000000000000600052602160045260246000fd5b021790555060008160060160009054906101000a900473ffffffffffffffffffffffffffffffffffffffff1673ffffffffffffffffffffffffffffffffffffffff1660015483600701546108f59190615acc565b6040516109019061545b565b60006040518083038185875af1925050503d806000811461093e576040519150601f19603f3d011682016040523d82523d6000602084013e610943565b606091505b5050905080610987576040517f08c379a000000000000000000000000000000000000000000000000000000000815260040161097e906155c8565b60405180910390fd5b60008260040160009054906101000a900473ffffffffffffffffffffffffffffffffffffffff1673ffffffffffffffffffffffffffffffffffffffff166001546040516109d39061545b565b60006040518083038185875af1925050503d8060008114610a10576040519150601f19603f3d011682016040523d82523d6000602084013e610a15565b606091505b5050905080610a59576040517f08c379a0000000000000000000000000000000000000000000000000000000008152600401610a50906154c8565b60405180910390fd5b7f15a4a29eccf92a0bbf94f24a6840487aa0226f7fb02d3402f1f86b3360bdfc6a8460026004604051610a8e93929190615863565b60405180910390a150505050565b60606000805b600080549050811015610ba157836004811115610ae8577f4e487b7100000000000000000000000000000000000000000000000000000000600052602160045260246000fd5b60008281548110610b22577f4e487b7100000000000000000000000000000000000000000000000000000000600052603260045260246000fd5b90600052602060002090600a020160060160149054906101000a900460ff166004811115610b79577f4e487b7100000000000000000000000000000000000000000000000000000000600052602160045260246000fd5b1415610b8e578180610b8a90615c68565b9250505b8080610b9990615c68565b915050610aa2565b5060008167ffffffffffffffff811115610be4577f4e487b7100000000000000000000000000000000000000000000000000000000600052604160045260246000fd5b604051908082528060200260200182016040528015610c1d57816020015b610c0a61436d565b815260200190600190039081610c025790505b5090506000805b6000805490508110156110d257856004811115610c6a577f4e487b7100000000000000000000000000000000000000000000000000000000600052602160045260246000fd5b60008281548110610ca4577f4e487b7100000000000000000000000000000000000000000000000000000000600052603260045260246000fd5b90600052602060002090600a020160060160149054906101000a900460ff166004811115610cfb577f4e487b7100000000000000000000000000000000000000000000000000000000600052602160045260246000fd5b14156110bf5760008181548110610d3b577f4e487b7100000000000000000000000000000000000000000000000000000000600052603260045260246000fd5b90600052602060002090600a02016040518061016001604052908160008201548152602001600182018054610d6f90615c36565b80601f0160208091040260200160405190810160405280929190818152602001828054610d9b90615c36565b8015610de85780601f10610dbd57610100808354040283529160200191610de8565b820191906000526020600020905b815481529060010190602001808311610dcb57829003601f168201915b50505050508152602001600282018054610e0190615c36565b80601f0160208091040260200160405190810160405280929190818152602001828054610e2d90615c36565b8015610e7a5780601f10610e4f57610100808354040283529160200191610e7a565b820191906000526020600020905b815481529060010190602001808311610e5d57829003601f168201915b50505050508152602001600382015481526020016004820160009054906101000a900473ffffffffffffffffffffffffffffffffffffffff1673ffffffffffffffffffffffffffffffffffffffff1673ffffffffffffffffffffffffffffffffffffffff16815260200160058201805480602002602001604051908101604052809291908181526020018280548015610f6857602002820191906000526020600020905b8160009054906101000a900473ffffffffffffffffffffffffffffffffffffffff1673ffffffffffffffffffffffffffffffffffffffff1681526020019060010190808311610f1e575b505050505081526020016006820160009054906101000a900473ffffffffffffffffffffffffffffffffffffffff1673ffffffffffffffffffffffffffffffffffffffff1673ffffffffffffffffffffffffffffffffffffffff1681526020016006820160149054906101000a900460ff166004811115611012577f4e487b7100000000000000000000000000000000000000000000000000000000600052602160045260246000fd5b600481111561104a577f4e487b7100000000000000000000000000000000000000000000000000000000600052602160045260246000fd5b815260200160078201548152602001600882015481526020016009820154815250508383815181106110a5577f4e487b7100000000000000000000000000000000000000000000000000000000600052603260045260246000fd5b602002602001018190525081806110bb90615c68565b9250505b80806110ca90615c68565b915050610c24565b50819350505050919050565b6000808381548110611119577f4e487b7100000000000000000000000000000000000000000000000000000000600052603260045260246000fd5b90600052602060002090600a020190508060040160009054906101000a900473ffffffffffffffffffffffffffffffffffffffff1673ffffffffffffffffffffffffffffffffffffffff163373ffffffffffffffffffffffffffffffffffffffff16146111bb576040517f08c379a00000000000000000000000000000000000000000000000000000000081526004016111b2906156c8565b60405180910390fd5b600060048111156111f5577f4e487b7100000000000000000000000000000000000000000000000000000000600052602160045260246000fd5b8160060160149054906101000a900460ff16600481111561123f577f4e487b7100000000000000000000000000000000000000000000000000000000600052602160045260246000fd5b1461127f576040517f08c379a000000000000000000000000000000000000000000000000000000000815260040161127690615508565b60405180910390fd5b6005600084815260200190815260200160002060008373ffffffffffffffffffffffffffffffffffffffff1673ffffffffffffffffffffffffffffffffffffffff16815260200190815260200160002060009054906101000a900460ff1661131c576040517f08c379a000000000000000000000000000000000000000000000000000000000815260040161131390615628565b60405180910390fd5b818160060160006101000a81548173ffffffffffffffffffffffffffffffffffffffff021916908373ffffffffffffffffffffffffffffffffffffffff16021790555060018160060160146101000a81548160ff021916908360048111156113ad577f4e487b7100000000000000000000000000000000000000000000000000000000600052602160045260246000fd5b02179055508060050160006113c2919061442b565b60005b8160050180549050811015611536576000826005018281548110611412577f4e487b7100000000000000000000000000000000000000000000000000000000600052603260045260246000fd5b9060005260206000200160009054906101000a900473ffffffffffffffffffffffffffffffffffffffff1690508373ffffffffffffffffffffffffffffffffffffffff168173ffffffffffffffffffffffffffffffffffffffff16146115225760008173ffffffffffffffffffffffffffffffffffffffff1660015460405161149a9061545b565b60006040518083038185875af1925050503d80600081146114d7576040519150601f19603f3d011682016040523d82523d6000602084013e6114dc565b606091505b5050905080611520576040517f08c379a000000000000000000000000000000000000000000000000000000000815260040161151790615608565b60405180910390fd5b505b50808061152e90615c68565b9150506113c5565b507f15a4a29eccf92a0bbf94f24a6840487aa0226f7fb02d3402f1f86b3360bdfc6a836000600160405161156c93929190615863565b60405180910390a1505050565b60008054905081106115c0576040517f08c379a00000000000000000000000000000000000000000000000000000000081526004016115b790615788565b60405180910390fd5b60008082815481106115fb577f4e487b7100000000000000000000000000000000000000000000000000000000600052603260045260246000fd5b90600052602060002090600a020190508060040160009054906101000a900473ffffffffffffffffffffffffffffffffffffffff1673ffffffffffffffffffffffffffffffffffffffff163373ffffffffffffffffffffffffffffffffffffffff16141580156116bb57508060060160009054906101000a900473ffffffffffffffffffffffffffffffffffffffff1673ffffffffffffffffffffffffffffffffffffffff163373ffffffffffffffffffffffffffffffffffffffff1614155b6116fa576040517f08c379a00000000000000000000000000000000000000000000000000000000081526004016116f190615548565b60405180910390fd5b60036004811115611734577f4e487b7100000000000000000000000000000000000000000000000000000000600052602160045260246000fd5b8160060160149054906101000a900460ff16600481111561177e577f4e487b7100000000000000000000000000000000000000000000000000000000600052602160045260246000fd5b146117be576040517f08c379a00000000000000000000000000000000000000000000000000000000081526004016117b5906155a8565b60405180910390fd5b60008160060160146101000a81548160ff0219169083600481111561180c577f4e487b7100000000000000000000000000000000000000000000000000000000600052602160045260246000fd5b021790555060008160060160006101000a81548173ffffffffffffffffffffffffffffffffffffffff021916908373ffffffffffffffffffffffffffffffffffffffff1602179055507f15a4a29eccf92a0bbf94f24a6840487aa0226f7fb02d3402f1f86b3360bdfc6a826003600060405161188a93929190615863565b60405180910390a15050565b60046020528160005260406000206020528060005260406000206000915091509054906101000a900460ff1681565b60036020528160005260406000206020528060005260406000206000915091509054906101000a900460ff1681565b600080549050811061193b576040517f08c379a000000000000000000000000000000000000000000000000000000000815260040161193290615788565b60405180910390fd5b6000808281548110611976577f4e487b7100000000000000000000000000000000000000000000000000000000600052603260045260246000fd5b90600052602060002090600a020190508060040160009054906101000a900473ffffffffffffffffffffffffffffffffffffffff1673ffffffffffffffffffffffffffffffffffffffff163373ffffffffffffffffffffffffffffffffffffffff1614611a18576040517f08c379a0000000000000000000000000000000000000000000000000000000008152600401611a0f906156e8565b60405180910390fd5b60006004811115611a52577f4e487b7100000000000000000000000000000000000000000000000000000000600052602160045260246000fd5b8160060160149054906101000a900460ff166004811115611a9c577f4e487b7100000000000000000000000000000000000000000000000000000000600052602160045260246000fd5b14611adc576040517f08c379a0000000000000000000000000000000000000000000000000000000008152600401611ad390615728565b60405180910390fd5b60006001548260070154611af09190615acc565b905060005b8260050180549050811015611c2c576000836005018281548110611b42577f4e487b7100000000000000000000000000000000000000000000000000000000600052603260045260246000fd5b9060005260206000200160009054906101000a900473ffffffffffffffffffffffffffffffffffffffff1673ffffffffffffffffffffffffffffffffffffffff16600154604051611b929061545b565b60006040518083038185875af1925050503d8060008114611bcf576040519150601f19603f3d011682016040523d82523d6000602084013e611bd4565b606091505b5050905080611c18576040517f08c379a0000000000000000000000000000000000000000000000000000000008152600401611c0f90615708565b60405180910390fd5b508080611c2490615c68565b915050611af5565b506001600080549050611c3f9190615b53565b8314611ef45760006001600080549050611c599190615b53565b81548110611c90577f4e487b7100000000000000000000000000000000000000000000000000000000600052603260045260246000fd5b90600052602060002090600a020160008481548110611cd8577f4e487b7100000000000000000000000000000000000000000000000000000000600052603260045260246000fd5b90600052602060002090600a0201600082015481600001556001820181600101908054611d0490615c36565b611d0f92919061444c565b506002820181600201908054611d2490615c36565b611d2f92919061444c565b50600382015481600301556004820160009054906101000a900473ffffffffffffffffffffffffffffffffffffffff168160040160006101000a81548173ffffffffffffffffffffffffffffffffffffffff021916908373ffffffffffffffffffffffffffffffffffffffff1602179055506005820181600501908054611db79291906144d9565b506006820160009054906101000a900473ffffffffffffffffffffffffffffffffffffffff168160060160006101000a81548173ffffffffffffffffffffffffffffffffffffffff021916908373ffffffffffffffffffffffffffffffffffffffff1602179055506006820160149054906101000a900460ff168160060160146101000a81548160ff02191690836004811115611e7d577f4e487b7100000000000000000000000000000000000000000000000000000000600052602160045260246000fd5b02179055506007820154816007015560088201548160080155600982015481600901559050508260008481548110611ede577f4e487b7100000000000000000000000000000000000000000000000000000000600052603260045260246000fd5b90600052602060002090600a0201600001819055505b6000805480611f2c577f4e487b7100000000000000000000000000000000000000000000000000000000600052603160045260246000fd5b60019003818190600052602060002090600a0201600080820160009055600182016000611f59919061452b565b600282016000611f69919061452b565b60038201600090556004820160006101000a81549073ffffffffffffffffffffffffffffffffffffffff0219169055600582016000611fa8919061442b565b6006820160006101000a81549073ffffffffffffffffffffffffffffffffffffffff02191690556006820160146101000a81549060ff02191690556007820160009055600882016000905560098201600090555050905560003373ffffffffffffffffffffffffffffffffffffffff16826040516120259061545b565b60006040518083038185875af1925050503d8060008114612062576040519150601f19603f3d011682016040523d82523d6000602084013e612067565b606091505b50509050806120ab576040517f08c379a00000000000000000000000000000000000000000000000000000000081526004016120a290615768565b60405180910390fd5b7fba1c16e049c7a348b951726f087bd968f9f40e6c64c8cf9ae55ed756ae62944084336040516120dc929190615803565b60405180910390a150505050565b6000805490508110612131576040517f08c379a000000000000000000000000000000000000000000000000000000000815260040161212890615788565b60405180910390fd5b600080828154811061216c577f4e487b7100000000000000000000000000000000000000000000000000000000600052603260045260246000fd5b90600052602060002090600a020190508060060160009054906101000a900473ffffffffffffffffffffffffffffffffffffffff1673ffffffffffffffffffffffffffffffffffffffff163373ffffffffffffffffffffffffffffffffffffffff161461220e576040517f08c379a000000000000000000000000000000000000000000000000000000000815260040161220590615648565b60405180910390fd5b60016004811115612248577f4e487b7100000000000000000000000000000000000000000000000000000000600052602160045260246000fd5b8160060160149054906101000a900460ff166004811115612292577f4e487b7100000000000000000000000000000000000000000000000000000000600052602160045260246000fd5b146122d2576040517f08c379a00000000000000000000000000000000000000000000000000000000081526004016122c9906157c8565b60405180910390fd5b60028160060160146101000a81548160ff02191690836004811115612320577f4e487b7100000000000000000000000000000000000000000000000000000000600052602160045260246000fd5b02179055507f15a4a29eccf92a0bbf94f24a6840487aa0226f7fb02d3402f1f86b3360bdfc6a826001600260405161235a93929190615863565b60405180910390a15050565b8160008054905081106123ae576040517f08c379a00000000000000000000000000000000000000000000000000000000081526004016123a590615788565b60405180910390fd5b60008084815481106123e9577f4e487b7100000000000000000000000000000000000000000000000000000000600052603260045260246000fd5b90600052602060002090600a020190508060040160009054906101000a900473ffffffffffffffffffffffffffffffffffffffff1673ffffffffffffffffffffffffffffffffffffffff163373ffffffffffffffffffffffffffffffffffffffff16141580156124a957508060060160009054906101000a900473ffffffffffffffffffffffffffffffffffffffff1673ffffffffffffffffffffffffffffffffffffffff163373ffffffffffffffffffffffffffffffffffffffff1614155b6124e8576040517f08c379a00000000000000000000000000000000000000000000000000000000081526004016124df90615548565b60405180910390fd5b60036004811115612522577f4e487b7100000000000000000000000000000000000000000000000000000000600052602160045260246000fd5b8160060160149054906101000a900460ff16600481111561256c577f4e487b7100000000000000000000000000000000000000000000000000000000600052602160045260246000fd5b146125ac576040517f08c379a00000000000000000000000000000000000000000000000000000000081526004016125a3906155a8565b60405180910390fd5b6003600085815260200190815260200160002060003373ffffffffffffffffffffffffffffffffffffffff1673ffffffffffffffffffffffffffffffffffffffff16815260200190815260200160002060009054906101000a900460ff161561264a576040517f08c379a000000000000000000000000000000000000000000000000000000000815260040161264190615748565b60405180910390fd5b600154341461268e576040517f08c379a000000000000000000000000000000000000000000000000000000000815260040161268590615528565b60405180910390fd5b60016003600086815260200190815260200160002060003373ffffffffffffffffffffffffffffffffffffffff1673ffffffffffffffffffffffffffffffffffffffff16815260200190815260200160002060006101000a81548160ff02191690831515021790555060026000858152602001908152602001600020339080600181540180825580915050600190039060005260206000200160009091909190916101000a81548173ffffffffffffffffffffffffffffffffffffffff021916908373ffffffffffffffffffffffffffffffffffffffff16021790555082156127905780600801600081548092919061278690615c68565b91905055506127ab565b8060090160008154809291906127a590615c68565b91905055505b600060036001546127bc9190615b22565b90506000816001546127ce9190615acc565b905060003373ffffffffffffffffffffffffffffffffffffffff16826040516127f69061545b565b60006040518083038185875af1925050503d8060008114612833576040519150601f19603f3d011682016040523d82523d6000602084013e612838565b606091505b505090508061287c576040517f08c379a0000000000000000000000000000000000000000000000000000000008152600401612873906157a8565b60405180910390fd5b7fc9d2ff8d0995175448926c3772b9348991ca8fecf6638d1e32cf1700e208ca418733886040516128af9392919061582c565b60405180910390a16003600260008981526020019081526020016000208054905014156129085760028460080154106128f0576128eb87614056565b612907565b60028460090154106129065761290587614217565b5b5b5b50505050505050565b60606000805b6000805490508110156129e5578373ffffffffffffffffffffffffffffffffffffffff1660008281548110612975577f4e487b7100000000000000000000000000000000000000000000000000000000600052603260045260246000fd5b90600052602060002090600a020160060160009054906101000a900473ffffffffffffffffffffffffffffffffffffffff1673ffffffffffffffffffffffffffffffffffffffff1614156129d25781806129ce90615c68565b9250505b80806129dd90615c68565b915050612917565b5060008167ffffffffffffffff811115612a28577f4e487b7100000000000000000000000000000000000000000000000000000000600052604160045260246000fd5b604051908082528060200260200182016040528015612a6157816020015b612a4e61436d565b815260200190600190039081612a465790505b5090506000805b600080549050811015612ee5578573ffffffffffffffffffffffffffffffffffffffff1660008281548110612ac6577f4e487b7100000000000000000000000000000000000000000000000000000000600052603260045260246000fd5b90600052602060002090600a020160060160009054906101000a900473ffffffffffffffffffffffffffffffffffffffff1673ffffffffffffffffffffffffffffffffffffffff161415612ed25760008181548110612b4e577f4e487b7100000000000000000000000000000000000000000000000000000000600052603260045260246000fd5b90600052602060002090600a02016040518061016001604052908160008201548152602001600182018054612b8290615c36565b80601f0160208091040260200160405190810160405280929190818152602001828054612bae90615c36565b8015612bfb5780601f10612bd057610100808354040283529160200191612bfb565b820191906000526020600020905b815481529060010190602001808311612bde57829003601f168201915b50505050508152602001600282018054612c1490615c36565b80601f0160208091040260200160405190810160405280929190818152602001828054612c4090615c36565b8015612c8d5780601f10612c6257610100808354040283529160200191612c8d565b820191906000526020600020905b815481529060010190602001808311612c7057829003601f168201915b50505050508152602001600382015481526020016004820160009054906101000a900473ffffffffffffffffffffffffffffffffffffffff1673ffffffffffffffffffffffffffffffffffffffff1673ffffffffffffffffffffffffffffffffffffffff16815260200160058201805480602002602001604051908101604052809291908181526020018280548015612d7b57602002820191906000526020600020905b8160009054906101000a900473ffffffffffffffffffffffffffffffffffffffff1673ffffffffffffffffffffffffffffffffffffffff1681526020019060010190808311612d31575b505050505081526020016006820160009054906101000a900473ffffffffffffffffffffffffffffffffffffffff1673ffffffffffffffffffffffffffffffffffffffff1673ffffffffffffffffffffffffffffffffffffffff1681526020016006820160149054906101000a900460ff166004811115612e25577f4e487b7100000000000000000000000000000000000000000000000000000000600052602160045260246000fd5b6004811115612e5d577f4e487b7100000000000000000000000000000000000000000000000000000000600052602160045260246000fd5b81526020016007820154815260200160088201548152602001600982015481525050838381518110612eb8577f4e487b7100000000000000000000000000000000000000000000000000000000600052603260045260246000fd5b60200260200101819052508180612ece90615c68565b9250505b8080612edd90615c68565b915050612a68565b50819350505050919050565b60015481612eff9190615acc565b3414612f40576040517f08c379a0000000000000000000000000000000000000000000000000000000008152600401612f37906154e8565b60405180910390fd5b60008080549050905060006040518061016001604052808381526020018781526020018681526020018581526020013373ffffffffffffffffffffffffffffffffffffffff168152602001600067ffffffffffffffff811115612fcc577f4e487b7100000000000000000000000000000000000000000000000000000000600052604160045260246000fd5b604051908082528060200260200182016040528015612ffa5781602001602082028036833780820191505090505b508152602001600073ffffffffffffffffffffffffffffffffffffffff16815260200160006004811115613057577f4e487b7100000000000000000000000000000000000000000000000000000000600052602160045260246000fd5b815260200184815260200160008152602001600081525090806001815401808255809150506001900390600052602060002090600a02016000909190919091506000820151816000015560208201518160010190805190602001906130bd92919061456b565b5060408201518160020190805190602001906130da92919061456b565b506060820151816003015560808201518160040160006101000a81548173ffffffffffffffffffffffffffffffffffffffff021916908373ffffffffffffffffffffffffffffffffffffffff16021790555060a08201518160050190805190602001906131489291906145f1565b5060c08201518160060160006101000a81548173ffffffffffffffffffffffffffffffffffffffff021916908373ffffffffffffffffffffffffffffffffffffffff16021790555060e08201518160060160146101000a81548160ff021916908360048111156131e1577f4e487b7100000000000000000000000000000000000000000000000000000000600052602160045260246000fd5b021790555061010082015181600701556101208201518160080155610140820151816009015550507f59efe781992d5ecfa36fc33ea75b2d74345c30fd2e5762bfe91d37159b14965281868686336000886040516132459796959493929190615944565b60405180910390a15050505050565b600381565b60015481565b60056020528160005260406000206020528060005260406000206000915091509054906101000a900460ff1681565b60606000805b600080549050811015613362578373ffffffffffffffffffffffffffffffffffffffff16600082815481106132f2577f4e487b7100000000000000000000000000000000000000000000000000000000600052603260045260246000fd5b90600052602060002090600a020160040160009054906101000a900473ffffffffffffffffffffffffffffffffffffffff1673ffffffffffffffffffffffffffffffffffffffff16141561334f57818061334b90615c68565b9250505b808061335a90615c68565b915050613294565b5060008167ffffffffffffffff8111156133a5577f4e487b7100000000000000000000000000000000000000000000000000000000600052604160045260246000fd5b6040519080825280602002602001820160405280156133de57816020015b6133cb61436d565b8152602001906001900390816133c35790505b5090506000805b600080549050811015613862578573ffffffffffffffffffffffffffffffffffffffff1660008281548110613443577f4e487b7100000000000000000000000000000000000000000000000000000000600052603260045260246000fd5b90600052602060002090600a020160040160009054906101000a900473ffffffffffffffffffffffffffffffffffffffff1673ffffffffffffffffffffffffffffffffffffffff16141561384f57600081815481106134cb577f4e487b7100000000000000000000000000000000000000000000000000000000600052603260045260246000fd5b90600052602060002090600a020160405180610160016040529081600082015481526020016001820180546134ff90615c36565b80601f016020809104026020016040519081016040528092919081815260200182805461352b90615c36565b80156135785780601f1061354d57610100808354040283529160200191613578565b820191906000526020600020905b81548152906001019060200180831161355b57829003601f168201915b5050505050815260200160028201805461359190615c36565b80601f01602080910402602001604051908101604052809291908181526020018280546135bd90615c36565b801561360a5780601f106135df5761010080835404028352916020019161360a565b820191906000526020600020905b8154815290600101906020018083116135ed57829003601f168201915b50505050508152602001600382015481526020016004820160009054906101000a900473ffffffffffffffffffffffffffffffffffffffff1673ffffffffffffffffffffffffffffffffffffffff1673ffffffffffffffffffffffffffffffffffffffff168152602001600582018054806020026020016040519081016040528092919081815260200182805480156136f857602002820191906000526020600020905b8160009054906101000a900473ffffffffffffffffffffffffffffffffffffffff1673ffffffffffffffffffffffffffffffffffffffff16815260200190600101908083116136ae575b505050505081526020016006820160009054906101000a900473ffffffffffffffffffffffffffffffffffffffff1673ffffffffffffffffffffffffffffffffffffffff1673ffffffffffffffffffffffffffffffffffffffff1681526020016006820160149054906101000a900460ff1660048111156137a2577f4e487b7100000000000000000000000000000000000000000000000000000000600052602160045260246000fd5b60048111156137da577f4e487b7100000000000000000000000000000000000000000000000000000000600052602160045260246000fd5b81526020016007820154815260200160088201548152602001600982015481525050838381518110613835577f4e487b7100000000000000000000000000000000000000000000000000000000600052603260045260246000fd5b6020026020010181905250818061384b90615c68565b9250505b808061385a90615c68565b9150506133e5565b50819350505050919050565b6002602052816000526040600020818154811061388a57600080fd5b906000526020600020016000915091509054906101000a900473ffffffffffffffffffffffffffffffffffffffff1681565b6000805490508110613903576040517f08c379a00000000000000000000000000000000000000000000000000000000081526004016138fa90615788565b60405180910390fd5b600080828154811061393e577f4e487b7100000000000000000000000000000000000000000000000000000000600052603260045260246000fd5b90600052602060002090600a020190508060040160009054906101000a900473ffffffffffffffffffffffffffffffffffffffff1673ffffffffffffffffffffffffffffffffffffffff163373ffffffffffffffffffffffffffffffffffffffff16146139e0576040517f08c379a00000000000000000000000000000000000000000000000000000000081526004016139d790615668565b60405180910390fd5b60026004811115613a1a577f4e487b7100000000000000000000000000000000000000000000000000000000600052602160045260246000fd5b8160060160149054906101000a900460ff166004811115613a64577f4e487b7100000000000000000000000000000000000000000000000000000000600052602160045260246000fd5b14613aa4576040517f08c379a0000000000000000000000000000000000000000000000000000000008152600401613a9b90615568565b60405180910390fd5b60038160060160146101000a81548160ff02191690836004811115613af2577f4e487b7100000000000000000000000000000000000000000000000000000000600052602160045260246000fd5b0217905550600081600801819055506000816009018190555060005b6002600084815260200190815260200160002080549050811015613c1d576000600360008581526020019081526020016000206000600260008781526020019081526020016000208481548110613b8e577f4e487b7100000000000000000000000000000000000000000000000000000000600052603260045260246000fd5b9060005260206000200160009054906101000a900473ffffffffffffffffffffffffffffffffffffffff1673ffffffffffffffffffffffffffffffffffffffff1673ffffffffffffffffffffffffffffffffffffffff16815260200190815260200160002060006101000a81548160ff0219169083151502179055508080613c1590615c68565b915050613b0e565b50600260008381526020019081526020016000206000613c3d919061442b565b7f15a4a29eccf92a0bbf94f24a6840487aa0226f7fb02d3402f1f86b3360bdfc6a8260026003604051613c7293929190615863565b60405180910390a15050565b806000805490508110613cc6576040517f08c379a0000000000000000000000000000000000000000000000000000000008152600401613cbd90615788565b60405180910390fd5b6000808381548110613d01577f4e487b7100000000000000000000000000000000000000000000000000000000600052603260045260246000fd5b90600052602060002090600a020190508060040160009054906101000a900473ffffffffffffffffffffffffffffffffffffffff1673ffffffffffffffffffffffffffffffffffffffff163373ffffffffffffffffffffffffffffffffffffffff161415613da4576040517f08c379a0000000000000000000000000000000000000000000000000000000008152600401613d9b906155e8565b60405180910390fd5b60006004811115613dde577f4e487b7100000000000000000000000000000000000000000000000000000000600052602160045260246000fd5b8160060160149054906101000a900460ff166004811115613e28577f4e487b7100000000000000000000000000000000000000000000000000000000600052602160045260246000fd5b14613e68576040517f08c379a0000000000000000000000000000000000000000000000000000000008152600401613e5f90615508565b60405180910390fd5b6005600084815260200190815260200160002060003373ffffffffffffffffffffffffffffffffffffffff1673ffffffffffffffffffffffffffffffffffffffff16815260200190815260200160002060009054906101000a900460ff1615613f06576040517f08c379a0000000000000000000000000000000000000000000000000000000008152600401613efd90615688565b60405180910390fd5b6001543414613f4a576040517f08c379a0000000000000000000000000000000000000000000000000000000008152600401613f4190615528565b60405180910390fd5b80600501339080600181540180825580915050600190039060005260206000200160009091909190916101000a81548173ffffffffffffffffffffffffffffffffffffffff021916908373ffffffffffffffffffffffffffffffffffffffff16021790555060016005600085815260200190815260200160002060003373ffffffffffffffffffffffffffffffffffffffff1673ffffffffffffffffffffffffffffffffffffffff16815260200190815260200160002060006101000a81548160ff0219169083151502179055507f8725bffe8d13528e1bab35c1d9aa412f46d228a07bef71d732e5fe603f9abc058333604051614049929190615803565b60405180910390a1505050565b6000808281548110614091577f4e487b7100000000000000000000000000000000000000000000000000000000600052603260045260246000fd5b90600052602060002090600a0201905060048160060160146101000a81548160ff021916908360048111156140ef577f4e487b7100000000000000000000000000000000000000000000000000000000600052602160045260246000fd5b021790555060008160060160009054906101000a900473ffffffffffffffffffffffffffffffffffffffff1673ffffffffffffffffffffffffffffffffffffffff1660015483600701546141439190615acc565b60405161414f9061545b565b60006040518083038185875af1925050503d806000811461418c576040519150601f19603f3d011682016040523d82523d6000602084013e614191565b606091505b50509050806141d5576040517f08c379a00000000000000000000000000000000000000000000000000000000081526004016141cc906156a8565b60405180910390fd5b7f15a4a29eccf92a0bbf94f24a6840487aa0226f7fb02d3402f1f86b3360bdfc6a836003600460405161420a93929190615863565b60405180910390a1505050565b6000808281548110614252577f4e487b7100000000000000000000000000000000000000000000000000000000600052603260045260246000fd5b90600052602060002090600a0201905060008160060160146101000a81548160ff021916908360048111156142b0577f4e487b7100000000000000000000000000000000000000000000000000000000600052602160045260246000fd5b021790555060008160060160006101000a81548173ffffffffffffffffffffffffffffffffffffffff021916908373ffffffffffffffffffffffffffffffffffffffff160217905550600081600801819055506000816009018190555060026000838152602001908152602001600020600061432c919061442b565b7f15a4a29eccf92a0bbf94f24a6840487aa0226f7fb02d3402f1f86b3360bdfc6a826003600060405161436193929190615863565b60405180910390a15050565b60405180610160016040528060008152602001606081526020016060815260200160008152602001600073ffffffffffffffffffffffffffffffffffffffff16815260200160608152602001600073ffffffffffffffffffffffffffffffffffffffff16815260200160006004811115614410577f4e487b7100000000000000000000000000000000000000000000000000000000600052602160045260246000fd5b81526020016000815260200160008152602001600081525090565b5080546000825590600052602060002090810190614449919061467b565b50565b82805461445890615c36565b90600052602060002090601f01602090048101928261447a57600085556144c8565b82601f1061448b57805485556144c8565b828001600101855582156144c857600052602060002091601f016020900482015b828111156144c75782548255916001019190600101906144ac565b5b5090506144d5919061467b565b5090565b82805482825590600052602060002090810192821561451a5760005260206000209182015b828111156145195782548255916001019190600101906144fe565b5b509050614527919061467b565b5090565b50805461453790615c36565b6000825580601f106145495750614568565b601f016020900490600052602060002090810190614567919061467b565b5b50565b82805461457790615c36565b90600052602060002090601f01602090048101928261459957600085556145e0565b82601f106145b257805160ff19168380011785556145e0565b828001600101855582156145e0579182015b828111156145df5782518255916020019190600101906145c4565b5b5090506145ed919061467b565b5090565b82805482825590600052602060002090810192821561466a579160200282015b828111156146695782518260006101000a81548173ffffffffffffffffffffffffffffffffffffffff021916908373ffffffffffffffffffffffffffffffffffffffff16021790555091602001919060010190614611565b5b509050614677919061467b565b5090565b5b8082111561469457600081600090555060010161467c565b5090565b60006146ab6146a6846159f2565b6159c1565b9050828152602081018484840111156146c357600080fd5b6146ce848285615bf4565b509392505050565b6000813590506146e581615dc1565b92915050565b6000813590506146fa81615dd8565b92915050565b60008135905061470f81615def565b92915050565b600082601f83011261472657600080fd5b8135614736848260208601614698565b91505092915050565b60008135905061474e81615dff565b92915050565b60006020828403121561476657600080fd5b6000614774848285016146d6565b91505092915050565b60006020828403121561478f57600080fd5b600061479d84828501614700565b91505092915050565b600080600080608085870312156147bc57600080fd5b600085013567ffffffffffffffff8111156147d657600080fd5b6147e287828801614715565b945050602085013567ffffffffffffffff8111156147ff57600080fd5b61480b87828801614715565b935050604061481c8782880161473f565b925050606061482d8782880161473f565b91505092959194509250565b60006020828403121561484b57600080fd5b60006148598482850161473f565b91505092915050565b6000806040838503121561487557600080fd5b60006148838582860161473f565b9250506020614894858286016146d6565b9150509250929050565b600080604083850312156148b157600080fd5b60006148bf8582860161473f565b92505060206148d0858286016146eb565b9150509250929050565b600080604083850312156148ed57600080fd5b60006148fb8582860161473f565b925050602061490c8582860161473f565b9150509250929050565b60006149228383614942565b60208301905092915050565b600061493a8383615340565b905092915050565b61494b81615b87565b82525050565b61495a81615b87565b82525050565b600061496b82615a42565b6149758185615a7d565b935061498083615a22565b8060005b838110156149b15781516149988882614916565b97506149a383615a63565b925050600181019050614984565b5085935050505092915050565b60006149c982615a4d565b6149d38185615a8e565b9350836020820285016149e585615a32565b8060005b85811015614a215784840389528151614a02858261492e565b9450614a0d83615a70565b925060208a019950506001810190506149e9565b50829750879550505050505092915050565b614a3c81615b99565b82525050565b614a4b81615be2565b82525050565b614a5a81615be2565b82525050565b6000614a6b82615a58565b614a758185615aaa565b9350614a85818560208601615c03565b614a8e81615d9c565b840191505092915050565b6000614aa482615a58565b614aae8185615abb565b9350614abe818560208601615c03565b614ac781615d9c565b840191505092915050565b6000614adf602883615abb565b91507f566572696669636174696f6e2066656520726566756e6420746f20636c69656e60008301527f74206661696c65640000000000000000000000000000000000000000000000006020830152604082019050919050565b6000614b45601283615abb565b91507f496e636f7272656374204554482073656e7400000000000000000000000000006000830152602082019050919050565b6000614b85601383615abb565b91507f50726f6a656374206973206e6f74206f70656e000000000000000000000000006000830152602082019050919050565b6000614bc5601a83615abb565b91507f496e636f727265637420766572696669636174696f6e206665650000000000006000830152602082019050919050565b6000614c05603083615abb565b91507f56657269666965722063616e6e6f742062652070726f6a65637420637265617460008301527f6f72206f7220667265656c616e636572000000000000000000000000000000006020830152604082019050919050565b6000614c6b602483615abb565b91507f50726f6a656374206d7573742062652077616974696e6720666f72206170707260008301527f6f76616c000000000000000000000000000000000000000000000000000000006020830152604082019050919050565b6000614cd1602f83615abb565b91507f4f6e6c79207468652070726f6a6563742063726561746f722063616e2061707060008301527f726f766520636f6d706c6574696f6e00000000000000000000000000000000006020830152604082019050919050565b6000614d37601a83615abb565b91507f50726f6a656374206d75737420626520696e20646973707574650000000000006000830152602082019050919050565b6000614d77602183615abb565b91507f466565207472616e7366657220746f20667265656c616e636572206661696c6560008301527f64000000000000000000000000000000000000000000000000000000000000006020830152604082019050919050565b6000614ddd602183615abb565b91507f43726561746f722063616e6e6f7420616363657074206f776e2070726f6a656360008301527f74000000000000000000000000000000000000000000000000000000000000006020830152604082019050919050565b6000614e43602683615abb565b91507f526566756e6420746f20756e73656c656374656420667265656c616e6365722060008301527f6661696c656400000000000000000000000000000000000000000000000000006020830152604082019050919050565b6000614ea9602883615abb565b91507f467265656c616e63657220686173206e6f74206163636570746564207468697360008301527f2070726f6a6563740000000000000000000000000000000000000000000000006020830152604082019050919050565b6000614f0f603183615abb565b91507f4f6e6c792074686520667265656c616e6365722063616e206d61726b2070726f60008301527f6a65637420617320636f6d706c657465640000000000000000000000000000006020830152604082019050919050565b6000614f75602f83615abb565b91507f4f6e6c79207468652070726f6a6563742063726561746f722063616e2064697360008301527f7075746520636f6d706c6574696f6e00000000000000000000000000000000006020830152604082019050919050565b6000614fdb602c83615abb565b91507f467265656c616e6365722068617320616c72656164792061636365707465642060008301527f746869732070726f6a65637400000000000000000000000000000000000000006020830152604082019050919050565b6000615041601983615abb565b91507f467265656c616e636572207061796d656e74206661696c6564000000000000006000830152602082019050919050565b6000615081600083615a9f565b9150600082019050919050565b600061509b602c83615abb565b91507f4f6e6c792070726f6a6563742063726561746f722063616e2073656c6563742060008301527f6120667265656c616e63657200000000000000000000000000000000000000006020830152604082019050919050565b6000615101602f83615abb565b91507f4f6e6c79207468652070726f6a6563742063726561746f722063616e2072656d60008301527f6f7665207468652070726f6a65637400000000000000000000000000000000006020830152604082019050919050565b6000615167601b83615abb565b91507f526566756e6420746f20667265656c616e636572206661696c656400000000006000830152602082019050919050565b60006151a7602183615abb565b91507f4f6e6c79206f70656e2070726f6a656374732063616e2062652072656d6f766560008301527f64000000000000000000000000000000000000000000000000000000000000006020830152604082019050919050565b600061520d601a83615abb565b91507f56657269666965722068617320616c726561647920766f7465640000000000006000830152602082019050919050565b600061524d601683615abb565b91507f526566756e64207472616e73666572206661696c6564000000000000000000006000830152602082019050919050565b600061528d601683615abb565b91507f50726f6a65637420646f6573206e6f74206578697374000000000000000000006000830152602082019050919050565b60006152cd601f83615abb565b91507f566572696669657220726577617264207472616e73666572206661696c6564006000830152602082019050919050565b600061530d601b83615abb565b91507f50726f6a656374206d75737420626520696e2070726f677265737300000000006000830152602082019050919050565b600061016083016000830151615359600086018261543d565b50602083015184820360208601526153718282614a60565b9150506040830151848203604086015261538b8282614a60565b91505060608301516153a0606086018261543d565b5060808301516153b36080860182614942565b5060a083015184820360a08601526153cb8282614960565b91505060c08301516153e060c0860182614942565b5060e08301516153f360e0860182614a42565b5061010083015161540861010086018261543d565b5061012083015161541d61012086018261543d565b5061014083015161543261014086018261543d565b508091505092915050565b61544681615bd8565b82525050565b61545581615bd8565b82525050565b600061546682615074565b9150819050919050565b60006020820190506154856000830184614951565b92915050565b600060208201905081810360008301526154a581846149be565b905092915050565b60006020820190506154c26000830184614a33565b92915050565b600060208201905081810360008301526154e181614ad2565b9050919050565b6000602082019050818103600083015261550181614b38565b9050919050565b6000602082019050818103600083015261552181614b78565b9050919050565b6000602082019050818103600083015261554181614bb8565b9050919050565b6000602082019050818103600083015261556181614bf8565b9050919050565b6000602082019050818103600083015261558181614c5e565b9050919050565b600060208201905081810360008301526155a181614cc4565b9050919050565b600060208201905081810360008301526155c181614d2a565b9050919050565b600060208201905081810360008301526155e181614d6a565b9050919050565b6000602082019050818103600083015261560181614dd0565b9050919050565b6000602082019050818103600083015261562181614e36565b9050919050565b6000602082019050818103600083015261564181614e9c565b9050919050565b6000602082019050818103600083015261566181614f02565b9050919050565b6000602082019050818103600083015261568181614f68565b9050919050565b600060208201905081810360008301526156a181614fce565b9050919050565b600060208201905081810360008301526156c181615034565b9050919050565b600060208201905081810360008301526156e18161508e565b9050919050565b60006020820190508181036000830152615701816150f4565b9050919050565b600060208201905081810360008301526157218161515a565b9050919050565b600060208201905081810360008301526157418161519a565b9050919050565b6000602082019050818103600083015261576181615200565b9050919050565b6000602082019050818103600083015261578181615240565b9050919050565b600060208201905081810360008301526157a181615280565b9050919050565b600060208201905081810360008301526157c1816152c0565b9050919050565b600060208201905081810360008301526157e181615300565b9050919050565b60006020820190506157fd600083018461544c565b92915050565b6000604082019050615818600083018561544c565b6158256020830184614951565b9392505050565b6000606082019050615841600083018661544c565b61584e6020830185614951565b61585b6040830184614a33565b949350505050565b6000606082019050615878600083018661544c565b6158856020830185614a51565b6158926040830184614a51565b949350505050565b6000610140820190506158b0600083018d61544c565b81810360208301526158c2818c614a99565b905081810360408301526158d6818b614a99565b90506158e5606083018a61544c565b6158f26080830189614951565b6158ff60a0830188614951565b61590c60c0830187614a51565b61591960e083018661544c565b61592761010083018561544c565b61593561012083018461544c565b9b9a5050505050505050505050565b600060e082019050615959600083018a61544c565b818103602083015261596b8189614a99565b9050818103604083015261597f8188614a99565b905061598e606083018761544c565b61599b6080830186614951565b6159a860a0830185614a51565b6159b560c083018461544c565b98975050505050505050565b6000604051905081810181811067ffffffffffffffff821117156159e8576159e7615d6d565b5b8060405250919050565b600067ffffffffffffffff821115615a0d57615a0c615d6d565b5b601f19601f8301169050602081019050919050565b6000819050602082019050919050565b6000819050602082019050919050565b600081519050919050565b600081519050919050565b600081519050919050565b6000602082019050919050565b6000602082019050919050565b600082825260208201905092915050565b600082825260208201905092915050565b600081905092915050565b600082825260208201905092915050565b600082825260208201905092915050565b6000615ad782615bd8565b9150615ae283615bd8565b9250827fffffffffffffffffffffffffffffffffffffffffffffffffffffffffffffffff03821115615b1757615b16615cb1565b5b828201905092915050565b6000615b2d82615bd8565b9150615b3883615bd8565b925082615b4857615b47615ce0565b5b828204905092915050565b6000615b5e82615bd8565b9150615b6983615bd8565b925082821015615b7c57615b7b615cb1565b5b828203905092915050565b6000615b9282615bb8565b9050919050565b60008115159050919050565b6000819050615bb382615dad565b919050565b600073ffffffffffffffffffffffffffffffffffffffff82169050919050565b6000819050919050565b6000615bed82615ba5565b9050919050565b82818337600083830152505050565b60005b83811015615c21578082015181840152602081019050615c06565b83811115615c30576000848401525b50505050565b60006002820490506001821680615c4e57607f821691505b60208210811415615c6257615c61615d3e565b5b50919050565b6000615c7382615bd8565b91507fffffffffffffffffffffffffffffffffffffffffffffffffffffffffffffffff821415615ca657615ca5615cb1565b5b600182019050919050565b7f4e487b7100000000000000000000000000000000000000000000000000000000600052601160045260246000fd5b7f4e487b7100000000000000000000000000000000000000000000000000000000600052601260045260246000fd5b7f4e487b7100000000000000000000000000000000000000000000000000000000600052602160045260246000fd5b7f4e487b7100000000000000000000000000000000000000000000000000000000600052602260045260246000fd5b7f4e487b7100000000000000000000000000000000000000000000000000000000600052604160045260246000fd5b6000601f19601f8301169050919050565b60058110615dbe57615dbd615d0f565b5b50565b615dca81615b87565b8114615dd557600080fd5b50565b615de181615b99565b8114615dec57600080fd5b50565b60058110615dfc57600080fd5b50565b615e0881615bd8565b8114615e1357600080fd5b5056fea2646970667358221220d0b8e48f0762a3b2838ebeea985ad6547caab203098f325abf9ecfa5e095493f64736f6c63430008000033",
  "linkReferences": {},
  "deployedLinkReferences": {}
}