{
  "_format": "hh-sol-artifact-1",
  "contractName": "ProjectManager",
  "sourceName": "contracts/ProjectManager.sol",
  "abi": [
    {
      "anonymous": false,
      "inputs": [
        {
          "indexed": false,
          "internalType": "uint256",
          "name": "projectId",
          "type": "uint256"
        },
        {
          "indexed": false,
          "internalType": "string",
          "name": "name",
          "type": "string"
        },
        {
          "indexed": false,
          "internalType": "string",
          "name": "description",
          "type": "string"
        },
        {
          "indexed": false,
          "internalType": "uint256",
          "name": "timestamp",
          "type": "uint256"
        },
        {
          "indexed": false,
          "internalType": "address",
          "name": "creator",
          "type": "address"
        },
        {
          "indexed": false,
          "internalType": "enum ProjectManager.Status",
          "name": "status",
          "type": "uint8"
        },
        {
          "indexed": false,
          "internalType": "uint256",
          "name": "projectFee",
          "type": "uint256"
        }
      ],
      "name": "ProjectCreated",
      "type": "event"
    },
    {
      "anonymous": false,
      "inputs": [
        {
          "indexed": false,
          "internalType": "uint256",
          "name": "projectId",
          "type": "uint256"
        },
        {
          "indexed": false,
          "internalType": "address",
          "name": "creator",
          "type": "address"
        }
      ],
      "name": "ProjectRemoved",
      "type": "event"
    },
    {
      "anonymous": false,
      "inputs": [
        {
          "indexed": false,
          "internalType": "uint256",
          "name": "projectId",
          "type": "uint256"
        },
        {
          "indexed": false,
          "internalType": "enum ProjectManager.Status",
          "name": "oldStatus",
          "type": "uint8"
        },
        {
          "indexed": false,
          "internalType": "enum ProjectManager.Status",
          "name": "newStatus",
          "type": "uint8"
        }
      ],
      "name": "ProjectStatusUpdated",
      "type": "event"
    },
    {
      "inputs": [
        {
          "internalType": "uint256",
          "name": "_projectId",
          "type": "uint256"
        }
      ],
      "name": "acceptProject",
      "outputs": [],
      "stateMutability": "payable",
      "type": "function"
    },
    {
      "inputs": [
        {
          "internalType": "uint256",
          "name": "_projectId",
          "type": "uint256"
        }
      ],
      "name": "approveProjectCompletion",
      "outputs": [],
      "stateMutability": "nonpayable",
      "type": "function"
    },
    {
      "inputs": [
        {
          "internalType": "string",
          "name": "_name",
          "type": "string"
        },
        {
          "internalType": "string",
          "name": "_description",
          "type": "string"
        },
        {
          "internalType": "uint256",
          "name": "_timestamp",
          "type": "uint256"
        },
        {
          "internalType": "uint256",
          "name": "_projectFee",
          "type": "uint256"
        }
      ],
      "name": "createProject",
      "outputs": [],
      "stateMutability": "payable",
      "type": "function"
    },
    {
      "inputs": [
        {
          "internalType": "uint256",
          "name": "_projectId",
          "type": "uint256"
        }
      ],
      "name": "disputeProjectCompletion",
      "outputs": [],
      "stateMutability": "nonpayable",
      "type": "function"
    },
    {
      "inputs": [
        {
          "internalType": "address",
          "name": "_creator",
          "type": "address"
        }
      ],
      "name": "getProjectsByAddress",
      "outputs": [
        {
          "components": [
            {
              "internalType": "uint256",
              "name": "id",
              "type": "uint256"
            },
            {
              "internalType": "string",
              "name": "name",
              "type": "string"
            },
            {
              "internalType": "string",
              "name": "description",
              "type": "string"
            },
            {
              "internalType": "uint256",
              "name": "timestamp",
              "type": "uint256"
            },
            {
              "internalType": "address",
              "name": "creator",
              "type": "address"
            },
            {
              "internalType": "address",
              "name": "freelancer",
              "type": "address"
            },
            {
              "internalType": "enum ProjectManager.Status",
              "name": "status",
              "type": "uint8"
            },
            {
              "internalType": "uint256",
              "name": "projectFee",
              "type": "uint256"
            }
          ],
          "internalType": "struct ProjectManager.Project[]",
          "name": "",
          "type": "tuple[]"
        }
      ],
      "stateMutability": "view",
      "type": "function"
    },
    {
      "inputs": [
        {
          "internalType": "enum ProjectManager.Status",
          "name": "_status",
          "type": "uint8"
        }
      ],
      "name": "getProjectsByStatus",
      "outputs": [
        {
          "components": [
            {
              "internalType": "uint256",
              "name": "id",
              "type": "uint256"
            },
            {
              "internalType": "string",
              "name": "name",
              "type": "string"
            },
            {
              "internalType": "string",
              "name": "description",
              "type": "string"
            },
            {
              "internalType": "uint256",
              "name": "timestamp",
              "type": "uint256"
            },
            {
              "internalType": "address",
              "name": "creator",
              "type": "address"
            },
            {
              "internalType": "address",
              "name": "freelancer",
              "type": "address"
            },
            {
              "internalType": "enum ProjectManager.Status",
              "name": "status",
              "type": "uint8"
            },
            {
              "internalType": "uint256",
              "name": "projectFee",
              "type": "uint256"
            }
          ],
          "internalType": "struct ProjectManager.Project[]",
          "name": "",
          "type": "tuple[]"
        }
      ],
      "stateMutability": "view",
      "type": "function"
    },
    {
      "inputs": [
        {
          "internalType": "address",
          "name": "_freelancer",
          "type": "address"
        }
      ],
      "name": "getProjectsForFreelancer",
      "outputs": [
        {
          "components": [
            {
              "internalType": "uint256",
              "name": "id",
              "type": "uint256"
            },
            {
              "internalType": "string",
              "name": "name",
              "type": "string"
            },
            {
              "internalType": "string",
              "name": "description",
              "type": "string"
            },
            {
              "internalType": "uint256",
              "name": "timestamp",
              "type": "uint256"
            },
            {
              "internalType": "address",
              "name": "creator",
              "type": "address"
            },
            {
              "internalType": "address",
              "name": "freelancer",
              "type": "address"
            },
            {
              "internalType": "enum ProjectManager.Status",
              "name": "status",
              "type": "uint8"
            },
            {
              "internalType": "uint256",
              "name": "projectFee",
              "type": "uint256"
            }
          ],
          "internalType": "struct ProjectManager.Project[]",
          "name": "",
          "type": "tuple[]"
        }
      ],
      "stateMutability": "view",
      "type": "function"
    },
    {
      "inputs": [
        {
          "internalType": "uint256",
          "name": "_projectId",
          "type": "uint256"
        }
      ],
      "name": "markProjectAsCompleted",
      "outputs": [],
      "stateMutability": "nonpayable",
      "type": "function"
    },
    {
      "inputs": [
        {
          "internalType": "uint256",
          "name": "",
          "type": "uint256"
        }
      ],
      "name": "projects",
      "outputs": [
        {
          "internalType": "uint256",
          "name": "id",
          "type": "uint256"
        },
        {
          "internalType": "string",
          "name": "name",
          "type": "string"
        },
        {
          "internalType": "string",
          "name": "description",
          "type": "string"
        },
        {
          "internalType": "uint256",
          "name": "timestamp",
          "type": "uint256"
        },
        {
          "internalType": "address",
          "name": "creator",
          "type": "address"
        },
        {
          "internalType": "address",
          "name": "freelancer",
          "type": "address"
        },
        {
          "internalType": "enum ProjectManager.Status",
          "name": "status",
          "type": "uint8"
        },
        {
          "internalType": "uint256",
          "name": "projectFee",
          "type": "uint256"
        }
      ],
      "stateMutability": "view",
      "type": "function"
    },
    {
      "inputs": [
        {
          "internalType": "uint256",
          "name": "_projectId",
          "type": "uint256"
        }
      ],
      "name": "rejectProjectCompletion",
      "outputs": [],
      "stateMutability": "nonpayable",
      "type": "function"
    },
    {
      "inputs": [
        {
          "internalType": "uint256",
          "name": "_projectId",
          "type": "uint256"
        }
      ],
      "name": "removeProject",
      "outputs": [],
      "stateMutability": "nonpayable",
      "type": "function"
    },
    {
      "inputs": [],
      "name": "verificationFee",
      "outputs": [
        {
          "internalType": "uint256",
          "name": "",
          "type": "uint256"
        }
      ],
      "stateMutability": "view",
      "type": "function"
    },
    {
      "inputs": [
        {
          "internalType": "uint256",
          "name": "_projectId",
          "type": "uint256"
        }
      ],
      "name": "verifyProjectCompletion",
      "outputs": [],
      "stateMutability": "nonpayable",
      "type": "function"
    }
  ],
  "bytecode": "0x6080604052660110d9316ec00060015534801561001b57600080fd5b506147a28061002b6000396000f3fe6080604052600436106100c25760003560e01c8063919b725a1161007f578063c03fea0f11610059578063c03fea0f14610270578063d5842c8b14610299578063f57ad8cc146102d6578063fd1d5ea9146102ff576100c2565b8063919b725a146101ec57806394ba970914610229578063a8c278a214610245576100c2565b8063107046bd146100c757806312a4e33f1461010b5780631aa22bba146101345780633bd09de0146101715780635873f9981461019a578063720413d1146101c3575b600080fd5b3480156100d357600080fd5b506100ee60048036038101906100e991906136cd565b61031b565b60405161010298979695949392919061426a565b60405180910390f35b34801561011757600080fd5b50610132600480360381019061012d91906136cd565b6104d0565b005b34801561014057600080fd5b5061015b60048036038101906101569190613611565b610901565b6040516101689190613f6d565b60405180910390f35b34801561017d57600080fd5b50610198600480360381019061019391906136cd565b610ea1565b005b3480156101a657600080fd5b506101c160048036038101906101bc91906136cd565b61127f565b005b3480156101cf57600080fd5b506101ea60048036038101906101e591906136cd565b6118ef565b005b3480156101f857600080fd5b50610213600480360381019061020e91906135e8565b611b6b565b6040516102209190613f6d565b60405180910390f35b610243600480360381019061023e919061363a565b6120a9565b005b34801561025157600080fd5b5061025a612355565b60405161026791906141ef565b60405180910390f35b34801561027c57600080fd5b50610297600480360381019061029291906136cd565b61235b565b005b3480156102a557600080fd5b506102c060048036038101906102bb91906135e8565b6127d7565b6040516102cd9190613f6d565b60405180910390f35b3480156102e257600080fd5b506102fd60048036038101906102f891906136cd565b612d15565b005b610319600480360381019061031491906136cd565b612f91565b005b6000818154811061032b57600080fd5b9060005260206000209060070201600091509050806000015490806001018054610354906145a3565b80601f0160208091040260200160405190810160405280929190818152602001828054610380906145a3565b80156103cd5780601f106103a2576101008083540402835291602001916103cd565b820191906000526020600020905b8154815290600101906020018083116103b057829003601f168201915b5050505050908060020180546103e2906145a3565b80601f016020809104026020016040519081016040528092919081815260200182805461040e906145a3565b801561045b5780601f106104305761010080835404028352916020019161045b565b820191906000526020600020905b81548152906001019060200180831161043e57829003601f168201915b5050505050908060030154908060040160009054906101000a900473ffffffffffffffffffffffffffffffffffffffff16908060050160009054906101000a900473ffffffffffffffffffffffffffffffffffffffff16908060050160149054906101000a900460ff16908060060154905088565b6000805490508110610517576040517f08c379a000000000000000000000000000000000000000000000000000000000815260040161050e906141af565b60405180910390fd5b6000808281548110610552577f4e487b7100000000000000000000000000000000000000000000000000000000600052603260045260246000fd5b906000526020600020906007020190508060040160009054906101000a900473ffffffffffffffffffffffffffffffffffffffff1673ffffffffffffffffffffffffffffffffffffffff163373ffffffffffffffffffffffffffffffffffffffff16146105f4576040517f08c379a00000000000000000000000000000000000000000000000000000000081526004016105eb9061406f565b60405180910390fd5b6002600481111561062e577f4e487b7100000000000000000000000000000000000000000000000000000000600052602160045260246000fd5b8160050160149054906101000a900460ff166004811115610678577f4e487b7100000000000000000000000000000000000000000000000000000000600052602160045260246000fd5b146106b8576040517f08c379a00000000000000000000000000000000000000000000000000000000081526004016106af9061402f565b60405180910390fd5b60048160050160146101000a81548160ff02191690836004811115610706577f4e487b7100000000000000000000000000000000000000000000000000000000600052602160045260246000fd5b021790555060008160050160009054906101000a900473ffffffffffffffffffffffffffffffffffffffff1673ffffffffffffffffffffffffffffffffffffffff16600154836006015461075a9190614445565b60405161076690613f58565b60006040518083038185875af1925050503d80600081146107a3576040519150601f19603f3d011682016040523d82523d6000602084013e6107a8565b606091505b50509050806107ec576040517f08c379a00000000000000000000000000000000000000000000000000000000081526004016107e3906140af565b60405180910390fd5b60008260040160009054906101000a900473ffffffffffffffffffffffffffffffffffffffff1673ffffffffffffffffffffffffffffffffffffffff1660015460405161083890613f58565b60006040518083038185875af1925050503d8060008114610875576040519150601f19603f3d011682016040523d82523d6000602084013e61087a565b606091505b50509050806108be576040517f08c379a00000000000000000000000000000000000000000000000000000000081526004016108b590613f8f565b60405180910390fd5b7f15a4a29eccf92a0bbf94f24a6840487aa0226f7fb02d3402f1f86b3360bdfc6a84600260046040516108f393929190614233565b60405180910390a150505050565b60606000805b600080549050811015610a065783600481111561094d577f4e487b7100000000000000000000000000000000000000000000000000000000600052602160045260246000fd5b60008281548110610987577f4e487b7100000000000000000000000000000000000000000000000000000000600052603260045260246000fd5b906000526020600020906007020160050160149054906101000a900460ff1660048111156109de577f4e487b7100000000000000000000000000000000000000000000000000000000600052602160045260246000fd5b14156109f35781806109ef906145d5565b9250505b80806109fe906145d5565b915050610907565b5060008167ffffffffffffffff811115610a49577f4e487b7100000000000000000000000000000000000000000000000000000000600052604160045260246000fd5b604051908082528060200260200182016040528015610a8257816020015b610a6f613328565b815260200190600190039081610a675790505b5090506000805b600080549050811015610e9557856004811115610acf577f4e487b7100000000000000000000000000000000000000000000000000000000600052602160045260246000fd5b60008281548110610b09577f4e487b7100000000000000000000000000000000000000000000000000000000600052603260045260246000fd5b906000526020600020906007020160050160149054906101000a900460ff166004811115610b60577f4e487b7100000000000000000000000000000000000000000000000000000000600052602160045260246000fd5b1415610e825760008181548110610ba0577f4e487b7100000000000000000000000000000000000000000000000000000000600052603260045260246000fd5b90600052602060002090600702016040518061010001604052908160008201548152602001600182018054610bd4906145a3565b80601f0160208091040260200160405190810160405280929190818152602001828054610c00906145a3565b8015610c4d5780601f10610c2257610100808354040283529160200191610c4d565b820191906000526020600020905b815481529060010190602001808311610c3057829003601f168201915b50505050508152602001600282018054610c66906145a3565b80601f0160208091040260200160405190810160405280929190818152602001828054610c92906145a3565b8015610cdf5780601f10610cb457610100808354040283529160200191610cdf565b820191906000526020600020905b815481529060010190602001808311610cc257829003601f168201915b50505050508152602001600382015481526020016004820160009054906101000a900473ffffffffffffffffffffffffffffffffffffffff1673ffffffffffffffffffffffffffffffffffffffff1673ffffffffffffffffffffffffffffffffffffffff1681526020016005820160009054906101000a900473ffffffffffffffffffffffffffffffffffffffff1673ffffffffffffffffffffffffffffffffffffffff1673ffffffffffffffffffffffffffffffffffffffff1681526020016005820160149054906101000a900460ff166004811115610de9577f4e487b7100000000000000000000000000000000000000000000000000000000600052602160045260246000fd5b6004811115610e21577f4e487b7100000000000000000000000000000000000000000000000000000000600052602160045260246000fd5b8152602001600682015481525050838381518110610e68577f4e487b7100000000000000000000000000000000000000000000000000000000600052603260045260246000fd5b60200260200101819052508180610e7e906145d5565b9250505b8080610e8d906145d5565b915050610a89565b50819350505050919050565b6000805490508110610ee8576040517f08c379a0000000000000000000000000000000000000000000000000000000008152600401610edf906141af565b60405180910390fd5b6000808281548110610f23577f4e487b7100000000000000000000000000000000000000000000000000000000600052603260045260246000fd5b906000526020600020906007020190508060040160009054906101000a900473ffffffffffffffffffffffffffffffffffffffff1673ffffffffffffffffffffffffffffffffffffffff163373ffffffffffffffffffffffffffffffffffffffff1614158015610fe357508060050160009054906101000a900473ffffffffffffffffffffffffffffffffffffffff1673ffffffffffffffffffffffffffffffffffffffff163373ffffffffffffffffffffffffffffffffffffffff1614155b611022576040517f08c379a00000000000000000000000000000000000000000000000000000000081526004016110199061400f565b60405180910390fd5b6003600481111561105c577f4e487b7100000000000000000000000000000000000000000000000000000000600052602160045260246000fd5b8160050160149054906101000a900460ff1660048111156110a6577f4e487b7100000000000000000000000000000000000000000000000000000000600052602160045260246000fd5b146110e6576040517f08c379a00000000000000000000000000000000000000000000000000000000081526004016110dd9061408f565b60405180910390fd5b60008160050160146101000a81548160ff02191690836004811115611134577f4e487b7100000000000000000000000000000000000000000000000000000000600052602160045260246000fd5b021790555060008160050160006101000a81548173ffffffffffffffffffffffffffffffffffffffff021916908373ffffffffffffffffffffffffffffffffffffffff1602179055506000600360015461118e919061449b565b905060003373ffffffffffffffffffffffffffffffffffffffff16826040516111b690613f58565b60006040518083038185875af1925050503d80600081146111f3576040519150601f19603f3d011682016040523d82523d6000602084013e6111f8565b606091505b505090508061123c576040517f08c379a00000000000000000000000000000000000000000000000000000000081526004016112339061404f565b60405180910390fd5b7f15a4a29eccf92a0bbf94f24a6840487aa0226f7fb02d3402f1f86b3360bdfc6a846003600060405161127193929190614233565b60405180910390a150505050565b60008054905081106112c6576040517f08c379a00000000000000000000000000000000000000000000000000000000081526004016112bd906141af565b60405180910390fd5b6000808281548110611301577f4e487b7100000000000000000000000000000000000000000000000000000000600052603260045260246000fd5b906000526020600020906007020190508060040160009054906101000a900473ffffffffffffffffffffffffffffffffffffffff1673ffffffffffffffffffffffffffffffffffffffff163373ffffffffffffffffffffffffffffffffffffffff16146113a3576040517f08c379a000000000000000000000000000000000000000000000000000000000815260040161139a9061414f565b60405180910390fd5b600060048111156113dd577f4e487b7100000000000000000000000000000000000000000000000000000000600052602160045260246000fd5b8160050160149054906101000a900460ff166004811115611427577f4e487b7100000000000000000000000000000000000000000000000000000000600052602160045260246000fd5b14611467576040517f08c379a000000000000000000000000000000000000000000000000000000000815260040161145e9061416f565b60405180910390fd5b6000600154826006015461147b9190614445565b9050600160008054905061148f91906144cc565b831461171957600060016000805490506114a991906144cc565b815481106114e0577f4e487b7100000000000000000000000000000000000000000000000000000000600052603260045260246000fd5b906000526020600020906007020160008481548110611528577f4e487b7100000000000000000000000000000000000000000000000000000000600052603260045260246000fd5b9060005260206000209060070201600082015481600001556001820181600101908054611554906145a3565b61155f9291906133d1565b506002820181600201908054611574906145a3565b61157f9291906133d1565b50600382015481600301556004820160009054906101000a900473ffffffffffffffffffffffffffffffffffffffff168160040160006101000a81548173ffffffffffffffffffffffffffffffffffffffff021916908373ffffffffffffffffffffffffffffffffffffffff1602179055506005820160009054906101000a900473ffffffffffffffffffffffffffffffffffffffff168160050160006101000a81548173ffffffffffffffffffffffffffffffffffffffff021916908373ffffffffffffffffffffffffffffffffffffffff1602179055506005820160149054906101000a900460ff168160050160146101000a81548160ff021916908360048111156116b6577f4e487b7100000000000000000000000000000000000000000000000000000000600052602160045260246000fd5b0217905550600682015481600601559050508260008481548110611703577f4e487b7100000000000000000000000000000000000000000000000000000000600052603260045260246000fd5b9060005260206000209060070201600001819055505b6000805480611751577f4e487b7100000000000000000000000000000000000000000000000000000000600052603160045260246000fd5b600190038181906000526020600020906007020160008082016000905560018201600061177e919061345e565b60028201600061178e919061345e565b60038201600090556004820160006101000a81549073ffffffffffffffffffffffffffffffffffffffff02191690556005820160006101000a81549073ffffffffffffffffffffffffffffffffffffffff02191690556005820160146101000a81549060ff021916905560068201600090555050905560003373ffffffffffffffffffffffffffffffffffffffff168260405161182a90613f58565b60006040518083038185875af1925050503d8060008114611867576040519150601f19603f3d011682016040523d82523d6000602084013e61186c565b606091505b50509050806118b0576040517f08c379a00000000000000000000000000000000000000000000000000000000081526004016118a79061418f565b60405180910390fd5b7fba1c16e049c7a348b951726f087bd968f9f40e6c64c8cf9ae55ed756ae62944084336040516118e192919061420a565b60405180910390a150505050565b6000805490508110611936576040517f08c379a000000000000000000000000000000000000000000000000000000000815260040161192d906141af565b60405180910390fd5b6000808281548110611971577f4e487b7100000000000000000000000000000000000000000000000000000000600052603260045260246000fd5b906000526020600020906007020190508060050160009054906101000a900473ffffffffffffffffffffffffffffffffffffffff1673ffffffffffffffffffffffffffffffffffffffff163373ffffffffffffffffffffffffffffffffffffffff1614611a13576040517f08c379a0000000000000000000000000000000000000000000000000000000008152600401611a0a906140ef565b60405180910390fd5b60016004811115611a4d577f4e487b7100000000000000000000000000000000000000000000000000000000600052602160045260246000fd5b8160050160149054906101000a900460ff166004811115611a97577f4e487b7100000000000000000000000000000000000000000000000000000000600052602160045260246000fd5b14611ad7576040517f08c379a0000000000000000000000000000000000000000000000000000000008152600401611ace906141cf565b60405180910390fd5b60028160050160146101000a81548160ff02191690836004811115611b25577f4e487b7100000000000000000000000000000000000000000000000000000000600052602160045260246000fd5b02179055507f15a4a29eccf92a0bbf94f24a6840487aa0226f7fb02d3402f1f86b3360bdfc6a8260016002604051611b5f93929190614233565b60405180910390a15050565b60606000805b600080549050811015611c3f578373ffffffffffffffffffffffffffffffffffffffff1660008281548110611bcf577f4e487b7100000000000000000000000000000000000000000000000000000000600052603260045260246000fd5b906000526020600020906007020160050160009054906101000a900473ffffffffffffffffffffffffffffffffffffffff1673ffffffffffffffffffffffffffffffffffffffff161415611c2c578180611c28906145d5565b9250505b8080611c37906145d5565b915050611b71565b5060008167ffffffffffffffff811115611c82577f4e487b7100000000000000000000000000000000000000000000000000000000600052604160045260246000fd5b604051908082528060200260200182016040528015611cbb57816020015b611ca8613328565b815260200190600190039081611ca05790505b5090506000805b60008054905081101561209d578573ffffffffffffffffffffffffffffffffffffffff1660008281548110611d20577f4e487b7100000000000000000000000000000000000000000000000000000000600052603260045260246000fd5b906000526020600020906007020160050160009054906101000a900473ffffffffffffffffffffffffffffffffffffffff1673ffffffffffffffffffffffffffffffffffffffff16141561208a5760008181548110611da8577f4e487b7100000000000000000000000000000000000000000000000000000000600052603260045260246000fd5b90600052602060002090600702016040518061010001604052908160008201548152602001600182018054611ddc906145a3565b80601f0160208091040260200160405190810160405280929190818152602001828054611e08906145a3565b8015611e555780601f10611e2a57610100808354040283529160200191611e55565b820191906000526020600020905b815481529060010190602001808311611e3857829003601f168201915b50505050508152602001600282018054611e6e906145a3565b80601f0160208091040260200160405190810160405280929190818152602001828054611e9a906145a3565b8015611ee75780601f10611ebc57610100808354040283529160200191611ee7565b820191906000526020600020905b815481529060010190602001808311611eca57829003601f168201915b50505050508152602001600382015481526020016004820160009054906101000a900473ffffffffffffffffffffffffffffffffffffffff1673ffffffffffffffffffffffffffffffffffffffff1673ffffffffffffffffffffffffffffffffffffffff1681526020016005820160009054906101000a900473ffffffffffffffffffffffffffffffffffffffff1673ffffffffffffffffffffffffffffffffffffffff1673ffffffffffffffffffffffffffffffffffffffff1681526020016005820160149054906101000a900460ff166004811115611ff1577f4e487b7100000000000000000000000000000000000000000000000000000000600052602160045260246000fd5b6004811115612029577f4e487b7100000000000000000000000000000000000000000000000000000000600052602160045260246000fd5b8152602001600682015481525050838381518110612070577f4e487b7100000000000000000000000000000000000000000000000000000000600052603260045260246000fd5b60200260200101819052508180612086906145d5565b9250505b8080612095906145d5565b915050611cc2565b50819350505050919050565b600154816120b79190614445565b34146120f8576040517f08c379a00000000000000000000000000000000000000000000000000000000081526004016120ef90613faf565b60405180910390fd5b60008080549050905060006040518061010001604052808381526020018781526020018681526020018581526020013373ffffffffffffffffffffffffffffffffffffffff168152602001600073ffffffffffffffffffffffffffffffffffffffff1681526020016000600481111561219a577f4e487b7100000000000000000000000000000000000000000000000000000000600052602160045260246000fd5b81526020018481525090806001815401808255809150506001900390600052602060002090600702016000909190919091506000820151816000015560208201518160010190805190602001906121f292919061349e565b50604082015181600201908051906020019061220f92919061349e565b506060820151816003015560808201518160040160006101000a81548173ffffffffffffffffffffffffffffffffffffffff021916908373ffffffffffffffffffffffffffffffffffffffff16021790555060a08201518160050160006101000a81548173ffffffffffffffffffffffffffffffffffffffff021916908373ffffffffffffffffffffffffffffffffffffffff16021790555060c08201518160050160146101000a81548160ff021916908360048111156122f9577f4e487b7100000000000000000000000000000000000000000000000000000000600052602160045260246000fd5b021790555060e0820151816006015550507f59efe781992d5ecfa36fc33ea75b2d74345c30fd2e5762bfe91d37159b149652818686863360008860405161234697969594939291906142f6565b60405180910390a15050505050565b60015481565b60008054905081106123a2576040517f08c379a0000000000000000000000000000000000000000000000000000000008152600401612399906141af565b60405180910390fd5b60008082815481106123dd577f4e487b7100000000000000000000000000000000000000000000000000000000600052603260045260246000fd5b906000526020600020906007020190508060040160009054906101000a900473ffffffffffffffffffffffffffffffffffffffff1673ffffffffffffffffffffffffffffffffffffffff163373ffffffffffffffffffffffffffffffffffffffff161415801561249d57508060050160009054906101000a900473ffffffffffffffffffffffffffffffffffffffff1673ffffffffffffffffffffffffffffffffffffffff163373ffffffffffffffffffffffffffffffffffffffff1614155b6124dc576040517f08c379a00000000000000000000000000000000000000000000000000000000081526004016124d39061400f565b60405180910390fd5b60036004811115612516577f4e487b7100000000000000000000000000000000000000000000000000000000600052602160045260246000fd5b8160050160149054906101000a900460ff166004811115612560577f4e487b7100000000000000000000000000000000000000000000000000000000600052602160045260246000fd5b146125a0576040517f08c379a00000000000000000000000000000000000000000000000000000000081526004016125979061408f565b60405180910390fd5b60048160050160146101000a81548160ff021916908360048111156125ee577f4e487b7100000000000000000000000000000000000000000000000000000000600052602160045260246000fd5b021790555060008160050160009054906101000a900473ffffffffffffffffffffffffffffffffffffffff1673ffffffffffffffffffffffffffffffffffffffff1660015483600601546126429190614445565b60405161264e90613f58565b60006040518083038185875af1925050503d806000811461268b576040519150601f19603f3d011682016040523d82523d6000602084013e612690565b606091505b50509050806126d4576040517f08c379a00000000000000000000000000000000000000000000000000000000081526004016126cb906140af565b60405180910390fd5b600060036001546126e5919061449b565b905060003373ffffffffffffffffffffffffffffffffffffffff168260405161270d90613f58565b60006040518083038185875af1925050503d806000811461274a576040519150601f19603f3d011682016040523d82523d6000602084013e61274f565b606091505b5050905080612793576040517f08c379a000000000000000000000000000000000000000000000000000000000815260040161278a9061404f565b60405180910390fd5b7f15a4a29eccf92a0bbf94f24a6840487aa0226f7fb02d3402f1f86b3360bdfc6a85600360046040516127c893929190614233565b60405180910390a15050505050565b60606000805b6000805490508110156128ab578373ffffffffffffffffffffffffffffffffffffffff166000828154811061283b577f4e487b7100000000000000000000000000000000000000000000000000000000600052603260045260246000fd5b906000526020600020906007020160040160009054906101000a900473ffffffffffffffffffffffffffffffffffffffff1673ffffffffffffffffffffffffffffffffffffffff161415612898578180612894906145d5565b9250505b80806128a3906145d5565b9150506127dd565b5060008167ffffffffffffffff8111156128ee577f4e487b7100000000000000000000000000000000000000000000000000000000600052604160045260246000fd5b60405190808252806020026020018201604052801561292757816020015b612914613328565b81526020019060019003908161290c5790505b5090506000805b600080549050811015612d09578573ffffffffffffffffffffffffffffffffffffffff166000828154811061298c577f4e487b7100000000000000000000000000000000000000000000000000000000600052603260045260246000fd5b906000526020600020906007020160040160009054906101000a900473ffffffffffffffffffffffffffffffffffffffff1673ffffffffffffffffffffffffffffffffffffffff161415612cf65760008181548110612a14577f4e487b7100000000000000000000000000000000000000000000000000000000600052603260045260246000fd5b90600052602060002090600702016040518061010001604052908160008201548152602001600182018054612a48906145a3565b80601f0160208091040260200160405190810160405280929190818152602001828054612a74906145a3565b8015612ac15780601f10612a9657610100808354040283529160200191612ac1565b820191906000526020600020905b815481529060010190602001808311612aa457829003601f168201915b50505050508152602001600282018054612ada906145a3565b80601f0160208091040260200160405190810160405280929190818152602001828054612b06906145a3565b8015612b535780601f10612b2857610100808354040283529160200191612b53565b820191906000526020600020905b815481529060010190602001808311612b3657829003601f168201915b50505050508152602001600382015481526020016004820160009054906101000a900473ffffffffffffffffffffffffffffffffffffffff1673ffffffffffffffffffffffffffffffffffffffff1673ffffffffffffffffffffffffffffffffffffffff1681526020016005820160009054906101000a900473ffffffffffffffffffffffffffffffffffffffff1673ffffffffffffffffffffffffffffffffffffffff1673ffffffffffffffffffffffffffffffffffffffff1681526020016005820160149054906101000a900460ff166004811115612c5d577f4e487b7100000000000000000000000000000000000000000000000000000000600052602160045260246000fd5b6004811115612c95577f4e487b7100000000000000000000000000000000000000000000000000000000600052602160045260246000fd5b8152602001600682015481525050838381518110612cdc577f4e487b7100000000000000000000000000000000000000000000000000000000600052603260045260246000fd5b60200260200101819052508180612cf2906145d5565b9250505b8080612d01906145d5565b91505061292e565b50819350505050919050565b6000805490508110612d5c576040517f08c379a0000000000000000000000000000000000000000000000000000000008152600401612d53906141af565b60405180910390fd5b6000808281548110612d97577f4e487b7100000000000000000000000000000000000000000000000000000000600052603260045260246000fd5b906000526020600020906007020190508060040160009054906101000a900473ffffffffffffffffffffffffffffffffffffffff1673ffffffffffffffffffffffffffffffffffffffff163373ffffffffffffffffffffffffffffffffffffffff1614612e39576040517f08c379a0000000000000000000000000000000000000000000000000000000008152600401612e309061410f565b60405180910390fd5b60026004811115612e73577f4e487b7100000000000000000000000000000000000000000000000000000000600052602160045260246000fd5b8160050160149054906101000a900460ff166004811115612ebd577f4e487b7100000000000000000000000000000000000000000000000000000000600052602160045260246000fd5b14612efd576040517f08c379a0000000000000000000000000000000000000000000000000000000008152600401612ef49061402f565b60405180910390fd5b60038160050160146101000a81548160ff02191690836004811115612f4b577f4e487b7100000000000000000000000000000000000000000000000000000000600052602160045260246000fd5b02179055507f15a4a29eccf92a0bbf94f24a6840487aa0226f7fb02d3402f1f86b3360bdfc6a8260026003604051612f8593929190614233565b60405180910390a15050565b6000805490508110612fd8576040517f08c379a0000000000000000000000000000000000000000000000000000000008152600401612fcf906141af565b60405180910390fd5b6000808281548110613013577f4e487b7100000000000000000000000000000000000000000000000000000000600052603260045260246000fd5b906000526020600020906007020190508060040160009054906101000a900473ffffffffffffffffffffffffffffffffffffffff1673ffffffffffffffffffffffffffffffffffffffff163373ffffffffffffffffffffffffffffffffffffffff1614156130b6576040517f08c379a00000000000000000000000000000000000000000000000000000000081526004016130ad906140cf565b60405180910390fd5b600060048111156130f0577f4e487b7100000000000000000000000000000000000000000000000000000000600052602160045260246000fd5b8160050160149054906101000a900460ff16600481111561313a577f4e487b7100000000000000000000000000000000000000000000000000000000600052602160045260246000fd5b1461317a576040517f08c379a000000000000000000000000000000000000000000000000000000000815260040161317190613fcf565b60405180910390fd5b600073ffffffffffffffffffffffffffffffffffffffff168160050160009054906101000a900473ffffffffffffffffffffffffffffffffffffffff1673ffffffffffffffffffffffffffffffffffffffff161461320d576040517f08c379a00000000000000000000000000000000000000000000000000000000081526004016132049061412f565b60405180910390fd5b6001543414613251576040517f08c379a000000000000000000000000000000000000000000000000000000000815260040161324890613fef565b60405180910390fd5b338160050160006101000a81548173ffffffffffffffffffffffffffffffffffffffff021916908373ffffffffffffffffffffffffffffffffffffffff16021790555060018160050160146101000a81548160ff021916908360048111156132e2577f4e487b7100000000000000000000000000000000000000000000000000000000600052602160045260246000fd5b02179055507f15a4a29eccf92a0bbf94f24a6840487aa0226f7fb02d3402f1f86b3360bdfc6a826000600160405161331c93929190614233565b60405180910390a15050565b60405180610100016040528060008152602001606081526020016060815260200160008152602001600073ffffffffffffffffffffffffffffffffffffffff168152602001600073ffffffffffffffffffffffffffffffffffffffff168152602001600060048111156133c4577f4e487b7100000000000000000000000000000000000000000000000000000000600052602160045260246000fd5b8152602001600081525090565b8280546133dd906145a3565b90600052602060002090601f0160209004810192826133ff576000855561344d565b82601f10613410578054855561344d565b8280016001018555821561344d57600052602060002091601f016020900482015b8281111561344c578254825591600101919060010190613431565b5b50905061345a9190613524565b5090565b50805461346a906145a3565b6000825580601f1061347c575061349b565b601f01602090049060005260206000209081019061349a9190613524565b5b50565b8280546134aa906145a3565b90600052602060002090601f0160209004810192826134cc5760008555613513565b82601f106134e557805160ff1916838001178555613513565b82800160010185558215613513579182015b828111156135125782518255916020019190600101906134f7565b5b5090506135209190613524565b5090565b5b8082111561353d576000816000905550600101613525565b5090565b600061355461354f846143a4565b614373565b90508281526020810184848401111561356c57600080fd5b613577848285614561565b509392505050565b60008135905061358e8161472e565b92915050565b6000813590506135a381614745565b92915050565b600082601f8301126135ba57600080fd5b81356135ca848260208601613541565b91505092915050565b6000813590506135e281614755565b92915050565b6000602082840312156135fa57600080fd5b60006136088482850161357f565b91505092915050565b60006020828403121561362357600080fd5b600061363184828501613594565b91505092915050565b6000806000806080858703121561365057600080fd5b600085013567ffffffffffffffff81111561366a57600080fd5b613676878288016135a9565b945050602085013567ffffffffffffffff81111561369357600080fd5b61369f878288016135a9565b93505060406136b0878288016135d3565b92505060606136c1878288016135d3565b91505092959194509250565b6000602082840312156136df57600080fd5b60006136ed848285016135d3565b91505092915050565b60006137028383613e83565b905092915050565b61371381614500565b82525050565b61372281614500565b82525050565b6000613733826143e4565b61373d8185614407565b93508360208202850161374f856143d4565b8060005b8581101561378b578484038952815161376c85826136f6565b9450613777836143fa565b925060208a01995050600181019050613753565b50829750879550505050505092915050565b6137a68161454f565b82525050565b6137b58161454f565b82525050565b60006137c6826143ef565b6137d08185614423565b93506137e0818560208601614570565b6137e981614709565b840191505092915050565b60006137ff826143ef565b6138098185614434565b9350613819818560208601614570565b61382281614709565b840191505092915050565b600061383a602883614434565b91507f566572696669636174696f6e2066656520726566756e6420746f20636c69656e60008301527f74206661696c65640000000000000000000000000000000000000000000000006020830152604082019050919050565b60006138a0601283614434565b91507f496e636f7272656374204554482073656e7400000000000000000000000000006000830152602082019050919050565b60006138e0601383614434565b91507f50726f6a656374206973206e6f74206f70656e000000000000000000000000006000830152602082019050919050565b6000613920601a83614434565b91507f496e636f727265637420766572696669636174696f6e206665650000000000006000830152602082019050919050565b6000613960603083614434565b91507f56657269666965722063616e6e6f742062652070726f6a65637420637265617460008301527f6f72206f7220667265656c616e636572000000000000000000000000000000006020830152604082019050919050565b60006139c6602483614434565b91507f50726f6a656374206d7573742062652077616974696e6720666f72206170707260008301527f6f76616c000000000000000000000000000000000000000000000000000000006020830152604082019050919050565b6000613a2c601c83614434565b91507f566572696669657220666565207472616e73666572206661696c6564000000006000830152602082019050919050565b6000613a6c602f83614434565b91507f4f6e6c79207468652070726f6a6563742063726561746f722063616e2061707060008301527f726f766520636f6d706c6574696f6e00000000000000000000000000000000006020830152604082019050919050565b6000613ad2601a83614434565b91507f50726f6a656374206d75737420626520696e20646973707574650000000000006000830152602082019050919050565b6000613b12602183614434565b91507f466565207472616e7366657220746f20667265656c616e636572206661696c6560008301527f64000000000000000000000000000000000000000000000000000000000000006020830152604082019050919050565b6000613b78602183614434565b91507f43726561746f722063616e6e6f7420616363657074206f776e2070726f6a656360008301527f74000000000000000000000000000000000000000000000000000000000000006020830152604082019050919050565b6000613bde603183614434565b91507f4f6e6c792074686520667265656c616e6365722063616e206d61726b2070726f60008301527f6a65637420617320636f6d706c657465640000000000000000000000000000006020830152604082019050919050565b6000613c44602f83614434565b91507f4f6e6c79207468652070726f6a6563742063726561746f722063616e2064697360008301527f7075746520636f6d706c6574696f6e00000000000000000000000000000000006020830152604082019050919050565b6000613caa602083614434565b91507f50726f6a65637420616c726561647920686173206120667265656c616e6365726000830152602082019050919050565b6000613cea600083614418565b9150600082019050919050565b6000613d04602f83614434565b91507f4f6e6c79207468652070726f6a6563742063726561746f722063616e2072656d60008301527f6f7665207468652070726f6a65637400000000000000000000000000000000006020830152604082019050919050565b6000613d6a602183614434565b91507f4f6e6c79206f70656e2070726f6a656374732063616e2062652072656d6f766560008301527f64000000000000000000000000000000000000000000000000000000000000006020830152604082019050919050565b6000613dd0601683614434565b91507f526566756e64207472616e73666572206661696c6564000000000000000000006000830152602082019050919050565b6000613e10601683614434565b91507f50726f6a65637420646f6573206e6f74206578697374000000000000000000006000830152602082019050919050565b6000613e50601b83614434565b91507f50726f6a656374206d75737420626520696e2070726f677265737300000000006000830152602082019050919050565b600061010083016000830151613e9c6000860182613f3a565b5060208301518482036020860152613eb482826137bb565b91505060408301518482036040860152613ece82826137bb565b9150506060830151613ee36060860182613f3a565b506080830151613ef6608086018261370a565b5060a0830151613f0960a086018261370a565b5060c0830151613f1c60c086018261379d565b5060e0830151613f2f60e0860182613f3a565b508091505092915050565b613f4381614545565b82525050565b613f5281614545565b82525050565b6000613f6382613cdd565b9150819050919050565b60006020820190508181036000830152613f878184613728565b905092915050565b60006020820190508181036000830152613fa88161382d565b9050919050565b60006020820190508181036000830152613fc881613893565b9050919050565b60006020820190508181036000830152613fe8816138d3565b9050919050565b6000602082019050818103600083015261400881613913565b9050919050565b6000602082019050818103600083015261402881613953565b9050919050565b60006020820190508181036000830152614048816139b9565b9050919050565b6000602082019050818103600083015261406881613a1f565b9050919050565b6000602082019050818103600083015261408881613a5f565b9050919050565b600060208201905081810360008301526140a881613ac5565b9050919050565b600060208201905081810360008301526140c881613b05565b9050919050565b600060208201905081810360008301526140e881613b6b565b9050919050565b6000602082019050818103600083015261410881613bd1565b9050919050565b6000602082019050818103600083015261412881613c37565b9050919050565b6000602082019050818103600083015261414881613c9d565b9050919050565b6000602082019050818103600083015261416881613cf7565b9050919050565b6000602082019050818103600083015261418881613d5d565b9050919050565b600060208201905081810360008301526141a881613dc3565b9050919050565b600060208201905081810360008301526141c881613e03565b9050919050565b600060208201905081810360008301526141e881613e43565b9050919050565b60006020820190506142046000830184613f49565b92915050565b600060408201905061421f6000830185613f49565b61422c6020830184613719565b9392505050565b60006060820190506142486000830186613f49565b61425560208301856137ac565b61426260408301846137ac565b949350505050565b600061010082019050614280600083018b613f49565b8181036020830152614292818a6137f4565b905081810360408301526142a681896137f4565b90506142b56060830188613f49565b6142c26080830187613719565b6142cf60a0830186613719565b6142dc60c08301856137ac565b6142e960e0830184613f49565b9998505050505050505050565b600060e08201905061430b600083018a613f49565b818103602083015261431d81896137f4565b9050818103604083015261433181886137f4565b90506143406060830187613f49565b61434d6080830186613719565b61435a60a08301856137ac565b61436760c0830184613f49565b98975050505050505050565b6000604051905081810181811067ffffffffffffffff8211171561439a576143996146da565b5b8060405250919050565b600067ffffffffffffffff8211156143bf576143be6146da565b5b601f19601f8301169050602081019050919050565b6000819050602082019050919050565b600081519050919050565b600081519050919050565b6000602082019050919050565b600082825260208201905092915050565b600081905092915050565b600082825260208201905092915050565b600082825260208201905092915050565b600061445082614545565b915061445b83614545565b9250827fffffffffffffffffffffffffffffffffffffffffffffffffffffffffffffffff038211156144905761448f61461e565b5b828201905092915050565b60006144a682614545565b91506144b183614545565b9250826144c1576144c061464d565b5b828204905092915050565b60006144d782614545565b91506144e283614545565b9250828210156144f5576144f461461e565b5b828203905092915050565b600061450b82614525565b9050919050565b60008190506145208261471a565b919050565b600073ffffffffffffffffffffffffffffffffffffffff82169050919050565b6000819050919050565b600061455a82614512565b9050919050565b82818337600083830152505050565b60005b8381101561458e578082015181840152602081019050614573565b8381111561459d576000848401525b50505050565b600060028204905060018216806145bb57607f821691505b602082108114156145cf576145ce6146ab565b5b50919050565b60006145e082614545565b91507fffffffffffffffffffffffffffffffffffffffffffffffffffffffffffffffff8214156146135761461261461e565b5b600182019050919050565b7f4e487b7100000000000000000000000000000000000000000000000000000000600052601160045260246000fd5b7f4e487b7100000000000000000000000000000000000000000000000000000000600052601260045260246000fd5b7f4e487b7100000000000000000000000000000000000000000000000000000000600052602160045260246000fd5b7f4e487b7100000000000000000000000000000000000000000000000000000000600052602260045260246000fd5b7f4e487b7100000000000000000000000000000000000000000000000000000000600052604160045260246000fd5b6000601f19601f8301169050919050565b6005811061472b5761472a61467c565b5b50565b61473781614500565b811461474257600080fd5b50565b6005811061475257600080fd5b50565b61475e81614545565b811461476957600080fd5b5056fea26469706673582212204f7087918e8ba71e644bea6157259c788944721354487da39a51cf924442ab0164736f6c63430008000033",
  "linkReferences": {},
  "deployedLinkReferences": {}
}