{
  "_format": "hh-sol-artifact-1",
  "contractName": "ProjectManager",
  "sourceName": "contracts/ProjectManager.sol",
  "abi": [
    {
      "anonymous": false,
      "inputs": [
        {
          "indexed": false,
          "internalType": "uint256",
          "name": "projectId",
          "type": "uint256"
        },
        {
          "indexed": false,
          "internalType": "string",
          "name": "name",
          "type": "string"
        },
        {
          "indexed": false,
          "internalType": "string",
          "name": "description",
          "type": "string"
        },
        {
          "indexed": false,
          "internalType": "uint256",
          "name": "timestamp",
          "type": "uint256"
        },
        {
          "indexed": false,
          "internalType": "address",
          "name": "creator",
          "type": "address"
        },
        {
          "indexed": false,
          "internalType": "enum ProjectManager.Status",
          "name": "status",
          "type": "uint8"
        },
        {
          "indexed": false,
          "internalType": "uint256",
          "name": "projectFee",
          "type": "uint256"
        }
      ],
      "name": "ProjectCreated",
      "type": "event"
    },
    {
      "anonymous": false,
      "inputs": [
        {
          "indexed": false,
          "internalType": "uint256",
          "name": "projectId",
          "type": "uint256"
        },
        {
          "indexed": false,
          "internalType": "address",
          "name": "creator",
          "type": "address"
        }
      ],
      "name": "ProjectRemoved",
      "type": "event"
    },
    {
      "anonymous": false,
      "inputs": [
        {
          "indexed": false,
          "internalType": "uint256",
          "name": "projectId",
          "type": "uint256"
        },
        {
          "indexed": false,
          "internalType": "enum ProjectManager.Status",
          "name": "oldStatus",
          "type": "uint8"
        },
        {
          "indexed": false,
          "internalType": "enum ProjectManager.Status",
          "name": "newStatus",
          "type": "uint8"
        }
      ],
      "name": "ProjectStatusUpdated",
      "type": "event"
    },
    {
      "anonymous": false,
      "inputs": [
        {
          "indexed": false,
          "internalType": "uint256",
          "name": "projectId",
          "type": "uint256"
        },
        {
          "indexed": false,
          "internalType": "address",
          "name": "verifier",
          "type": "address"
        },
        {
          "indexed": false,
          "internalType": "bool",
          "name": "vote",
          "type": "bool"
        }
      ],
      "name": "VerifierVoted",
      "type": "event"
    },
    {
      "inputs": [],
      "name": "REQUIRED_VERIFIERS",
      "outputs": [
        {
          "internalType": "uint256",
          "name": "",
          "type": "uint256"
        }
      ],
      "stateMutability": "view",
      "type": "function"
    },
    {
      "inputs": [
        {
          "internalType": "uint256",
          "name": "_projectId",
          "type": "uint256"
        }
      ],
      "name": "acceptProject",
      "outputs": [],
      "stateMutability": "payable",
      "type": "function"
    },
    {
      "inputs": [
        {
          "internalType": "uint256",
          "name": "_projectId",
          "type": "uint256"
        }
      ],
      "name": "approveProjectCompletion",
      "outputs": [],
      "stateMutability": "nonpayable",
      "type": "function"
    },
    {
      "inputs": [
        {
          "internalType": "string",
          "name": "_name",
          "type": "string"
        },
        {
          "internalType": "string",
          "name": "_description",
          "type": "string"
        },
        {
          "internalType": "uint256",
          "name": "_timestamp",
          "type": "uint256"
        },
        {
          "internalType": "uint256",
          "name": "_projectFee",
          "type": "uint256"
        }
      ],
      "name": "createProject",
      "outputs": [],
      "stateMutability": "payable",
      "type": "function"
    },
    {
      "inputs": [
        {
          "internalType": "uint256",
          "name": "_projectId",
          "type": "uint256"
        }
      ],
      "name": "disputeProjectCompletion",
      "outputs": [],
      "stateMutability": "nonpayable",
      "type": "function"
    },
    {
      "inputs": [
        {
          "internalType": "address",
          "name": "_creator",
          "type": "address"
        }
      ],
      "name": "getProjectsByAddress",
      "outputs": [
        {
          "components": [
            {
              "internalType": "uint256",
              "name": "id",
              "type": "uint256"
            },
            {
              "internalType": "string",
              "name": "name",
              "type": "string"
            },
            {
              "internalType": "string",
              "name": "description",
              "type": "string"
            },
            {
              "internalType": "uint256",
              "name": "timestamp",
              "type": "uint256"
            },
            {
              "internalType": "address",
              "name": "creator",
              "type": "address"
            },
            {
              "internalType": "address",
              "name": "freelancer",
              "type": "address"
            },
            {
              "internalType": "enum ProjectManager.Status",
              "name": "status",
              "type": "uint8"
            },
            {
              "internalType": "uint256",
              "name": "projectFee",
              "type": "uint256"
            },
            {
              "internalType": "uint256",
              "name": "acceptVotes",
              "type": "uint256"
            },
            {
              "internalType": "uint256",
              "name": "rejectVotes",
              "type": "uint256"
            }
          ],
          "internalType": "struct ProjectManager.Project[]",
          "name": "",
          "type": "tuple[]"
        }
      ],
      "stateMutability": "view",
      "type": "function"
    },
    {
      "inputs": [
        {
          "internalType": "enum ProjectManager.Status",
          "name": "_status",
          "type": "uint8"
        }
      ],
      "name": "getProjectsByStatus",
      "outputs": [
        {
          "components": [
            {
              "internalType": "uint256",
              "name": "id",
              "type": "uint256"
            },
            {
              "internalType": "string",
              "name": "name",
              "type": "string"
            },
            {
              "internalType": "string",
              "name": "description",
              "type": "string"
            },
            {
              "internalType": "uint256",
              "name": "timestamp",
              "type": "uint256"
            },
            {
              "internalType": "address",
              "name": "creator",
              "type": "address"
            },
            {
              "internalType": "address",
              "name": "freelancer",
              "type": "address"
            },
            {
              "internalType": "enum ProjectManager.Status",
              "name": "status",
              "type": "uint8"
            },
            {
              "internalType": "uint256",
              "name": "projectFee",
              "type": "uint256"
            },
            {
              "internalType": "uint256",
              "name": "acceptVotes",
              "type": "uint256"
            },
            {
              "internalType": "uint256",
              "name": "rejectVotes",
              "type": "uint256"
            }
          ],
          "internalType": "struct ProjectManager.Project[]",
          "name": "",
          "type": "tuple[]"
        }
      ],
      "stateMutability": "view",
      "type": "function"
    },
    {
      "inputs": [
        {
          "internalType": "address",
          "name": "_freelancer",
          "type": "address"
        }
      ],
      "name": "getProjectsForFreelancer",
      "outputs": [
        {
          "components": [
            {
              "internalType": "uint256",
              "name": "id",
              "type": "uint256"
            },
            {
              "internalType": "string",
              "name": "name",
              "type": "string"
            },
            {
              "internalType": "string",
              "name": "description",
              "type": "string"
            },
            {
              "internalType": "uint256",
              "name": "timestamp",
              "type": "uint256"
            },
            {
              "internalType": "address",
              "name": "creator",
              "type": "address"
            },
            {
              "internalType": "address",
              "name": "freelancer",
              "type": "address"
            },
            {
              "internalType": "enum ProjectManager.Status",
              "name": "status",
              "type": "uint8"
            },
            {
              "internalType": "uint256",
              "name": "projectFee",
              "type": "uint256"
            },
            {
              "internalType": "uint256",
              "name": "acceptVotes",
              "type": "uint256"
            },
            {
              "internalType": "uint256",
              "name": "rejectVotes",
              "type": "uint256"
            }
          ],
          "internalType": "struct ProjectManager.Project[]",
          "name": "",
          "type": "tuple[]"
        }
      ],
      "stateMutability": "view",
      "type": "function"
    },
    {
      "inputs": [
        {
          "internalType": "uint256",
          "name": "",
          "type": "uint256"
        },
        {
          "internalType": "address",
          "name": "",
          "type": "address"
        }
      ],
      "name": "hasVerified",
      "outputs": [
        {
          "internalType": "bool",
          "name": "",
          "type": "bool"
        }
      ],
      "stateMutability": "view",
      "type": "function"
    },
    {
      "inputs": [
        {
          "internalType": "uint256",
          "name": "_projectId",
          "type": "uint256"
        }
      ],
      "name": "markProjectAsCompleted",
      "outputs": [],
      "stateMutability": "nonpayable",
      "type": "function"
    },
    {
      "inputs": [
        {
          "internalType": "uint256",
          "name": "",
          "type": "uint256"
        },
        {
          "internalType": "uint256",
          "name": "",
          "type": "uint256"
        }
      ],
      "name": "projectVerifiers",
      "outputs": [
        {
          "internalType": "address",
          "name": "",
          "type": "address"
        }
      ],
      "stateMutability": "view",
      "type": "function"
    },
    {
      "inputs": [
        {
          "internalType": "uint256",
          "name": "",
          "type": "uint256"
        }
      ],
      "name": "projects",
      "outputs": [
        {
          "internalType": "uint256",
          "name": "id",
          "type": "uint256"
        },
        {
          "internalType": "string",
          "name": "name",
          "type": "string"
        },
        {
          "internalType": "string",
          "name": "description",
          "type": "string"
        },
        {
          "internalType": "uint256",
          "name": "timestamp",
          "type": "uint256"
        },
        {
          "internalType": "address",
          "name": "creator",
          "type": "address"
        },
        {
          "internalType": "address",
          "name": "freelancer",
          "type": "address"
        },
        {
          "internalType": "enum ProjectManager.Status",
          "name": "status",
          "type": "uint8"
        },
        {
          "internalType": "uint256",
          "name": "projectFee",
          "type": "uint256"
        },
        {
          "internalType": "uint256",
          "name": "acceptVotes",
          "type": "uint256"
        },
        {
          "internalType": "uint256",
          "name": "rejectVotes",
          "type": "uint256"
        }
      ],
      "stateMutability": "view",
      "type": "function"
    },
    {
      "inputs": [
        {
          "internalType": "uint256",
          "name": "_projectId",
          "type": "uint256"
        }
      ],
      "name": "rejectProjectCompletion",
      "outputs": [],
      "stateMutability": "nonpayable",
      "type": "function"
    },
    {
      "inputs": [
        {
          "internalType": "uint256",
          "name": "_projectId",
          "type": "uint256"
        }
      ],
      "name": "removeProject",
      "outputs": [],
      "stateMutability": "nonpayable",
      "type": "function"
    },
    {
      "inputs": [],
      "name": "verificationFee",
      "outputs": [
        {
          "internalType": "uint256",
          "name": "",
          "type": "uint256"
        }
      ],
      "stateMutability": "view",
      "type": "function"
    },
    {
      "inputs": [
        {
          "internalType": "uint256",
          "name": "",
          "type": "uint256"
        },
        {
          "internalType": "address",
          "name": "",
          "type": "address"
        }
      ],
      "name": "verifierVotes",
      "outputs": [
        {
          "internalType": "bool",
          "name": "",
          "type": "bool"
        }
      ],
      "stateMutability": "view",
      "type": "function"
    },
    {
      "inputs": [
        {
          "internalType": "uint256",
          "name": "_projectId",
          "type": "uint256"
        },
        {
          "internalType": "bool",
          "name": "_accept",
          "type": "bool"
        }
      ],
      "name": "verifyProjectCompletion",
      "outputs": [],
      "stateMutability": "payable",
      "type": "function"
    }
  ],
  "bytecode": "0x6080604052660110d9316ec00060015534801561001b57600080fd5b506151628061002b6000396000f3fe6080604052600436106100fe5760003560e01c80638d34129f11610095578063a8c278a211610064578063a8c278a214610344578063d5842c8b1461036f578063dbff65e8146103ac578063f57ad8cc146103e9578063fd1d5ea914610412576100fe565b80638d34129f146102a4578063919b725a146102c057806394ba9709146102fd578063a74c341f14610319576100fe565b80633beddfd9116100d15780633beddfd9146101d857806356563e4a146102155780635873f99814610252578063720413d11461027b576100fe565b8063107046bd1461010357806312a4e33f146101495780631aa22bba146101725780633bd09de0146101af575b600080fd5b34801561010f57600080fd5b5061012a60048036038101906101259190613e32565b61042e565b6040516101409a99989796959493929190614be9565b60405180910390f35b34801561015557600080fd5b50610170600480360381019061016b9190613e32565b6105ef565b005b34801561017e57600080fd5b5061019960048036038101906101949190613d76565b610a20565b6040516101a6919061485a565b60405180910390f35b3480156101bb57600080fd5b506101d660048036038101906101d19190613e32565b610fd4565b005b3480156101e457600080fd5b506101ff60048036038101906101fa9190613e5b565b6112f1565b60405161020c919061487c565b60405180910390f35b34801561022157600080fd5b5061023c60048036038101906102379190613e5b565b611320565b604051610249919061487c565b60405180910390f35b34801561025e57600080fd5b5061027960048036038101906102749190613e32565b61134f565b005b34801561028757600080fd5b506102a2600480360381019061029d9190613e32565b6119e3565b005b6102be60048036038101906102b99190613e97565b611c5f565b005b3480156102cc57600080fd5b506102e760048036038101906102e29190613d4d565b61220a565b6040516102f4919061485a565b60405180910390f35b61031760048036038101906103129190613d9f565b61275c565b005b34801561032557600080fd5b5061032e612a2c565b60405161033b9190614b37565b60405180910390f35b34801561035057600080fd5b50610359612a31565b6040516103669190614b37565b60405180910390f35b34801561037b57600080fd5b5061039660048036038101906103919190613d4d565b612a37565b6040516103a3919061485a565b60405180910390f35b3480156103b857600080fd5b506103d360048036038101906103ce9190613ed3565b612f89565b6040516103e0919061483f565b60405180910390f35b3480156103f557600080fd5b50610410600480360381019061040b9190613e32565b612fd7565b005b61042c60048036038101906104279190613e32565b613399565b005b6000818154811061043e57600080fd5b906000526020600020906009020160009150905080600001549080600101805461046790614f4c565b80601f016020809104026020016040519081016040528092919081815260200182805461049390614f4c565b80156104e05780601f106104b5576101008083540402835291602001916104e0565b820191906000526020600020905b8154815290600101906020018083116104c357829003601f168201915b5050505050908060020180546104f590614f4c565b80601f016020809104026020016040519081016040528092919081815260200182805461052190614f4c565b801561056e5780601f106105435761010080835404028352916020019161056e565b820191906000526020600020905b81548152906001019060200180831161055157829003601f168201915b5050505050908060030154908060040160009054906101000a900473ffffffffffffffffffffffffffffffffffffffff16908060050160009054906101000a900473ffffffffffffffffffffffffffffffffffffffff16908060050160149054906101000a900460ff1690806006015490806007015490806008015490508a565b6000805490508110610636576040517f08c379a000000000000000000000000000000000000000000000000000000000815260040161062d90614ad7565b60405180910390fd5b6000808281548110610671577f4e487b7100000000000000000000000000000000000000000000000000000000600052603260045260246000fd5b906000526020600020906009020190508060040160009054906101000a900473ffffffffffffffffffffffffffffffffffffffff1673ffffffffffffffffffffffffffffffffffffffff163373ffffffffffffffffffffffffffffffffffffffff1614610713576040517f08c379a000000000000000000000000000000000000000000000000000000000815260040161070a90614957565b60405180910390fd5b6002600481111561074d577f4e487b7100000000000000000000000000000000000000000000000000000000600052602160045260246000fd5b8160050160149054906101000a900460ff166004811115610797577f4e487b7100000000000000000000000000000000000000000000000000000000600052602160045260246000fd5b146107d7576040517f08c379a00000000000000000000000000000000000000000000000000000000081526004016107ce90614937565b60405180910390fd5b60048160050160146101000a81548160ff02191690836004811115610825577f4e487b7100000000000000000000000000000000000000000000000000000000600052602160045260246000fd5b021790555060008160050160009054906101000a900473ffffffffffffffffffffffffffffffffffffffff1673ffffffffffffffffffffffffffffffffffffffff1660015483600601546108799190614de2565b6040516108859061482a565b60006040518083038185875af1925050503d80600081146108c2576040519150601f19603f3d011682016040523d82523d6000602084013e6108c7565b606091505b505090508061090b576040517f08c379a000000000000000000000000000000000000000000000000000000000815260040161090290614997565b60405180910390fd5b60008260040160009054906101000a900473ffffffffffffffffffffffffffffffffffffffff1673ffffffffffffffffffffffffffffffffffffffff166001546040516109579061482a565b60006040518083038185875af1925050503d8060008114610994576040519150601f19603f3d011682016040523d82523d6000602084013e610999565b606091505b50509050806109dd576040517f08c379a00000000000000000000000000000000000000000000000000000000081526004016109d490614897565b60405180910390fd5b7f15a4a29eccf92a0bbf94f24a6840487aa0226f7fb02d3402f1f86b3360bdfc6a8460026004604051610a1293929190614bb2565b60405180910390a150505050565b60606000805b600080549050811015610b2557836004811115610a6c577f4e487b7100000000000000000000000000000000000000000000000000000000600052602160045260246000fd5b60008281548110610aa6577f4e487b7100000000000000000000000000000000000000000000000000000000600052603260045260246000fd5b906000526020600020906009020160050160149054906101000a900460ff166004811115610afd577f4e487b7100000000000000000000000000000000000000000000000000000000600052602160045260246000fd5b1415610b12578180610b0e90614f7e565b9250505b8080610b1d90614f7e565b915050610a26565b5060008167ffffffffffffffff811115610b68577f4e487b7100000000000000000000000000000000000000000000000000000000600052604160045260246000fd5b604051908082528060200260200182016040528015610ba157816020015b610b8e613a49565b815260200190600190039081610b865790505b5090506000805b600080549050811015610fc857856004811115610bee577f4e487b7100000000000000000000000000000000000000000000000000000000600052602160045260246000fd5b60008281548110610c28577f4e487b7100000000000000000000000000000000000000000000000000000000600052603260045260246000fd5b906000526020600020906009020160050160149054906101000a900460ff166004811115610c7f577f4e487b7100000000000000000000000000000000000000000000000000000000600052602160045260246000fd5b1415610fb55760008181548110610cbf577f4e487b7100000000000000000000000000000000000000000000000000000000600052603260045260246000fd5b90600052602060002090600902016040518061014001604052908160008201548152602001600182018054610cf390614f4c565b80601f0160208091040260200160405190810160405280929190818152602001828054610d1f90614f4c565b8015610d6c5780601f10610d4157610100808354040283529160200191610d6c565b820191906000526020600020905b815481529060010190602001808311610d4f57829003601f168201915b50505050508152602001600282018054610d8590614f4c565b80601f0160208091040260200160405190810160405280929190818152602001828054610db190614f4c565b8015610dfe5780601f10610dd357610100808354040283529160200191610dfe565b820191906000526020600020905b815481529060010190602001808311610de157829003601f168201915b50505050508152602001600382015481526020016004820160009054906101000a900473ffffffffffffffffffffffffffffffffffffffff1673ffffffffffffffffffffffffffffffffffffffff1673ffffffffffffffffffffffffffffffffffffffff1681526020016005820160009054906101000a900473ffffffffffffffffffffffffffffffffffffffff1673ffffffffffffffffffffffffffffffffffffffff1673ffffffffffffffffffffffffffffffffffffffff1681526020016005820160149054906101000a900460ff166004811115610f08577f4e487b7100000000000000000000000000000000000000000000000000000000600052602160045260246000fd5b6004811115610f40577f4e487b7100000000000000000000000000000000000000000000000000000000600052602160045260246000fd5b81526020016006820154815260200160078201548152602001600882015481525050838381518110610f9b577f4e487b7100000000000000000000000000000000000000000000000000000000600052603260045260246000fd5b60200260200101819052508180610fb190614f7e565b9250505b8080610fc090614f7e565b915050610ba8565b50819350505050919050565b600080549050811061101b576040517f08c379a000000000000000000000000000000000000000000000000000000000815260040161101290614ad7565b60405180910390fd5b6000808281548110611056577f4e487b7100000000000000000000000000000000000000000000000000000000600052603260045260246000fd5b906000526020600020906009020190508060040160009054906101000a900473ffffffffffffffffffffffffffffffffffffffff1673ffffffffffffffffffffffffffffffffffffffff163373ffffffffffffffffffffffffffffffffffffffff161415801561111657508060050160009054906101000a900473ffffffffffffffffffffffffffffffffffffffff1673ffffffffffffffffffffffffffffffffffffffff163373ffffffffffffffffffffffffffffffffffffffff1614155b611155576040517f08c379a000000000000000000000000000000000000000000000000000000000815260040161114c90614917565b60405180910390fd5b6003600481111561118f577f4e487b7100000000000000000000000000000000000000000000000000000000600052602160045260246000fd5b8160050160149054906101000a900460ff1660048111156111d9577f4e487b7100000000000000000000000000000000000000000000000000000000600052602160045260246000fd5b14611219576040517f08c379a000000000000000000000000000000000000000000000000000000000815260040161121090614977565b60405180910390fd5b60008160050160146101000a81548160ff02191690836004811115611267577f4e487b7100000000000000000000000000000000000000000000000000000000600052602160045260246000fd5b021790555060008160050160006101000a81548173ffffffffffffffffffffffffffffffffffffffff021916908373ffffffffffffffffffffffffffffffffffffffff1602179055507f15a4a29eccf92a0bbf94f24a6840487aa0226f7fb02d3402f1f86b3360bdfc6a82600360006040516112e593929190614bb2565b60405180910390a15050565b60046020528160005260406000206020528060005260406000206000915091509054906101000a900460ff1681565b60036020528160005260406000206020528060005260406000206000915091509054906101000a900460ff1681565b6000805490508110611396576040517f08c379a000000000000000000000000000000000000000000000000000000000815260040161138d90614ad7565b60405180910390fd5b60008082815481106113d1577f4e487b7100000000000000000000000000000000000000000000000000000000600052603260045260246000fd5b906000526020600020906009020190508060040160009054906101000a900473ffffffffffffffffffffffffffffffffffffffff1673ffffffffffffffffffffffffffffffffffffffff163373ffffffffffffffffffffffffffffffffffffffff1614611473576040517f08c379a000000000000000000000000000000000000000000000000000000000815260040161146a90614a57565b60405180910390fd5b600060048111156114ad577f4e487b7100000000000000000000000000000000000000000000000000000000600052602160045260246000fd5b8160050160149054906101000a900460ff1660048111156114f7577f4e487b7100000000000000000000000000000000000000000000000000000000600052602160045260246000fd5b14611537576040517f08c379a000000000000000000000000000000000000000000000000000000000815260040161152e90614a77565b60405180910390fd5b6000600154826006015461154b9190614de2565b9050600160008054905061155f9190614e69565b83146117fd57600060016000805490506115799190614e69565b815481106115b0577f4e487b7100000000000000000000000000000000000000000000000000000000600052603260045260246000fd5b9060005260206000209060090201600084815481106115f8577f4e487b7100000000000000000000000000000000000000000000000000000000600052603260045260246000fd5b906000526020600020906009020160008201548160000155600182018160010190805461162490614f4c565b61162f929190613b00565b50600282018160020190805461164490614f4c565b61164f929190613b00565b50600382015481600301556004820160009054906101000a900473ffffffffffffffffffffffffffffffffffffffff168160040160006101000a81548173ffffffffffffffffffffffffffffffffffffffff021916908373ffffffffffffffffffffffffffffffffffffffff1602179055506005820160009054906101000a900473ffffffffffffffffffffffffffffffffffffffff168160050160006101000a81548173ffffffffffffffffffffffffffffffffffffffff021916908373ffffffffffffffffffffffffffffffffffffffff1602179055506005820160149054906101000a900460ff168160050160146101000a81548160ff02191690836004811115611786577f4e487b7100000000000000000000000000000000000000000000000000000000600052602160045260246000fd5b021790555060068201548160060155600782015481600701556008820154816008015590505082600084815481106117e7577f4e487b7100000000000000000000000000000000000000000000000000000000600052603260045260246000fd5b9060005260206000209060090201600001819055505b6000805480611835577f4e487b7100000000000000000000000000000000000000000000000000000000600052603160045260246000fd5b60019003818190600052602060002090600902016000808201600090556001820160006118629190613b8d565b6002820160006118729190613b8d565b60038201600090556004820160006101000a81549073ffffffffffffffffffffffffffffffffffffffff02191690556005820160006101000a81549073ffffffffffffffffffffffffffffffffffffffff02191690556005820160146101000a81549060ff02191690556006820160009055600782016000905560088201600090555050905560003373ffffffffffffffffffffffffffffffffffffffff168260405161191e9061482a565b60006040518083038185875af1925050503d806000811461195b576040519150601f19603f3d011682016040523d82523d6000602084013e611960565b606091505b50509050806119a4576040517f08c379a000000000000000000000000000000000000000000000000000000000815260040161199b90614ab7565b60405180910390fd5b7fba1c16e049c7a348b951726f087bd968f9f40e6c64c8cf9ae55ed756ae62944084336040516119d5929190614b52565b60405180910390a150505050565b6000805490508110611a2a576040517f08c379a0000000000000000000000000000000000000000000000000000000008152600401611a2190614ad7565b60405180910390fd5b6000808281548110611a65577f4e487b7100000000000000000000000000000000000000000000000000000000600052603260045260246000fd5b906000526020600020906009020190508060050160009054906101000a900473ffffffffffffffffffffffffffffffffffffffff1673ffffffffffffffffffffffffffffffffffffffff163373ffffffffffffffffffffffffffffffffffffffff1614611b07576040517f08c379a0000000000000000000000000000000000000000000000000000000008152600401611afe906149d7565b60405180910390fd5b60016004811115611b41577f4e487b7100000000000000000000000000000000000000000000000000000000600052602160045260246000fd5b8160050160149054906101000a900460ff166004811115611b8b577f4e487b7100000000000000000000000000000000000000000000000000000000600052602160045260246000fd5b14611bcb576040517f08c379a0000000000000000000000000000000000000000000000000000000008152600401611bc290614b17565b60405180910390fd5b60028160050160146101000a81548160ff02191690836004811115611c19577f4e487b7100000000000000000000000000000000000000000000000000000000600052602160045260246000fd5b02179055507f15a4a29eccf92a0bbf94f24a6840487aa0226f7fb02d3402f1f86b3360bdfc6a8260016002604051611c5393929190614bb2565b60405180910390a15050565b816000805490508110611ca7576040517f08c379a0000000000000000000000000000000000000000000000000000000008152600401611c9e90614ad7565b60405180910390fd5b6000808481548110611ce2577f4e487b7100000000000000000000000000000000000000000000000000000000600052603260045260246000fd5b906000526020600020906009020190508060040160009054906101000a900473ffffffffffffffffffffffffffffffffffffffff1673ffffffffffffffffffffffffffffffffffffffff163373ffffffffffffffffffffffffffffffffffffffff1614158015611da257508060050160009054906101000a900473ffffffffffffffffffffffffffffffffffffffff1673ffffffffffffffffffffffffffffffffffffffff163373ffffffffffffffffffffffffffffffffffffffff1614155b611de1576040517f08c379a0000000000000000000000000000000000000000000000000000000008152600401611dd890614917565b60405180910390fd5b60036004811115611e1b577f4e487b7100000000000000000000000000000000000000000000000000000000600052602160045260246000fd5b8160050160149054906101000a900460ff166004811115611e65577f4e487b7100000000000000000000000000000000000000000000000000000000600052602160045260246000fd5b14611ea5576040517f08c379a0000000000000000000000000000000000000000000000000000000008152600401611e9c90614977565b60405180910390fd5b6003600085815260200190815260200160002060003373ffffffffffffffffffffffffffffffffffffffff1673ffffffffffffffffffffffffffffffffffffffff16815260200190815260200160002060009054906101000a900460ff1615611f43576040517f08c379a0000000000000000000000000000000000000000000000000000000008152600401611f3a90614a97565b60405180910390fd5b6001543414611f87576040517f08c379a0000000000000000000000000000000000000000000000000000000008152600401611f7e906148f7565b60405180910390fd5b60016003600086815260200190815260200160002060003373ffffffffffffffffffffffffffffffffffffffff1673ffffffffffffffffffffffffffffffffffffffff16815260200190815260200160002060006101000a81548160ff02191690831515021790555060026000858152602001908152602001600020339080600181540180825580915050600190039060005260206000200160009091909190916101000a81548173ffffffffffffffffffffffffffffffffffffffff021916908373ffffffffffffffffffffffffffffffffffffffff16021790555082156120895780600701600081548092919061207f90614f7e565b91905055506120a4565b80600801600081548092919061209e90614f7e565b91905055505b600060036001546120b59190614e38565b90506000816001546120c79190614de2565b905060003373ffffffffffffffffffffffffffffffffffffffff16826040516120ef9061482a565b60006040518083038185875af1925050503d806000811461212c576040519150601f19603f3d011682016040523d82523d6000602084013e612131565b606091505b5050905080612175576040517f08c379a000000000000000000000000000000000000000000000000000000000815260040161216c90614af7565b60405180910390fd5b7fc9d2ff8d0995175448926c3772b9348991ca8fecf6638d1e32cf1700e208ca418733886040516121a893929190614b7b565b60405180910390a16003600260008981526020019081526020016000208054905014156122015760028460070154106121e9576121e487613732565b612200565b60028460080154106121ff576121fe876138f3565b5b5b5b50505050505050565b60606000805b6000805490508110156122de578373ffffffffffffffffffffffffffffffffffffffff166000828154811061226e577f4e487b7100000000000000000000000000000000000000000000000000000000600052603260045260246000fd5b906000526020600020906009020160050160009054906101000a900473ffffffffffffffffffffffffffffffffffffffff1673ffffffffffffffffffffffffffffffffffffffff1614156122cb5781806122c790614f7e565b9250505b80806122d690614f7e565b915050612210565b5060008167ffffffffffffffff811115612321577f4e487b7100000000000000000000000000000000000000000000000000000000600052604160045260246000fd5b60405190808252806020026020018201604052801561235a57816020015b612347613a49565b81526020019060019003908161233f5790505b5090506000805b600080549050811015612750578573ffffffffffffffffffffffffffffffffffffffff16600082815481106123bf577f4e487b7100000000000000000000000000000000000000000000000000000000600052603260045260246000fd5b906000526020600020906009020160050160009054906101000a900473ffffffffffffffffffffffffffffffffffffffff1673ffffffffffffffffffffffffffffffffffffffff16141561273d5760008181548110612447577f4e487b7100000000000000000000000000000000000000000000000000000000600052603260045260246000fd5b9060005260206000209060090201604051806101400160405290816000820154815260200160018201805461247b90614f4c565b80601f01602080910402602001604051908101604052809291908181526020018280546124a790614f4c565b80156124f45780601f106124c9576101008083540402835291602001916124f4565b820191906000526020600020905b8154815290600101906020018083116124d757829003601f168201915b5050505050815260200160028201805461250d90614f4c565b80601f016020809104026020016040519081016040528092919081815260200182805461253990614f4c565b80156125865780601f1061255b57610100808354040283529160200191612586565b820191906000526020600020905b81548152906001019060200180831161256957829003601f168201915b50505050508152602001600382015481526020016004820160009054906101000a900473ffffffffffffffffffffffffffffffffffffffff1673ffffffffffffffffffffffffffffffffffffffff1673ffffffffffffffffffffffffffffffffffffffff1681526020016005820160009054906101000a900473ffffffffffffffffffffffffffffffffffffffff1673ffffffffffffffffffffffffffffffffffffffff1673ffffffffffffffffffffffffffffffffffffffff1681526020016005820160149054906101000a900460ff166004811115612690577f4e487b7100000000000000000000000000000000000000000000000000000000600052602160045260246000fd5b60048111156126c8577f4e487b7100000000000000000000000000000000000000000000000000000000600052602160045260246000fd5b81526020016006820154815260200160078201548152602001600882015481525050838381518110612723577f4e487b7100000000000000000000000000000000000000000000000000000000600052603260045260246000fd5b6020026020010181905250818061273990614f7e565b9250505b808061274890614f7e565b915050612361565b50819350505050919050565b6001548161276a9190614de2565b34146127ab576040517f08c379a00000000000000000000000000000000000000000000000000000000081526004016127a2906148b7565b60405180910390fd5b60008080549050905060006040518061014001604052808381526020018781526020018681526020018581526020013373ffffffffffffffffffffffffffffffffffffffff168152602001600073ffffffffffffffffffffffffffffffffffffffff1681526020016000600481111561284d577f4e487b7100000000000000000000000000000000000000000000000000000000600052602160045260246000fd5b815260200184815260200160008152602001600081525090806001815401808255809150506001900390600052602060002090600902016000909190919091506000820151816000015560208201518160010190805190602001906128b3929190613bcd565b5060408201518160020190805190602001906128d0929190613bcd565b506060820151816003015560808201518160040160006101000a81548173ffffffffffffffffffffffffffffffffffffffff021916908373ffffffffffffffffffffffffffffffffffffffff16021790555060a08201518160050160006101000a81548173ffffffffffffffffffffffffffffffffffffffff021916908373ffffffffffffffffffffffffffffffffffffffff16021790555060c08201518160050160146101000a81548160ff021916908360048111156129ba577f4e487b7100000000000000000000000000000000000000000000000000000000600052602160045260246000fd5b021790555060e082015181600601556101008201518160070155610120820151816008015550507f59efe781992d5ecfa36fc33ea75b2d74345c30fd2e5762bfe91d37159b1496528186868633600088604051612a1d9796959493929190614c93565b60405180910390a15050505050565b600381565b60015481565b60606000805b600080549050811015612b0b578373ffffffffffffffffffffffffffffffffffffffff1660008281548110612a9b577f4e487b7100000000000000000000000000000000000000000000000000000000600052603260045260246000fd5b906000526020600020906009020160040160009054906101000a900473ffffffffffffffffffffffffffffffffffffffff1673ffffffffffffffffffffffffffffffffffffffff161415612af8578180612af490614f7e565b9250505b8080612b0390614f7e565b915050612a3d565b5060008167ffffffffffffffff811115612b4e577f4e487b7100000000000000000000000000000000000000000000000000000000600052604160045260246000fd5b604051908082528060200260200182016040528015612b8757816020015b612b74613a49565b815260200190600190039081612b6c5790505b5090506000805b600080549050811015612f7d578573ffffffffffffffffffffffffffffffffffffffff1660008281548110612bec577f4e487b7100000000000000000000000000000000000000000000000000000000600052603260045260246000fd5b906000526020600020906009020160040160009054906101000a900473ffffffffffffffffffffffffffffffffffffffff1673ffffffffffffffffffffffffffffffffffffffff161415612f6a5760008181548110612c74577f4e487b7100000000000000000000000000000000000000000000000000000000600052603260045260246000fd5b90600052602060002090600902016040518061014001604052908160008201548152602001600182018054612ca890614f4c565b80601f0160208091040260200160405190810160405280929190818152602001828054612cd490614f4c565b8015612d215780601f10612cf657610100808354040283529160200191612d21565b820191906000526020600020905b815481529060010190602001808311612d0457829003601f168201915b50505050508152602001600282018054612d3a90614f4c565b80601f0160208091040260200160405190810160405280929190818152602001828054612d6690614f4c565b8015612db35780601f10612d8857610100808354040283529160200191612db3565b820191906000526020600020905b815481529060010190602001808311612d9657829003601f168201915b50505050508152602001600382015481526020016004820160009054906101000a900473ffffffffffffffffffffffffffffffffffffffff1673ffffffffffffffffffffffffffffffffffffffff1673ffffffffffffffffffffffffffffffffffffffff1681526020016005820160009054906101000a900473ffffffffffffffffffffffffffffffffffffffff1673ffffffffffffffffffffffffffffffffffffffff1673ffffffffffffffffffffffffffffffffffffffff1681526020016005820160149054906101000a900460ff166004811115612ebd577f4e487b7100000000000000000000000000000000000000000000000000000000600052602160045260246000fd5b6004811115612ef5577f4e487b7100000000000000000000000000000000000000000000000000000000600052602160045260246000fd5b81526020016006820154815260200160078201548152602001600882015481525050838381518110612f50577f4e487b7100000000000000000000000000000000000000000000000000000000600052603260045260246000fd5b60200260200101819052508180612f6690614f7e565b9250505b8080612f7590614f7e565b915050612b8e565b50819350505050919050565b60026020528160005260406000208181548110612fa557600080fd5b906000526020600020016000915091509054906101000a900473ffffffffffffffffffffffffffffffffffffffff1681565b600080549050811061301e576040517f08c379a000000000000000000000000000000000000000000000000000000000815260040161301590614ad7565b60405180910390fd5b6000808281548110613059577f4e487b7100000000000000000000000000000000000000000000000000000000600052603260045260246000fd5b906000526020600020906009020190508060040160009054906101000a900473ffffffffffffffffffffffffffffffffffffffff1673ffffffffffffffffffffffffffffffffffffffff163373ffffffffffffffffffffffffffffffffffffffff16146130fb576040517f08c379a00000000000000000000000000000000000000000000000000000000081526004016130f2906149f7565b60405180910390fd5b60026004811115613135577f4e487b7100000000000000000000000000000000000000000000000000000000600052602160045260246000fd5b8160050160149054906101000a900460ff16600481111561317f577f4e487b7100000000000000000000000000000000000000000000000000000000600052602160045260246000fd5b146131bf576040517f08c379a00000000000000000000000000000000000000000000000000000000081526004016131b690614937565b60405180910390fd5b60038160050160146101000a81548160ff0219169083600481111561320d577f4e487b7100000000000000000000000000000000000000000000000000000000600052602160045260246000fd5b0217905550600081600701819055506000816008018190555060005b60026000848152602001908152602001600020805490508110156133385760006003600085815260200190815260200160002060006002600087815260200190815260200160002084815481106132a9577f4e487b7100000000000000000000000000000000000000000000000000000000600052603260045260246000fd5b9060005260206000200160009054906101000a900473ffffffffffffffffffffffffffffffffffffffff1673ffffffffffffffffffffffffffffffffffffffff1673ffffffffffffffffffffffffffffffffffffffff16815260200190815260200160002060006101000a81548160ff021916908315150217905550808061333090614f7e565b915050613229565b506002600083815260200190815260200160002060006133589190613c53565b7f15a4a29eccf92a0bbf94f24a6840487aa0226f7fb02d3402f1f86b3360bdfc6a826002600360405161338d93929190614bb2565b60405180910390a15050565b8060008054905081106133e1576040517f08c379a00000000000000000000000000000000000000000000000000000000081526004016133d890614ad7565b60405180910390fd5b600080838154811061341c577f4e487b7100000000000000000000000000000000000000000000000000000000600052603260045260246000fd5b906000526020600020906009020190508060040160009054906101000a900473ffffffffffffffffffffffffffffffffffffffff1673ffffffffffffffffffffffffffffffffffffffff163373ffffffffffffffffffffffffffffffffffffffff1614156134bf576040517f08c379a00000000000000000000000000000000000000000000000000000000081526004016134b6906149b7565b60405180910390fd5b600060048111156134f9577f4e487b7100000000000000000000000000000000000000000000000000000000600052602160045260246000fd5b8160050160149054906101000a900460ff166004811115613543577f4e487b7100000000000000000000000000000000000000000000000000000000600052602160045260246000fd5b14613583576040517f08c379a000000000000000000000000000000000000000000000000000000000815260040161357a906148d7565b60405180910390fd5b600073ffffffffffffffffffffffffffffffffffffffff168160050160009054906101000a900473ffffffffffffffffffffffffffffffffffffffff1673ffffffffffffffffffffffffffffffffffffffff1614613616576040517f08c379a000000000000000000000000000000000000000000000000000000000815260040161360d90614a17565b60405180910390fd5b600154341461365a576040517f08c379a0000000000000000000000000000000000000000000000000000000008152600401613651906148f7565b60405180910390fd5b338160050160006101000a81548173ffffffffffffffffffffffffffffffffffffffff021916908373ffffffffffffffffffffffffffffffffffffffff16021790555060018160050160146101000a81548160ff021916908360048111156136eb577f4e487b7100000000000000000000000000000000000000000000000000000000600052602160045260246000fd5b02179055507f15a4a29eccf92a0bbf94f24a6840487aa0226f7fb02d3402f1f86b3360bdfc6a836000600160405161372593929190614bb2565b60405180910390a1505050565b600080828154811061376d577f4e487b7100000000000000000000000000000000000000000000000000000000600052603260045260246000fd5b9060005260206000209060090201905060048160050160146101000a81548160ff021916908360048111156137cb577f4e487b7100000000000000000000000000000000000000000000000000000000600052602160045260246000fd5b021790555060008160050160009054906101000a900473ffffffffffffffffffffffffffffffffffffffff1673ffffffffffffffffffffffffffffffffffffffff16600154836006015461381f9190614de2565b60405161382b9061482a565b60006040518083038185875af1925050503d8060008114613868576040519150601f19603f3d011682016040523d82523d6000602084013e61386d565b606091505b50509050806138b1576040517f08c379a00000000000000000000000000000000000000000000000000000000081526004016138a890614a37565b60405180910390fd5b7f15a4a29eccf92a0bbf94f24a6840487aa0226f7fb02d3402f1f86b3360bdfc6a83600360046040516138e693929190614bb2565b60405180910390a1505050565b600080828154811061392e577f4e487b7100000000000000000000000000000000000000000000000000000000600052603260045260246000fd5b9060005260206000209060090201905060008160050160146101000a81548160ff0219169083600481111561398c577f4e487b7100000000000000000000000000000000000000000000000000000000600052602160045260246000fd5b021790555060008160050160006101000a81548173ffffffffffffffffffffffffffffffffffffffff021916908373ffffffffffffffffffffffffffffffffffffffff1602179055506000816007018190555060008160080181905550600260008381526020019081526020016000206000613a089190613c53565b7f15a4a29eccf92a0bbf94f24a6840487aa0226f7fb02d3402f1f86b3360bdfc6a8260036000604051613a3d93929190614bb2565b60405180910390a15050565b60405180610140016040528060008152602001606081526020016060815260200160008152602001600073ffffffffffffffffffffffffffffffffffffffff168152602001600073ffffffffffffffffffffffffffffffffffffffff16815260200160006004811115613ae5577f4e487b7100000000000000000000000000000000000000000000000000000000600052602160045260246000fd5b81526020016000815260200160008152602001600081525090565b828054613b0c90614f4c565b90600052602060002090601f016020900481019282613b2e5760008555613b7c565b82601f10613b3f5780548555613b7c565b82800160010185558215613b7c57600052602060002091601f016020900482015b82811115613b7b578254825591600101919060010190613b60565b5b509050613b899190613c74565b5090565b508054613b9990614f4c565b6000825580601f10613bab5750613bca565b601f016020900490600052602060002090810190613bc99190613c74565b5b50565b828054613bd990614f4c565b90600052602060002090601f016020900481019282613bfb5760008555613c42565b82601f10613c1457805160ff1916838001178555613c42565b82800160010185558215613c42579182015b82811115613c41578251825591602001919060010190613c26565b5b509050613c4f9190613c74565b5090565b5080546000825590600052602060002090810190613c719190613c74565b50565b5b80821115613c8d576000816000905550600101613c75565b5090565b6000613ca4613c9f84614d41565b614d10565b905082815260208101848484011115613cbc57600080fd5b613cc7848285614f0a565b509392505050565b600081359050613cde816150d7565b92915050565b600081359050613cf3816150ee565b92915050565b600081359050613d0881615105565b92915050565b600082601f830112613d1f57600080fd5b8135613d2f848260208601613c91565b91505092915050565b600081359050613d4781615115565b92915050565b600060208284031215613d5f57600080fd5b6000613d6d84828501613ccf565b91505092915050565b600060208284031215613d8857600080fd5b6000613d9684828501613cf9565b91505092915050565b60008060008060808587031215613db557600080fd5b600085013567ffffffffffffffff811115613dcf57600080fd5b613ddb87828801613d0e565b945050602085013567ffffffffffffffff811115613df857600080fd5b613e0487828801613d0e565b9350506040613e1587828801613d38565b9250506060613e2687828801613d38565b91505092959194509250565b600060208284031215613e4457600080fd5b6000613e5284828501613d38565b91505092915050565b60008060408385031215613e6e57600080fd5b6000613e7c85828601613d38565b9250506020613e8d85828601613ccf565b9150509250929050565b60008060408385031215613eaa57600080fd5b6000613eb885828601613d38565b9250506020613ec985828601613ce4565b9150509250929050565b60008060408385031215613ee657600080fd5b6000613ef485828601613d38565b9250506020613f0585828601613d38565b9150509250929050565b6000613f1b838361472b565b905092915050565b613f2c81614e9d565b82525050565b613f3b81614e9d565b82525050565b6000613f4c82614d81565b613f568185614da4565b935083602082028501613f6885614d71565b8060005b85811015613fa45784840389528151613f858582613f0f565b9450613f9083614d97565b925060208a01995050600181019050613f6c565b50829750879550505050505092915050565b613fbf81614eaf565b82525050565b613fce81614ef8565b82525050565b613fdd81614ef8565b82525050565b6000613fee82614d8c565b613ff88185614dc0565b9350614008818560208601614f19565b614011816150b2565b840191505092915050565b600061402782614d8c565b6140318185614dd1565b9350614041818560208601614f19565b61404a816150b2565b840191505092915050565b6000614062602883614dd1565b91507f566572696669636174696f6e2066656520726566756e6420746f20636c69656e60008301527f74206661696c65640000000000000000000000000000000000000000000000006020830152604082019050919050565b60006140c8601283614dd1565b91507f496e636f7272656374204554482073656e7400000000000000000000000000006000830152602082019050919050565b6000614108601383614dd1565b91507f50726f6a656374206973206e6f74206f70656e000000000000000000000000006000830152602082019050919050565b6000614148601a83614dd1565b91507f496e636f727265637420766572696669636174696f6e206665650000000000006000830152602082019050919050565b6000614188603083614dd1565b91507f56657269666965722063616e6e6f742062652070726f6a65637420637265617460008301527f6f72206f7220667265656c616e636572000000000000000000000000000000006020830152604082019050919050565b60006141ee602483614dd1565b91507f50726f6a656374206d7573742062652077616974696e6720666f72206170707260008301527f6f76616c000000000000000000000000000000000000000000000000000000006020830152604082019050919050565b6000614254602f83614dd1565b91507f4f6e6c79207468652070726f6a6563742063726561746f722063616e2061707060008301527f726f766520636f6d706c6574696f6e00000000000000000000000000000000006020830152604082019050919050565b60006142ba601a83614dd1565b91507f50726f6a656374206d75737420626520696e20646973707574650000000000006000830152602082019050919050565b60006142fa602183614dd1565b91507f466565207472616e7366657220746f20667265656c616e636572206661696c6560008301527f64000000000000000000000000000000000000000000000000000000000000006020830152604082019050919050565b6000614360602183614dd1565b91507f43726561746f722063616e6e6f7420616363657074206f776e2070726f6a656360008301527f74000000000000000000000000000000000000000000000000000000000000006020830152604082019050919050565b60006143c6603183614dd1565b91507f4f6e6c792074686520667265656c616e6365722063616e206d61726b2070726f60008301527f6a65637420617320636f6d706c657465640000000000000000000000000000006020830152604082019050919050565b600061442c602f83614dd1565b91507f4f6e6c79207468652070726f6a6563742063726561746f722063616e2064697360008301527f7075746520636f6d706c6574696f6e00000000000000000000000000000000006020830152604082019050919050565b6000614492602083614dd1565b91507f50726f6a65637420616c726561647920686173206120667265656c616e6365726000830152602082019050919050565b60006144d2601983614dd1565b91507f467265656c616e636572207061796d656e74206661696c6564000000000000006000830152602082019050919050565b6000614512600083614db5565b9150600082019050919050565b600061452c602f83614dd1565b91507f4f6e6c79207468652070726f6a6563742063726561746f722063616e2072656d60008301527f6f7665207468652070726f6a65637400000000000000000000000000000000006020830152604082019050919050565b6000614592602183614dd1565b91507f4f6e6c79206f70656e2070726f6a656374732063616e2062652072656d6f766560008301527f64000000000000000000000000000000000000000000000000000000000000006020830152604082019050919050565b60006145f8601a83614dd1565b91507f56657269666965722068617320616c726561647920766f7465640000000000006000830152602082019050919050565b6000614638601683614dd1565b91507f526566756e64207472616e73666572206661696c6564000000000000000000006000830152602082019050919050565b6000614678601683614dd1565b91507f50726f6a65637420646f6573206e6f74206578697374000000000000000000006000830152602082019050919050565b60006146b8601f83614dd1565b91507f566572696669657220726577617264207472616e73666572206661696c6564006000830152602082019050919050565b60006146f8601b83614dd1565b91507f50726f6a656374206d75737420626520696e2070726f677265737300000000006000830152602082019050919050565b600061014083016000830151614744600086018261480c565b506020830151848203602086015261475c8282613fe3565b915050604083015184820360408601526147768282613fe3565b915050606083015161478b606086018261480c565b50608083015161479e6080860182613f23565b5060a08301516147b160a0860182613f23565b5060c08301516147c460c0860182613fc5565b5060e08301516147d760e086018261480c565b506101008301516147ec61010086018261480c565b5061012083015161480161012086018261480c565b508091505092915050565b61481581614eee565b82525050565b61482481614eee565b82525050565b600061483582614505565b9150819050919050565b60006020820190506148546000830184613f32565b92915050565b600060208201905081810360008301526148748184613f41565b905092915050565b60006020820190506148916000830184613fb6565b92915050565b600060208201905081810360008301526148b081614055565b9050919050565b600060208201905081810360008301526148d0816140bb565b9050919050565b600060208201905081810360008301526148f0816140fb565b9050919050565b600060208201905081810360008301526149108161413b565b9050919050565b600060208201905081810360008301526149308161417b565b9050919050565b60006020820190508181036000830152614950816141e1565b9050919050565b6000602082019050818103600083015261497081614247565b9050919050565b60006020820190508181036000830152614990816142ad565b9050919050565b600060208201905081810360008301526149b0816142ed565b9050919050565b600060208201905081810360008301526149d081614353565b9050919050565b600060208201905081810360008301526149f0816143b9565b9050919050565b60006020820190508181036000830152614a108161441f565b9050919050565b60006020820190508181036000830152614a3081614485565b9050919050565b60006020820190508181036000830152614a50816144c5565b9050919050565b60006020820190508181036000830152614a708161451f565b9050919050565b60006020820190508181036000830152614a9081614585565b9050919050565b60006020820190508181036000830152614ab0816145eb565b9050919050565b60006020820190508181036000830152614ad08161462b565b9050919050565b60006020820190508181036000830152614af08161466b565b9050919050565b60006020820190508181036000830152614b10816146ab565b9050919050565b60006020820190508181036000830152614b30816146eb565b9050919050565b6000602082019050614b4c600083018461481b565b92915050565b6000604082019050614b67600083018561481b565b614b746020830184613f32565b9392505050565b6000606082019050614b90600083018661481b565b614b9d6020830185613f32565b614baa6040830184613fb6565b949350505050565b6000606082019050614bc7600083018661481b565b614bd46020830185613fd4565b614be16040830184613fd4565b949350505050565b600061014082019050614bff600083018d61481b565b8181036020830152614c11818c61401c565b90508181036040830152614c25818b61401c565b9050614c34606083018a61481b565b614c416080830189613f32565b614c4e60a0830188613f32565b614c5b60c0830187613fd4565b614c6860e083018661481b565b614c7661010083018561481b565b614c8461012083018461481b565b9b9a5050505050505050505050565b600060e082019050614ca8600083018a61481b565b8181036020830152614cba818961401c565b90508181036040830152614cce818861401c565b9050614cdd606083018761481b565b614cea6080830186613f32565b614cf760a0830185613fd4565b614d0460c083018461481b565b98975050505050505050565b6000604051905081810181811067ffffffffffffffff82111715614d3757614d36615083565b5b8060405250919050565b600067ffffffffffffffff821115614d5c57614d5b615083565b5b601f19601f8301169050602081019050919050565b6000819050602082019050919050565b600081519050919050565b600081519050919050565b6000602082019050919050565b600082825260208201905092915050565b600081905092915050565b600082825260208201905092915050565b600082825260208201905092915050565b6000614ded82614eee565b9150614df883614eee565b9250827fffffffffffffffffffffffffffffffffffffffffffffffffffffffffffffffff03821115614e2d57614e2c614fc7565b5b828201905092915050565b6000614e4382614eee565b9150614e4e83614eee565b925082614e5e57614e5d614ff6565b5b828204905092915050565b6000614e7482614eee565b9150614e7f83614eee565b925082821015614e9257614e91614fc7565b5b828203905092915050565b6000614ea882614ece565b9050919050565b60008115159050919050565b6000819050614ec9826150c3565b919050565b600073ffffffffffffffffffffffffffffffffffffffff82169050919050565b6000819050919050565b6000614f0382614ebb565b9050919050565b82818337600083830152505050565b60005b83811015614f37578082015181840152602081019050614f1c565b83811115614f46576000848401525b50505050565b60006002820490506001821680614f6457607f821691505b60208210811415614f7857614f77615054565b5b50919050565b6000614f8982614eee565b91507fffffffffffffffffffffffffffffffffffffffffffffffffffffffffffffffff821415614fbc57614fbb614fc7565b5b600182019050919050565b7f4e487b7100000000000000000000000000000000000000000000000000000000600052601160045260246000fd5b7f4e487b7100000000000000000000000000000000000000000000000000000000600052601260045260246000fd5b7f4e487b7100000000000000000000000000000000000000000000000000000000600052602160045260246000fd5b7f4e487b7100000000000000000000000000000000000000000000000000000000600052602260045260246000fd5b7f4e487b7100000000000000000000000000000000000000000000000000000000600052604160045260246000fd5b6000601f19601f8301169050919050565b600581106150d4576150d3615025565b5b50565b6150e081614e9d565b81146150eb57600080fd5b50565b6150f781614eaf565b811461510257600080fd5b50565b6005811061511257600080fd5b50565b61511e81614eee565b811461512957600080fd5b5056fea26469706673582212200d9b147657cbacb96f7abb2af2636725073e306adce201f1ce0883e6afcee39e64736f6c63430008000033",
  "linkReferences": {},
  "deployedLinkReferences": {}
}